{
	"StaffAdvisor.sol": {
		"StaffAdvisor": {
			"abi": [
				{
					"inputs": [],
					"stateMutability": "nonpayable",
					"type": "constructor"
				},
				{
					"inputs": [
						{
							"internalType": "uint256",
							"name": "_rollNo",
							"type": "uint256"
						}
					],
					"name": "getStudentDetails",
					"outputs": [
						{
							"internalType": "uint256",
							"name": "",
							"type": "uint256"
						},
						{
							"internalType": "string",
							"name": "",
							"type": "string"
						},
						{
							"internalType": "uint256",
							"name": "",
							"type": "uint256"
						},
						{
							"internalType": "string",
							"name": "",
							"type": "string"
						},
						{
							"internalType": "uint256",
							"name": "",
							"type": "uint256"
						}
					],
					"stateMutability": "view",
					"type": "function"
				},
				{
					"inputs": [
						{
							"internalType": "uint256",
							"name": "_rollNo",
							"type": "uint256"
						},
						{
							"internalType": "string",
							"name": "_newName",
							"type": "string"
						}
					],
					"name": "setNewname",
					"outputs": [],
					"stateMutability": "nonpayable",
					"type": "function"
				},
				{
					"inputs": [
						{
							"internalType": "string",
							"name": "_name",
							"type": "string"
						},
						{
							"internalType": "uint256",
							"name": "_rollNo",
							"type": "uint256"
						},
						{
							"internalType": "string",
							"name": "_dept",
							"type": "string"
						},
						{
							"internalType": "uint256",
							"name": "_sem",
							"type": "uint256"
						},
						{
							"internalType": "uint256",
							"name": "_cgpa",
							"type": "uint256"
						}
					],
					"name": "setStudentDetails",
					"outputs": [],
					"stateMutability": "nonpayable",
					"type": "function"
				},
				{
					"inputs": [],
					"name": "staffadvisor",
					"outputs": [
						{
							"internalType": "address",
							"name": "",
							"type": "address"
						}
					],
					"stateMutability": "view",
					"type": "function"
				},
				{
					"inputs": [
						{
							"internalType": "uint256",
							"name": "",
							"type": "uint256"
						}
					],
					"name": "student",
					"outputs": [
						{
							"internalType": "string",
							"name": "name",
							"type": "string"
						},
						{
							"internalType": "uint256",
							"name": "rollNo",
							"type": "uint256"
						},
						{
							"internalType": "uint256",
							"name": "sem",
							"type": "uint256"
						},
						{
							"internalType": "string",
							"name": "dept",
							"type": "string"
						},
						{
							"internalType": "uint256",
							"name": "cgpa",
							"type": "uint256"
						}
					],
					"stateMutability": "view",
					"type": "function"
				},
				{
					"inputs": [],
					"name": "totalStudents",
					"outputs": [
						{
							"internalType": "uint256",
							"name": "",
							"type": "uint256"
						}
					],
					"stateMutability": "view",
					"type": "function"
				}
			],
			"devdoc": {
				"kind": "dev",
				"methods": {},
				"version": 1
			},
			"evm": {
				"assembly": "    /* \"StaffAdvisor.sol\":56:1549  contract StaffAdvisor{... */\n  mstore(0x40, 0x80)\n    /* \"StaffAdvisor.sol\":312:313  0 */\n  0x00\n    /* \"StaffAdvisor.sol\":293:313  uint studentCount =0 */\n  0x02\n  sstore\n    /* \"StaffAdvisor.sol\":320:376  constructor (){... */\n  callvalue\n  dup1\n  iszero\n  tag_1\n  jumpi\n  revert(0x00, 0x00)\ntag_1:\n  pop\n    /* \"StaffAdvisor.sol\":359:369  msg.sender */\n  caller\n    /* \"StaffAdvisor.sol\":344:356  staffadvisor */\n  0x00\n  0x00\n    /* \"StaffAdvisor.sol\":344:369  staffadvisor = msg.sender */\n  0x0100\n  exp\n  dup2\n  sload\n  dup2\n  0xffffffffffffffffffffffffffffffffffffffff\n  mul\n  not\n  and\n  swap1\n  dup4\n  0xffffffffffffffffffffffffffffffffffffffff\n  and\n  mul\n  or\n  swap1\n  sstore\n  pop\n    /* \"StaffAdvisor.sol\":56:1549  contract StaffAdvisor{... */\n  dataSize(sub_0)\n  dup1\n  dataOffset(sub_0)\n  0x00\n  codecopy\n  0x00\n  return\nstop\n\nsub_0: assembly {\n        /* \"StaffAdvisor.sol\":56:1549  contract StaffAdvisor{... */\n      mstore(0x40, 0x80)\n      callvalue\n      dup1\n      iszero\n      tag_1\n      jumpi\n      revert(0x00, 0x00)\n    tag_1:\n      pop\n      jumpi(tag_2, lt(calldatasize, 0x04))\n      shr(0xe0, calldataload(0x00))\n      dup1\n      0x35f34232\n      eq\n      tag_3\n      jumpi\n      dup1\n      0x4efc6330\n      eq\n      tag_4\n      jumpi\n      dup1\n      0x56460a5b\n      eq\n      tag_5\n      jumpi\n      dup1\n      0x86a9b364\n      eq\n      tag_6\n      jumpi\n      dup1\n      0x9852bf8e\n      eq\n      tag_7\n      jumpi\n      dup1\n      0xfe6674bf\n      eq\n      tag_8\n      jumpi\n    tag_2:\n      revert(0x00, 0x00)\n        /* \"StaffAdvisor.sol\":248:286  mapping (uint=>Student) public student */\n    tag_3:\n      tag_9\n      0x04\n      dup1\n      calldatasize\n      sub\n      dup2\n      add\n      swap1\n      tag_10\n      swap2\n      swap1\n      tag_11\n      jump\t// in\n    tag_10:\n      tag_12\n      jump\t// in\n    tag_9:\n      mload(0x40)\n      tag_13\n      swap6\n      swap5\n      swap4\n      swap3\n      swap2\n      swap1\n      tag_14\n      jump\t// in\n    tag_13:\n      mload(0x40)\n      dup1\n      swap2\n      sub\n      swap1\n      return\n        /* \"StaffAdvisor.sol\":1367:1546  function setNewname(uint _rollNo, string memory _newName) studentExist(_rollNo) public {... */\n    tag_4:\n      tag_15\n      0x04\n      dup1\n      calldatasize\n      sub\n      dup2\n      add\n      swap1\n      tag_16\n      swap2\n      swap1\n      tag_17\n      jump\t// in\n    tag_16:\n      tag_18\n      jump\t// in\n    tag_15:\n      stop\n        /* \"StaffAdvisor.sol\":710:1081  function setStudentDetails(string memory _name,uint _rollNo, string memory _dept, uint _sem, uint _cgpa) checkStaffAdvisor() public {... */\n    tag_5:\n      tag_19\n      0x04\n      dup1\n      calldatasize\n      sub\n      dup2\n      add\n      swap1\n      tag_20\n      swap2\n      swap1\n      tag_21\n      jump\t// in\n    tag_20:\n      tag_22\n      jump\t// in\n    tag_19:\n      stop\n        /* \"StaffAdvisor.sol\":1088:1361  function getStudentDetails(uint _rollNo) public view studentExist(_rollNo) returns (uint,string memory,uint,string memory, uint){... */\n    tag_6:\n      tag_23\n      0x04\n      dup1\n      calldatasize\n      sub\n      dup2\n      add\n      swap1\n      tag_24\n      swap2\n      swap1\n      tag_11\n      jump\t// in\n    tag_24:\n      tag_25\n      jump\t// in\n    tag_23:\n      mload(0x40)\n      tag_26\n      swap6\n      swap5\n      swap4\n      swap3\n      swap2\n      swap1\n      tag_27\n      jump\t// in\n    tag_26:\n      mload(0x40)\n      dup1\n      swap2\n      sub\n      swap1\n      return\n        /* \"StaffAdvisor.sol\":614:704  function totalStudents() public view returns(uint) {... */\n    tag_7:\n      tag_28\n      tag_29\n      jump\t// in\n    tag_28:\n      mload(0x40)\n      tag_30\n      swap2\n      swap1\n      tag_31\n      jump\t// in\n    tag_30:\n      mload(0x40)\n      dup1\n      swap2\n      sub\n      swap1\n      return\n        /* \"StaffAdvisor.sol\":214:241  address public staffadvisor */\n    tag_8:\n      tag_32\n      tag_33\n      jump\t// in\n    tag_32:\n      mload(0x40)\n      tag_34\n      swap2\n      swap1\n      tag_35\n      jump\t// in\n    tag_34:\n      mload(0x40)\n      dup1\n      swap2\n      sub\n      swap1\n      return\n        /* \"StaffAdvisor.sol\":248:286  mapping (uint=>Student) public student */\n    tag_12:\n      mstore(0x20, 0x01)\n      dup1\n      0x00\n      mstore\n      keccak256(0x00, 0x40)\n      0x00\n      swap2\n      pop\n      swap1\n      pop\n      dup1\n      0x00\n      add\n      dup1\n      sload\n      tag_36\n      swap1\n      tag_37\n      jump\t// in\n    tag_36:\n      dup1\n      0x1f\n      add\n      0x20\n      dup1\n      swap2\n      div\n      mul\n      0x20\n      add\n      mload(0x40)\n      swap1\n      dup2\n      add\n      0x40\n      mstore\n      dup1\n      swap3\n      swap2\n      swap1\n      dup2\n      dup2\n      mstore\n      0x20\n      add\n      dup3\n      dup1\n      sload\n      tag_38\n      swap1\n      tag_37\n      jump\t// in\n    tag_38:\n      dup1\n      iszero\n      tag_39\n      jumpi\n      dup1\n      0x1f\n      lt\n      tag_40\n      jumpi\n      0x0100\n      dup1\n      dup4\n      sload\n      div\n      mul\n      dup4\n      mstore\n      swap2\n      0x20\n      add\n      swap2\n      jump(tag_39)\n    tag_40:\n      dup3\n      add\n      swap2\n      swap1\n      0x00\n      mstore\n      keccak256(0x00, 0x20)\n      swap1\n    tag_41:\n      dup2\n      sload\n      dup2\n      mstore\n      swap1\n      0x01\n      add\n      swap1\n      0x20\n      add\n      dup1\n      dup4\n      gt\n      tag_41\n      jumpi\n      dup3\n      swap1\n      sub\n      0x1f\n      and\n      dup3\n      add\n      swap2\n    tag_39:\n      pop\n      pop\n      pop\n      pop\n      pop\n      swap1\n      dup1\n      0x01\n      add\n      sload\n      swap1\n      dup1\n      0x02\n      add\n      sload\n      swap1\n      dup1\n      0x03\n      add\n      dup1\n      sload\n      tag_42\n      swap1\n      tag_37\n      jump\t// in\n    tag_42:\n      dup1\n      0x1f\n      add\n      0x20\n      dup1\n      swap2\n      div\n      mul\n      0x20\n      add\n      mload(0x40)\n      swap1\n      dup2\n      add\n      0x40\n      mstore\n      dup1\n      swap3\n      swap2\n      swap1\n      dup2\n      dup2\n      mstore\n      0x20\n      add\n      dup3\n      dup1\n      sload\n      tag_43\n      swap1\n      tag_37\n      jump\t// in\n    tag_43:\n      dup1\n      iszero\n      tag_44\n      jumpi\n      dup1\n      0x1f\n      lt\n      tag_45\n      jumpi\n      0x0100\n      dup1\n      dup4\n      sload\n      div\n      mul\n      dup4\n      mstore\n      swap2\n      0x20\n      add\n      swap2\n      jump(tag_44)\n    tag_45:\n      dup3\n      add\n      swap2\n      swap1\n      0x00\n      mstore\n      keccak256(0x00, 0x20)\n      swap1\n    tag_46:\n      dup2\n      sload\n      dup2\n      mstore\n      swap1\n      0x01\n      add\n      swap1\n      0x20\n      add\n      dup1\n      dup4\n      gt\n      tag_46\n      jumpi\n      dup3\n      swap1\n      sub\n      0x1f\n      and\n      dup3\n      add\n      swap2\n    tag_44:\n      pop\n      pop\n      pop\n      pop\n      pop\n      swap1\n      dup1\n      0x04\n      add\n      sload\n      swap1\n      pop\n      dup6\n      jump\t// out\n        /* \"StaffAdvisor.sol\":1367:1546  function setNewname(uint _rollNo, string memory _newName) studentExist(_rollNo) public {... */\n    tag_18:\n        /* \"StaffAdvisor.sol\":1438:1445  _rollNo */\n      dup2\n        /* \"StaffAdvisor.sol\":558:565  _rollNo */\n      dup1\n        /* \"StaffAdvisor.sol\":531:538  student */\n      0x01\n        /* \"StaffAdvisor.sol\":531:547  student[_rollNo] */\n      0x00\n        /* \"StaffAdvisor.sol\":539:546  _rollNo */\n      dup4\n        /* \"StaffAdvisor.sol\":531:547  student[_rollNo] */\n      dup2\n      mstore\n      0x20\n      add\n      swap1\n      dup2\n      mstore\n      0x20\n      add\n      0x00\n      keccak256\n        /* \"StaffAdvisor.sol\":531:554  student[_rollNo].rollNo */\n      0x01\n      add\n      sload\n        /* \"StaffAdvisor.sol\":531:565  student[_rollNo].rollNo == _rollNo */\n      eq\n        /* \"StaffAdvisor.sol\":522:590  require((student[_rollNo].rollNo == _rollNo), \"Student not present\") */\n      tag_48\n      jumpi\n      mload(0x40)\n      0x08c379a000000000000000000000000000000000000000000000000000000000\n      dup2\n      mstore\n      0x04\n      add\n      tag_49\n      swap1\n      tag_50\n      jump\t// in\n    tag_49:\n      mload(0x40)\n      dup1\n      swap2\n      sub\n      swap1\n      revert\n    tag_48:\n        /* \"StaffAdvisor.sol\":1490:1497  _rollNo */\n      dup3\n        /* \"StaffAdvisor.sol\":1464:1471  student */\n      0x01\n        /* \"StaffAdvisor.sol\":1464:1480  student[_rollNo] */\n      0x00\n        /* \"StaffAdvisor.sol\":1472:1479  _rollNo */\n      dup6\n        /* \"StaffAdvisor.sol\":1464:1480  student[_rollNo] */\n      dup2\n      mstore\n      0x20\n      add\n      swap1\n      dup2\n      mstore\n      0x20\n      add\n      0x00\n      keccak256\n        /* \"StaffAdvisor.sol\":1464:1487  student[_rollNo].rollNo */\n      0x01\n      add\n        /* \"StaffAdvisor.sol\":1464:1497  student[_rollNo].rollNo = _rollNo */\n      dup2\n      swap1\n      sstore\n      pop\n        /* \"StaffAdvisor.sol\":1531:1539  _newName */\n      dup2\n        /* \"StaffAdvisor.sol\":1507:1514  student */\n      0x01\n        /* \"StaffAdvisor.sol\":1507:1523  student[_rollNo] */\n      0x00\n        /* \"StaffAdvisor.sol\":1515:1522  _rollNo */\n      dup6\n        /* \"StaffAdvisor.sol\":1507:1523  student[_rollNo] */\n      dup2\n      mstore\n      0x20\n      add\n      swap1\n      dup2\n      mstore\n      0x20\n      add\n      0x00\n      keccak256\n        /* \"StaffAdvisor.sol\":1507:1528  student[_rollNo].name */\n      0x00\n      add\n        /* \"StaffAdvisor.sol\":1507:1539  student[_rollNo].name = _newName */\n      swap1\n      dup2\n      tag_52\n      swap2\n      swap1\n      tag_53\n      jump\t// in\n    tag_52:\n      pop\n        /* \"StaffAdvisor.sol\":1367:1546  function setNewname(uint _rollNo, string memory _newName) studentExist(_rollNo) public {... */\n      pop\n      pop\n      pop\n      jump\t// out\n        /* \"StaffAdvisor.sol\":710:1081  function setStudentDetails(string memory _name,uint _rollNo, string memory _dept, uint _sem, uint _cgpa) checkStaffAdvisor() public {... */\n    tag_22:\n        /* \"StaffAdvisor.sol\":440:452  staffadvisor */\n      0x00\n      0x00\n      swap1\n      sload\n      swap1\n      0x0100\n      exp\n      swap1\n      div\n      0xffffffffffffffffffffffffffffffffffffffff\n      and\n        /* \"StaffAdvisor.sol\":428:452  msg.sender==staffadvisor */\n      0xffffffffffffffffffffffffffffffffffffffff\n      and\n        /* \"StaffAdvisor.sol\":428:438  msg.sender */\n      caller\n        /* \"StaffAdvisor.sol\":428:452  msg.sender==staffadvisor */\n      0xffffffffffffffffffffffffffffffffffffffff\n      and\n      eq\n        /* \"StaffAdvisor.sol\":420:453  require(msg.sender==staffadvisor) */\n      tag_55\n      jumpi\n      revert(0x00, 0x00)\n    tag_55:\n        /* \"StaffAdvisor.sol\":878:885  _rollNo */\n      dup4\n        /* \"StaffAdvisor.sol\":852:859  student */\n      0x01\n        /* \"StaffAdvisor.sol\":852:868  student[_rollNo] */\n      0x00\n        /* \"StaffAdvisor.sol\":860:867  _rollNo */\n      dup7\n        /* \"StaffAdvisor.sol\":852:868  student[_rollNo] */\n      dup2\n      mstore\n      0x20\n      add\n      swap1\n      dup2\n      mstore\n      0x20\n      add\n      0x00\n      keccak256\n        /* \"StaffAdvisor.sol\":852:875  student[_rollNo].rollNo */\n      0x01\n      add\n        /* \"StaffAdvisor.sol\":852:885  student[_rollNo].rollNo = _rollNo */\n      dup2\n      swap1\n      sstore\n      pop\n        /* \"StaffAdvisor.sol\":919:924  _name */\n      dup5\n        /* \"StaffAdvisor.sol\":895:902  student */\n      0x01\n        /* \"StaffAdvisor.sol\":895:911  student[_rollNo] */\n      0x00\n        /* \"StaffAdvisor.sol\":903:910  _rollNo */\n      dup7\n        /* \"StaffAdvisor.sol\":895:911  student[_rollNo] */\n      dup2\n      mstore\n      0x20\n      add\n      swap1\n      dup2\n      mstore\n      0x20\n      add\n      0x00\n      keccak256\n        /* \"StaffAdvisor.sol\":895:916  student[_rollNo].name */\n      0x00\n      add\n        /* \"StaffAdvisor.sol\":895:924  student[_rollNo].name = _name */\n      swap1\n      dup2\n      tag_57\n      swap2\n      swap1\n      tag_53\n      jump\t// in\n    tag_57:\n      pop\n        /* \"StaffAdvisor.sol\":957:961  _sem */\n      dup2\n        /* \"StaffAdvisor.sol\":934:941  student */\n      0x01\n        /* \"StaffAdvisor.sol\":934:950  student[_rollNo] */\n      0x00\n        /* \"StaffAdvisor.sol\":942:949  _rollNo */\n      dup7\n        /* \"StaffAdvisor.sol\":934:950  student[_rollNo] */\n      dup2\n      mstore\n      0x20\n      add\n      swap1\n      dup2\n      mstore\n      0x20\n      add\n      0x00\n      keccak256\n        /* \"StaffAdvisor.sol\":934:954  student[_rollNo].sem */\n      0x02\n      add\n        /* \"StaffAdvisor.sol\":934:961  student[_rollNo].sem = _sem */\n      dup2\n      swap1\n      sstore\n      pop\n        /* \"StaffAdvisor.sol\":995:1000  _dept */\n      dup3\n        /* \"StaffAdvisor.sol\":971:978  student */\n      0x01\n        /* \"StaffAdvisor.sol\":971:987  student[_rollNo] */\n      0x00\n        /* \"StaffAdvisor.sol\":979:986  _rollNo */\n      dup7\n        /* \"StaffAdvisor.sol\":971:987  student[_rollNo] */\n      dup2\n      mstore\n      0x20\n      add\n      swap1\n      dup2\n      mstore\n      0x20\n      add\n      0x00\n      keccak256\n        /* \"StaffAdvisor.sol\":971:992  student[_rollNo].dept */\n      0x03\n      add\n        /* \"StaffAdvisor.sol\":971:1000  student[_rollNo].dept = _dept */\n      swap1\n      dup2\n      tag_58\n      swap2\n      swap1\n      tag_53\n      jump\t// in\n    tag_58:\n      pop\n        /* \"StaffAdvisor.sol\":1034:1039  _cgpa */\n      dup1\n        /* \"StaffAdvisor.sol\":1010:1017  student */\n      0x01\n        /* \"StaffAdvisor.sol\":1010:1026  student[_rollNo] */\n      0x00\n        /* \"StaffAdvisor.sol\":1018:1025  _rollNo */\n      dup7\n        /* \"StaffAdvisor.sol\":1010:1026  student[_rollNo] */\n      dup2\n      mstore\n      0x20\n      add\n      swap1\n      dup2\n      mstore\n      0x20\n      add\n      0x00\n      keccak256\n        /* \"StaffAdvisor.sol\":1010:1031  student[_rollNo].cgpa */\n      0x04\n      add\n        /* \"StaffAdvisor.sol\":1010:1039  student[_rollNo].cgpa = _cgpa */\n      dup2\n      swap1\n      sstore\n      pop\n        /* \"StaffAdvisor.sol\":1064:1065  1 */\n      0x01\n        /* \"StaffAdvisor.sol\":1050:1062  studentCount */\n      0x02\n      0x00\n        /* \"StaffAdvisor.sol\":1050:1065  studentCount+=1 */\n      dup3\n      dup3\n      sload\n      tag_59\n      swap2\n      swap1\n      tag_60\n      jump\t// in\n    tag_59:\n      swap3\n      pop\n      pop\n      dup2\n      swap1\n      sstore\n      pop\n        /* \"StaffAdvisor.sol\":710:1081  function setStudentDetails(string memory _name,uint _rollNo, string memory _dept, uint _sem, uint _cgpa) checkStaffAdvisor() public {... */\n      pop\n      pop\n      pop\n      pop\n      pop\n      jump\t// out\n        /* \"StaffAdvisor.sol\":1088:1361  function getStudentDetails(uint _rollNo) public view studentExist(_rollNo) returns (uint,string memory,uint,string memory, uint){... */\n    tag_25:\n        /* \"StaffAdvisor.sol\":1172:1176  uint */\n      0x00\n        /* \"StaffAdvisor.sol\":1177:1190  string memory */\n      0x60\n        /* \"StaffAdvisor.sol\":1191:1195  uint */\n      0x00\n        /* \"StaffAdvisor.sol\":1196:1209  string memory */\n      0x60\n        /* \"StaffAdvisor.sol\":1211:1215  uint */\n      0x00\n        /* \"StaffAdvisor.sol\":1154:1161  _rollNo */\n      dup6\n        /* \"StaffAdvisor.sol\":558:565  _rollNo */\n      dup1\n        /* \"StaffAdvisor.sol\":531:538  student */\n      0x01\n        /* \"StaffAdvisor.sol\":531:547  student[_rollNo] */\n      0x00\n        /* \"StaffAdvisor.sol\":539:546  _rollNo */\n      dup4\n        /* \"StaffAdvisor.sol\":531:547  student[_rollNo] */\n      dup2\n      mstore\n      0x20\n      add\n      swap1\n      dup2\n      mstore\n      0x20\n      add\n      0x00\n      keccak256\n        /* \"StaffAdvisor.sol\":531:554  student[_rollNo].rollNo */\n      0x01\n      add\n      sload\n        /* \"StaffAdvisor.sol\":531:565  student[_rollNo].rollNo == _rollNo */\n      eq\n        /* \"StaffAdvisor.sol\":522:590  require((student[_rollNo].rollNo == _rollNo), \"Student not present\") */\n      tag_62\n      jumpi\n      mload(0x40)\n      0x08c379a000000000000000000000000000000000000000000000000000000000\n      dup2\n      mstore\n      0x04\n      add\n      tag_63\n      swap1\n      tag_50\n      jump\t// in\n    tag_63:\n      mload(0x40)\n      dup1\n      swap2\n      sub\n      swap1\n      revert\n    tag_62:\n        /* \"StaffAdvisor.sol\":1243:1250  student */\n      0x01\n        /* \"StaffAdvisor.sol\":1243:1259  student[_rollNo] */\n      0x00\n        /* \"StaffAdvisor.sol\":1251:1258  _rollNo */\n      dup9\n        /* \"StaffAdvisor.sol\":1243:1259  student[_rollNo] */\n      dup2\n      mstore\n      0x20\n      add\n      swap1\n      dup2\n      mstore\n      0x20\n      add\n      0x00\n      keccak256\n        /* \"StaffAdvisor.sol\":1243:1266  student[_rollNo].rollNo */\n      0x01\n      add\n      sload\n        /* \"StaffAdvisor.sol\":1267:1274  student */\n      0x01\n        /* \"StaffAdvisor.sol\":1267:1283  student[_rollNo] */\n      0x00\n        /* \"StaffAdvisor.sol\":1275:1282  _rollNo */\n      dup10\n        /* \"StaffAdvisor.sol\":1267:1283  student[_rollNo] */\n      dup2\n      mstore\n      0x20\n      add\n      swap1\n      dup2\n      mstore\n      0x20\n      add\n      0x00\n      keccak256\n        /* \"StaffAdvisor.sol\":1267:1288  student[_rollNo].name */\n      0x00\n      add\n        /* \"StaffAdvisor.sol\":1289:1296  student */\n      0x01\n        /* \"StaffAdvisor.sol\":1289:1305  student[_rollNo] */\n      0x00\n        /* \"StaffAdvisor.sol\":1297:1304  _rollNo */\n      dup11\n        /* \"StaffAdvisor.sol\":1289:1305  student[_rollNo] */\n      dup2\n      mstore\n      0x20\n      add\n      swap1\n      dup2\n      mstore\n      0x20\n      add\n      0x00\n      keccak256\n        /* \"StaffAdvisor.sol\":1289:1309  student[_rollNo].sem */\n      0x02\n      add\n      sload\n        /* \"StaffAdvisor.sol\":1310:1317  student */\n      0x01\n        /* \"StaffAdvisor.sol\":1310:1326  student[_rollNo] */\n      0x00\n        /* \"StaffAdvisor.sol\":1318:1325  _rollNo */\n      dup12\n        /* \"StaffAdvisor.sol\":1310:1326  student[_rollNo] */\n      dup2\n      mstore\n      0x20\n      add\n      swap1\n      dup2\n      mstore\n      0x20\n      add\n      0x00\n      keccak256\n        /* \"StaffAdvisor.sol\":1310:1331  student[_rollNo].dept */\n      0x03\n      add\n        /* \"StaffAdvisor.sol\":1332:1339  student */\n      0x01\n        /* \"StaffAdvisor.sol\":1332:1348  student[_rollNo] */\n      0x00\n        /* \"StaffAdvisor.sol\":1340:1347  _rollNo */\n      dup13\n        /* \"StaffAdvisor.sol\":1332:1348  student[_rollNo] */\n      dup2\n      mstore\n      0x20\n      add\n      swap1\n      dup2\n      mstore\n      0x20\n      add\n      0x00\n      keccak256\n        /* \"StaffAdvisor.sol\":1332:1353  student[_rollNo].cgpa */\n      0x04\n      add\n      sload\n        /* \"StaffAdvisor.sol\":1235:1354  return (student[_rollNo].rollNo,student[_rollNo].name,student[_rollNo].sem,student[_rollNo].dept,student[_rollNo].cgpa) */\n      dup4\n      dup1\n      sload\n      tag_65\n      swap1\n      tag_37\n      jump\t// in\n    tag_65:\n      dup1\n      0x1f\n      add\n      0x20\n      dup1\n      swap2\n      div\n      mul\n      0x20\n      add\n      mload(0x40)\n      swap1\n      dup2\n      add\n      0x40\n      mstore\n      dup1\n      swap3\n      swap2\n      swap1\n      dup2\n      dup2\n      mstore\n      0x20\n      add\n      dup3\n      dup1\n      sload\n      tag_66\n      swap1\n      tag_37\n      jump\t// in\n    tag_66:\n      dup1\n      iszero\n      tag_67\n      jumpi\n      dup1\n      0x1f\n      lt\n      tag_68\n      jumpi\n      0x0100\n      dup1\n      dup4\n      sload\n      div\n      mul\n      dup4\n      mstore\n      swap2\n      0x20\n      add\n      swap2\n      jump(tag_67)\n    tag_68:\n      dup3\n      add\n      swap2\n      swap1\n      0x00\n      mstore\n      keccak256(0x00, 0x20)\n      swap1\n    tag_69:\n      dup2\n      sload\n      dup2\n      mstore\n      swap1\n      0x01\n      add\n      swap1\n      0x20\n      add\n      dup1\n      dup4\n      gt\n      tag_69\n      jumpi\n      dup3\n      swap1\n      sub\n      0x1f\n      and\n      dup3\n      add\n      swap2\n    tag_67:\n      pop\n      pop\n      pop\n      pop\n      pop\n      swap4\n      pop\n      dup2\n      dup1\n      sload\n      tag_70\n      swap1\n      tag_37\n      jump\t// in\n    tag_70:\n      dup1\n      0x1f\n      add\n      0x20\n      dup1\n      swap2\n      div\n      mul\n      0x20\n      add\n      mload(0x40)\n      swap1\n      dup2\n      add\n      0x40\n      mstore\n      dup1\n      swap3\n      swap2\n      swap1\n      dup2\n      dup2\n      mstore\n      0x20\n      add\n      dup3\n      dup1\n      sload\n      tag_71\n      swap1\n      tag_37\n      jump\t// in\n    tag_71:\n      dup1\n      iszero\n      tag_72\n      jumpi\n      dup1\n      0x1f\n      lt\n      tag_73\n      jumpi\n      0x0100\n      dup1\n      dup4\n      sload\n      div\n      mul\n      dup4\n      mstore\n      swap2\n      0x20\n      add\n      swap2\n      jump(tag_72)\n    tag_73:\n      dup3\n      add\n      swap2\n      swap1\n      0x00\n      mstore\n      keccak256(0x00, 0x20)\n      swap1\n    tag_74:\n      dup2\n      sload\n      dup2\n      mstore\n      swap1\n      0x01\n      add\n      swap1\n      0x20\n      add\n      dup1\n      dup4\n      gt\n      tag_74\n      jumpi\n      dup3\n      swap1\n      sub\n      0x1f\n      and\n      dup3\n      add\n      swap2\n    tag_72:\n      pop\n      pop\n      pop\n      pop\n      pop\n      swap2\n      pop\n      swap6\n      pop\n      swap6\n      pop\n      swap6\n      pop\n      swap6\n      pop\n      swap6\n      pop\n        /* \"StaffAdvisor.sol\":1088:1361  function getStudentDetails(uint _rollNo) public view studentExist(_rollNo) returns (uint,string memory,uint,string memory, uint){... */\n      pop\n      swap2\n      swap4\n      swap6\n      swap1\n      swap3\n      swap5\n      pop\n      jump\t// out\n        /* \"StaffAdvisor.sol\":614:704  function totalStudents() public view returns(uint) {... */\n    tag_29:\n        /* \"StaffAdvisor.sol\":659:663  uint */\n      0x00\n        /* \"StaffAdvisor.sol\":683:695  studentCount */\n      sload(0x02)\n        /* \"StaffAdvisor.sol\":675:696  return (studentCount) */\n      swap1\n      pop\n        /* \"StaffAdvisor.sol\":614:704  function totalStudents() public view returns(uint) {... */\n      swap1\n      jump\t// out\n        /* \"StaffAdvisor.sol\":214:241  address public staffadvisor */\n    tag_33:\n      0x00\n      0x00\n      swap1\n      sload\n      swap1\n      0x0100\n      exp\n      swap1\n      div\n      0xffffffffffffffffffffffffffffffffffffffff\n      and\n      dup2\n      jump\t// out\n        /* \"#utility.yul\":7:82   */\n    tag_76:\n        /* \"#utility.yul\":40:46   */\n      0x00\n        /* \"#utility.yul\":73:75   */\n      0x40\n        /* \"#utility.yul\":67:76   */\n      mload\n        /* \"#utility.yul\":57:76   */\n      swap1\n      pop\n        /* \"#utility.yul\":7:82   */\n      swap1\n      jump\t// out\n        /* \"#utility.yul\":88:205   */\n    tag_77:\n        /* \"#utility.yul\":197:198   */\n      0x00\n        /* \"#utility.yul\":194:195   */\n      0x00\n        /* \"#utility.yul\":187:199   */\n      revert\n        /* \"#utility.yul\":211:328   */\n    tag_78:\n        /* \"#utility.yul\":320:321   */\n      0x00\n        /* \"#utility.yul\":317:318   */\n      0x00\n        /* \"#utility.yul\":310:322   */\n      revert\n        /* \"#utility.yul\":334:411   */\n    tag_79:\n        /* \"#utility.yul\":371:378   */\n      0x00\n        /* \"#utility.yul\":400:405   */\n      dup2\n        /* \"#utility.yul\":389:405   */\n      swap1\n      pop\n        /* \"#utility.yul\":334:411   */\n      swap2\n      swap1\n      pop\n      jump\t// out\n        /* \"#utility.yul\":417:539   */\n    tag_80:\n        /* \"#utility.yul\":490:514   */\n      tag_125\n        /* \"#utility.yul\":508:513   */\n      dup2\n        /* \"#utility.yul\":490:514   */\n      tag_79\n      jump\t// in\n    tag_125:\n        /* \"#utility.yul\":483:488   */\n      dup2\n        /* \"#utility.yul\":480:515   */\n      eq\n        /* \"#utility.yul\":470:533   */\n      tag_126\n      jumpi\n        /* \"#utility.yul\":529:530   */\n      0x00\n        /* \"#utility.yul\":526:527   */\n      0x00\n        /* \"#utility.yul\":519:531   */\n      revert\n        /* \"#utility.yul\":470:533   */\n    tag_126:\n        /* \"#utility.yul\":417:539   */\n      pop\n      jump\t// out\n        /* \"#utility.yul\":545:684   */\n    tag_81:\n        /* \"#utility.yul\":591:596   */\n      0x00\n        /* \"#utility.yul\":629:635   */\n      dup2\n        /* \"#utility.yul\":616:636   */\n      calldataload\n        /* \"#utility.yul\":607:636   */\n      swap1\n      pop\n        /* \"#utility.yul\":645:678   */\n      tag_128\n        /* \"#utility.yul\":672:677   */\n      dup2\n        /* \"#utility.yul\":645:678   */\n      tag_80\n      jump\t// in\n    tag_128:\n        /* \"#utility.yul\":545:684   */\n      swap3\n      swap2\n      pop\n      pop\n      jump\t// out\n        /* \"#utility.yul\":690:1019   */\n    tag_11:\n        /* \"#utility.yul\":749:755   */\n      0x00\n        /* \"#utility.yul\":798:800   */\n      0x20\n        /* \"#utility.yul\":786:795   */\n      dup3\n        /* \"#utility.yul\":777:784   */\n      dup5\n        /* \"#utility.yul\":773:796   */\n      sub\n        /* \"#utility.yul\":769:801   */\n      slt\n        /* \"#utility.yul\":766:885   */\n      iszero\n      tag_130\n      jumpi\n        /* \"#utility.yul\":804:883   */\n      tag_131\n      tag_77\n      jump\t// in\n    tag_131:\n        /* \"#utility.yul\":766:885   */\n    tag_130:\n        /* \"#utility.yul\":924:925   */\n      0x00\n        /* \"#utility.yul\":949:1002   */\n      tag_132\n        /* \"#utility.yul\":994:1001   */\n      dup5\n        /* \"#utility.yul\":985:991   */\n      dup3\n        /* \"#utility.yul\":974:983   */\n      dup6\n        /* \"#utility.yul\":970:992   */\n      add\n        /* \"#utility.yul\":949:1002   */\n      tag_81\n      jump\t// in\n    tag_132:\n        /* \"#utility.yul\":939:1002   */\n      swap2\n      pop\n        /* \"#utility.yul\":895:1012   */\n      pop\n        /* \"#utility.yul\":690:1019   */\n      swap3\n      swap2\n      pop\n      pop\n      jump\t// out\n        /* \"#utility.yul\":1025:1124   */\n    tag_82:\n        /* \"#utility.yul\":1077:1083   */\n      0x00\n        /* \"#utility.yul\":1111:1116   */\n      dup2\n        /* \"#utility.yul\":1105:1117   */\n      mload\n        /* \"#utility.yul\":1095:1117   */\n      swap1\n      pop\n        /* \"#utility.yul\":1025:1124   */\n      swap2\n      swap1\n      pop\n      jump\t// out\n        /* \"#utility.yul\":1130:1299   */\n    tag_83:\n        /* \"#utility.yul\":1214:1225   */\n      0x00\n        /* \"#utility.yul\":1248:1254   */\n      dup3\n        /* \"#utility.yul\":1243:1246   */\n      dup3\n        /* \"#utility.yul\":1236:1255   */\n      mstore\n        /* \"#utility.yul\":1288:1292   */\n      0x20\n        /* \"#utility.yul\":1283:1286   */\n      dup3\n        /* \"#utility.yul\":1279:1293   */\n      add\n        /* \"#utility.yul\":1264:1293   */\n      swap1\n      pop\n        /* \"#utility.yul\":1130:1299   */\n      swap3\n      swap2\n      pop\n      pop\n      jump\t// out\n        /* \"#utility.yul\":1305:1444   */\n    tag_84:\n        /* \"#utility.yul\":1394:1400   */\n      dup3\n        /* \"#utility.yul\":1389:1392   */\n      dup2\n        /* \"#utility.yul\":1384:1387   */\n      dup4\n        /* \"#utility.yul\":1378:1401   */\n      mcopy\n        /* \"#utility.yul\":1435:1436   */\n      0x00\n        /* \"#utility.yul\":1426:1432   */\n      dup4\n        /* \"#utility.yul\":1421:1424   */\n      dup4\n        /* \"#utility.yul\":1417:1433   */\n      add\n        /* \"#utility.yul\":1410:1437   */\n      mstore\n        /* \"#utility.yul\":1305:1444   */\n      pop\n      pop\n      pop\n      jump\t// out\n        /* \"#utility.yul\":1450:1552   */\n    tag_85:\n        /* \"#utility.yul\":1491:1497   */\n      0x00\n        /* \"#utility.yul\":1542:1544   */\n      0x1f\n        /* \"#utility.yul\":1538:1545   */\n      not\n        /* \"#utility.yul\":1533:1535   */\n      0x1f\n        /* \"#utility.yul\":1526:1531   */\n      dup4\n        /* \"#utility.yul\":1522:1536   */\n      add\n        /* \"#utility.yul\":1518:1546   */\n      and\n        /* \"#utility.yul\":1508:1546   */\n      swap1\n      pop\n        /* \"#utility.yul\":1450:1552   */\n      swap2\n      swap1\n      pop\n      jump\t// out\n        /* \"#utility.yul\":1558:1935   */\n    tag_86:\n        /* \"#utility.yul\":1646:1649   */\n      0x00\n        /* \"#utility.yul\":1674:1713   */\n      tag_138\n        /* \"#utility.yul\":1707:1712   */\n      dup3\n        /* \"#utility.yul\":1674:1713   */\n      tag_82\n      jump\t// in\n    tag_138:\n        /* \"#utility.yul\":1729:1800   */\n      tag_139\n        /* \"#utility.yul\":1793:1799   */\n      dup2\n        /* \"#utility.yul\":1788:1791   */\n      dup6\n        /* \"#utility.yul\":1729:1800   */\n      tag_83\n      jump\t// in\n    tag_139:\n        /* \"#utility.yul\":1722:1800   */\n      swap4\n      pop\n        /* \"#utility.yul\":1809:1874   */\n      tag_140\n        /* \"#utility.yul\":1867:1873   */\n      dup2\n        /* \"#utility.yul\":1862:1865   */\n      dup6\n        /* \"#utility.yul\":1855:1859   */\n      0x20\n        /* \"#utility.yul\":1848:1853   */\n      dup7\n        /* \"#utility.yul\":1844:1860   */\n      add\n        /* \"#utility.yul\":1809:1874   */\n      tag_84\n      jump\t// in\n    tag_140:\n        /* \"#utility.yul\":1899:1928   */\n      tag_141\n        /* \"#utility.yul\":1921:1927   */\n      dup2\n        /* \"#utility.yul\":1899:1928   */\n      tag_85\n      jump\t// in\n    tag_141:\n        /* \"#utility.yul\":1894:1897   */\n      dup5\n        /* \"#utility.yul\":1890:1929   */\n      add\n        /* \"#utility.yul\":1883:1929   */\n      swap2\n      pop\n        /* \"#utility.yul\":1650:1935   */\n      pop\n        /* \"#utility.yul\":1558:1935   */\n      swap3\n      swap2\n      pop\n      pop\n      jump\t// out\n        /* \"#utility.yul\":1941:2059   */\n    tag_87:\n        /* \"#utility.yul\":2028:2052   */\n      tag_143\n        /* \"#utility.yul\":2046:2051   */\n      dup2\n        /* \"#utility.yul\":2028:2052   */\n      tag_79\n      jump\t// in\n    tag_143:\n        /* \"#utility.yul\":2023:2026   */\n      dup3\n        /* \"#utility.yul\":2016:2053   */\n      mstore\n        /* \"#utility.yul\":1941:2059   */\n      pop\n      pop\n      jump\t// out\n        /* \"#utility.yul\":2065:2911   */\n    tag_14:\n        /* \"#utility.yul\":2310:2314   */\n      0x00\n        /* \"#utility.yul\":2348:2351   */\n      0xa0\n        /* \"#utility.yul\":2337:2346   */\n      dup3\n        /* \"#utility.yul\":2333:2352   */\n      add\n        /* \"#utility.yul\":2325:2352   */\n      swap1\n      pop\n        /* \"#utility.yul\":2398:2407   */\n      dup2\n        /* \"#utility.yul\":2392:2396   */\n      dup2\n        /* \"#utility.yul\":2388:2408   */\n      sub\n        /* \"#utility.yul\":2384:2385   */\n      0x00\n        /* \"#utility.yul\":2373:2382   */\n      dup4\n        /* \"#utility.yul\":2369:2386   */\n      add\n        /* \"#utility.yul\":2362:2409   */\n      mstore\n        /* \"#utility.yul\":2426:2504   */\n      tag_145\n        /* \"#utility.yul\":2499:2503   */\n      dup2\n        /* \"#utility.yul\":2490:2496   */\n      dup9\n        /* \"#utility.yul\":2426:2504   */\n      tag_86\n      jump\t// in\n    tag_145:\n        /* \"#utility.yul\":2418:2504   */\n      swap1\n      pop\n        /* \"#utility.yul\":2514:2586   */\n      tag_146\n        /* \"#utility.yul\":2582:2584   */\n      0x20\n        /* \"#utility.yul\":2571:2580   */\n      dup4\n        /* \"#utility.yul\":2567:2585   */\n      add\n        /* \"#utility.yul\":2558:2564   */\n      dup8\n        /* \"#utility.yul\":2514:2586   */\n      tag_87\n      jump\t// in\n    tag_146:\n        /* \"#utility.yul\":2596:2668   */\n      tag_147\n        /* \"#utility.yul\":2664:2666   */\n      0x40\n        /* \"#utility.yul\":2653:2662   */\n      dup4\n        /* \"#utility.yul\":2649:2667   */\n      add\n        /* \"#utility.yul\":2640:2646   */\n      dup7\n        /* \"#utility.yul\":2596:2668   */\n      tag_87\n      jump\t// in\n    tag_147:\n        /* \"#utility.yul\":2715:2724   */\n      dup2\n        /* \"#utility.yul\":2709:2713   */\n      dup2\n        /* \"#utility.yul\":2705:2725   */\n      sub\n        /* \"#utility.yul\":2700:2702   */\n      0x60\n        /* \"#utility.yul\":2689:2698   */\n      dup4\n        /* \"#utility.yul\":2685:2703   */\n      add\n        /* \"#utility.yul\":2678:2726   */\n      mstore\n        /* \"#utility.yul\":2743:2821   */\n      tag_148\n        /* \"#utility.yul\":2816:2820   */\n      dup2\n        /* \"#utility.yul\":2807:2813   */\n      dup6\n        /* \"#utility.yul\":2743:2821   */\n      tag_86\n      jump\t// in\n    tag_148:\n        /* \"#utility.yul\":2735:2821   */\n      swap1\n      pop\n        /* \"#utility.yul\":2831:2904   */\n      tag_149\n        /* \"#utility.yul\":2899:2902   */\n      0x80\n        /* \"#utility.yul\":2888:2897   */\n      dup4\n        /* \"#utility.yul\":2884:2903   */\n      add\n        /* \"#utility.yul\":2875:2881   */\n      dup5\n        /* \"#utility.yul\":2831:2904   */\n      tag_87\n      jump\t// in\n    tag_149:\n        /* \"#utility.yul\":2065:2911   */\n      swap7\n      swap6\n      pop\n      pop\n      pop\n      pop\n      pop\n      pop\n      jump\t// out\n        /* \"#utility.yul\":2917:3034   */\n    tag_88:\n        /* \"#utility.yul\":3026:3027   */\n      0x00\n        /* \"#utility.yul\":3023:3024   */\n      0x00\n        /* \"#utility.yul\":3016:3028   */\n      revert\n        /* \"#utility.yul\":3040:3157   */\n    tag_89:\n        /* \"#utility.yul\":3149:3150   */\n      0x00\n        /* \"#utility.yul\":3146:3147   */\n      0x00\n        /* \"#utility.yul\":3139:3151   */\n      revert\n        /* \"#utility.yul\":3163:3343   */\n    tag_90:\n        /* \"#utility.yul\":3211:3288   */\n      0x4e487b7100000000000000000000000000000000000000000000000000000000\n        /* \"#utility.yul\":3208:3209   */\n      0x00\n        /* \"#utility.yul\":3201:3289   */\n      mstore\n        /* \"#utility.yul\":3308:3312   */\n      0x41\n        /* \"#utility.yul\":3305:3306   */\n      0x04\n        /* \"#utility.yul\":3298:3313   */\n      mstore\n        /* \"#utility.yul\":3332:3336   */\n      0x24\n        /* \"#utility.yul\":3329:3330   */\n      0x00\n        /* \"#utility.yul\":3322:3337   */\n      revert\n        /* \"#utility.yul\":3349:3630   */\n    tag_91:\n        /* \"#utility.yul\":3432:3459   */\n      tag_154\n        /* \"#utility.yul\":3454:3458   */\n      dup3\n        /* \"#utility.yul\":3432:3459   */\n      tag_85\n      jump\t// in\n    tag_154:\n        /* \"#utility.yul\":3424:3430   */\n      dup2\n        /* \"#utility.yul\":3420:3460   */\n      add\n        /* \"#utility.yul\":3562:3568   */\n      dup2\n        /* \"#utility.yul\":3550:3560   */\n      dup2\n        /* \"#utility.yul\":3547:3569   */\n      lt\n        /* \"#utility.yul\":3526:3544   */\n      0xffffffffffffffff\n        /* \"#utility.yul\":3514:3524   */\n      dup3\n        /* \"#utility.yul\":3511:3545   */\n      gt\n        /* \"#utility.yul\":3508:3570   */\n      or\n        /* \"#utility.yul\":3505:3593   */\n      iszero\n      tag_155\n      jumpi\n        /* \"#utility.yul\":3573:3591   */\n      tag_156\n      tag_90\n      jump\t// in\n    tag_156:\n        /* \"#utility.yul\":3505:3593   */\n    tag_155:\n        /* \"#utility.yul\":3613:3623   */\n      dup1\n        /* \"#utility.yul\":3609:3611   */\n      0x40\n        /* \"#utility.yul\":3602:3624   */\n      mstore\n        /* \"#utility.yul\":3392:3630   */\n      pop\n        /* \"#utility.yul\":3349:3630   */\n      pop\n      pop\n      jump\t// out\n        /* \"#utility.yul\":3636:3765   */\n    tag_92:\n        /* \"#utility.yul\":3670:3676   */\n      0x00\n        /* \"#utility.yul\":3697:3717   */\n      tag_158\n      tag_76\n      jump\t// in\n    tag_158:\n        /* \"#utility.yul\":3687:3717   */\n      swap1\n      pop\n        /* \"#utility.yul\":3726:3759   */\n      tag_159\n        /* \"#utility.yul\":3754:3758   */\n      dup3\n        /* \"#utility.yul\":3746:3752   */\n      dup3\n        /* \"#utility.yul\":3726:3759   */\n      tag_91\n      jump\t// in\n    tag_159:\n        /* \"#utility.yul\":3636:3765   */\n      swap2\n      swap1\n      pop\n      jump\t// out\n        /* \"#utility.yul\":3771:4079   */\n    tag_93:\n        /* \"#utility.yul\":3833:3837   */\n      0x00\n        /* \"#utility.yul\":3923:3941   */\n      0xffffffffffffffff\n        /* \"#utility.yul\":3915:3921   */\n      dup3\n        /* \"#utility.yul\":3912:3942   */\n      gt\n        /* \"#utility.yul\":3909:3965   */\n      iszero\n      tag_161\n      jumpi\n        /* \"#utility.yul\":3945:3963   */\n      tag_162\n      tag_90\n      jump\t// in\n    tag_162:\n        /* \"#utility.yul\":3909:3965   */\n    tag_161:\n        /* \"#utility.yul\":3983:4012   */\n      tag_163\n        /* \"#utility.yul\":4005:4011   */\n      dup3\n        /* \"#utility.yul\":3983:4012   */\n      tag_85\n      jump\t// in\n    tag_163:\n        /* \"#utility.yul\":3975:4012   */\n      swap1\n      pop\n        /* \"#utility.yul\":4067:4071   */\n      0x20\n        /* \"#utility.yul\":4061:4065   */\n      dup2\n        /* \"#utility.yul\":4057:4072   */\n      add\n        /* \"#utility.yul\":4049:4072   */\n      swap1\n      pop\n        /* \"#utility.yul\":3771:4079   */\n      swap2\n      swap1\n      pop\n      jump\t// out\n        /* \"#utility.yul\":4085:4233   */\n    tag_94:\n        /* \"#utility.yul\":4183:4189   */\n      dup3\n        /* \"#utility.yul\":4178:4181   */\n      dup2\n        /* \"#utility.yul\":4173:4176   */\n      dup4\n        /* \"#utility.yul\":4160:4190   */\n      calldatacopy\n        /* \"#utility.yul\":4224:4225   */\n      0x00\n        /* \"#utility.yul\":4215:4221   */\n      dup4\n        /* \"#utility.yul\":4210:4213   */\n      dup4\n        /* \"#utility.yul\":4206:4222   */\n      add\n        /* \"#utility.yul\":4199:4226   */\n      mstore\n        /* \"#utility.yul\":4085:4233   */\n      pop\n      pop\n      pop\n      jump\t// out\n        /* \"#utility.yul\":4239:4664   */\n    tag_95:\n        /* \"#utility.yul\":4317:4322   */\n      0x00\n        /* \"#utility.yul\":4342:4408   */\n      tag_166\n        /* \"#utility.yul\":4358:4407   */\n      tag_167\n        /* \"#utility.yul\":4400:4406   */\n      dup5\n        /* \"#utility.yul\":4358:4407   */\n      tag_93\n      jump\t// in\n    tag_167:\n        /* \"#utility.yul\":4342:4408   */\n      tag_92\n      jump\t// in\n    tag_166:\n        /* \"#utility.yul\":4333:4408   */\n      swap1\n      pop\n        /* \"#utility.yul\":4431:4437   */\n      dup3\n        /* \"#utility.yul\":4424:4429   */\n      dup2\n        /* \"#utility.yul\":4417:4438   */\n      mstore\n        /* \"#utility.yul\":4469:4473   */\n      0x20\n        /* \"#utility.yul\":4462:4467   */\n      dup2\n        /* \"#utility.yul\":4458:4474   */\n      add\n        /* \"#utility.yul\":4507:4510   */\n      dup5\n        /* \"#utility.yul\":4498:4504   */\n      dup5\n        /* \"#utility.yul\":4493:4496   */\n      dup5\n        /* \"#utility.yul\":4489:4505   */\n      add\n        /* \"#utility.yul\":4486:4511   */\n      gt\n        /* \"#utility.yul\":4483:4595   */\n      iszero\n      tag_168\n      jumpi\n        /* \"#utility.yul\":4514:4593   */\n      tag_169\n      tag_89\n      jump\t// in\n    tag_169:\n        /* \"#utility.yul\":4483:4595   */\n    tag_168:\n        /* \"#utility.yul\":4604:4658   */\n      tag_170\n        /* \"#utility.yul\":4651:4657   */\n      dup5\n        /* \"#utility.yul\":4646:4649   */\n      dup3\n        /* \"#utility.yul\":4641:4644   */\n      dup6\n        /* \"#utility.yul\":4604:4658   */\n      tag_94\n      jump\t// in\n    tag_170:\n        /* \"#utility.yul\":4323:4664   */\n      pop\n        /* \"#utility.yul\":4239:4664   */\n      swap4\n      swap3\n      pop\n      pop\n      pop\n      jump\t// out\n        /* \"#utility.yul\":4684:5024   */\n    tag_96:\n        /* \"#utility.yul\":4740:4745   */\n      0x00\n        /* \"#utility.yul\":4789:4792   */\n      dup3\n        /* \"#utility.yul\":4782:4786   */\n      0x1f\n        /* \"#utility.yul\":4774:4780   */\n      dup4\n        /* \"#utility.yul\":4770:4787   */\n      add\n        /* \"#utility.yul\":4766:4793   */\n      slt\n        /* \"#utility.yul\":4756:4878   */\n      tag_172\n      jumpi\n        /* \"#utility.yul\":4797:4876   */\n      tag_173\n      tag_88\n      jump\t// in\n    tag_173:\n        /* \"#utility.yul\":4756:4878   */\n    tag_172:\n        /* \"#utility.yul\":4914:4920   */\n      dup2\n        /* \"#utility.yul\":4901:4921   */\n      calldataload\n        /* \"#utility.yul\":4939:5018   */\n      tag_174\n        /* \"#utility.yul\":5014:5017   */\n      dup5\n        /* \"#utility.yul\":5006:5012   */\n      dup3\n        /* \"#utility.yul\":4999:5003   */\n      0x20\n        /* \"#utility.yul\":4991:4997   */\n      dup7\n        /* \"#utility.yul\":4987:5004   */\n      add\n        /* \"#utility.yul\":4939:5018   */\n      tag_95\n      jump\t// in\n    tag_174:\n        /* \"#utility.yul\":4930:5018   */\n      swap2\n      pop\n        /* \"#utility.yul\":4746:5024   */\n      pop\n        /* \"#utility.yul\":4684:5024   */\n      swap3\n      swap2\n      pop\n      pop\n      jump\t// out\n        /* \"#utility.yul\":5030:5684   */\n    tag_17:\n        /* \"#utility.yul\":5108:5114   */\n      0x00\n        /* \"#utility.yul\":5116:5122   */\n      0x00\n        /* \"#utility.yul\":5165:5167   */\n      0x40\n        /* \"#utility.yul\":5153:5162   */\n      dup4\n        /* \"#utility.yul\":5144:5151   */\n      dup6\n        /* \"#utility.yul\":5140:5163   */\n      sub\n        /* \"#utility.yul\":5136:5168   */\n      slt\n        /* \"#utility.yul\":5133:5252   */\n      iszero\n      tag_176\n      jumpi\n        /* \"#utility.yul\":5171:5250   */\n      tag_177\n      tag_77\n      jump\t// in\n    tag_177:\n        /* \"#utility.yul\":5133:5252   */\n    tag_176:\n        /* \"#utility.yul\":5291:5292   */\n      0x00\n        /* \"#utility.yul\":5316:5369   */\n      tag_178\n        /* \"#utility.yul\":5361:5368   */\n      dup6\n        /* \"#utility.yul\":5352:5358   */\n      dup3\n        /* \"#utility.yul\":5341:5350   */\n      dup7\n        /* \"#utility.yul\":5337:5359   */\n      add\n        /* \"#utility.yul\":5316:5369   */\n      tag_81\n      jump\t// in\n    tag_178:\n        /* \"#utility.yul\":5306:5369   */\n      swap3\n      pop\n        /* \"#utility.yul\":5262:5379   */\n      pop\n        /* \"#utility.yul\":5446:5448   */\n      0x20\n        /* \"#utility.yul\":5435:5444   */\n      dup4\n        /* \"#utility.yul\":5431:5449   */\n      add\n        /* \"#utility.yul\":5418:5450   */\n      calldataload\n        /* \"#utility.yul\":5477:5495   */\n      0xffffffffffffffff\n        /* \"#utility.yul\":5469:5475   */\n      dup2\n        /* \"#utility.yul\":5466:5496   */\n      gt\n        /* \"#utility.yul\":5463:5580   */\n      iszero\n      tag_179\n      jumpi\n        /* \"#utility.yul\":5499:5578   */\n      tag_180\n      tag_78\n      jump\t// in\n    tag_180:\n        /* \"#utility.yul\":5463:5580   */\n    tag_179:\n        /* \"#utility.yul\":5604:5667   */\n      tag_181\n        /* \"#utility.yul\":5659:5666   */\n      dup6\n        /* \"#utility.yul\":5650:5656   */\n      dup3\n        /* \"#utility.yul\":5639:5648   */\n      dup7\n        /* \"#utility.yul\":5635:5657   */\n      add\n        /* \"#utility.yul\":5604:5667   */\n      tag_96\n      jump\t// in\n    tag_181:\n        /* \"#utility.yul\":5594:5667   */\n      swap2\n      pop\n        /* \"#utility.yul\":5389:5677   */\n      pop\n        /* \"#utility.yul\":5030:5684   */\n      swap3\n      pop\n      swap3\n      swap1\n      pop\n      jump\t// out\n        /* \"#utility.yul\":5690:6961   */\n    tag_21:\n        /* \"#utility.yul\":5805:5811   */\n      0x00\n        /* \"#utility.yul\":5813:5819   */\n      0x00\n        /* \"#utility.yul\":5821:5827   */\n      0x00\n        /* \"#utility.yul\":5829:5835   */\n      0x00\n        /* \"#utility.yul\":5837:5843   */\n      0x00\n        /* \"#utility.yul\":5886:5889   */\n      0xa0\n        /* \"#utility.yul\":5874:5883   */\n      dup7\n        /* \"#utility.yul\":5865:5872   */\n      dup9\n        /* \"#utility.yul\":5861:5884   */\n      sub\n        /* \"#utility.yul\":5857:5890   */\n      slt\n        /* \"#utility.yul\":5854:5974   */\n      iszero\n      tag_183\n      jumpi\n        /* \"#utility.yul\":5893:5972   */\n      tag_184\n      tag_77\n      jump\t// in\n    tag_184:\n        /* \"#utility.yul\":5854:5974   */\n    tag_183:\n        /* \"#utility.yul\":6041:6042   */\n      0x00\n        /* \"#utility.yul\":6030:6039   */\n      dup7\n        /* \"#utility.yul\":6026:6043   */\n      add\n        /* \"#utility.yul\":6013:6044   */\n      calldataload\n        /* \"#utility.yul\":6071:6089   */\n      0xffffffffffffffff\n        /* \"#utility.yul\":6063:6069   */\n      dup2\n        /* \"#utility.yul\":6060:6090   */\n      gt\n        /* \"#utility.yul\":6057:6174   */\n      iszero\n      tag_185\n      jumpi\n        /* \"#utility.yul\":6093:6172   */\n      tag_186\n      tag_78\n      jump\t// in\n    tag_186:\n        /* \"#utility.yul\":6057:6174   */\n    tag_185:\n        /* \"#utility.yul\":6198:6261   */\n      tag_187\n        /* \"#utility.yul\":6253:6260   */\n      dup9\n        /* \"#utility.yul\":6244:6250   */\n      dup3\n        /* \"#utility.yul\":6233:6242   */\n      dup10\n        /* \"#utility.yul\":6229:6251   */\n      add\n        /* \"#utility.yul\":6198:6261   */\n      tag_96\n      jump\t// in\n    tag_187:\n        /* \"#utility.yul\":6188:6261   */\n      swap6\n      pop\n        /* \"#utility.yul\":5984:6271   */\n      pop\n        /* \"#utility.yul\":6310:6312   */\n      0x20\n        /* \"#utility.yul\":6336:6389   */\n      tag_188\n        /* \"#utility.yul\":6381:6388   */\n      dup9\n        /* \"#utility.yul\":6372:6378   */\n      dup3\n        /* \"#utility.yul\":6361:6370   */\n      dup10\n        /* \"#utility.yul\":6357:6379   */\n      add\n        /* \"#utility.yul\":6336:6389   */\n      tag_81\n      jump\t// in\n    tag_188:\n        /* \"#utility.yul\":6326:6389   */\n      swap5\n      pop\n        /* \"#utility.yul\":6281:6399   */\n      pop\n        /* \"#utility.yul\":6466:6468   */\n      0x40\n        /* \"#utility.yul\":6455:6464   */\n      dup7\n        /* \"#utility.yul\":6451:6469   */\n      add\n        /* \"#utility.yul\":6438:6470   */\n      calldataload\n        /* \"#utility.yul\":6497:6515   */\n      0xffffffffffffffff\n        /* \"#utility.yul\":6489:6495   */\n      dup2\n        /* \"#utility.yul\":6486:6516   */\n      gt\n        /* \"#utility.yul\":6483:6600   */\n      iszero\n      tag_189\n      jumpi\n        /* \"#utility.yul\":6519:6598   */\n      tag_190\n      tag_78\n      jump\t// in\n    tag_190:\n        /* \"#utility.yul\":6483:6600   */\n    tag_189:\n        /* \"#utility.yul\":6624:6687   */\n      tag_191\n        /* \"#utility.yul\":6679:6686   */\n      dup9\n        /* \"#utility.yul\":6670:6676   */\n      dup3\n        /* \"#utility.yul\":6659:6668   */\n      dup10\n        /* \"#utility.yul\":6655:6677   */\n      add\n        /* \"#utility.yul\":6624:6687   */\n      tag_96\n      jump\t// in\n    tag_191:\n        /* \"#utility.yul\":6614:6687   */\n      swap4\n      pop\n        /* \"#utility.yul\":6409:6697   */\n      pop\n        /* \"#utility.yul\":6736:6738   */\n      0x60\n        /* \"#utility.yul\":6762:6815   */\n      tag_192\n        /* \"#utility.yul\":6807:6814   */\n      dup9\n        /* \"#utility.yul\":6798:6804   */\n      dup3\n        /* \"#utility.yul\":6787:6796   */\n      dup10\n        /* \"#utility.yul\":6783:6805   */\n      add\n        /* \"#utility.yul\":6762:6815   */\n      tag_81\n      jump\t// in\n    tag_192:\n        /* \"#utility.yul\":6752:6815   */\n      swap3\n      pop\n        /* \"#utility.yul\":6707:6825   */\n      pop\n        /* \"#utility.yul\":6864:6867   */\n      0x80\n        /* \"#utility.yul\":6891:6944   */\n      tag_193\n        /* \"#utility.yul\":6936:6943   */\n      dup9\n        /* \"#utility.yul\":6927:6933   */\n      dup3\n        /* \"#utility.yul\":6916:6925   */\n      dup10\n        /* \"#utility.yul\":6912:6934   */\n      add\n        /* \"#utility.yul\":6891:6944   */\n      tag_81\n      jump\t// in\n    tag_193:\n        /* \"#utility.yul\":6881:6944   */\n      swap2\n      pop\n        /* \"#utility.yul\":6835:6954   */\n      pop\n        /* \"#utility.yul\":5690:6961   */\n      swap3\n      swap6\n      pop\n      swap3\n      swap6\n      swap1\n      swap4\n      pop\n      jump\t// out\n        /* \"#utility.yul\":6967:7813   */\n    tag_27:\n        /* \"#utility.yul\":7212:7216   */\n      0x00\n        /* \"#utility.yul\":7250:7253   */\n      0xa0\n        /* \"#utility.yul\":7239:7248   */\n      dup3\n        /* \"#utility.yul\":7235:7254   */\n      add\n        /* \"#utility.yul\":7227:7254   */\n      swap1\n      pop\n        /* \"#utility.yul\":7264:7335   */\n      tag_195\n        /* \"#utility.yul\":7332:7333   */\n      0x00\n        /* \"#utility.yul\":7321:7330   */\n      dup4\n        /* \"#utility.yul\":7317:7334   */\n      add\n        /* \"#utility.yul\":7308:7314   */\n      dup9\n        /* \"#utility.yul\":7264:7335   */\n      tag_87\n      jump\t// in\n    tag_195:\n        /* \"#utility.yul\":7382:7391   */\n      dup2\n        /* \"#utility.yul\":7376:7380   */\n      dup2\n        /* \"#utility.yul\":7372:7392   */\n      sub\n        /* \"#utility.yul\":7367:7369   */\n      0x20\n        /* \"#utility.yul\":7356:7365   */\n      dup4\n        /* \"#utility.yul\":7352:7370   */\n      add\n        /* \"#utility.yul\":7345:7393   */\n      mstore\n        /* \"#utility.yul\":7410:7488   */\n      tag_196\n        /* \"#utility.yul\":7483:7487   */\n      dup2\n        /* \"#utility.yul\":7474:7480   */\n      dup8\n        /* \"#utility.yul\":7410:7488   */\n      tag_86\n      jump\t// in\n    tag_196:\n        /* \"#utility.yul\":7402:7488   */\n      swap1\n      pop\n        /* \"#utility.yul\":7498:7570   */\n      tag_197\n        /* \"#utility.yul\":7566:7568   */\n      0x40\n        /* \"#utility.yul\":7555:7564   */\n      dup4\n        /* \"#utility.yul\":7551:7569   */\n      add\n        /* \"#utility.yul\":7542:7548   */\n      dup7\n        /* \"#utility.yul\":7498:7570   */\n      tag_87\n      jump\t// in\n    tag_197:\n        /* \"#utility.yul\":7617:7626   */\n      dup2\n        /* \"#utility.yul\":7611:7615   */\n      dup2\n        /* \"#utility.yul\":7607:7627   */\n      sub\n        /* \"#utility.yul\":7602:7604   */\n      0x60\n        /* \"#utility.yul\":7591:7600   */\n      dup4\n        /* \"#utility.yul\":7587:7605   */\n      add\n        /* \"#utility.yul\":7580:7628   */\n      mstore\n        /* \"#utility.yul\":7645:7723   */\n      tag_198\n        /* \"#utility.yul\":7718:7722   */\n      dup2\n        /* \"#utility.yul\":7709:7715   */\n      dup6\n        /* \"#utility.yul\":7645:7723   */\n      tag_86\n      jump\t// in\n    tag_198:\n        /* \"#utility.yul\":7637:7723   */\n      swap1\n      pop\n        /* \"#utility.yul\":7733:7806   */\n      tag_199\n        /* \"#utility.yul\":7801:7804   */\n      0x80\n        /* \"#utility.yul\":7790:7799   */\n      dup4\n        /* \"#utility.yul\":7786:7805   */\n      add\n        /* \"#utility.yul\":7777:7783   */\n      dup5\n        /* \"#utility.yul\":7733:7806   */\n      tag_87\n      jump\t// in\n    tag_199:\n        /* \"#utility.yul\":6967:7813   */\n      swap7\n      swap6\n      pop\n      pop\n      pop\n      pop\n      pop\n      pop\n      jump\t// out\n        /* \"#utility.yul\":7819:8041   */\n    tag_31:\n        /* \"#utility.yul\":7912:7916   */\n      0x00\n        /* \"#utility.yul\":7950:7952   */\n      0x20\n        /* \"#utility.yul\":7939:7948   */\n      dup3\n        /* \"#utility.yul\":7935:7953   */\n      add\n        /* \"#utility.yul\":7927:7953   */\n      swap1\n      pop\n        /* \"#utility.yul\":7963:8034   */\n      tag_201\n        /* \"#utility.yul\":8031:8032   */\n      0x00\n        /* \"#utility.yul\":8020:8029   */\n      dup4\n        /* \"#utility.yul\":8016:8033   */\n      add\n        /* \"#utility.yul\":8007:8013   */\n      dup5\n        /* \"#utility.yul\":7963:8034   */\n      tag_87\n      jump\t// in\n    tag_201:\n        /* \"#utility.yul\":7819:8041   */\n      swap3\n      swap2\n      pop\n      pop\n      jump\t// out\n        /* \"#utility.yul\":8047:8173   */\n    tag_97:\n        /* \"#utility.yul\":8084:8091   */\n      0x00\n        /* \"#utility.yul\":8124:8166   */\n      0xffffffffffffffffffffffffffffffffffffffff\n        /* \"#utility.yul\":8117:8122   */\n      dup3\n        /* \"#utility.yul\":8113:8167   */\n      and\n        /* \"#utility.yul\":8102:8167   */\n      swap1\n      pop\n        /* \"#utility.yul\":8047:8173   */\n      swap2\n      swap1\n      pop\n      jump\t// out\n        /* \"#utility.yul\":8179:8275   */\n    tag_98:\n        /* \"#utility.yul\":8216:8223   */\n      0x00\n        /* \"#utility.yul\":8245:8269   */\n      tag_204\n        /* \"#utility.yul\":8263:8268   */\n      dup3\n        /* \"#utility.yul\":8245:8269   */\n      tag_97\n      jump\t// in\n    tag_204:\n        /* \"#utility.yul\":8234:8269   */\n      swap1\n      pop\n        /* \"#utility.yul\":8179:8275   */\n      swap2\n      swap1\n      pop\n      jump\t// out\n        /* \"#utility.yul\":8281:8399   */\n    tag_99:\n        /* \"#utility.yul\":8368:8392   */\n      tag_206\n        /* \"#utility.yul\":8386:8391   */\n      dup2\n        /* \"#utility.yul\":8368:8392   */\n      tag_98\n      jump\t// in\n    tag_206:\n        /* \"#utility.yul\":8363:8366   */\n      dup3\n        /* \"#utility.yul\":8356:8393   */\n      mstore\n        /* \"#utility.yul\":8281:8399   */\n      pop\n      pop\n      jump\t// out\n        /* \"#utility.yul\":8405:8627   */\n    tag_35:\n        /* \"#utility.yul\":8498:8502   */\n      0x00\n        /* \"#utility.yul\":8536:8538   */\n      0x20\n        /* \"#utility.yul\":8525:8534   */\n      dup3\n        /* \"#utility.yul\":8521:8539   */\n      add\n        /* \"#utility.yul\":8513:8539   */\n      swap1\n      pop\n        /* \"#utility.yul\":8549:8620   */\n      tag_208\n        /* \"#utility.yul\":8617:8618   */\n      0x00\n        /* \"#utility.yul\":8606:8615   */\n      dup4\n        /* \"#utility.yul\":8602:8619   */\n      add\n        /* \"#utility.yul\":8593:8599   */\n      dup5\n        /* \"#utility.yul\":8549:8620   */\n      tag_99\n      jump\t// in\n    tag_208:\n        /* \"#utility.yul\":8405:8627   */\n      swap3\n      swap2\n      pop\n      pop\n      jump\t// out\n        /* \"#utility.yul\":8633:8813   */\n    tag_100:\n        /* \"#utility.yul\":8681:8758   */\n      0x4e487b7100000000000000000000000000000000000000000000000000000000\n        /* \"#utility.yul\":8678:8679   */\n      0x00\n        /* \"#utility.yul\":8671:8759   */\n      mstore\n        /* \"#utility.yul\":8778:8782   */\n      0x22\n        /* \"#utility.yul\":8775:8776   */\n      0x04\n        /* \"#utility.yul\":8768:8783   */\n      mstore\n        /* \"#utility.yul\":8802:8806   */\n      0x24\n        /* \"#utility.yul\":8799:8800   */\n      0x00\n        /* \"#utility.yul\":8792:8807   */\n      revert\n        /* \"#utility.yul\":8819:9139   */\n    tag_37:\n        /* \"#utility.yul\":8863:8869   */\n      0x00\n        /* \"#utility.yul\":8900:8901   */\n      0x02\n        /* \"#utility.yul\":8894:8898   */\n      dup3\n        /* \"#utility.yul\":8890:8902   */\n      div\n        /* \"#utility.yul\":8880:8902   */\n      swap1\n      pop\n        /* \"#utility.yul\":8947:8948   */\n      0x01\n        /* \"#utility.yul\":8941:8945   */\n      dup3\n        /* \"#utility.yul\":8937:8949   */\n      and\n        /* \"#utility.yul\":8968:8986   */\n      dup1\n        /* \"#utility.yul\":8958:9039   */\n      tag_211\n      jumpi\n        /* \"#utility.yul\":9024:9028   */\n      0x7f\n        /* \"#utility.yul\":9016:9022   */\n      dup3\n        /* \"#utility.yul\":9012:9029   */\n      and\n        /* \"#utility.yul\":9002:9029   */\n      swap2\n      pop\n        /* \"#utility.yul\":8958:9039   */\n    tag_211:\n        /* \"#utility.yul\":9086:9088   */\n      0x20\n        /* \"#utility.yul\":9078:9084   */\n      dup3\n        /* \"#utility.yul\":9075:9089   */\n      lt\n        /* \"#utility.yul\":9055:9073   */\n      dup2\n        /* \"#utility.yul\":9052:9090   */\n      sub\n        /* \"#utility.yul\":9049:9133   */\n      tag_212\n      jumpi\n        /* \"#utility.yul\":9105:9123   */\n      tag_213\n      tag_100\n      jump\t// in\n    tag_213:\n        /* \"#utility.yul\":9049:9133   */\n    tag_212:\n        /* \"#utility.yul\":8870:9139   */\n      pop\n        /* \"#utility.yul\":8819:9139   */\n      swap2\n      swap1\n      pop\n      jump\t// out\n        /* \"#utility.yul\":9145:9314   */\n    tag_101:\n        /* \"#utility.yul\":9285:9306   */\n      0x53747564656e74206e6f742070726573656e7400000000000000000000000000\n        /* \"#utility.yul\":9281:9282   */\n      0x00\n        /* \"#utility.yul\":9273:9279   */\n      dup3\n        /* \"#utility.yul\":9269:9283   */\n      add\n        /* \"#utility.yul\":9262:9307   */\n      mstore\n        /* \"#utility.yul\":9145:9314   */\n      pop\n      jump\t// out\n        /* \"#utility.yul\":9320:9686   */\n    tag_102:\n        /* \"#utility.yul\":9462:9465   */\n      0x00\n        /* \"#utility.yul\":9483:9550   */\n      tag_216\n        /* \"#utility.yul\":9547:9549   */\n      0x13\n        /* \"#utility.yul\":9542:9545   */\n      dup4\n        /* \"#utility.yul\":9483:9550   */\n      tag_83\n      jump\t// in\n    tag_216:\n        /* \"#utility.yul\":9476:9550   */\n      swap2\n      pop\n        /* \"#utility.yul\":9559:9652   */\n      tag_217\n        /* \"#utility.yul\":9648:9651   */\n      dup3\n        /* \"#utility.yul\":9559:9652   */\n      tag_101\n      jump\t// in\n    tag_217:\n        /* \"#utility.yul\":9677:9679   */\n      0x20\n        /* \"#utility.yul\":9672:9675   */\n      dup3\n        /* \"#utility.yul\":9668:9680   */\n      add\n        /* \"#utility.yul\":9661:9680   */\n      swap1\n      pop\n        /* \"#utility.yul\":9320:9686   */\n      swap2\n      swap1\n      pop\n      jump\t// out\n        /* \"#utility.yul\":9692:10111   */\n    tag_50:\n        /* \"#utility.yul\":9858:9862   */\n      0x00\n        /* \"#utility.yul\":9896:9898   */\n      0x20\n        /* \"#utility.yul\":9885:9894   */\n      dup3\n        /* \"#utility.yul\":9881:9899   */\n      add\n        /* \"#utility.yul\":9873:9899   */\n      swap1\n      pop\n        /* \"#utility.yul\":9945:9954   */\n      dup2\n        /* \"#utility.yul\":9939:9943   */\n      dup2\n        /* \"#utility.yul\":9935:9955   */\n      sub\n        /* \"#utility.yul\":9931:9932   */\n      0x00\n        /* \"#utility.yul\":9920:9929   */\n      dup4\n        /* \"#utility.yul\":9916:9933   */\n      add\n        /* \"#utility.yul\":9909:9956   */\n      mstore\n        /* \"#utility.yul\":9973:10104   */\n      tag_219\n        /* \"#utility.yul\":10099:10103   */\n      dup2\n        /* \"#utility.yul\":9973:10104   */\n      tag_102\n      jump\t// in\n    tag_219:\n        /* \"#utility.yul\":9965:10104   */\n      swap1\n      pop\n        /* \"#utility.yul\":9692:10111   */\n      swap2\n      swap1\n      pop\n      jump\t// out\n        /* \"#utility.yul\":10117:10258   */\n    tag_103:\n        /* \"#utility.yul\":10166:10170   */\n      0x00\n        /* \"#utility.yul\":10189:10192   */\n      dup2\n        /* \"#utility.yul\":10181:10192   */\n      swap1\n      pop\n        /* \"#utility.yul\":10212:10215   */\n      dup2\n        /* \"#utility.yul\":10209:10210   */\n      0x00\n        /* \"#utility.yul\":10202:10216   */\n      mstore\n        /* \"#utility.yul\":10246:10250   */\n      0x20\n        /* \"#utility.yul\":10243:10244   */\n      0x00\n        /* \"#utility.yul\":10233:10251   */\n      keccak256\n        /* \"#utility.yul\":10225:10251   */\n      swap1\n      pop\n        /* \"#utility.yul\":10117:10258   */\n      swap2\n      swap1\n      pop\n      jump\t// out\n        /* \"#utility.yul\":10264:10357   */\n    tag_104:\n        /* \"#utility.yul\":10301:10307   */\n      0x00\n        /* \"#utility.yul\":10348:10350   */\n      0x20\n        /* \"#utility.yul\":10343:10345   */\n      0x1f\n        /* \"#utility.yul\":10336:10341   */\n      dup4\n        /* \"#utility.yul\":10332:10346   */\n      add\n        /* \"#utility.yul\":10328:10351   */\n      div\n        /* \"#utility.yul\":10318:10351   */\n      swap1\n      pop\n        /* \"#utility.yul\":10264:10357   */\n      swap2\n      swap1\n      pop\n      jump\t// out\n        /* \"#utility.yul\":10363:10470   */\n    tag_105:\n        /* \"#utility.yul\":10407:10415   */\n      0x00\n        /* \"#utility.yul\":10457:10462   */\n      dup3\n        /* \"#utility.yul\":10451:10455   */\n      dup3\n        /* \"#utility.yul\":10447:10463   */\n      shl\n        /* \"#utility.yul\":10426:10463   */\n      swap1\n      pop\n        /* \"#utility.yul\":10363:10470   */\n      swap3\n      swap2\n      pop\n      pop\n      jump\t// out\n        /* \"#utility.yul\":10476:10869   */\n    tag_106:\n        /* \"#utility.yul\":10545:10551   */\n      0x00\n        /* \"#utility.yul\":10595:10596   */\n      0x08\n        /* \"#utility.yul\":10583:10593   */\n      dup4\n        /* \"#utility.yul\":10579:10597   */\n      mul\n        /* \"#utility.yul\":10618:10715   */\n      tag_224\n        /* \"#utility.yul\":10648:10714   */\n      0xffffffffffffffffffffffffffffffffffffffffffffffffffffffffffffffff\n        /* \"#utility.yul\":10637:10646   */\n      dup3\n        /* \"#utility.yul\":10618:10715   */\n      tag_105\n      jump\t// in\n    tag_224:\n        /* \"#utility.yul\":10736:10775   */\n      tag_225\n        /* \"#utility.yul\":10766:10774   */\n      dup7\n        /* \"#utility.yul\":10755:10764   */\n      dup4\n        /* \"#utility.yul\":10736:10775   */\n      tag_105\n      jump\t// in\n    tag_225:\n        /* \"#utility.yul\":10724:10775   */\n      swap6\n      pop\n        /* \"#utility.yul\":10808:10812   */\n      dup1\n        /* \"#utility.yul\":10804:10813   */\n      not\n        /* \"#utility.yul\":10797:10802   */\n      dup5\n        /* \"#utility.yul\":10793:10814   */\n      and\n        /* \"#utility.yul\":10784:10814   */\n      swap4\n      pop\n        /* \"#utility.yul\":10857:10861   */\n      dup1\n        /* \"#utility.yul\":10847:10855   */\n      dup7\n        /* \"#utility.yul\":10843:10862   */\n      and\n        /* \"#utility.yul\":10836:10841   */\n      dup5\n        /* \"#utility.yul\":10833:10863   */\n      or\n        /* \"#utility.yul\":10823:10863   */\n      swap3\n      pop\n        /* \"#utility.yul\":10552:10869   */\n      pop\n      pop\n        /* \"#utility.yul\":10476:10869   */\n      swap4\n      swap3\n      pop\n      pop\n      pop\n      jump\t// out\n        /* \"#utility.yul\":10875:10935   */\n    tag_107:\n        /* \"#utility.yul\":10903:10906   */\n      0x00\n        /* \"#utility.yul\":10924:10929   */\n      dup2\n        /* \"#utility.yul\":10917:10929   */\n      swap1\n      pop\n        /* \"#utility.yul\":10875:10935   */\n      swap2\n      swap1\n      pop\n      jump\t// out\n        /* \"#utility.yul\":10941:11083   */\n    tag_108:\n        /* \"#utility.yul\":10991:11000   */\n      0x00\n        /* \"#utility.yul\":11024:11077   */\n      tag_228\n        /* \"#utility.yul\":11042:11076   */\n      tag_229\n        /* \"#utility.yul\":11051:11075   */\n      tag_230\n        /* \"#utility.yul\":11069:11074   */\n      dup5\n        /* \"#utility.yul\":11051:11075   */\n      tag_79\n      jump\t// in\n    tag_230:\n        /* \"#utility.yul\":11042:11076   */\n      tag_107\n      jump\t// in\n    tag_229:\n        /* \"#utility.yul\":11024:11077   */\n      tag_79\n      jump\t// in\n    tag_228:\n        /* \"#utility.yul\":11011:11077   */\n      swap1\n      pop\n        /* \"#utility.yul\":10941:11083   */\n      swap2\n      swap1\n      pop\n      jump\t// out\n        /* \"#utility.yul\":11089:11164   */\n    tag_109:\n        /* \"#utility.yul\":11132:11135   */\n      0x00\n        /* \"#utility.yul\":11153:11158   */\n      dup2\n        /* \"#utility.yul\":11146:11158   */\n      swap1\n      pop\n        /* \"#utility.yul\":11089:11164   */\n      swap2\n      swap1\n      pop\n      jump\t// out\n        /* \"#utility.yul\":11170:11439   */\n    tag_110:\n        /* \"#utility.yul\":11280:11319   */\n      tag_233\n        /* \"#utility.yul\":11311:11318   */\n      dup4\n        /* \"#utility.yul\":11280:11319   */\n      tag_108\n      jump\t// in\n    tag_233:\n        /* \"#utility.yul\":11341:11432   */\n      tag_234\n        /* \"#utility.yul\":11390:11431   */\n      tag_235\n        /* \"#utility.yul\":11414:11430   */\n      dup3\n        /* \"#utility.yul\":11390:11431   */\n      tag_109\n      jump\t// in\n    tag_235:\n        /* \"#utility.yul\":11382:11388   */\n      dup5\n        /* \"#utility.yul\":11375:11379   */\n      dup5\n        /* \"#utility.yul\":11369:11380   */\n      sload\n        /* \"#utility.yul\":11341:11432   */\n      tag_106\n      jump\t// in\n    tag_234:\n        /* \"#utility.yul\":11335:11339   */\n      dup3\n        /* \"#utility.yul\":11328:11433   */\n      sstore\n        /* \"#utility.yul\":11246:11439   */\n      pop\n        /* \"#utility.yul\":11170:11439   */\n      pop\n      pop\n      pop\n      jump\t// out\n        /* \"#utility.yul\":11445:11518   */\n    tag_111:\n        /* \"#utility.yul\":11490:11493   */\n      0x00\n        /* \"#utility.yul\":11511:11512   */\n      0x00\n        /* \"#utility.yul\":11504:11512   */\n      swap1\n      pop\n        /* \"#utility.yul\":11445:11518   */\n      swap1\n      jump\t// out\n        /* \"#utility.yul\":11524:11713   */\n    tag_112:\n        /* \"#utility.yul\":11601:11633   */\n      tag_238\n      tag_111\n      jump\t// in\n    tag_238:\n        /* \"#utility.yul\":11642:11707   */\n      tag_239\n        /* \"#utility.yul\":11700:11706   */\n      dup2\n        /* \"#utility.yul\":11692:11698   */\n      dup5\n        /* \"#utility.yul\":11686:11690   */\n      dup5\n        /* \"#utility.yul\":11642:11707   */\n      tag_110\n      jump\t// in\n    tag_239:\n        /* \"#utility.yul\":11577:11713   */\n      pop\n        /* \"#utility.yul\":11524:11713   */\n      pop\n      pop\n      jump\t// out\n        /* \"#utility.yul\":11719:11905   */\n    tag_113:\n        /* \"#utility.yul\":11779:11899   */\n    tag_241:\n        /* \"#utility.yul\":11796:11799   */\n      dup2\n        /* \"#utility.yul\":11789:11794   */\n      dup2\n        /* \"#utility.yul\":11786:11800   */\n      lt\n        /* \"#utility.yul\":11779:11899   */\n      iszero\n      tag_243\n      jumpi\n        /* \"#utility.yul\":11850:11889   */\n      tag_244\n        /* \"#utility.yul\":11887:11888   */\n      0x00\n        /* \"#utility.yul\":11880:11885   */\n      dup3\n        /* \"#utility.yul\":11850:11889   */\n      tag_112\n      jump\t// in\n    tag_244:\n        /* \"#utility.yul\":11823:11824   */\n      0x01\n        /* \"#utility.yul\":11816:11821   */\n      dup2\n        /* \"#utility.yul\":11812:11825   */\n      add\n        /* \"#utility.yul\":11803:11825   */\n      swap1\n      pop\n        /* \"#utility.yul\":11779:11899   */\n      jump(tag_241)\n    tag_243:\n        /* \"#utility.yul\":11719:11905   */\n      pop\n      pop\n      jump\t// out\n        /* \"#utility.yul\":11911:12454   */\n    tag_114:\n        /* \"#utility.yul\":12012:12014   */\n      0x1f\n        /* \"#utility.yul\":12007:12010   */\n      dup3\n        /* \"#utility.yul\":12004:12015   */\n      gt\n        /* \"#utility.yul\":12001:12447   */\n      iszero\n      tag_246\n      jumpi\n        /* \"#utility.yul\":12046:12084   */\n      tag_247\n        /* \"#utility.yul\":12078:12083   */\n      dup2\n        /* \"#utility.yul\":12046:12084   */\n      tag_103\n      jump\t// in\n    tag_247:\n        /* \"#utility.yul\":12130:12159   */\n      tag_248\n        /* \"#utility.yul\":12148:12158   */\n      dup5\n        /* \"#utility.yul\":12130:12159   */\n      tag_104\n      jump\t// in\n    tag_248:\n        /* \"#utility.yul\":12120:12128   */\n      dup2\n        /* \"#utility.yul\":12116:12160   */\n      add\n        /* \"#utility.yul\":12313:12315   */\n      0x20\n        /* \"#utility.yul\":12301:12311   */\n      dup6\n        /* \"#utility.yul\":12298:12316   */\n      lt\n        /* \"#utility.yul\":12295:12344   */\n      iszero\n      tag_249\n      jumpi\n        /* \"#utility.yul\":12334:12342   */\n      dup2\n        /* \"#utility.yul\":12319:12342   */\n      swap1\n      pop\n        /* \"#utility.yul\":12295:12344   */\n    tag_249:\n        /* \"#utility.yul\":12357:12437   */\n      tag_250\n        /* \"#utility.yul\":12413:12435   */\n      tag_251\n        /* \"#utility.yul\":12431:12434   */\n      dup6\n        /* \"#utility.yul\":12413:12435   */\n      tag_104\n      jump\t// in\n    tag_251:\n        /* \"#utility.yul\":12403:12411   */\n      dup4\n        /* \"#utility.yul\":12399:12436   */\n      add\n        /* \"#utility.yul\":12386:12397   */\n      dup3\n        /* \"#utility.yul\":12357:12437   */\n      tag_113\n      jump\t// in\n    tag_250:\n        /* \"#utility.yul\":12016:12447   */\n      pop\n      pop\n        /* \"#utility.yul\":12001:12447   */\n    tag_246:\n        /* \"#utility.yul\":11911:12454   */\n      pop\n      pop\n      pop\n      jump\t// out\n        /* \"#utility.yul\":12460:12577   */\n    tag_115:\n        /* \"#utility.yul\":12514:12522   */\n      0x00\n        /* \"#utility.yul\":12564:12569   */\n      dup3\n        /* \"#utility.yul\":12558:12562   */\n      dup3\n        /* \"#utility.yul\":12554:12570   */\n      shr\n        /* \"#utility.yul\":12533:12570   */\n      swap1\n      pop\n        /* \"#utility.yul\":12460:12577   */\n      swap3\n      swap2\n      pop\n      pop\n      jump\t// out\n        /* \"#utility.yul\":12583:12752   */\n    tag_116:\n        /* \"#utility.yul\":12627:12633   */\n      0x00\n        /* \"#utility.yul\":12660:12711   */\n      tag_254\n        /* \"#utility.yul\":12708:12709   */\n      0x00\n        /* \"#utility.yul\":12704:12710   */\n      not\n        /* \"#utility.yul\":12696:12701   */\n      dup5\n        /* \"#utility.yul\":12693:12694   */\n      0x08\n        /* \"#utility.yul\":12689:12702   */\n      mul\n        /* \"#utility.yul\":12660:12711   */\n      tag_115\n      jump\t// in\n    tag_254:\n        /* \"#utility.yul\":12656:12712   */\n      not\n        /* \"#utility.yul\":12741:12745   */\n      dup1\n        /* \"#utility.yul\":12735:12739   */\n      dup4\n        /* \"#utility.yul\":12731:12746   */\n      and\n        /* \"#utility.yul\":12721:12746   */\n      swap2\n      pop\n        /* \"#utility.yul\":12634:12752   */\n      pop\n        /* \"#utility.yul\":12583:12752   */\n      swap3\n      swap2\n      pop\n      pop\n      jump\t// out\n        /* \"#utility.yul\":12757:13052   */\n    tag_117:\n        /* \"#utility.yul\":12833:12837   */\n      0x00\n        /* \"#utility.yul\":12979:13008   */\n      tag_256\n        /* \"#utility.yul\":13004:13007   */\n      dup4\n        /* \"#utility.yul\":12998:13002   */\n      dup4\n        /* \"#utility.yul\":12979:13008   */\n      tag_116\n      jump\t// in\n    tag_256:\n        /* \"#utility.yul\":12971:13008   */\n      swap2\n      pop\n        /* \"#utility.yul\":13041:13044   */\n      dup3\n        /* \"#utility.yul\":13038:13039   */\n      0x02\n        /* \"#utility.yul\":13034:13045   */\n      mul\n        /* \"#utility.yul\":13028:13032   */\n      dup3\n        /* \"#utility.yul\":13025:13046   */\n      or\n        /* \"#utility.yul\":13017:13046   */\n      swap1\n      pop\n        /* \"#utility.yul\":12757:13052   */\n      swap3\n      swap2\n      pop\n      pop\n      jump\t// out\n        /* \"#utility.yul\":13057:14452   */\n    tag_53:\n        /* \"#utility.yul\":13174:13211   */\n      tag_258\n        /* \"#utility.yul\":13207:13210   */\n      dup3\n        /* \"#utility.yul\":13174:13211   */\n      tag_82\n      jump\t// in\n    tag_258:\n        /* \"#utility.yul\":13276:13294   */\n      0xffffffffffffffff\n        /* \"#utility.yul\":13268:13274   */\n      dup2\n        /* \"#utility.yul\":13265:13295   */\n      gt\n        /* \"#utility.yul\":13262:13318   */\n      iszero\n      tag_259\n      jumpi\n        /* \"#utility.yul\":13298:13316   */\n      tag_260\n      tag_90\n      jump\t// in\n    tag_260:\n        /* \"#utility.yul\":13262:13318   */\n    tag_259:\n        /* \"#utility.yul\":13342:13380   */\n      tag_261\n        /* \"#utility.yul\":13374:13378   */\n      dup3\n        /* \"#utility.yul\":13368:13379   */\n      sload\n        /* \"#utility.yul\":13342:13380   */\n      tag_37\n      jump\t// in\n    tag_261:\n        /* \"#utility.yul\":13427:13494   */\n      tag_262\n        /* \"#utility.yul\":13487:13493   */\n      dup3\n        /* \"#utility.yul\":13479:13485   */\n      dup3\n        /* \"#utility.yul\":13473:13477   */\n      dup6\n        /* \"#utility.yul\":13427:13494   */\n      tag_114\n      jump\t// in\n    tag_262:\n        /* \"#utility.yul\":13521:13522   */\n      0x00\n        /* \"#utility.yul\":13545:13549   */\n      0x20\n        /* \"#utility.yul\":13532:13549   */\n      swap1\n      pop\n        /* \"#utility.yul\":13577:13579   */\n      0x1f\n        /* \"#utility.yul\":13569:13575   */\n      dup4\n        /* \"#utility.yul\":13566:13580   */\n      gt\n        /* \"#utility.yul\":13594:13595   */\n      0x01\n        /* \"#utility.yul\":13589:14207   */\n      dup2\n      eq\n      tag_264\n      jumpi\n        /* \"#utility.yul\":14251:14252   */\n      0x00\n        /* \"#utility.yul\":14268:14274   */\n      dup5\n        /* \"#utility.yul\":14265:14342   */\n      iszero\n      tag_265\n      jumpi\n        /* \"#utility.yul\":14317:14326   */\n      dup3\n        /* \"#utility.yul\":14312:14315   */\n      dup8\n        /* \"#utility.yul\":14308:14327   */\n      add\n        /* \"#utility.yul\":14302:14328   */\n      mload\n        /* \"#utility.yul\":14293:14328   */\n      swap1\n      pop\n        /* \"#utility.yul\":14265:14342   */\n    tag_265:\n        /* \"#utility.yul\":14368:14435   */\n      tag_266\n        /* \"#utility.yul\":14428:14434   */\n      dup6\n        /* \"#utility.yul\":14421:14426   */\n      dup3\n        /* \"#utility.yul\":14368:14435   */\n      tag_117\n      jump\t// in\n    tag_266:\n        /* \"#utility.yul\":14362:14366   */\n      dup7\n        /* \"#utility.yul\":14355:14436   */\n      sstore\n        /* \"#utility.yul\":14224:14446   */\n      pop\n        /* \"#utility.yul\":13559:14446   */\n      jump(tag_263)\n        /* \"#utility.yul\":13589:14207   */\n    tag_264:\n        /* \"#utility.yul\":13641:13645   */\n      0x1f\n        /* \"#utility.yul\":13637:13646   */\n      not\n        /* \"#utility.yul\":13629:13635   */\n      dup5\n        /* \"#utility.yul\":13625:13647   */\n      and\n        /* \"#utility.yul\":13675:13712   */\n      tag_267\n        /* \"#utility.yul\":13707:13711   */\n      dup7\n        /* \"#utility.yul\":13675:13712   */\n      tag_103\n      jump\t// in\n    tag_267:\n        /* \"#utility.yul\":13734:13735   */\n      0x00\n        /* \"#utility.yul\":13748:13956   */\n    tag_268:\n        /* \"#utility.yul\":13762:13769   */\n      dup3\n        /* \"#utility.yul\":13759:13760   */\n      dup2\n        /* \"#utility.yul\":13756:13770   */\n      lt\n        /* \"#utility.yul\":13748:13956   */\n      iszero\n      tag_270\n      jumpi\n        /* \"#utility.yul\":13841:13850   */\n      dup5\n        /* \"#utility.yul\":13836:13839   */\n      dup10\n        /* \"#utility.yul\":13832:13851   */\n      add\n        /* \"#utility.yul\":13826:13852   */\n      mload\n        /* \"#utility.yul\":13818:13824   */\n      dup3\n        /* \"#utility.yul\":13811:13853   */\n      sstore\n        /* \"#utility.yul\":13892:13893   */\n      0x01\n        /* \"#utility.yul\":13884:13890   */\n      dup3\n        /* \"#utility.yul\":13880:13894   */\n      add\n        /* \"#utility.yul\":13870:13894   */\n      swap2\n      pop\n        /* \"#utility.yul\":13939:13941   */\n      0x20\n        /* \"#utility.yul\":13928:13937   */\n      dup6\n        /* \"#utility.yul\":13924:13942   */\n      add\n        /* \"#utility.yul\":13911:13942   */\n      swap5\n      pop\n        /* \"#utility.yul\":13785:13789   */\n      0x20\n        /* \"#utility.yul\":13782:13783   */\n      dup2\n        /* \"#utility.yul\":13778:13790   */\n      add\n        /* \"#utility.yul\":13773:13790   */\n      swap1\n      pop\n        /* \"#utility.yul\":13748:13956   */\n      jump(tag_268)\n    tag_270:\n        /* \"#utility.yul\":13984:13990   */\n      dup7\n        /* \"#utility.yul\":13975:13982   */\n      dup4\n        /* \"#utility.yul\":13972:13991   */\n      lt\n        /* \"#utility.yul\":13969:14148   */\n      iszero\n      tag_271\n      jumpi\n        /* \"#utility.yul\":14042:14051   */\n      dup5\n        /* \"#utility.yul\":14037:14040   */\n      dup10\n        /* \"#utility.yul\":14033:14052   */\n      add\n        /* \"#utility.yul\":14027:14053   */\n      mload\n        /* \"#utility.yul\":14085:14133   */\n      tag_272\n        /* \"#utility.yul\":14127:14131   */\n      0x1f\n        /* \"#utility.yul\":14119:14125   */\n      dup10\n        /* \"#utility.yul\":14115:14132   */\n      and\n        /* \"#utility.yul\":14104:14113   */\n      dup3\n        /* \"#utility.yul\":14085:14133   */\n      tag_116\n      jump\t// in\n    tag_272:\n        /* \"#utility.yul\":14077:14083   */\n      dup4\n        /* \"#utility.yul\":14070:14134   */\n      sstore\n        /* \"#utility.yul\":13992:14148   */\n      pop\n        /* \"#utility.yul\":13969:14148   */\n    tag_271:\n        /* \"#utility.yul\":14194:14195   */\n      0x01\n        /* \"#utility.yul\":14190:14191   */\n      0x02\n        /* \"#utility.yul\":14182:14188   */\n      dup9\n        /* \"#utility.yul\":14178:14192   */\n      mul\n        /* \"#utility.yul\":14174:14196   */\n      add\n        /* \"#utility.yul\":14168:14172   */\n      dup9\n        /* \"#utility.yul\":14161:14197   */\n      sstore\n        /* \"#utility.yul\":13596:14207   */\n      pop\n      pop\n      pop\n        /* \"#utility.yul\":13559:14446   */\n    tag_263:\n      pop\n        /* \"#utility.yul\":13149:14452   */\n      pop\n      pop\n      pop\n        /* \"#utility.yul\":13057:14452   */\n      pop\n      pop\n      jump\t// out\n        /* \"#utility.yul\":14458:14638   */\n    tag_118:\n        /* \"#utility.yul\":14506:14583   */\n      0x4e487b7100000000000000000000000000000000000000000000000000000000\n        /* \"#utility.yul\":14503:14504   */\n      0x00\n        /* \"#utility.yul\":14496:14584   */\n      mstore\n        /* \"#utility.yul\":14603:14607   */\n      0x11\n        /* \"#utility.yul\":14600:14601   */\n      0x04\n        /* \"#utility.yul\":14593:14608   */\n      mstore\n        /* \"#utility.yul\":14627:14631   */\n      0x24\n        /* \"#utility.yul\":14624:14625   */\n      0x00\n        /* \"#utility.yul\":14617:14632   */\n      revert\n        /* \"#utility.yul\":14644:14835   */\n    tag_60:\n        /* \"#utility.yul\":14684:14687   */\n      0x00\n        /* \"#utility.yul\":14703:14723   */\n      tag_275\n        /* \"#utility.yul\":14721:14722   */\n      dup3\n        /* \"#utility.yul\":14703:14723   */\n      tag_79\n      jump\t// in\n    tag_275:\n        /* \"#utility.yul\":14698:14723   */\n      swap2\n      pop\n        /* \"#utility.yul\":14737:14757   */\n      tag_276\n        /* \"#utility.yul\":14755:14756   */\n      dup4\n        /* \"#utility.yul\":14737:14757   */\n      tag_79\n      jump\t// in\n    tag_276:\n        /* \"#utility.yul\":14732:14757   */\n      swap3\n      pop\n        /* \"#utility.yul\":14780:14781   */\n      dup3\n        /* \"#utility.yul\":14777:14778   */\n      dup3\n        /* \"#utility.yul\":14773:14782   */\n      add\n        /* \"#utility.yul\":14766:14782   */\n      swap1\n      pop\n        /* \"#utility.yul\":14801:14804   */\n      dup1\n        /* \"#utility.yul\":14798:14799   */\n      dup3\n        /* \"#utility.yul\":14795:14805   */\n      gt\n        /* \"#utility.yul\":14792:14828   */\n      iszero\n      tag_277\n      jumpi\n        /* \"#utility.yul\":14808:14826   */\n      tag_278\n      tag_118\n      jump\t// in\n    tag_278:\n        /* \"#utility.yul\":14792:14828   */\n    tag_277:\n        /* \"#utility.yul\":14644:14835   */\n      swap3\n      swap2\n      pop\n      pop\n      jump\t// out\n\n    auxdata: 0xa264697066735822122057deafe955ee12d1bab19ade695ab332180c2ddd19d6776a0cc5ac8afc1bbbaa64736f6c634300081c0033\n}\n",
				"bytecode": {
					"linkReferences": {},
					"object": "60806040525f6002553480156012575f5ffd5b50335f5f6101000a81548173ffffffffffffffffffffffffffffffffffffffff021916908373ffffffffffffffffffffffffffffffffffffffff160217905550610e4e8061005f5f395ff3fe608060405234801561000f575f5ffd5b5060043610610060575f3560e01c806335f34232146100645780634efc63301461009857806356460a5b146100b457806386a9b364146100d05780639852bf8e14610104578063fe6674bf14610122575b5f5ffd5b61007e60048036038101906100799190610676565b610140565b60405161008f959493929190610720565b60405180910390f35b6100b260048036038101906100ad91906108ab565b61027e565b005b6100ce60048036038101906100c99190610905565b610314565b005b6100ea60048036038101906100e59190610676565b610419565b6040516100fb9594939291906109b4565b60405180910390f35b61010c610605565b6040516101199190610a13565b60405180910390f35b61012a61060e565b6040516101379190610a6b565b60405180910390f35b6001602052805f5260405f205f91509050805f01805461015f90610ab1565b80601f016020809104026020016040519081016040528092919081815260200182805461018b90610ab1565b80156101d65780601f106101ad576101008083540402835291602001916101d6565b820191905f5260205f20905b8154815290600101906020018083116101b957829003601f168201915b5050505050908060010154908060020154908060030180546101f790610ab1565b80601f016020809104026020016040519081016040528092919081815260200182805461022390610ab1565b801561026e5780601f106102455761010080835404028352916020019161026e565b820191905f5260205f20905b81548152906001019060200180831161025157829003601f168201915b5050505050908060040154905085565b818060015f8381526020019081526020015f2060010154146102d5576040517f08c379a00000000000000000000000000000000000000000000000000000000081526004016102cc90610b2b565b60405180910390fd5b8260015f8581526020019081526020015f20600101819055508160015f8581526020019081526020015f205f01908161030e9190610ce9565b50505050565b5f5f9054906101000a900473ffffffffffffffffffffffffffffffffffffffff1673ffffffffffffffffffffffffffffffffffffffff163373ffffffffffffffffffffffffffffffffffffffff161461036b575f5ffd5b8360015f8681526020019081526020015f20600101819055508460015f8681526020019081526020015f205f0190816103a49190610ce9565b508160015f8681526020019081526020015f20600201819055508260015f8681526020019081526020015f2060030190816103df9190610ce9565b508060015f8681526020019081526020015f2060040181905550600160025f82825461040b9190610de5565b925050819055505050505050565b5f60605f60605f858060015f8381526020019081526020015f206001015414610477576040517f08c379a000000000000000000000000000000000000000000000000000000000815260040161046e90610b2b565b60405180910390fd5b60015f8881526020019081526020015f206001015460015f8981526020019081526020015f205f0160015f8a81526020019081526020015f206002015460015f8b81526020019081526020015f2060030160015f8c81526020019081526020015f20600401548380546104e990610ab1565b80601f016020809104026020016040519081016040528092919081815260200182805461051590610ab1565b80156105605780601f1061053757610100808354040283529160200191610560565b820191905f5260205f20905b81548152906001019060200180831161054357829003601f168201915b5050505050935081805461057390610ab1565b80601f016020809104026020016040519081016040528092919081815260200182805461059f90610ab1565b80156105ea5780601f106105c1576101008083540402835291602001916105ea565b820191905f5260205f20905b8154815290600101906020018083116105cd57829003601f168201915b50505050509150955095509550955095505091939590929450565b5f600254905090565b5f5f9054906101000a900473ffffffffffffffffffffffffffffffffffffffff1681565b5f604051905090565b5f5ffd5b5f5ffd5b5f819050919050565b61065581610643565b811461065f575f5ffd5b50565b5f813590506106708161064c565b92915050565b5f6020828403121561068b5761068a61063b565b5b5f61069884828501610662565b91505092915050565b5f81519050919050565b5f82825260208201905092915050565b8281835e5f83830152505050565b5f601f19601f8301169050919050565b5f6106e3826106a1565b6106ed81856106ab565b93506106fd8185602086016106bb565b610706816106c9565b840191505092915050565b61071a81610643565b82525050565b5f60a0820190508181035f83015261073881886106d9565b90506107476020830187610711565b6107546040830186610711565b818103606083015261076681856106d9565b90506107756080830184610711565b9695505050505050565b5f5ffd5b5f5ffd5b7f4e487b71000000000000000000000000000000000000000000000000000000005f52604160045260245ffd5b6107bd826106c9565b810181811067ffffffffffffffff821117156107dc576107db610787565b5b80604052505050565b5f6107ee610632565b90506107fa82826107b4565b919050565b5f67ffffffffffffffff82111561081957610818610787565b5b610822826106c9565b9050602081019050919050565b828183375f83830152505050565b5f61084f61084a846107ff565b6107e5565b90508281526020810184848401111561086b5761086a610783565b5b61087684828561082f565b509392505050565b5f82601f8301126108925761089161077f565b5b81356108a284826020860161083d565b91505092915050565b5f5f604083850312156108c1576108c061063b565b5b5f6108ce85828601610662565b925050602083013567ffffffffffffffff8111156108ef576108ee61063f565b5b6108fb8582860161087e565b9150509250929050565b5f5f5f5f5f60a0868803121561091e5761091d61063b565b5b5f86013567ffffffffffffffff81111561093b5761093a61063f565b5b6109478882890161087e565b955050602061095888828901610662565b945050604086013567ffffffffffffffff8111156109795761097861063f565b5b6109858882890161087e565b935050606061099688828901610662565b92505060806109a788828901610662565b9150509295509295909350565b5f60a0820190506109c75f830188610711565b81810360208301526109d981876106d9565b90506109e86040830186610711565b81810360608301526109fa81856106d9565b9050610a096080830184610711565b9695505050505050565b5f602082019050610a265f830184610711565b92915050565b5f73ffffffffffffffffffffffffffffffffffffffff82169050919050565b5f610a5582610a2c565b9050919050565b610a6581610a4b565b82525050565b5f602082019050610a7e5f830184610a5c565b92915050565b7f4e487b71000000000000000000000000000000000000000000000000000000005f52602260045260245ffd5b5f6002820490506001821680610ac857607f821691505b602082108103610adb57610ada610a84565b5b50919050565b7f53747564656e74206e6f742070726573656e74000000000000000000000000005f82015250565b5f610b156013836106ab565b9150610b2082610ae1565b602082019050919050565b5f6020820190508181035f830152610b4281610b09565b9050919050565b5f819050815f5260205f209050919050565b5f6020601f8301049050919050565b5f82821b905092915050565b5f60088302610ba57fffffffffffffffffffffffffffffffffffffffffffffffffffffffffffffffff82610b6a565b610baf8683610b6a565b95508019841693508086168417925050509392505050565b5f819050919050565b5f610bea610be5610be084610643565b610bc7565b610643565b9050919050565b5f819050919050565b610c0383610bd0565b610c17610c0f82610bf1565b848454610b76565b825550505050565b5f5f905090565b610c2e610c1f565b610c39818484610bfa565b505050565b5b81811015610c5c57610c515f82610c26565b600181019050610c3f565b5050565b601f821115610ca157610c7281610b49565b610c7b84610b5b565b81016020851015610c8a578190505b610c9e610c9685610b5b565b830182610c3e565b50505b505050565b5f82821c905092915050565b5f610cc15f1984600802610ca6565b1980831691505092915050565b5f610cd98383610cb2565b9150826002028217905092915050565b610cf2826106a1565b67ffffffffffffffff811115610d0b57610d0a610787565b5b610d158254610ab1565b610d20828285610c60565b5f60209050601f831160018114610d51575f8415610d3f578287015190505b610d498582610cce565b865550610db0565b601f198416610d5f86610b49565b5f5b82811015610d8657848901518255600182019150602085019450602081019050610d61565b86831015610da35784890151610d9f601f891682610cb2565b8355505b6001600288020188555050505b505050505050565b7f4e487b71000000000000000000000000000000000000000000000000000000005f52601160045260245ffd5b5f610def82610643565b9150610dfa83610643565b9250828201905080821115610e1257610e11610db8565b5b9291505056fea264697066735822122057deafe955ee12d1bab19ade695ab332180c2ddd19d6776a0cc5ac8afc1bbbaa64736f6c634300081c0033",
					"opcodes": "PUSH1 0x80 PUSH1 0x40 MSTORE PUSH0 PUSH1 0x2 SSTORE CALLVALUE DUP1 ISZERO PUSH1 0x12 JUMPI PUSH0 PUSH0 REVERT JUMPDEST POP CALLER PUSH0 PUSH0 PUSH2 0x100 EXP DUP2 SLOAD DUP2 PUSH20 0xFFFFFFFFFFFFFFFFFFFFFFFFFFFFFFFFFFFFFFFF MUL NOT AND SWAP1 DUP4 PUSH20 0xFFFFFFFFFFFFFFFFFFFFFFFFFFFFFFFFFFFFFFFF AND MUL OR SWAP1 SSTORE POP PUSH2 0xE4E DUP1 PUSH2 0x5F PUSH0 CODECOPY PUSH0 RETURN INVALID PUSH1 0x80 PUSH1 0x40 MSTORE CALLVALUE DUP1 ISZERO PUSH2 0xF JUMPI PUSH0 PUSH0 REVERT JUMPDEST POP PUSH1 0x4 CALLDATASIZE LT PUSH2 0x60 JUMPI PUSH0 CALLDATALOAD PUSH1 0xE0 SHR DUP1 PUSH4 0x35F34232 EQ PUSH2 0x64 JUMPI DUP1 PUSH4 0x4EFC6330 EQ PUSH2 0x98 JUMPI DUP1 PUSH4 0x56460A5B EQ PUSH2 0xB4 JUMPI DUP1 PUSH4 0x86A9B364 EQ PUSH2 0xD0 JUMPI DUP1 PUSH4 0x9852BF8E EQ PUSH2 0x104 JUMPI DUP1 PUSH4 0xFE6674BF EQ PUSH2 0x122 JUMPI JUMPDEST PUSH0 PUSH0 REVERT JUMPDEST PUSH2 0x7E PUSH1 0x4 DUP1 CALLDATASIZE SUB DUP2 ADD SWAP1 PUSH2 0x79 SWAP2 SWAP1 PUSH2 0x676 JUMP JUMPDEST PUSH2 0x140 JUMP JUMPDEST PUSH1 0x40 MLOAD PUSH2 0x8F SWAP6 SWAP5 SWAP4 SWAP3 SWAP2 SWAP1 PUSH2 0x720 JUMP JUMPDEST PUSH1 0x40 MLOAD DUP1 SWAP2 SUB SWAP1 RETURN JUMPDEST PUSH2 0xB2 PUSH1 0x4 DUP1 CALLDATASIZE SUB DUP2 ADD SWAP1 PUSH2 0xAD SWAP2 SWAP1 PUSH2 0x8AB JUMP JUMPDEST PUSH2 0x27E JUMP JUMPDEST STOP JUMPDEST PUSH2 0xCE PUSH1 0x4 DUP1 CALLDATASIZE SUB DUP2 ADD SWAP1 PUSH2 0xC9 SWAP2 SWAP1 PUSH2 0x905 JUMP JUMPDEST PUSH2 0x314 JUMP JUMPDEST STOP JUMPDEST PUSH2 0xEA PUSH1 0x4 DUP1 CALLDATASIZE SUB DUP2 ADD SWAP1 PUSH2 0xE5 SWAP2 SWAP1 PUSH2 0x676 JUMP JUMPDEST PUSH2 0x419 JUMP JUMPDEST PUSH1 0x40 MLOAD PUSH2 0xFB SWAP6 SWAP5 SWAP4 SWAP3 SWAP2 SWAP1 PUSH2 0x9B4 JUMP JUMPDEST PUSH1 0x40 MLOAD DUP1 SWAP2 SUB SWAP1 RETURN JUMPDEST PUSH2 0x10C PUSH2 0x605 JUMP JUMPDEST PUSH1 0x40 MLOAD PUSH2 0x119 SWAP2 SWAP1 PUSH2 0xA13 JUMP JUMPDEST PUSH1 0x40 MLOAD DUP1 SWAP2 SUB SWAP1 RETURN JUMPDEST PUSH2 0x12A PUSH2 0x60E JUMP JUMPDEST PUSH1 0x40 MLOAD PUSH2 0x137 SWAP2 SWAP1 PUSH2 0xA6B JUMP JUMPDEST PUSH1 0x40 MLOAD DUP1 SWAP2 SUB SWAP1 RETURN JUMPDEST PUSH1 0x1 PUSH1 0x20 MSTORE DUP1 PUSH0 MSTORE PUSH1 0x40 PUSH0 KECCAK256 PUSH0 SWAP2 POP SWAP1 POP DUP1 PUSH0 ADD DUP1 SLOAD PUSH2 0x15F SWAP1 PUSH2 0xAB1 JUMP JUMPDEST DUP1 PUSH1 0x1F ADD PUSH1 0x20 DUP1 SWAP2 DIV MUL PUSH1 0x20 ADD PUSH1 0x40 MLOAD SWAP1 DUP2 ADD PUSH1 0x40 MSTORE DUP1 SWAP3 SWAP2 SWAP1 DUP2 DUP2 MSTORE PUSH1 0x20 ADD DUP3 DUP1 SLOAD PUSH2 0x18B SWAP1 PUSH2 0xAB1 JUMP JUMPDEST DUP1 ISZERO PUSH2 0x1D6 JUMPI DUP1 PUSH1 0x1F LT PUSH2 0x1AD JUMPI PUSH2 0x100 DUP1 DUP4 SLOAD DIV MUL DUP4 MSTORE SWAP2 PUSH1 0x20 ADD SWAP2 PUSH2 0x1D6 JUMP JUMPDEST DUP3 ADD SWAP2 SWAP1 PUSH0 MSTORE PUSH1 0x20 PUSH0 KECCAK256 SWAP1 JUMPDEST DUP2 SLOAD DUP2 MSTORE SWAP1 PUSH1 0x1 ADD SWAP1 PUSH1 0x20 ADD DUP1 DUP4 GT PUSH2 0x1B9 JUMPI DUP3 SWAP1 SUB PUSH1 0x1F AND DUP3 ADD SWAP2 JUMPDEST POP POP POP POP POP SWAP1 DUP1 PUSH1 0x1 ADD SLOAD SWAP1 DUP1 PUSH1 0x2 ADD SLOAD SWAP1 DUP1 PUSH1 0x3 ADD DUP1 SLOAD PUSH2 0x1F7 SWAP1 PUSH2 0xAB1 JUMP JUMPDEST DUP1 PUSH1 0x1F ADD PUSH1 0x20 DUP1 SWAP2 DIV MUL PUSH1 0x20 ADD PUSH1 0x40 MLOAD SWAP1 DUP2 ADD PUSH1 0x40 MSTORE DUP1 SWAP3 SWAP2 SWAP1 DUP2 DUP2 MSTORE PUSH1 0x20 ADD DUP3 DUP1 SLOAD PUSH2 0x223 SWAP1 PUSH2 0xAB1 JUMP JUMPDEST DUP1 ISZERO PUSH2 0x26E JUMPI DUP1 PUSH1 0x1F LT PUSH2 0x245 JUMPI PUSH2 0x100 DUP1 DUP4 SLOAD DIV MUL DUP4 MSTORE SWAP2 PUSH1 0x20 ADD SWAP2 PUSH2 0x26E JUMP JUMPDEST DUP3 ADD SWAP2 SWAP1 PUSH0 MSTORE PUSH1 0x20 PUSH0 KECCAK256 SWAP1 JUMPDEST DUP2 SLOAD DUP2 MSTORE SWAP1 PUSH1 0x1 ADD SWAP1 PUSH1 0x20 ADD DUP1 DUP4 GT PUSH2 0x251 JUMPI DUP3 SWAP1 SUB PUSH1 0x1F AND DUP3 ADD SWAP2 JUMPDEST POP POP POP POP POP SWAP1 DUP1 PUSH1 0x4 ADD SLOAD SWAP1 POP DUP6 JUMP JUMPDEST DUP2 DUP1 PUSH1 0x1 PUSH0 DUP4 DUP2 MSTORE PUSH1 0x20 ADD SWAP1 DUP2 MSTORE PUSH1 0x20 ADD PUSH0 KECCAK256 PUSH1 0x1 ADD SLOAD EQ PUSH2 0x2D5 JUMPI PUSH1 0x40 MLOAD PUSH32 0x8C379A000000000000000000000000000000000000000000000000000000000 DUP2 MSTORE PUSH1 0x4 ADD PUSH2 0x2CC SWAP1 PUSH2 0xB2B JUMP JUMPDEST PUSH1 0x40 MLOAD DUP1 SWAP2 SUB SWAP1 REVERT JUMPDEST DUP3 PUSH1 0x1 PUSH0 DUP6 DUP2 MSTORE PUSH1 0x20 ADD SWAP1 DUP2 MSTORE PUSH1 0x20 ADD PUSH0 KECCAK256 PUSH1 0x1 ADD DUP2 SWAP1 SSTORE POP DUP2 PUSH1 0x1 PUSH0 DUP6 DUP2 MSTORE PUSH1 0x20 ADD SWAP1 DUP2 MSTORE PUSH1 0x20 ADD PUSH0 KECCAK256 PUSH0 ADD SWAP1 DUP2 PUSH2 0x30E SWAP2 SWAP1 PUSH2 0xCE9 JUMP JUMPDEST POP POP POP POP JUMP JUMPDEST PUSH0 PUSH0 SWAP1 SLOAD SWAP1 PUSH2 0x100 EXP SWAP1 DIV PUSH20 0xFFFFFFFFFFFFFFFFFFFFFFFFFFFFFFFFFFFFFFFF AND PUSH20 0xFFFFFFFFFFFFFFFFFFFFFFFFFFFFFFFFFFFFFFFF AND CALLER PUSH20 0xFFFFFFFFFFFFFFFFFFFFFFFFFFFFFFFFFFFFFFFF AND EQ PUSH2 0x36B JUMPI PUSH0 PUSH0 REVERT JUMPDEST DUP4 PUSH1 0x1 PUSH0 DUP7 DUP2 MSTORE PUSH1 0x20 ADD SWAP1 DUP2 MSTORE PUSH1 0x20 ADD PUSH0 KECCAK256 PUSH1 0x1 ADD DUP2 SWAP1 SSTORE POP DUP5 PUSH1 0x1 PUSH0 DUP7 DUP2 MSTORE PUSH1 0x20 ADD SWAP1 DUP2 MSTORE PUSH1 0x20 ADD PUSH0 KECCAK256 PUSH0 ADD SWAP1 DUP2 PUSH2 0x3A4 SWAP2 SWAP1 PUSH2 0xCE9 JUMP JUMPDEST POP DUP2 PUSH1 0x1 PUSH0 DUP7 DUP2 MSTORE PUSH1 0x20 ADD SWAP1 DUP2 MSTORE PUSH1 0x20 ADD PUSH0 KECCAK256 PUSH1 0x2 ADD DUP2 SWAP1 SSTORE POP DUP3 PUSH1 0x1 PUSH0 DUP7 DUP2 MSTORE PUSH1 0x20 ADD SWAP1 DUP2 MSTORE PUSH1 0x20 ADD PUSH0 KECCAK256 PUSH1 0x3 ADD SWAP1 DUP2 PUSH2 0x3DF SWAP2 SWAP1 PUSH2 0xCE9 JUMP JUMPDEST POP DUP1 PUSH1 0x1 PUSH0 DUP7 DUP2 MSTORE PUSH1 0x20 ADD SWAP1 DUP2 MSTORE PUSH1 0x20 ADD PUSH0 KECCAK256 PUSH1 0x4 ADD DUP2 SWAP1 SSTORE POP PUSH1 0x1 PUSH1 0x2 PUSH0 DUP3 DUP3 SLOAD PUSH2 0x40B SWAP2 SWAP1 PUSH2 0xDE5 JUMP JUMPDEST SWAP3 POP POP DUP2 SWAP1 SSTORE POP POP POP POP POP POP JUMP JUMPDEST PUSH0 PUSH1 0x60 PUSH0 PUSH1 0x60 PUSH0 DUP6 DUP1 PUSH1 0x1 PUSH0 DUP4 DUP2 MSTORE PUSH1 0x20 ADD SWAP1 DUP2 MSTORE PUSH1 0x20 ADD PUSH0 KECCAK256 PUSH1 0x1 ADD SLOAD EQ PUSH2 0x477 JUMPI PUSH1 0x40 MLOAD PUSH32 0x8C379A000000000000000000000000000000000000000000000000000000000 DUP2 MSTORE PUSH1 0x4 ADD PUSH2 0x46E SWAP1 PUSH2 0xB2B JUMP JUMPDEST PUSH1 0x40 MLOAD DUP1 SWAP2 SUB SWAP1 REVERT JUMPDEST PUSH1 0x1 PUSH0 DUP9 DUP2 MSTORE PUSH1 0x20 ADD SWAP1 DUP2 MSTORE PUSH1 0x20 ADD PUSH0 KECCAK256 PUSH1 0x1 ADD SLOAD PUSH1 0x1 PUSH0 DUP10 DUP2 MSTORE PUSH1 0x20 ADD SWAP1 DUP2 MSTORE PUSH1 0x20 ADD PUSH0 KECCAK256 PUSH0 ADD PUSH1 0x1 PUSH0 DUP11 DUP2 MSTORE PUSH1 0x20 ADD SWAP1 DUP2 MSTORE PUSH1 0x20 ADD PUSH0 KECCAK256 PUSH1 0x2 ADD SLOAD PUSH1 0x1 PUSH0 DUP12 DUP2 MSTORE PUSH1 0x20 ADD SWAP1 DUP2 MSTORE PUSH1 0x20 ADD PUSH0 KECCAK256 PUSH1 0x3 ADD PUSH1 0x1 PUSH0 DUP13 DUP2 MSTORE PUSH1 0x20 ADD SWAP1 DUP2 MSTORE PUSH1 0x20 ADD PUSH0 KECCAK256 PUSH1 0x4 ADD SLOAD DUP4 DUP1 SLOAD PUSH2 0x4E9 SWAP1 PUSH2 0xAB1 JUMP JUMPDEST DUP1 PUSH1 0x1F ADD PUSH1 0x20 DUP1 SWAP2 DIV MUL PUSH1 0x20 ADD PUSH1 0x40 MLOAD SWAP1 DUP2 ADD PUSH1 0x40 MSTORE DUP1 SWAP3 SWAP2 SWAP1 DUP2 DUP2 MSTORE PUSH1 0x20 ADD DUP3 DUP1 SLOAD PUSH2 0x515 SWAP1 PUSH2 0xAB1 JUMP JUMPDEST DUP1 ISZERO PUSH2 0x560 JUMPI DUP1 PUSH1 0x1F LT PUSH2 0x537 JUMPI PUSH2 0x100 DUP1 DUP4 SLOAD DIV MUL DUP4 MSTORE SWAP2 PUSH1 0x20 ADD SWAP2 PUSH2 0x560 JUMP JUMPDEST DUP3 ADD SWAP2 SWAP1 PUSH0 MSTORE PUSH1 0x20 PUSH0 KECCAK256 SWAP1 JUMPDEST DUP2 SLOAD DUP2 MSTORE SWAP1 PUSH1 0x1 ADD SWAP1 PUSH1 0x20 ADD DUP1 DUP4 GT PUSH2 0x543 JUMPI DUP3 SWAP1 SUB PUSH1 0x1F AND DUP3 ADD SWAP2 JUMPDEST POP POP POP POP POP SWAP4 POP DUP2 DUP1 SLOAD PUSH2 0x573 SWAP1 PUSH2 0xAB1 JUMP JUMPDEST DUP1 PUSH1 0x1F ADD PUSH1 0x20 DUP1 SWAP2 DIV MUL PUSH1 0x20 ADD PUSH1 0x40 MLOAD SWAP1 DUP2 ADD PUSH1 0x40 MSTORE DUP1 SWAP3 SWAP2 SWAP1 DUP2 DUP2 MSTORE PUSH1 0x20 ADD DUP3 DUP1 SLOAD PUSH2 0x59F SWAP1 PUSH2 0xAB1 JUMP JUMPDEST DUP1 ISZERO PUSH2 0x5EA JUMPI DUP1 PUSH1 0x1F LT PUSH2 0x5C1 JUMPI PUSH2 0x100 DUP1 DUP4 SLOAD DIV MUL DUP4 MSTORE SWAP2 PUSH1 0x20 ADD SWAP2 PUSH2 0x5EA JUMP JUMPDEST DUP3 ADD SWAP2 SWAP1 PUSH0 MSTORE PUSH1 0x20 PUSH0 KECCAK256 SWAP1 JUMPDEST DUP2 SLOAD DUP2 MSTORE SWAP1 PUSH1 0x1 ADD SWAP1 PUSH1 0x20 ADD DUP1 DUP4 GT PUSH2 0x5CD JUMPI DUP3 SWAP1 SUB PUSH1 0x1F AND DUP3 ADD SWAP2 JUMPDEST POP POP POP POP POP SWAP2 POP SWAP6 POP SWAP6 POP SWAP6 POP SWAP6 POP SWAP6 POP POP SWAP2 SWAP4 SWAP6 SWAP1 SWAP3 SWAP5 POP JUMP JUMPDEST PUSH0 PUSH1 0x2 SLOAD SWAP1 POP SWAP1 JUMP JUMPDEST PUSH0 PUSH0 SWAP1 SLOAD SWAP1 PUSH2 0x100 EXP SWAP1 DIV PUSH20 0xFFFFFFFFFFFFFFFFFFFFFFFFFFFFFFFFFFFFFFFF AND DUP2 JUMP JUMPDEST PUSH0 PUSH1 0x40 MLOAD SWAP1 POP SWAP1 JUMP JUMPDEST PUSH0 PUSH0 REVERT JUMPDEST PUSH0 PUSH0 REVERT JUMPDEST PUSH0 DUP2 SWAP1 POP SWAP2 SWAP1 POP JUMP JUMPDEST PUSH2 0x655 DUP2 PUSH2 0x643 JUMP JUMPDEST DUP2 EQ PUSH2 0x65F JUMPI PUSH0 PUSH0 REVERT JUMPDEST POP JUMP JUMPDEST PUSH0 DUP2 CALLDATALOAD SWAP1 POP PUSH2 0x670 DUP2 PUSH2 0x64C JUMP JUMPDEST SWAP3 SWAP2 POP POP JUMP JUMPDEST PUSH0 PUSH1 0x20 DUP3 DUP5 SUB SLT ISZERO PUSH2 0x68B JUMPI PUSH2 0x68A PUSH2 0x63B JUMP JUMPDEST JUMPDEST PUSH0 PUSH2 0x698 DUP5 DUP3 DUP6 ADD PUSH2 0x662 JUMP JUMPDEST SWAP2 POP POP SWAP3 SWAP2 POP POP JUMP JUMPDEST PUSH0 DUP2 MLOAD SWAP1 POP SWAP2 SWAP1 POP JUMP JUMPDEST PUSH0 DUP3 DUP3 MSTORE PUSH1 0x20 DUP3 ADD SWAP1 POP SWAP3 SWAP2 POP POP JUMP JUMPDEST DUP3 DUP2 DUP4 MCOPY PUSH0 DUP4 DUP4 ADD MSTORE POP POP POP JUMP JUMPDEST PUSH0 PUSH1 0x1F NOT PUSH1 0x1F DUP4 ADD AND SWAP1 POP SWAP2 SWAP1 POP JUMP JUMPDEST PUSH0 PUSH2 0x6E3 DUP3 PUSH2 0x6A1 JUMP JUMPDEST PUSH2 0x6ED DUP2 DUP6 PUSH2 0x6AB JUMP JUMPDEST SWAP4 POP PUSH2 0x6FD DUP2 DUP6 PUSH1 0x20 DUP7 ADD PUSH2 0x6BB JUMP JUMPDEST PUSH2 0x706 DUP2 PUSH2 0x6C9 JUMP JUMPDEST DUP5 ADD SWAP2 POP POP SWAP3 SWAP2 POP POP JUMP JUMPDEST PUSH2 0x71A DUP2 PUSH2 0x643 JUMP JUMPDEST DUP3 MSTORE POP POP JUMP JUMPDEST PUSH0 PUSH1 0xA0 DUP3 ADD SWAP1 POP DUP2 DUP2 SUB PUSH0 DUP4 ADD MSTORE PUSH2 0x738 DUP2 DUP9 PUSH2 0x6D9 JUMP JUMPDEST SWAP1 POP PUSH2 0x747 PUSH1 0x20 DUP4 ADD DUP8 PUSH2 0x711 JUMP JUMPDEST PUSH2 0x754 PUSH1 0x40 DUP4 ADD DUP7 PUSH2 0x711 JUMP JUMPDEST DUP2 DUP2 SUB PUSH1 0x60 DUP4 ADD MSTORE PUSH2 0x766 DUP2 DUP6 PUSH2 0x6D9 JUMP JUMPDEST SWAP1 POP PUSH2 0x775 PUSH1 0x80 DUP4 ADD DUP5 PUSH2 0x711 JUMP JUMPDEST SWAP7 SWAP6 POP POP POP POP POP POP JUMP JUMPDEST PUSH0 PUSH0 REVERT JUMPDEST PUSH0 PUSH0 REVERT JUMPDEST PUSH32 0x4E487B7100000000000000000000000000000000000000000000000000000000 PUSH0 MSTORE PUSH1 0x41 PUSH1 0x4 MSTORE PUSH1 0x24 PUSH0 REVERT JUMPDEST PUSH2 0x7BD DUP3 PUSH2 0x6C9 JUMP JUMPDEST DUP2 ADD DUP2 DUP2 LT PUSH8 0xFFFFFFFFFFFFFFFF DUP3 GT OR ISZERO PUSH2 0x7DC JUMPI PUSH2 0x7DB PUSH2 0x787 JUMP JUMPDEST JUMPDEST DUP1 PUSH1 0x40 MSTORE POP POP POP JUMP JUMPDEST PUSH0 PUSH2 0x7EE PUSH2 0x632 JUMP JUMPDEST SWAP1 POP PUSH2 0x7FA DUP3 DUP3 PUSH2 0x7B4 JUMP JUMPDEST SWAP2 SWAP1 POP JUMP JUMPDEST PUSH0 PUSH8 0xFFFFFFFFFFFFFFFF DUP3 GT ISZERO PUSH2 0x819 JUMPI PUSH2 0x818 PUSH2 0x787 JUMP JUMPDEST JUMPDEST PUSH2 0x822 DUP3 PUSH2 0x6C9 JUMP JUMPDEST SWAP1 POP PUSH1 0x20 DUP2 ADD SWAP1 POP SWAP2 SWAP1 POP JUMP JUMPDEST DUP3 DUP2 DUP4 CALLDATACOPY PUSH0 DUP4 DUP4 ADD MSTORE POP POP POP JUMP JUMPDEST PUSH0 PUSH2 0x84F PUSH2 0x84A DUP5 PUSH2 0x7FF JUMP JUMPDEST PUSH2 0x7E5 JUMP JUMPDEST SWAP1 POP DUP3 DUP2 MSTORE PUSH1 0x20 DUP2 ADD DUP5 DUP5 DUP5 ADD GT ISZERO PUSH2 0x86B JUMPI PUSH2 0x86A PUSH2 0x783 JUMP JUMPDEST JUMPDEST PUSH2 0x876 DUP5 DUP3 DUP6 PUSH2 0x82F JUMP JUMPDEST POP SWAP4 SWAP3 POP POP POP JUMP JUMPDEST PUSH0 DUP3 PUSH1 0x1F DUP4 ADD SLT PUSH2 0x892 JUMPI PUSH2 0x891 PUSH2 0x77F JUMP JUMPDEST JUMPDEST DUP2 CALLDATALOAD PUSH2 0x8A2 DUP5 DUP3 PUSH1 0x20 DUP7 ADD PUSH2 0x83D JUMP JUMPDEST SWAP2 POP POP SWAP3 SWAP2 POP POP JUMP JUMPDEST PUSH0 PUSH0 PUSH1 0x40 DUP4 DUP6 SUB SLT ISZERO PUSH2 0x8C1 JUMPI PUSH2 0x8C0 PUSH2 0x63B JUMP JUMPDEST JUMPDEST PUSH0 PUSH2 0x8CE DUP6 DUP3 DUP7 ADD PUSH2 0x662 JUMP JUMPDEST SWAP3 POP POP PUSH1 0x20 DUP4 ADD CALLDATALOAD PUSH8 0xFFFFFFFFFFFFFFFF DUP2 GT ISZERO PUSH2 0x8EF JUMPI PUSH2 0x8EE PUSH2 0x63F JUMP JUMPDEST JUMPDEST PUSH2 0x8FB DUP6 DUP3 DUP7 ADD PUSH2 0x87E JUMP JUMPDEST SWAP2 POP POP SWAP3 POP SWAP3 SWAP1 POP JUMP JUMPDEST PUSH0 PUSH0 PUSH0 PUSH0 PUSH0 PUSH1 0xA0 DUP7 DUP9 SUB SLT ISZERO PUSH2 0x91E JUMPI PUSH2 0x91D PUSH2 0x63B JUMP JUMPDEST JUMPDEST PUSH0 DUP7 ADD CALLDATALOAD PUSH8 0xFFFFFFFFFFFFFFFF DUP2 GT ISZERO PUSH2 0x93B JUMPI PUSH2 0x93A PUSH2 0x63F JUMP JUMPDEST JUMPDEST PUSH2 0x947 DUP9 DUP3 DUP10 ADD PUSH2 0x87E JUMP JUMPDEST SWAP6 POP POP PUSH1 0x20 PUSH2 0x958 DUP9 DUP3 DUP10 ADD PUSH2 0x662 JUMP JUMPDEST SWAP5 POP POP PUSH1 0x40 DUP7 ADD CALLDATALOAD PUSH8 0xFFFFFFFFFFFFFFFF DUP2 GT ISZERO PUSH2 0x979 JUMPI PUSH2 0x978 PUSH2 0x63F JUMP JUMPDEST JUMPDEST PUSH2 0x985 DUP9 DUP3 DUP10 ADD PUSH2 0x87E JUMP JUMPDEST SWAP4 POP POP PUSH1 0x60 PUSH2 0x996 DUP9 DUP3 DUP10 ADD PUSH2 0x662 JUMP JUMPDEST SWAP3 POP POP PUSH1 0x80 PUSH2 0x9A7 DUP9 DUP3 DUP10 ADD PUSH2 0x662 JUMP JUMPDEST SWAP2 POP POP SWAP3 SWAP6 POP SWAP3 SWAP6 SWAP1 SWAP4 POP JUMP JUMPDEST PUSH0 PUSH1 0xA0 DUP3 ADD SWAP1 POP PUSH2 0x9C7 PUSH0 DUP4 ADD DUP9 PUSH2 0x711 JUMP JUMPDEST DUP2 DUP2 SUB PUSH1 0x20 DUP4 ADD MSTORE PUSH2 0x9D9 DUP2 DUP8 PUSH2 0x6D9 JUMP JUMPDEST SWAP1 POP PUSH2 0x9E8 PUSH1 0x40 DUP4 ADD DUP7 PUSH2 0x711 JUMP JUMPDEST DUP2 DUP2 SUB PUSH1 0x60 DUP4 ADD MSTORE PUSH2 0x9FA DUP2 DUP6 PUSH2 0x6D9 JUMP JUMPDEST SWAP1 POP PUSH2 0xA09 PUSH1 0x80 DUP4 ADD DUP5 PUSH2 0x711 JUMP JUMPDEST SWAP7 SWAP6 POP POP POP POP POP POP JUMP JUMPDEST PUSH0 PUSH1 0x20 DUP3 ADD SWAP1 POP PUSH2 0xA26 PUSH0 DUP4 ADD DUP5 PUSH2 0x711 JUMP JUMPDEST SWAP3 SWAP2 POP POP JUMP JUMPDEST PUSH0 PUSH20 0xFFFFFFFFFFFFFFFFFFFFFFFFFFFFFFFFFFFFFFFF DUP3 AND SWAP1 POP SWAP2 SWAP1 POP JUMP JUMPDEST PUSH0 PUSH2 0xA55 DUP3 PUSH2 0xA2C JUMP JUMPDEST SWAP1 POP SWAP2 SWAP1 POP JUMP JUMPDEST PUSH2 0xA65 DUP2 PUSH2 0xA4B JUMP JUMPDEST DUP3 MSTORE POP POP JUMP JUMPDEST PUSH0 PUSH1 0x20 DUP3 ADD SWAP1 POP PUSH2 0xA7E PUSH0 DUP4 ADD DUP5 PUSH2 0xA5C JUMP JUMPDEST SWAP3 SWAP2 POP POP JUMP JUMPDEST PUSH32 0x4E487B7100000000000000000000000000000000000000000000000000000000 PUSH0 MSTORE PUSH1 0x22 PUSH1 0x4 MSTORE PUSH1 0x24 PUSH0 REVERT JUMPDEST PUSH0 PUSH1 0x2 DUP3 DIV SWAP1 POP PUSH1 0x1 DUP3 AND DUP1 PUSH2 0xAC8 JUMPI PUSH1 0x7F DUP3 AND SWAP2 POP JUMPDEST PUSH1 0x20 DUP3 LT DUP2 SUB PUSH2 0xADB JUMPI PUSH2 0xADA PUSH2 0xA84 JUMP JUMPDEST JUMPDEST POP SWAP2 SWAP1 POP JUMP JUMPDEST PUSH32 0x53747564656E74206E6F742070726573656E7400000000000000000000000000 PUSH0 DUP3 ADD MSTORE POP JUMP JUMPDEST PUSH0 PUSH2 0xB15 PUSH1 0x13 DUP4 PUSH2 0x6AB JUMP JUMPDEST SWAP2 POP PUSH2 0xB20 DUP3 PUSH2 0xAE1 JUMP JUMPDEST PUSH1 0x20 DUP3 ADD SWAP1 POP SWAP2 SWAP1 POP JUMP JUMPDEST PUSH0 PUSH1 0x20 DUP3 ADD SWAP1 POP DUP2 DUP2 SUB PUSH0 DUP4 ADD MSTORE PUSH2 0xB42 DUP2 PUSH2 0xB09 JUMP JUMPDEST SWAP1 POP SWAP2 SWAP1 POP JUMP JUMPDEST PUSH0 DUP2 SWAP1 POP DUP2 PUSH0 MSTORE PUSH1 0x20 PUSH0 KECCAK256 SWAP1 POP SWAP2 SWAP1 POP JUMP JUMPDEST PUSH0 PUSH1 0x20 PUSH1 0x1F DUP4 ADD DIV SWAP1 POP SWAP2 SWAP1 POP JUMP JUMPDEST PUSH0 DUP3 DUP3 SHL SWAP1 POP SWAP3 SWAP2 POP POP JUMP JUMPDEST PUSH0 PUSH1 0x8 DUP4 MUL PUSH2 0xBA5 PUSH32 0xFFFFFFFFFFFFFFFFFFFFFFFFFFFFFFFFFFFFFFFFFFFFFFFFFFFFFFFFFFFFFFFF DUP3 PUSH2 0xB6A JUMP JUMPDEST PUSH2 0xBAF DUP7 DUP4 PUSH2 0xB6A JUMP JUMPDEST SWAP6 POP DUP1 NOT DUP5 AND SWAP4 POP DUP1 DUP7 AND DUP5 OR SWAP3 POP POP POP SWAP4 SWAP3 POP POP POP JUMP JUMPDEST PUSH0 DUP2 SWAP1 POP SWAP2 SWAP1 POP JUMP JUMPDEST PUSH0 PUSH2 0xBEA PUSH2 0xBE5 PUSH2 0xBE0 DUP5 PUSH2 0x643 JUMP JUMPDEST PUSH2 0xBC7 JUMP JUMPDEST PUSH2 0x643 JUMP JUMPDEST SWAP1 POP SWAP2 SWAP1 POP JUMP JUMPDEST PUSH0 DUP2 SWAP1 POP SWAP2 SWAP1 POP JUMP JUMPDEST PUSH2 0xC03 DUP4 PUSH2 0xBD0 JUMP JUMPDEST PUSH2 0xC17 PUSH2 0xC0F DUP3 PUSH2 0xBF1 JUMP JUMPDEST DUP5 DUP5 SLOAD PUSH2 0xB76 JUMP JUMPDEST DUP3 SSTORE POP POP POP POP JUMP JUMPDEST PUSH0 PUSH0 SWAP1 POP SWAP1 JUMP JUMPDEST PUSH2 0xC2E PUSH2 0xC1F JUMP JUMPDEST PUSH2 0xC39 DUP2 DUP5 DUP5 PUSH2 0xBFA JUMP JUMPDEST POP POP POP JUMP JUMPDEST JUMPDEST DUP2 DUP2 LT ISZERO PUSH2 0xC5C JUMPI PUSH2 0xC51 PUSH0 DUP3 PUSH2 0xC26 JUMP JUMPDEST PUSH1 0x1 DUP2 ADD SWAP1 POP PUSH2 0xC3F JUMP JUMPDEST POP POP JUMP JUMPDEST PUSH1 0x1F DUP3 GT ISZERO PUSH2 0xCA1 JUMPI PUSH2 0xC72 DUP2 PUSH2 0xB49 JUMP JUMPDEST PUSH2 0xC7B DUP5 PUSH2 0xB5B JUMP JUMPDEST DUP2 ADD PUSH1 0x20 DUP6 LT ISZERO PUSH2 0xC8A JUMPI DUP2 SWAP1 POP JUMPDEST PUSH2 0xC9E PUSH2 0xC96 DUP6 PUSH2 0xB5B JUMP JUMPDEST DUP4 ADD DUP3 PUSH2 0xC3E JUMP JUMPDEST POP POP JUMPDEST POP POP POP JUMP JUMPDEST PUSH0 DUP3 DUP3 SHR SWAP1 POP SWAP3 SWAP2 POP POP JUMP JUMPDEST PUSH0 PUSH2 0xCC1 PUSH0 NOT DUP5 PUSH1 0x8 MUL PUSH2 0xCA6 JUMP JUMPDEST NOT DUP1 DUP4 AND SWAP2 POP POP SWAP3 SWAP2 POP POP JUMP JUMPDEST PUSH0 PUSH2 0xCD9 DUP4 DUP4 PUSH2 0xCB2 JUMP JUMPDEST SWAP2 POP DUP3 PUSH1 0x2 MUL DUP3 OR SWAP1 POP SWAP3 SWAP2 POP POP JUMP JUMPDEST PUSH2 0xCF2 DUP3 PUSH2 0x6A1 JUMP JUMPDEST PUSH8 0xFFFFFFFFFFFFFFFF DUP2 GT ISZERO PUSH2 0xD0B JUMPI PUSH2 0xD0A PUSH2 0x787 JUMP JUMPDEST JUMPDEST PUSH2 0xD15 DUP3 SLOAD PUSH2 0xAB1 JUMP JUMPDEST PUSH2 0xD20 DUP3 DUP3 DUP6 PUSH2 0xC60 JUMP JUMPDEST PUSH0 PUSH1 0x20 SWAP1 POP PUSH1 0x1F DUP4 GT PUSH1 0x1 DUP2 EQ PUSH2 0xD51 JUMPI PUSH0 DUP5 ISZERO PUSH2 0xD3F JUMPI DUP3 DUP8 ADD MLOAD SWAP1 POP JUMPDEST PUSH2 0xD49 DUP6 DUP3 PUSH2 0xCCE JUMP JUMPDEST DUP7 SSTORE POP PUSH2 0xDB0 JUMP JUMPDEST PUSH1 0x1F NOT DUP5 AND PUSH2 0xD5F DUP7 PUSH2 0xB49 JUMP JUMPDEST PUSH0 JUMPDEST DUP3 DUP2 LT ISZERO PUSH2 0xD86 JUMPI DUP5 DUP10 ADD MLOAD DUP3 SSTORE PUSH1 0x1 DUP3 ADD SWAP2 POP PUSH1 0x20 DUP6 ADD SWAP5 POP PUSH1 0x20 DUP2 ADD SWAP1 POP PUSH2 0xD61 JUMP JUMPDEST DUP7 DUP4 LT ISZERO PUSH2 0xDA3 JUMPI DUP5 DUP10 ADD MLOAD PUSH2 0xD9F PUSH1 0x1F DUP10 AND DUP3 PUSH2 0xCB2 JUMP JUMPDEST DUP4 SSTORE POP JUMPDEST PUSH1 0x1 PUSH1 0x2 DUP9 MUL ADD DUP9 SSTORE POP POP POP JUMPDEST POP POP POP POP POP POP JUMP JUMPDEST PUSH32 0x4E487B7100000000000000000000000000000000000000000000000000000000 PUSH0 MSTORE PUSH1 0x11 PUSH1 0x4 MSTORE PUSH1 0x24 PUSH0 REVERT JUMPDEST PUSH0 PUSH2 0xDEF DUP3 PUSH2 0x643 JUMP JUMPDEST SWAP2 POP PUSH2 0xDFA DUP4 PUSH2 0x643 JUMP JUMPDEST SWAP3 POP DUP3 DUP3 ADD SWAP1 POP DUP1 DUP3 GT ISZERO PUSH2 0xE12 JUMPI PUSH2 0xE11 PUSH2 0xDB8 JUMP JUMPDEST JUMPDEST SWAP3 SWAP2 POP POP JUMP INVALID LOG2 PUSH5 0x6970667358 0x22 SLT KECCAK256 JUMPI 0xDE 0xAF 0xE9 SSTORE 0xEE SLT 0xD1 0xBA 0xB1 SWAP11 0xDE PUSH10 0x5AB332180C2DDD19D677 PUSH11 0xCC5AC8AFC1BBBAA64736F PUSH13 0x634300081C0033000000000000 "
				},
				"gasEstimates": {
					"creation": {
						"codeDepositCost": "732400",
						"executionCost": "30033",
						"totalCost": "762433"
					},
					"external": {
						"getStudentDetails(uint256)": "infinite",
						"setNewname(uint256,string)": "infinite",
						"setStudentDetails(string,uint256,string,uint256,uint256)": "infinite",
						"staffadvisor()": "2595",
						"student(uint256)": "infinite",
						"totalStudents()": "2498"
					}
				},
				"methodIdentifiers": {
					"getStudentDetails(uint256)": "86a9b364",
					"setNewname(uint256,string)": "4efc6330",
					"setStudentDetails(string,uint256,string,uint256,uint256)": "56460a5b",
					"staffadvisor()": "fe6674bf",
					"student(uint256)": "35f34232",
					"totalStudents()": "9852bf8e"
				}
			},
			"storageLayout": {
				"storage": [
					{
						"astId": 14,
						"contract": "StaffAdvisor.sol:StaffAdvisor",
						"label": "staffadvisor",
						"offset": 0,
						"slot": "0",
						"type": "t_address"
					},
					{
						"astId": 19,
						"contract": "StaffAdvisor.sol:StaffAdvisor",
						"label": "student",
						"offset": 0,
						"slot": "1",
						"type": "t_mapping(t_uint256,t_struct(Student)12_storage)"
					},
					{
						"astId": 22,
						"contract": "StaffAdvisor.sol:StaffAdvisor",
						"label": "studentCount",
						"offset": 0,
						"slot": "2",
						"type": "t_uint256"
					}
				],
				"types": {
					"t_address": {
						"encoding": "inplace",
						"label": "address",
						"numberOfBytes": "20"
					},
					"t_mapping(t_uint256,t_struct(Student)12_storage)": {
						"encoding": "mapping",
						"key": "t_uint256",
						"label": "mapping(uint256 => struct StaffAdvisor.Student)",
						"numberOfBytes": "32",
						"value": "t_struct(Student)12_storage"
					},
					"t_string_storage": {
						"encoding": "bytes",
						"label": "string",
						"numberOfBytes": "32"
					},
					"t_struct(Student)12_storage": {
						"encoding": "inplace",
						"label": "struct StaffAdvisor.Student",
						"members": [
							{
								"astId": 3,
								"contract": "StaffAdvisor.sol:StaffAdvisor",
								"label": "name",
								"offset": 0,
								"slot": "0",
								"type": "t_string_storage"
							},
							{
								"astId": 5,
								"contract": "StaffAdvisor.sol:StaffAdvisor",
								"label": "rollNo",
								"offset": 0,
								"slot": "1",
								"type": "t_uint256"
							},
							{
								"astId": 7,
								"contract": "StaffAdvisor.sol:StaffAdvisor",
								"label": "sem",
								"offset": 0,
								"slot": "2",
								"type": "t_uint256"
							},
							{
								"astId": 9,
								"contract": "StaffAdvisor.sol:StaffAdvisor",
								"label": "dept",
								"offset": 0,
								"slot": "3",
								"type": "t_string_storage"
							},
							{
								"astId": 11,
								"contract": "StaffAdvisor.sol:StaffAdvisor",
								"label": "cgpa",
								"offset": 0,
								"slot": "4",
								"type": "t_uint256"
							}
						],
						"numberOfBytes": "160"
					},
					"t_uint256": {
						"encoding": "inplace",
						"label": "uint256",
						"numberOfBytes": "32"
					}
				}
			},
			"userdoc": {
				"kind": "user",
				"methods": {},
				"version": 1
			}
		}
	}
}