{
	"Certi.sol": {
		"CertiApp": {
			"abi": [
				{
					"inputs": [],
					"stateMutability": "nonpayable",
					"type": "constructor"
				},
				{
					"inputs": [
						{
							"internalType": "uint256",
							"name": "",
							"type": "uint256"
						}
					],
					"name": "certificate",
					"outputs": [
						{
							"internalType": "uint256",
							"name": "id",
							"type": "uint256"
						},
						{
							"internalType": "string",
							"name": "name",
							"type": "string"
						},
						{
							"internalType": "string",
							"name": "course",
							"type": "string"
						},
						{
							"internalType": "string",
							"name": "grade",
							"type": "string"
						},
						{
							"internalType": "string",
							"name": "date",
							"type": "string"
						}
					],
					"stateMutability": "view",
					"type": "function"
				},
				{
					"inputs": [
						{
							"internalType": "uint256",
							"name": "_id",
							"type": "uint256"
						},
						{
							"internalType": "string",
							"name": "_name",
							"type": "string"
						},
						{
							"internalType": "string",
							"name": "_course",
							"type": "string"
						},
						{
							"internalType": "string",
							"name": "_grade",
							"type": "string"
						},
						{
							"internalType": "string",
							"name": "_date",
							"type": "string"
						}
					],
					"name": "issueCertificate",
					"outputs": [],
					"stateMutability": "nonpayable",
					"type": "function"
				}
			],
			"devdoc": {
				"kind": "dev",
				"methods": {},
				"version": 1
			},
			"evm": {
				"assembly": "    /* \"Certi.sol\":56:735  contract CertiApp{... */\n  mstore(0x40, 0x80)\n    /* \"Certi.sol\":297:346  constructor (){... */\n  callvalue\n  dup1\n  iszero\n  tag_1\n  jumpi\n  revert(0x00, 0x00)\ntag_1:\n  pop\n    /* \"Certi.sol\":329:339  msg.sender */\n  caller\n    /* \"Certi.sol\":321:326  admin */\n  0x00\n  0x00\n    /* \"Certi.sol\":321:339  admin = msg.sender */\n  0x0100\n  exp\n  dup2\n  sload\n  dup2\n  0xffffffffffffffffffffffffffffffffffffffff\n  mul\n  not\n  and\n  swap1\n  dup4\n  0xffffffffffffffffffffffffffffffffffffffff\n  and\n  mul\n  or\n  swap1\n  sstore\n  pop\n    /* \"Certi.sol\":56:735  contract CertiApp{... */\n  dataSize(sub_0)\n  dup1\n  dataOffset(sub_0)\n  0x00\n  codecopy\n  0x00\n  return\nstop\n\nsub_0: assembly {\n        /* \"Certi.sol\":56:735  contract CertiApp{... */\n      mstore(0x40, 0x80)\n      callvalue\n      dup1\n      iszero\n      tag_1\n      jumpi\n      revert(0x00, 0x00)\n    tag_1:\n      pop\n      jumpi(tag_2, lt(calldatasize, 0x04))\n      shr(0xe0, calldataload(0x00))\n      dup1\n      0x16115cf8\n      eq\n      tag_3\n      jumpi\n      dup1\n      0xd8e6219e\n      eq\n      tag_4\n      jumpi\n    tag_2:\n      revert(0x00, 0x00)\n        /* \"Certi.sol\":243:290  mapping (uint=>Certificate) public  certificate */\n    tag_3:\n      tag_5\n      0x04\n      dup1\n      calldatasize\n      sub\n      dup2\n      add\n      swap1\n      tag_6\n      swap2\n      swap1\n      tag_7\n      jump\t// in\n    tag_6:\n      tag_8\n      jump\t// in\n    tag_5:\n      mload(0x40)\n      tag_9\n      swap6\n      swap5\n      swap4\n      swap3\n      swap2\n      swap1\n      tag_10\n      jump\t// in\n    tag_9:\n      mload(0x40)\n      dup1\n      swap2\n      sub\n      swap1\n      return\n        /* \"Certi.sol\":454:733  function issueCertificate(uint _id,string memory _name,string memory _course, string memory _grade, string memory _date) public onlyAdmin {... */\n    tag_4:\n      tag_11\n      0x04\n      dup1\n      calldatasize\n      sub\n      dup2\n      add\n      swap1\n      tag_12\n      swap2\n      swap1\n      tag_13\n      jump\t// in\n    tag_12:\n      tag_14\n      jump\t// in\n    tag_11:\n      stop\n        /* \"Certi.sol\":243:290  mapping (uint=>Certificate) public  certificate */\n    tag_8:\n      mstore(0x20, 0x01)\n      dup1\n      0x00\n      mstore\n      keccak256(0x00, 0x40)\n      0x00\n      swap2\n      pop\n      swap1\n      pop\n      dup1\n      0x00\n      add\n      sload\n      swap1\n      dup1\n      0x01\n      add\n      dup1\n      sload\n      tag_15\n      swap1\n      tag_16\n      jump\t// in\n    tag_15:\n      dup1\n      0x1f\n      add\n      0x20\n      dup1\n      swap2\n      div\n      mul\n      0x20\n      add\n      mload(0x40)\n      swap1\n      dup2\n      add\n      0x40\n      mstore\n      dup1\n      swap3\n      swap2\n      swap1\n      dup2\n      dup2\n      mstore\n      0x20\n      add\n      dup3\n      dup1\n      sload\n      tag_17\n      swap1\n      tag_16\n      jump\t// in\n    tag_17:\n      dup1\n      iszero\n      tag_18\n      jumpi\n      dup1\n      0x1f\n      lt\n      tag_19\n      jumpi\n      0x0100\n      dup1\n      dup4\n      sload\n      div\n      mul\n      dup4\n      mstore\n      swap2\n      0x20\n      add\n      swap2\n      jump(tag_18)\n    tag_19:\n      dup3\n      add\n      swap2\n      swap1\n      0x00\n      mstore\n      keccak256(0x00, 0x20)\n      swap1\n    tag_20:\n      dup2\n      sload\n      dup2\n      mstore\n      swap1\n      0x01\n      add\n      swap1\n      0x20\n      add\n      dup1\n      dup4\n      gt\n      tag_20\n      jumpi\n      dup3\n      swap1\n      sub\n      0x1f\n      and\n      dup3\n      add\n      swap2\n    tag_18:\n      pop\n      pop\n      pop\n      pop\n      pop\n      swap1\n      dup1\n      0x02\n      add\n      dup1\n      sload\n      tag_21\n      swap1\n      tag_16\n      jump\t// in\n    tag_21:\n      dup1\n      0x1f\n      add\n      0x20\n      dup1\n      swap2\n      div\n      mul\n      0x20\n      add\n      mload(0x40)\n      swap1\n      dup2\n      add\n      0x40\n      mstore\n      dup1\n      swap3\n      swap2\n      swap1\n      dup2\n      dup2\n      mstore\n      0x20\n      add\n      dup3\n      dup1\n      sload\n      tag_22\n      swap1\n      tag_16\n      jump\t// in\n    tag_22:\n      dup1\n      iszero\n      tag_23\n      jumpi\n      dup1\n      0x1f\n      lt\n      tag_24\n      jumpi\n      0x0100\n      dup1\n      dup4\n      sload\n      div\n      mul\n      dup4\n      mstore\n      swap2\n      0x20\n      add\n      swap2\n      jump(tag_23)\n    tag_24:\n      dup3\n      add\n      swap2\n      swap1\n      0x00\n      mstore\n      keccak256(0x00, 0x20)\n      swap1\n    tag_25:\n      dup2\n      sload\n      dup2\n      mstore\n      swap1\n      0x01\n      add\n      swap1\n      0x20\n      add\n      dup1\n      dup4\n      gt\n      tag_25\n      jumpi\n      dup3\n      swap1\n      sub\n      0x1f\n      and\n      dup3\n      add\n      swap2\n    tag_23:\n      pop\n      pop\n      pop\n      pop\n      pop\n      swap1\n      dup1\n      0x03\n      add\n      dup1\n      sload\n      tag_26\n      swap1\n      tag_16\n      jump\t// in\n    tag_26:\n      dup1\n      0x1f\n      add\n      0x20\n      dup1\n      swap2\n      div\n      mul\n      0x20\n      add\n      mload(0x40)\n      swap1\n      dup2\n      add\n      0x40\n      mstore\n      dup1\n      swap3\n      swap2\n      swap1\n      dup2\n      dup2\n      mstore\n      0x20\n      add\n      dup3\n      dup1\n      sload\n      tag_27\n      swap1\n      tag_16\n      jump\t// in\n    tag_27:\n      dup1\n      iszero\n      tag_28\n      jumpi\n      dup1\n      0x1f\n      lt\n      tag_29\n      jumpi\n      0x0100\n      dup1\n      dup4\n      sload\n      div\n      mul\n      dup4\n      mstore\n      swap2\n      0x20\n      add\n      swap2\n      jump(tag_28)\n    tag_29:\n      dup3\n      add\n      swap2\n      swap1\n      0x00\n      mstore\n      keccak256(0x00, 0x20)\n      swap1\n    tag_30:\n      dup2\n      sload\n      dup2\n      mstore\n      swap1\n      0x01\n      add\n      swap1\n      0x20\n      add\n      dup1\n      dup4\n      gt\n      tag_30\n      jumpi\n      dup3\n      swap1\n      sub\n      0x1f\n      and\n      dup3\n      add\n      swap2\n    tag_28:\n      pop\n      pop\n      pop\n      pop\n      pop\n      swap1\n      dup1\n      0x04\n      add\n      dup1\n      sload\n      tag_31\n      swap1\n      tag_16\n      jump\t// in\n    tag_31:\n      dup1\n      0x1f\n      add\n      0x20\n      dup1\n      swap2\n      div\n      mul\n      0x20\n      add\n      mload(0x40)\n      swap1\n      dup2\n      add\n      0x40\n      mstore\n      dup1\n      swap3\n      swap2\n      swap1\n      dup2\n      dup2\n      mstore\n      0x20\n      add\n      dup3\n      dup1\n      sload\n      tag_32\n      swap1\n      tag_16\n      jump\t// in\n    tag_32:\n      dup1\n      iszero\n      tag_33\n      jumpi\n      dup1\n      0x1f\n      lt\n      tag_34\n      jumpi\n      0x0100\n      dup1\n      dup4\n      sload\n      div\n      mul\n      dup4\n      mstore\n      swap2\n      0x20\n      add\n      swap2\n      jump(tag_33)\n    tag_34:\n      dup3\n      add\n      swap2\n      swap1\n      0x00\n      mstore\n      keccak256(0x00, 0x20)\n      swap1\n    tag_35:\n      dup2\n      sload\n      dup2\n      mstore\n      swap1\n      0x01\n      add\n      swap1\n      0x20\n      add\n      dup1\n      dup4\n      gt\n      tag_35\n      jumpi\n      dup3\n      swap1\n      sub\n      0x1f\n      and\n      dup3\n      add\n      swap2\n    tag_33:\n      pop\n      pop\n      pop\n      pop\n      pop\n      swap1\n      pop\n      dup6\n      jump\t// out\n        /* \"Certi.sol\":454:733  function issueCertificate(uint _id,string memory _name,string memory _course, string memory _grade, string memory _date) public onlyAdmin {... */\n    tag_14:\n        /* \"Certi.sol\":402:407  admin */\n      0x00\n      0x00\n      swap1\n      sload\n      swap1\n      0x0100\n      exp\n      swap1\n      div\n      0xffffffffffffffffffffffffffffffffffffffff\n      and\n        /* \"Certi.sol\":390:407  msg.sender==admin */\n      0xffffffffffffffffffffffffffffffffffffffff\n      and\n        /* \"Certi.sol\":390:400  msg.sender */\n      caller\n        /* \"Certi.sol\":390:407  msg.sender==admin */\n      0xffffffffffffffffffffffffffffffffffffffff\n      and\n      eq\n        /* \"Certi.sol\":382:430  require(msg.sender==admin,\"unautherized access\") */\n      tag_37\n      jumpi\n      mload(0x40)\n      0x08c379a000000000000000000000000000000000000000000000000000000000\n      dup2\n      mstore\n      0x04\n      add\n      tag_38\n      swap1\n      tag_39\n      jump\t// in\n    tag_38:\n      mload(0x40)\n      dup1\n      swap2\n      sub\n      swap1\n      revert\n    tag_37:\n        /* \"Certi.sol\":633:636  _id */\n      dup5\n        /* \"Certi.sol\":610:621  certificate */\n      0x01\n        /* \"Certi.sol\":610:626  certificate[_id] */\n      0x00\n        /* \"Certi.sol\":622:625  _id */\n      dup8\n        /* \"Certi.sol\":610:626  certificate[_id] */\n      dup2\n      mstore\n      0x20\n      add\n      swap1\n      dup2\n      mstore\n      0x20\n      add\n      0x00\n      keccak256\n        /* \"Certi.sol\":610:629  certificate[_id].id */\n      0x00\n      add\n      sload\n        /* \"Certi.sol\":610:636  certificate[_id].id == _id */\n      eq\n        /* \"Certi.sol\":601:654  require((certificate[_id].id == _id),\"already issue\") */\n      tag_41\n      jumpi\n      mload(0x40)\n      0x08c379a000000000000000000000000000000000000000000000000000000000\n      dup2\n      mstore\n      0x04\n      add\n      tag_42\n      swap1\n      tag_43\n      jump\t// in\n    tag_42:\n      mload(0x40)\n      dup1\n      swap2\n      sub\n      swap1\n      revert\n    tag_41:\n        /* \"Certi.sol\":683:726  Certificate(_id,_name,_course,_grade,_date) */\n      mload(0x40)\n      dup1\n      0xa0\n      add\n      0x40\n      mstore\n      dup1\n        /* \"Certi.sol\":695:698  _id */\n      dup7\n        /* \"Certi.sol\":683:726  Certificate(_id,_name,_course,_grade,_date) */\n      dup2\n      mstore\n      0x20\n      add\n        /* \"Certi.sol\":699:704  _name */\n      dup6\n        /* \"Certi.sol\":683:726  Certificate(_id,_name,_course,_grade,_date) */\n      dup2\n      mstore\n      0x20\n      add\n        /* \"Certi.sol\":705:712  _course */\n      dup5\n        /* \"Certi.sol\":683:726  Certificate(_id,_name,_course,_grade,_date) */\n      dup2\n      mstore\n      0x20\n      add\n        /* \"Certi.sol\":713:719  _grade */\n      dup4\n        /* \"Certi.sol\":683:726  Certificate(_id,_name,_course,_grade,_date) */\n      dup2\n      mstore\n      0x20\n      add\n        /* \"Certi.sol\":720:725  _date */\n      dup3\n        /* \"Certi.sol\":683:726  Certificate(_id,_name,_course,_grade,_date) */\n      dup2\n      mstore\n      pop\n        /* \"Certi.sol\":664:675  certificate */\n      0x01\n        /* \"Certi.sol\":664:680  certificate[_id] */\n      0x00\n        /* \"Certi.sol\":676:679  _id */\n      dup8\n        /* \"Certi.sol\":664:680  certificate[_id] */\n      dup2\n      mstore\n      0x20\n      add\n      swap1\n      dup2\n      mstore\n      0x20\n      add\n      0x00\n      keccak256\n        /* \"Certi.sol\":664:726  certificate[_id] = Certificate(_id,_name,_course,_grade,_date) */\n      0x00\n      dup3\n      add\n      mload\n      dup2\n      0x00\n      add\n      sstore\n      0x20\n      dup3\n      add\n      mload\n      dup2\n      0x01\n      add\n      swap1\n      dup2\n      tag_44\n      swap2\n      swap1\n      tag_45\n      jump\t// in\n    tag_44:\n      pop\n      0x40\n      dup3\n      add\n      mload\n      dup2\n      0x02\n      add\n      swap1\n      dup2\n      tag_46\n      swap2\n      swap1\n      tag_45\n      jump\t// in\n    tag_46:\n      pop\n      0x60\n      dup3\n      add\n      mload\n      dup2\n      0x03\n      add\n      swap1\n      dup2\n      tag_47\n      swap2\n      swap1\n      tag_45\n      jump\t// in\n    tag_47:\n      pop\n      0x80\n      dup3\n      add\n      mload\n      dup2\n      0x04\n      add\n      swap1\n      dup2\n      tag_48\n      swap2\n      swap1\n      tag_45\n      jump\t// in\n    tag_48:\n      pop\n      swap1\n      pop\n      pop\n        /* \"Certi.sol\":454:733  function issueCertificate(uint _id,string memory _name,string memory _course, string memory _grade, string memory _date) public onlyAdmin {... */\n      pop\n      pop\n      pop\n      pop\n      pop\n      jump\t// out\n        /* \"#utility.yul\":7:82   */\n    tag_49:\n        /* \"#utility.yul\":40:46   */\n      0x00\n        /* \"#utility.yul\":73:75   */\n      0x40\n        /* \"#utility.yul\":67:76   */\n      mload\n        /* \"#utility.yul\":57:76   */\n      swap1\n      pop\n        /* \"#utility.yul\":7:82   */\n      swap1\n      jump\t// out\n        /* \"#utility.yul\":88:205   */\n    tag_50:\n        /* \"#utility.yul\":197:198   */\n      0x00\n        /* \"#utility.yul\":194:195   */\n      0x00\n        /* \"#utility.yul\":187:199   */\n      revert\n        /* \"#utility.yul\":211:328   */\n    tag_51:\n        /* \"#utility.yul\":320:321   */\n      0x00\n        /* \"#utility.yul\":317:318   */\n      0x00\n        /* \"#utility.yul\":310:322   */\n      revert\n        /* \"#utility.yul\":334:411   */\n    tag_52:\n        /* \"#utility.yul\":371:378   */\n      0x00\n        /* \"#utility.yul\":400:405   */\n      dup2\n        /* \"#utility.yul\":389:405   */\n      swap1\n      pop\n        /* \"#utility.yul\":334:411   */\n      swap2\n      swap1\n      pop\n      jump\t// out\n        /* \"#utility.yul\":417:539   */\n    tag_53:\n        /* \"#utility.yul\":490:514   */\n      tag_96\n        /* \"#utility.yul\":508:513   */\n      dup2\n        /* \"#utility.yul\":490:514   */\n      tag_52\n      jump\t// in\n    tag_96:\n        /* \"#utility.yul\":483:488   */\n      dup2\n        /* \"#utility.yul\":480:515   */\n      eq\n        /* \"#utility.yul\":470:533   */\n      tag_97\n      jumpi\n        /* \"#utility.yul\":529:530   */\n      0x00\n        /* \"#utility.yul\":526:527   */\n      0x00\n        /* \"#utility.yul\":519:531   */\n      revert\n        /* \"#utility.yul\":470:533   */\n    tag_97:\n        /* \"#utility.yul\":417:539   */\n      pop\n      jump\t// out\n        /* \"#utility.yul\":545:684   */\n    tag_54:\n        /* \"#utility.yul\":591:596   */\n      0x00\n        /* \"#utility.yul\":629:635   */\n      dup2\n        /* \"#utility.yul\":616:636   */\n      calldataload\n        /* \"#utility.yul\":607:636   */\n      swap1\n      pop\n        /* \"#utility.yul\":645:678   */\n      tag_99\n        /* \"#utility.yul\":672:677   */\n      dup2\n        /* \"#utility.yul\":645:678   */\n      tag_53\n      jump\t// in\n    tag_99:\n        /* \"#utility.yul\":545:684   */\n      swap3\n      swap2\n      pop\n      pop\n      jump\t// out\n        /* \"#utility.yul\":690:1019   */\n    tag_7:\n        /* \"#utility.yul\":749:755   */\n      0x00\n        /* \"#utility.yul\":798:800   */\n      0x20\n        /* \"#utility.yul\":786:795   */\n      dup3\n        /* \"#utility.yul\":777:784   */\n      dup5\n        /* \"#utility.yul\":773:796   */\n      sub\n        /* \"#utility.yul\":769:801   */\n      slt\n        /* \"#utility.yul\":766:885   */\n      iszero\n      tag_101\n      jumpi\n        /* \"#utility.yul\":804:883   */\n      tag_102\n      tag_50\n      jump\t// in\n    tag_102:\n        /* \"#utility.yul\":766:885   */\n    tag_101:\n        /* \"#utility.yul\":924:925   */\n      0x00\n        /* \"#utility.yul\":949:1002   */\n      tag_103\n        /* \"#utility.yul\":994:1001   */\n      dup5\n        /* \"#utility.yul\":985:991   */\n      dup3\n        /* \"#utility.yul\":974:983   */\n      dup6\n        /* \"#utility.yul\":970:992   */\n      add\n        /* \"#utility.yul\":949:1002   */\n      tag_54\n      jump\t// in\n    tag_103:\n        /* \"#utility.yul\":939:1002   */\n      swap2\n      pop\n        /* \"#utility.yul\":895:1012   */\n      pop\n        /* \"#utility.yul\":690:1019   */\n      swap3\n      swap2\n      pop\n      pop\n      jump\t// out\n        /* \"#utility.yul\":1025:1143   */\n    tag_55:\n        /* \"#utility.yul\":1112:1136   */\n      tag_105\n        /* \"#utility.yul\":1130:1135   */\n      dup2\n        /* \"#utility.yul\":1112:1136   */\n      tag_52\n      jump\t// in\n    tag_105:\n        /* \"#utility.yul\":1107:1110   */\n      dup3\n        /* \"#utility.yul\":1100:1137   */\n      mstore\n        /* \"#utility.yul\":1025:1143   */\n      pop\n      pop\n      jump\t// out\n        /* \"#utility.yul\":1149:1248   */\n    tag_56:\n        /* \"#utility.yul\":1201:1207   */\n      0x00\n        /* \"#utility.yul\":1235:1240   */\n      dup2\n        /* \"#utility.yul\":1229:1241   */\n      mload\n        /* \"#utility.yul\":1219:1241   */\n      swap1\n      pop\n        /* \"#utility.yul\":1149:1248   */\n      swap2\n      swap1\n      pop\n      jump\t// out\n        /* \"#utility.yul\":1254:1423   */\n    tag_57:\n        /* \"#utility.yul\":1338:1349   */\n      0x00\n        /* \"#utility.yul\":1372:1378   */\n      dup3\n        /* \"#utility.yul\":1367:1370   */\n      dup3\n        /* \"#utility.yul\":1360:1379   */\n      mstore\n        /* \"#utility.yul\":1412:1416   */\n      0x20\n        /* \"#utility.yul\":1407:1410   */\n      dup3\n        /* \"#utility.yul\":1403:1417   */\n      add\n        /* \"#utility.yul\":1388:1417   */\n      swap1\n      pop\n        /* \"#utility.yul\":1254:1423   */\n      swap3\n      swap2\n      pop\n      pop\n      jump\t// out\n        /* \"#utility.yul\":1429:1568   */\n    tag_58:\n        /* \"#utility.yul\":1518:1524   */\n      dup3\n        /* \"#utility.yul\":1513:1516   */\n      dup2\n        /* \"#utility.yul\":1508:1511   */\n      dup4\n        /* \"#utility.yul\":1502:1525   */\n      mcopy\n        /* \"#utility.yul\":1559:1560   */\n      0x00\n        /* \"#utility.yul\":1550:1556   */\n      dup4\n        /* \"#utility.yul\":1545:1548   */\n      dup4\n        /* \"#utility.yul\":1541:1557   */\n      add\n        /* \"#utility.yul\":1534:1561   */\n      mstore\n        /* \"#utility.yul\":1429:1568   */\n      pop\n      pop\n      pop\n      jump\t// out\n        /* \"#utility.yul\":1574:1676   */\n    tag_59:\n        /* \"#utility.yul\":1615:1621   */\n      0x00\n        /* \"#utility.yul\":1666:1668   */\n      0x1f\n        /* \"#utility.yul\":1662:1669   */\n      not\n        /* \"#utility.yul\":1657:1659   */\n      0x1f\n        /* \"#utility.yul\":1650:1655   */\n      dup4\n        /* \"#utility.yul\":1646:1660   */\n      add\n        /* \"#utility.yul\":1642:1670   */\n      and\n        /* \"#utility.yul\":1632:1670   */\n      swap1\n      pop\n        /* \"#utility.yul\":1574:1676   */\n      swap2\n      swap1\n      pop\n      jump\t// out\n        /* \"#utility.yul\":1682:2059   */\n    tag_60:\n        /* \"#utility.yul\":1770:1773   */\n      0x00\n        /* \"#utility.yul\":1798:1837   */\n      tag_111\n        /* \"#utility.yul\":1831:1836   */\n      dup3\n        /* \"#utility.yul\":1798:1837   */\n      tag_56\n      jump\t// in\n    tag_111:\n        /* \"#utility.yul\":1853:1924   */\n      tag_112\n        /* \"#utility.yul\":1917:1923   */\n      dup2\n        /* \"#utility.yul\":1912:1915   */\n      dup6\n        /* \"#utility.yul\":1853:1924   */\n      tag_57\n      jump\t// in\n    tag_112:\n        /* \"#utility.yul\":1846:1924   */\n      swap4\n      pop\n        /* \"#utility.yul\":1933:1998   */\n      tag_113\n        /* \"#utility.yul\":1991:1997   */\n      dup2\n        /* \"#utility.yul\":1986:1989   */\n      dup6\n        /* \"#utility.yul\":1979:1983   */\n      0x20\n        /* \"#utility.yul\":1972:1977   */\n      dup7\n        /* \"#utility.yul\":1968:1984   */\n      add\n        /* \"#utility.yul\":1933:1998   */\n      tag_58\n      jump\t// in\n    tag_113:\n        /* \"#utility.yul\":2023:2052   */\n      tag_114\n        /* \"#utility.yul\":2045:2051   */\n      dup2\n        /* \"#utility.yul\":2023:2052   */\n      tag_59\n      jump\t// in\n    tag_114:\n        /* \"#utility.yul\":2018:2021   */\n      dup5\n        /* \"#utility.yul\":2014:2053   */\n      add\n        /* \"#utility.yul\":2007:2053   */\n      swap2\n      pop\n        /* \"#utility.yul\":1774:2059   */\n      pop\n        /* \"#utility.yul\":1682:2059   */\n      swap3\n      swap2\n      pop\n      pop\n      jump\t// out\n        /* \"#utility.yul\":2065:3093   */\n    tag_10:\n        /* \"#utility.yul\":2350:2354   */\n      0x00\n        /* \"#utility.yul\":2388:2391   */\n      0xa0\n        /* \"#utility.yul\":2377:2386   */\n      dup3\n        /* \"#utility.yul\":2373:2392   */\n      add\n        /* \"#utility.yul\":2365:2392   */\n      swap1\n      pop\n        /* \"#utility.yul\":2402:2473   */\n      tag_116\n        /* \"#utility.yul\":2470:2471   */\n      0x00\n        /* \"#utility.yul\":2459:2468   */\n      dup4\n        /* \"#utility.yul\":2455:2472   */\n      add\n        /* \"#utility.yul\":2446:2452   */\n      dup9\n        /* \"#utility.yul\":2402:2473   */\n      tag_55\n      jump\t// in\n    tag_116:\n        /* \"#utility.yul\":2520:2529   */\n      dup2\n        /* \"#utility.yul\":2514:2518   */\n      dup2\n        /* \"#utility.yul\":2510:2530   */\n      sub\n        /* \"#utility.yul\":2505:2507   */\n      0x20\n        /* \"#utility.yul\":2494:2503   */\n      dup4\n        /* \"#utility.yul\":2490:2508   */\n      add\n        /* \"#utility.yul\":2483:2531   */\n      mstore\n        /* \"#utility.yul\":2548:2626   */\n      tag_117\n        /* \"#utility.yul\":2621:2625   */\n      dup2\n        /* \"#utility.yul\":2612:2618   */\n      dup8\n        /* \"#utility.yul\":2548:2626   */\n      tag_60\n      jump\t// in\n    tag_117:\n        /* \"#utility.yul\":2540:2626   */\n      swap1\n      pop\n        /* \"#utility.yul\":2673:2682   */\n      dup2\n        /* \"#utility.yul\":2667:2671   */\n      dup2\n        /* \"#utility.yul\":2663:2683   */\n      sub\n        /* \"#utility.yul\":2658:2660   */\n      0x40\n        /* \"#utility.yul\":2647:2656   */\n      dup4\n        /* \"#utility.yul\":2643:2661   */\n      add\n        /* \"#utility.yul\":2636:2684   */\n      mstore\n        /* \"#utility.yul\":2701:2779   */\n      tag_118\n        /* \"#utility.yul\":2774:2778   */\n      dup2\n        /* \"#utility.yul\":2765:2771   */\n      dup7\n        /* \"#utility.yul\":2701:2779   */\n      tag_60\n      jump\t// in\n    tag_118:\n        /* \"#utility.yul\":2693:2779   */\n      swap1\n      pop\n        /* \"#utility.yul\":2826:2835   */\n      dup2\n        /* \"#utility.yul\":2820:2824   */\n      dup2\n        /* \"#utility.yul\":2816:2836   */\n      sub\n        /* \"#utility.yul\":2811:2813   */\n      0x60\n        /* \"#utility.yul\":2800:2809   */\n      dup4\n        /* \"#utility.yul\":2796:2814   */\n      add\n        /* \"#utility.yul\":2789:2837   */\n      mstore\n        /* \"#utility.yul\":2854:2932   */\n      tag_119\n        /* \"#utility.yul\":2927:2931   */\n      dup2\n        /* \"#utility.yul\":2918:2924   */\n      dup6\n        /* \"#utility.yul\":2854:2932   */\n      tag_60\n      jump\t// in\n    tag_119:\n        /* \"#utility.yul\":2846:2932   */\n      swap1\n      pop\n        /* \"#utility.yul\":2980:2989   */\n      dup2\n        /* \"#utility.yul\":2974:2978   */\n      dup2\n        /* \"#utility.yul\":2970:2990   */\n      sub\n        /* \"#utility.yul\":2964:2967   */\n      0x80\n        /* \"#utility.yul\":2953:2962   */\n      dup4\n        /* \"#utility.yul\":2949:2968   */\n      add\n        /* \"#utility.yul\":2942:2991   */\n      mstore\n        /* \"#utility.yul\":3008:3086   */\n      tag_120\n        /* \"#utility.yul\":3081:3085   */\n      dup2\n        /* \"#utility.yul\":3072:3078   */\n      dup5\n        /* \"#utility.yul\":3008:3086   */\n      tag_60\n      jump\t// in\n    tag_120:\n        /* \"#utility.yul\":3000:3086   */\n      swap1\n      pop\n        /* \"#utility.yul\":2065:3093   */\n      swap7\n      swap6\n      pop\n      pop\n      pop\n      pop\n      pop\n      pop\n      jump\t// out\n        /* \"#utility.yul\":3099:3216   */\n    tag_61:\n        /* \"#utility.yul\":3208:3209   */\n      0x00\n        /* \"#utility.yul\":3205:3206   */\n      0x00\n        /* \"#utility.yul\":3198:3210   */\n      revert\n        /* \"#utility.yul\":3222:3339   */\n    tag_62:\n        /* \"#utility.yul\":3331:3332   */\n      0x00\n        /* \"#utility.yul\":3328:3329   */\n      0x00\n        /* \"#utility.yul\":3321:3333   */\n      revert\n        /* \"#utility.yul\":3345:3525   */\n    tag_63:\n        /* \"#utility.yul\":3393:3470   */\n      0x4e487b7100000000000000000000000000000000000000000000000000000000\n        /* \"#utility.yul\":3390:3391   */\n      0x00\n        /* \"#utility.yul\":3383:3471   */\n      mstore\n        /* \"#utility.yul\":3490:3494   */\n      0x41\n        /* \"#utility.yul\":3487:3488   */\n      0x04\n        /* \"#utility.yul\":3480:3495   */\n      mstore\n        /* \"#utility.yul\":3514:3518   */\n      0x24\n        /* \"#utility.yul\":3511:3512   */\n      0x00\n        /* \"#utility.yul\":3504:3519   */\n      revert\n        /* \"#utility.yul\":3531:3812   */\n    tag_64:\n        /* \"#utility.yul\":3614:3641   */\n      tag_125\n        /* \"#utility.yul\":3636:3640   */\n      dup3\n        /* \"#utility.yul\":3614:3641   */\n      tag_59\n      jump\t// in\n    tag_125:\n        /* \"#utility.yul\":3606:3612   */\n      dup2\n        /* \"#utility.yul\":3602:3642   */\n      add\n        /* \"#utility.yul\":3744:3750   */\n      dup2\n        /* \"#utility.yul\":3732:3742   */\n      dup2\n        /* \"#utility.yul\":3729:3751   */\n      lt\n        /* \"#utility.yul\":3708:3726   */\n      0xffffffffffffffff\n        /* \"#utility.yul\":3696:3706   */\n      dup3\n        /* \"#utility.yul\":3693:3727   */\n      gt\n        /* \"#utility.yul\":3690:3752   */\n      or\n        /* \"#utility.yul\":3687:3775   */\n      iszero\n      tag_126\n      jumpi\n        /* \"#utility.yul\":3755:3773   */\n      tag_127\n      tag_63\n      jump\t// in\n    tag_127:\n        /* \"#utility.yul\":3687:3775   */\n    tag_126:\n        /* \"#utility.yul\":3795:3805   */\n      dup1\n        /* \"#utility.yul\":3791:3793   */\n      0x40\n        /* \"#utility.yul\":3784:3806   */\n      mstore\n        /* \"#utility.yul\":3574:3812   */\n      pop\n        /* \"#utility.yul\":3531:3812   */\n      pop\n      pop\n      jump\t// out\n        /* \"#utility.yul\":3818:3947   */\n    tag_65:\n        /* \"#utility.yul\":3852:3858   */\n      0x00\n        /* \"#utility.yul\":3879:3899   */\n      tag_129\n      tag_49\n      jump\t// in\n    tag_129:\n        /* \"#utility.yul\":3869:3899   */\n      swap1\n      pop\n        /* \"#utility.yul\":3908:3941   */\n      tag_130\n        /* \"#utility.yul\":3936:3940   */\n      dup3\n        /* \"#utility.yul\":3928:3934   */\n      dup3\n        /* \"#utility.yul\":3908:3941   */\n      tag_64\n      jump\t// in\n    tag_130:\n        /* \"#utility.yul\":3818:3947   */\n      swap2\n      swap1\n      pop\n      jump\t// out\n        /* \"#utility.yul\":3953:4261   */\n    tag_66:\n        /* \"#utility.yul\":4015:4019   */\n      0x00\n        /* \"#utility.yul\":4105:4123   */\n      0xffffffffffffffff\n        /* \"#utility.yul\":4097:4103   */\n      dup3\n        /* \"#utility.yul\":4094:4124   */\n      gt\n        /* \"#utility.yul\":4091:4147   */\n      iszero\n      tag_132\n      jumpi\n        /* \"#utility.yul\":4127:4145   */\n      tag_133\n      tag_63\n      jump\t// in\n    tag_133:\n        /* \"#utility.yul\":4091:4147   */\n    tag_132:\n        /* \"#utility.yul\":4165:4194   */\n      tag_134\n        /* \"#utility.yul\":4187:4193   */\n      dup3\n        /* \"#utility.yul\":4165:4194   */\n      tag_59\n      jump\t// in\n    tag_134:\n        /* \"#utility.yul\":4157:4194   */\n      swap1\n      pop\n        /* \"#utility.yul\":4249:4253   */\n      0x20\n        /* \"#utility.yul\":4243:4247   */\n      dup2\n        /* \"#utility.yul\":4239:4254   */\n      add\n        /* \"#utility.yul\":4231:4254   */\n      swap1\n      pop\n        /* \"#utility.yul\":3953:4261   */\n      swap2\n      swap1\n      pop\n      jump\t// out\n        /* \"#utility.yul\":4267:4415   */\n    tag_67:\n        /* \"#utility.yul\":4365:4371   */\n      dup3\n        /* \"#utility.yul\":4360:4363   */\n      dup2\n        /* \"#utility.yul\":4355:4358   */\n      dup4\n        /* \"#utility.yul\":4342:4372   */\n      calldatacopy\n        /* \"#utility.yul\":4406:4407   */\n      0x00\n        /* \"#utility.yul\":4397:4403   */\n      dup4\n        /* \"#utility.yul\":4392:4395   */\n      dup4\n        /* \"#utility.yul\":4388:4404   */\n      add\n        /* \"#utility.yul\":4381:4408   */\n      mstore\n        /* \"#utility.yul\":4267:4415   */\n      pop\n      pop\n      pop\n      jump\t// out\n        /* \"#utility.yul\":4421:4846   */\n    tag_68:\n        /* \"#utility.yul\":4499:4504   */\n      0x00\n        /* \"#utility.yul\":4524:4590   */\n      tag_137\n        /* \"#utility.yul\":4540:4589   */\n      tag_138\n        /* \"#utility.yul\":4582:4588   */\n      dup5\n        /* \"#utility.yul\":4540:4589   */\n      tag_66\n      jump\t// in\n    tag_138:\n        /* \"#utility.yul\":4524:4590   */\n      tag_65\n      jump\t// in\n    tag_137:\n        /* \"#utility.yul\":4515:4590   */\n      swap1\n      pop\n        /* \"#utility.yul\":4613:4619   */\n      dup3\n        /* \"#utility.yul\":4606:4611   */\n      dup2\n        /* \"#utility.yul\":4599:4620   */\n      mstore\n        /* \"#utility.yul\":4651:4655   */\n      0x20\n        /* \"#utility.yul\":4644:4649   */\n      dup2\n        /* \"#utility.yul\":4640:4656   */\n      add\n        /* \"#utility.yul\":4689:4692   */\n      dup5\n        /* \"#utility.yul\":4680:4686   */\n      dup5\n        /* \"#utility.yul\":4675:4678   */\n      dup5\n        /* \"#utility.yul\":4671:4687   */\n      add\n        /* \"#utility.yul\":4668:4693   */\n      gt\n        /* \"#utility.yul\":4665:4777   */\n      iszero\n      tag_139\n      jumpi\n        /* \"#utility.yul\":4696:4775   */\n      tag_140\n      tag_62\n      jump\t// in\n    tag_140:\n        /* \"#utility.yul\":4665:4777   */\n    tag_139:\n        /* \"#utility.yul\":4786:4840   */\n      tag_141\n        /* \"#utility.yul\":4833:4839   */\n      dup5\n        /* \"#utility.yul\":4828:4831   */\n      dup3\n        /* \"#utility.yul\":4823:4826   */\n      dup6\n        /* \"#utility.yul\":4786:4840   */\n      tag_67\n      jump\t// in\n    tag_141:\n        /* \"#utility.yul\":4505:4846   */\n      pop\n        /* \"#utility.yul\":4421:4846   */\n      swap4\n      swap3\n      pop\n      pop\n      pop\n      jump\t// out\n        /* \"#utility.yul\":4866:5206   */\n    tag_69:\n        /* \"#utility.yul\":4922:4927   */\n      0x00\n        /* \"#utility.yul\":4971:4974   */\n      dup3\n        /* \"#utility.yul\":4964:4968   */\n      0x1f\n        /* \"#utility.yul\":4956:4962   */\n      dup4\n        /* \"#utility.yul\":4952:4969   */\n      add\n        /* \"#utility.yul\":4948:4975   */\n      slt\n        /* \"#utility.yul\":4938:5060   */\n      tag_143\n      jumpi\n        /* \"#utility.yul\":4979:5058   */\n      tag_144\n      tag_61\n      jump\t// in\n    tag_144:\n        /* \"#utility.yul\":4938:5060   */\n    tag_143:\n        /* \"#utility.yul\":5096:5102   */\n      dup2\n        /* \"#utility.yul\":5083:5103   */\n      calldataload\n        /* \"#utility.yul\":5121:5200   */\n      tag_145\n        /* \"#utility.yul\":5196:5199   */\n      dup5\n        /* \"#utility.yul\":5188:5194   */\n      dup3\n        /* \"#utility.yul\":5181:5185   */\n      0x20\n        /* \"#utility.yul\":5173:5179   */\n      dup7\n        /* \"#utility.yul\":5169:5186   */\n      add\n        /* \"#utility.yul\":5121:5200   */\n      tag_68\n      jump\t// in\n    tag_145:\n        /* \"#utility.yul\":5112:5200   */\n      swap2\n      pop\n        /* \"#utility.yul\":4928:5206   */\n      pop\n        /* \"#utility.yul\":4866:5206   */\n      swap3\n      swap2\n      pop\n      pop\n      jump\t// out\n        /* \"#utility.yul\":5212:6843   */\n    tag_13:\n        /* \"#utility.yul\":5347:5353   */\n      0x00\n        /* \"#utility.yul\":5355:5361   */\n      0x00\n        /* \"#utility.yul\":5363:5369   */\n      0x00\n        /* \"#utility.yul\":5371:5377   */\n      0x00\n        /* \"#utility.yul\":5379:5385   */\n      0x00\n        /* \"#utility.yul\":5428:5431   */\n      0xa0\n        /* \"#utility.yul\":5416:5425   */\n      dup7\n        /* \"#utility.yul\":5407:5414   */\n      dup9\n        /* \"#utility.yul\":5403:5426   */\n      sub\n        /* \"#utility.yul\":5399:5432   */\n      slt\n        /* \"#utility.yul\":5396:5516   */\n      iszero\n      tag_147\n      jumpi\n        /* \"#utility.yul\":5435:5514   */\n      tag_148\n      tag_50\n      jump\t// in\n    tag_148:\n        /* \"#utility.yul\":5396:5516   */\n    tag_147:\n        /* \"#utility.yul\":5555:5556   */\n      0x00\n        /* \"#utility.yul\":5580:5633   */\n      tag_149\n        /* \"#utility.yul\":5625:5632   */\n      dup9\n        /* \"#utility.yul\":5616:5622   */\n      dup3\n        /* \"#utility.yul\":5605:5614   */\n      dup10\n        /* \"#utility.yul\":5601:5623   */\n      add\n        /* \"#utility.yul\":5580:5633   */\n      tag_54\n      jump\t// in\n    tag_149:\n        /* \"#utility.yul\":5570:5633   */\n      swap6\n      pop\n        /* \"#utility.yul\":5526:5643   */\n      pop\n        /* \"#utility.yul\":5710:5712   */\n      0x20\n        /* \"#utility.yul\":5699:5708   */\n      dup7\n        /* \"#utility.yul\":5695:5713   */\n      add\n        /* \"#utility.yul\":5682:5714   */\n      calldataload\n        /* \"#utility.yul\":5741:5759   */\n      0xffffffffffffffff\n        /* \"#utility.yul\":5733:5739   */\n      dup2\n        /* \"#utility.yul\":5730:5760   */\n      gt\n        /* \"#utility.yul\":5727:5844   */\n      iszero\n      tag_150\n      jumpi\n        /* \"#utility.yul\":5763:5842   */\n      tag_151\n      tag_51\n      jump\t// in\n    tag_151:\n        /* \"#utility.yul\":5727:5844   */\n    tag_150:\n        /* \"#utility.yul\":5868:5931   */\n      tag_152\n        /* \"#utility.yul\":5923:5930   */\n      dup9\n        /* \"#utility.yul\":5914:5920   */\n      dup3\n        /* \"#utility.yul\":5903:5912   */\n      dup10\n        /* \"#utility.yul\":5899:5921   */\n      add\n        /* \"#utility.yul\":5868:5931   */\n      tag_69\n      jump\t// in\n    tag_152:\n        /* \"#utility.yul\":5858:5931   */\n      swap5\n      pop\n        /* \"#utility.yul\":5653:5941   */\n      pop\n        /* \"#utility.yul\":6008:6010   */\n      0x40\n        /* \"#utility.yul\":5997:6006   */\n      dup7\n        /* \"#utility.yul\":5993:6011   */\n      add\n        /* \"#utility.yul\":5980:6012   */\n      calldataload\n        /* \"#utility.yul\":6039:6057   */\n      0xffffffffffffffff\n        /* \"#utility.yul\":6031:6037   */\n      dup2\n        /* \"#utility.yul\":6028:6058   */\n      gt\n        /* \"#utility.yul\":6025:6142   */\n      iszero\n      tag_153\n      jumpi\n        /* \"#utility.yul\":6061:6140   */\n      tag_154\n      tag_51\n      jump\t// in\n    tag_154:\n        /* \"#utility.yul\":6025:6142   */\n    tag_153:\n        /* \"#utility.yul\":6166:6229   */\n      tag_155\n        /* \"#utility.yul\":6221:6228   */\n      dup9\n        /* \"#utility.yul\":6212:6218   */\n      dup3\n        /* \"#utility.yul\":6201:6210   */\n      dup10\n        /* \"#utility.yul\":6197:6219   */\n      add\n        /* \"#utility.yul\":6166:6229   */\n      tag_69\n      jump\t// in\n    tag_155:\n        /* \"#utility.yul\":6156:6229   */\n      swap4\n      pop\n        /* \"#utility.yul\":5951:6239   */\n      pop\n        /* \"#utility.yul\":6306:6308   */\n      0x60\n        /* \"#utility.yul\":6295:6304   */\n      dup7\n        /* \"#utility.yul\":6291:6309   */\n      add\n        /* \"#utility.yul\":6278:6310   */\n      calldataload\n        /* \"#utility.yul\":6337:6355   */\n      0xffffffffffffffff\n        /* \"#utility.yul\":6329:6335   */\n      dup2\n        /* \"#utility.yul\":6326:6356   */\n      gt\n        /* \"#utility.yul\":6323:6440   */\n      iszero\n      tag_156\n      jumpi\n        /* \"#utility.yul\":6359:6438   */\n      tag_157\n      tag_51\n      jump\t// in\n    tag_157:\n        /* \"#utility.yul\":6323:6440   */\n    tag_156:\n        /* \"#utility.yul\":6464:6527   */\n      tag_158\n        /* \"#utility.yul\":6519:6526   */\n      dup9\n        /* \"#utility.yul\":6510:6516   */\n      dup3\n        /* \"#utility.yul\":6499:6508   */\n      dup10\n        /* \"#utility.yul\":6495:6517   */\n      add\n        /* \"#utility.yul\":6464:6527   */\n      tag_69\n      jump\t// in\n    tag_158:\n        /* \"#utility.yul\":6454:6527   */\n      swap3\n      pop\n        /* \"#utility.yul\":6249:6537   */\n      pop\n        /* \"#utility.yul\":6604:6607   */\n      0x80\n        /* \"#utility.yul\":6593:6602   */\n      dup7\n        /* \"#utility.yul\":6589:6608   */\n      add\n        /* \"#utility.yul\":6576:6609   */\n      calldataload\n        /* \"#utility.yul\":6636:6654   */\n      0xffffffffffffffff\n        /* \"#utility.yul\":6628:6634   */\n      dup2\n        /* \"#utility.yul\":6625:6655   */\n      gt\n        /* \"#utility.yul\":6622:6739   */\n      iszero\n      tag_159\n      jumpi\n        /* \"#utility.yul\":6658:6737   */\n      tag_160\n      tag_51\n      jump\t// in\n    tag_160:\n        /* \"#utility.yul\":6622:6739   */\n    tag_159:\n        /* \"#utility.yul\":6763:6826   */\n      tag_161\n        /* \"#utility.yul\":6818:6825   */\n      dup9\n        /* \"#utility.yul\":6809:6815   */\n      dup3\n        /* \"#utility.yul\":6798:6807   */\n      dup10\n        /* \"#utility.yul\":6794:6816   */\n      add\n        /* \"#utility.yul\":6763:6826   */\n      tag_69\n      jump\t// in\n    tag_161:\n        /* \"#utility.yul\":6753:6826   */\n      swap2\n      pop\n        /* \"#utility.yul\":6547:6836   */\n      pop\n        /* \"#utility.yul\":5212:6843   */\n      swap3\n      swap6\n      pop\n      swap3\n      swap6\n      swap1\n      swap4\n      pop\n      jump\t// out\n        /* \"#utility.yul\":6849:7029   */\n    tag_70:\n        /* \"#utility.yul\":6897:6974   */\n      0x4e487b7100000000000000000000000000000000000000000000000000000000\n        /* \"#utility.yul\":6894:6895   */\n      0x00\n        /* \"#utility.yul\":6887:6975   */\n      mstore\n        /* \"#utility.yul\":6994:6998   */\n      0x22\n        /* \"#utility.yul\":6991:6992   */\n      0x04\n        /* \"#utility.yul\":6984:6999   */\n      mstore\n        /* \"#utility.yul\":7018:7022   */\n      0x24\n        /* \"#utility.yul\":7015:7016   */\n      0x00\n        /* \"#utility.yul\":7008:7023   */\n      revert\n        /* \"#utility.yul\":7035:7355   */\n    tag_16:\n        /* \"#utility.yul\":7079:7085   */\n      0x00\n        /* \"#utility.yul\":7116:7117   */\n      0x02\n        /* \"#utility.yul\":7110:7114   */\n      dup3\n        /* \"#utility.yul\":7106:7118   */\n      div\n        /* \"#utility.yul\":7096:7118   */\n      swap1\n      pop\n        /* \"#utility.yul\":7163:7164   */\n      0x01\n        /* \"#utility.yul\":7157:7161   */\n      dup3\n        /* \"#utility.yul\":7153:7165   */\n      and\n        /* \"#utility.yul\":7184:7202   */\n      dup1\n        /* \"#utility.yul\":7174:7255   */\n      tag_164\n      jumpi\n        /* \"#utility.yul\":7240:7244   */\n      0x7f\n        /* \"#utility.yul\":7232:7238   */\n      dup3\n        /* \"#utility.yul\":7228:7245   */\n      and\n        /* \"#utility.yul\":7218:7245   */\n      swap2\n      pop\n        /* \"#utility.yul\":7174:7255   */\n    tag_164:\n        /* \"#utility.yul\":7302:7304   */\n      0x20\n        /* \"#utility.yul\":7294:7300   */\n      dup3\n        /* \"#utility.yul\":7291:7305   */\n      lt\n        /* \"#utility.yul\":7271:7289   */\n      dup2\n        /* \"#utility.yul\":7268:7306   */\n      sub\n        /* \"#utility.yul\":7265:7349   */\n      tag_165\n      jumpi\n        /* \"#utility.yul\":7321:7339   */\n      tag_166\n      tag_70\n      jump\t// in\n    tag_166:\n        /* \"#utility.yul\":7265:7349   */\n    tag_165:\n        /* \"#utility.yul\":7086:7355   */\n      pop\n        /* \"#utility.yul\":7035:7355   */\n      swap2\n      swap1\n      pop\n      jump\t// out\n        /* \"#utility.yul\":7361:7530   */\n    tag_71:\n        /* \"#utility.yul\":7501:7522   */\n      0x756e617574686572697a65642061636365737300000000000000000000000000\n        /* \"#utility.yul\":7497:7498   */\n      0x00\n        /* \"#utility.yul\":7489:7495   */\n      dup3\n        /* \"#utility.yul\":7485:7499   */\n      add\n        /* \"#utility.yul\":7478:7523   */\n      mstore\n        /* \"#utility.yul\":7361:7530   */\n      pop\n      jump\t// out\n        /* \"#utility.yul\":7536:7902   */\n    tag_72:\n        /* \"#utility.yul\":7678:7681   */\n      0x00\n        /* \"#utility.yul\":7699:7766   */\n      tag_169\n        /* \"#utility.yul\":7763:7765   */\n      0x13\n        /* \"#utility.yul\":7758:7761   */\n      dup4\n        /* \"#utility.yul\":7699:7766   */\n      tag_57\n      jump\t// in\n    tag_169:\n        /* \"#utility.yul\":7692:7766   */\n      swap2\n      pop\n        /* \"#utility.yul\":7775:7868   */\n      tag_170\n        /* \"#utility.yul\":7864:7867   */\n      dup3\n        /* \"#utility.yul\":7775:7868   */\n      tag_71\n      jump\t// in\n    tag_170:\n        /* \"#utility.yul\":7893:7895   */\n      0x20\n        /* \"#utility.yul\":7888:7891   */\n      dup3\n        /* \"#utility.yul\":7884:7896   */\n      add\n        /* \"#utility.yul\":7877:7896   */\n      swap1\n      pop\n        /* \"#utility.yul\":7536:7902   */\n      swap2\n      swap1\n      pop\n      jump\t// out\n        /* \"#utility.yul\":7908:8327   */\n    tag_39:\n        /* \"#utility.yul\":8074:8078   */\n      0x00\n        /* \"#utility.yul\":8112:8114   */\n      0x20\n        /* \"#utility.yul\":8101:8110   */\n      dup3\n        /* \"#utility.yul\":8097:8115   */\n      add\n        /* \"#utility.yul\":8089:8115   */\n      swap1\n      pop\n        /* \"#utility.yul\":8161:8170   */\n      dup2\n        /* \"#utility.yul\":8155:8159   */\n      dup2\n        /* \"#utility.yul\":8151:8171   */\n      sub\n        /* \"#utility.yul\":8147:8148   */\n      0x00\n        /* \"#utility.yul\":8136:8145   */\n      dup4\n        /* \"#utility.yul\":8132:8149   */\n      add\n        /* \"#utility.yul\":8125:8172   */\n      mstore\n        /* \"#utility.yul\":8189:8320   */\n      tag_172\n        /* \"#utility.yul\":8315:8319   */\n      dup2\n        /* \"#utility.yul\":8189:8320   */\n      tag_72\n      jump\t// in\n    tag_172:\n        /* \"#utility.yul\":8181:8320   */\n      swap1\n      pop\n        /* \"#utility.yul\":7908:8327   */\n      swap2\n      swap1\n      pop\n      jump\t// out\n        /* \"#utility.yul\":8333:8496   */\n    tag_73:\n        /* \"#utility.yul\":8473:8488   */\n      0x616c726561647920697373756500000000000000000000000000000000000000\n        /* \"#utility.yul\":8469:8470   */\n      0x00\n        /* \"#utility.yul\":8461:8467   */\n      dup3\n        /* \"#utility.yul\":8457:8471   */\n      add\n        /* \"#utility.yul\":8450:8489   */\n      mstore\n        /* \"#utility.yul\":8333:8496   */\n      pop\n      jump\t// out\n        /* \"#utility.yul\":8502:8868   */\n    tag_74:\n        /* \"#utility.yul\":8644:8647   */\n      0x00\n        /* \"#utility.yul\":8665:8732   */\n      tag_175\n        /* \"#utility.yul\":8729:8731   */\n      0x0d\n        /* \"#utility.yul\":8724:8727   */\n      dup4\n        /* \"#utility.yul\":8665:8732   */\n      tag_57\n      jump\t// in\n    tag_175:\n        /* \"#utility.yul\":8658:8732   */\n      swap2\n      pop\n        /* \"#utility.yul\":8741:8834   */\n      tag_176\n        /* \"#utility.yul\":8830:8833   */\n      dup3\n        /* \"#utility.yul\":8741:8834   */\n      tag_73\n      jump\t// in\n    tag_176:\n        /* \"#utility.yul\":8859:8861   */\n      0x20\n        /* \"#utility.yul\":8854:8857   */\n      dup3\n        /* \"#utility.yul\":8850:8862   */\n      add\n        /* \"#utility.yul\":8843:8862   */\n      swap1\n      pop\n        /* \"#utility.yul\":8502:8868   */\n      swap2\n      swap1\n      pop\n      jump\t// out\n        /* \"#utility.yul\":8874:9293   */\n    tag_43:\n        /* \"#utility.yul\":9040:9044   */\n      0x00\n        /* \"#utility.yul\":9078:9080   */\n      0x20\n        /* \"#utility.yul\":9067:9076   */\n      dup3\n        /* \"#utility.yul\":9063:9081   */\n      add\n        /* \"#utility.yul\":9055:9081   */\n      swap1\n      pop\n        /* \"#utility.yul\":9127:9136   */\n      dup2\n        /* \"#utility.yul\":9121:9125   */\n      dup2\n        /* \"#utility.yul\":9117:9137   */\n      sub\n        /* \"#utility.yul\":9113:9114   */\n      0x00\n        /* \"#utility.yul\":9102:9111   */\n      dup4\n        /* \"#utility.yul\":9098:9115   */\n      add\n        /* \"#utility.yul\":9091:9138   */\n      mstore\n        /* \"#utility.yul\":9155:9286   */\n      tag_178\n        /* \"#utility.yul\":9281:9285   */\n      dup2\n        /* \"#utility.yul\":9155:9286   */\n      tag_74\n      jump\t// in\n    tag_178:\n        /* \"#utility.yul\":9147:9286   */\n      swap1\n      pop\n        /* \"#utility.yul\":8874:9293   */\n      swap2\n      swap1\n      pop\n      jump\t// out\n        /* \"#utility.yul\":9299:9440   */\n    tag_75:\n        /* \"#utility.yul\":9348:9352   */\n      0x00\n        /* \"#utility.yul\":9371:9374   */\n      dup2\n        /* \"#utility.yul\":9363:9374   */\n      swap1\n      pop\n        /* \"#utility.yul\":9394:9397   */\n      dup2\n        /* \"#utility.yul\":9391:9392   */\n      0x00\n        /* \"#utility.yul\":9384:9398   */\n      mstore\n        /* \"#utility.yul\":9428:9432   */\n      0x20\n        /* \"#utility.yul\":9425:9426   */\n      0x00\n        /* \"#utility.yul\":9415:9433   */\n      keccak256\n        /* \"#utility.yul\":9407:9433   */\n      swap1\n      pop\n        /* \"#utility.yul\":9299:9440   */\n      swap2\n      swap1\n      pop\n      jump\t// out\n        /* \"#utility.yul\":9446:9539   */\n    tag_76:\n        /* \"#utility.yul\":9483:9489   */\n      0x00\n        /* \"#utility.yul\":9530:9532   */\n      0x20\n        /* \"#utility.yul\":9525:9527   */\n      0x1f\n        /* \"#utility.yul\":9518:9523   */\n      dup4\n        /* \"#utility.yul\":9514:9528   */\n      add\n        /* \"#utility.yul\":9510:9533   */\n      div\n        /* \"#utility.yul\":9500:9533   */\n      swap1\n      pop\n        /* \"#utility.yul\":9446:9539   */\n      swap2\n      swap1\n      pop\n      jump\t// out\n        /* \"#utility.yul\":9545:9652   */\n    tag_77:\n        /* \"#utility.yul\":9589:9597   */\n      0x00\n        /* \"#utility.yul\":9639:9644   */\n      dup3\n        /* \"#utility.yul\":9633:9637   */\n      dup3\n        /* \"#utility.yul\":9629:9645   */\n      shl\n        /* \"#utility.yul\":9608:9645   */\n      swap1\n      pop\n        /* \"#utility.yul\":9545:9652   */\n      swap3\n      swap2\n      pop\n      pop\n      jump\t// out\n        /* \"#utility.yul\":9658:10051   */\n    tag_78:\n        /* \"#utility.yul\":9727:9733   */\n      0x00\n        /* \"#utility.yul\":9777:9778   */\n      0x08\n        /* \"#utility.yul\":9765:9775   */\n      dup4\n        /* \"#utility.yul\":9761:9779   */\n      mul\n        /* \"#utility.yul\":9800:9897   */\n      tag_183\n        /* \"#utility.yul\":9830:9896   */\n      0xffffffffffffffffffffffffffffffffffffffffffffffffffffffffffffffff\n        /* \"#utility.yul\":9819:9828   */\n      dup3\n        /* \"#utility.yul\":9800:9897   */\n      tag_77\n      jump\t// in\n    tag_183:\n        /* \"#utility.yul\":9918:9957   */\n      tag_184\n        /* \"#utility.yul\":9948:9956   */\n      dup7\n        /* \"#utility.yul\":9937:9946   */\n      dup4\n        /* \"#utility.yul\":9918:9957   */\n      tag_77\n      jump\t// in\n    tag_184:\n        /* \"#utility.yul\":9906:9957   */\n      swap6\n      pop\n        /* \"#utility.yul\":9990:9994   */\n      dup1\n        /* \"#utility.yul\":9986:9995   */\n      not\n        /* \"#utility.yul\":9979:9984   */\n      dup5\n        /* \"#utility.yul\":9975:9996   */\n      and\n        /* \"#utility.yul\":9966:9996   */\n      swap4\n      pop\n        /* \"#utility.yul\":10039:10043   */\n      dup1\n        /* \"#utility.yul\":10029:10037   */\n      dup7\n        /* \"#utility.yul\":10025:10044   */\n      and\n        /* \"#utility.yul\":10018:10023   */\n      dup5\n        /* \"#utility.yul\":10015:10045   */\n      or\n        /* \"#utility.yul\":10005:10045   */\n      swap3\n      pop\n        /* \"#utility.yul\":9734:10051   */\n      pop\n      pop\n        /* \"#utility.yul\":9658:10051   */\n      swap4\n      swap3\n      pop\n      pop\n      pop\n      jump\t// out\n        /* \"#utility.yul\":10057:10117   */\n    tag_79:\n        /* \"#utility.yul\":10085:10088   */\n      0x00\n        /* \"#utility.yul\":10106:10111   */\n      dup2\n        /* \"#utility.yul\":10099:10111   */\n      swap1\n      pop\n        /* \"#utility.yul\":10057:10117   */\n      swap2\n      swap1\n      pop\n      jump\t// out\n        /* \"#utility.yul\":10123:10265   */\n    tag_80:\n        /* \"#utility.yul\":10173:10182   */\n      0x00\n        /* \"#utility.yul\":10206:10259   */\n      tag_187\n        /* \"#utility.yul\":10224:10258   */\n      tag_188\n        /* \"#utility.yul\":10233:10257   */\n      tag_189\n        /* \"#utility.yul\":10251:10256   */\n      dup5\n        /* \"#utility.yul\":10233:10257   */\n      tag_52\n      jump\t// in\n    tag_189:\n        /* \"#utility.yul\":10224:10258   */\n      tag_79\n      jump\t// in\n    tag_188:\n        /* \"#utility.yul\":10206:10259   */\n      tag_52\n      jump\t// in\n    tag_187:\n        /* \"#utility.yul\":10193:10259   */\n      swap1\n      pop\n        /* \"#utility.yul\":10123:10265   */\n      swap2\n      swap1\n      pop\n      jump\t// out\n        /* \"#utility.yul\":10271:10346   */\n    tag_81:\n        /* \"#utility.yul\":10314:10317   */\n      0x00\n        /* \"#utility.yul\":10335:10340   */\n      dup2\n        /* \"#utility.yul\":10328:10340   */\n      swap1\n      pop\n        /* \"#utility.yul\":10271:10346   */\n      swap2\n      swap1\n      pop\n      jump\t// out\n        /* \"#utility.yul\":10352:10621   */\n    tag_82:\n        /* \"#utility.yul\":10462:10501   */\n      tag_192\n        /* \"#utility.yul\":10493:10500   */\n      dup4\n        /* \"#utility.yul\":10462:10501   */\n      tag_80\n      jump\t// in\n    tag_192:\n        /* \"#utility.yul\":10523:10614   */\n      tag_193\n        /* \"#utility.yul\":10572:10613   */\n      tag_194\n        /* \"#utility.yul\":10596:10612   */\n      dup3\n        /* \"#utility.yul\":10572:10613   */\n      tag_81\n      jump\t// in\n    tag_194:\n        /* \"#utility.yul\":10564:10570   */\n      dup5\n        /* \"#utility.yul\":10557:10561   */\n      dup5\n        /* \"#utility.yul\":10551:10562   */\n      sload\n        /* \"#utility.yul\":10523:10614   */\n      tag_78\n      jump\t// in\n    tag_193:\n        /* \"#utility.yul\":10517:10521   */\n      dup3\n        /* \"#utility.yul\":10510:10615   */\n      sstore\n        /* \"#utility.yul\":10428:10621   */\n      pop\n        /* \"#utility.yul\":10352:10621   */\n      pop\n      pop\n      pop\n      jump\t// out\n        /* \"#utility.yul\":10627:10700   */\n    tag_83:\n        /* \"#utility.yul\":10672:10675   */\n      0x00\n        /* \"#utility.yul\":10693:10694   */\n      0x00\n        /* \"#utility.yul\":10686:10694   */\n      swap1\n      pop\n        /* \"#utility.yul\":10627:10700   */\n      swap1\n      jump\t// out\n        /* \"#utility.yul\":10706:10895   */\n    tag_84:\n        /* \"#utility.yul\":10783:10815   */\n      tag_197\n      tag_83\n      jump\t// in\n    tag_197:\n        /* \"#utility.yul\":10824:10889   */\n      tag_198\n        /* \"#utility.yul\":10882:10888   */\n      dup2\n        /* \"#utility.yul\":10874:10880   */\n      dup5\n        /* \"#utility.yul\":10868:10872   */\n      dup5\n        /* \"#utility.yul\":10824:10889   */\n      tag_82\n      jump\t// in\n    tag_198:\n        /* \"#utility.yul\":10759:10895   */\n      pop\n        /* \"#utility.yul\":10706:10895   */\n      pop\n      pop\n      jump\t// out\n        /* \"#utility.yul\":10901:11087   */\n    tag_85:\n        /* \"#utility.yul\":10961:11081   */\n    tag_200:\n        /* \"#utility.yul\":10978:10981   */\n      dup2\n        /* \"#utility.yul\":10971:10976   */\n      dup2\n        /* \"#utility.yul\":10968:10982   */\n      lt\n        /* \"#utility.yul\":10961:11081   */\n      iszero\n      tag_202\n      jumpi\n        /* \"#utility.yul\":11032:11071   */\n      tag_203\n        /* \"#utility.yul\":11069:11070   */\n      0x00\n        /* \"#utility.yul\":11062:11067   */\n      dup3\n        /* \"#utility.yul\":11032:11071   */\n      tag_84\n      jump\t// in\n    tag_203:\n        /* \"#utility.yul\":11005:11006   */\n      0x01\n        /* \"#utility.yul\":10998:11003   */\n      dup2\n        /* \"#utility.yul\":10994:11007   */\n      add\n        /* \"#utility.yul\":10985:11007   */\n      swap1\n      pop\n        /* \"#utility.yul\":10961:11081   */\n      jump(tag_200)\n    tag_202:\n        /* \"#utility.yul\":10901:11087   */\n      pop\n      pop\n      jump\t// out\n        /* \"#utility.yul\":11093:11636   */\n    tag_86:\n        /* \"#utility.yul\":11194:11196   */\n      0x1f\n        /* \"#utility.yul\":11189:11192   */\n      dup3\n        /* \"#utility.yul\":11186:11197   */\n      gt\n        /* \"#utility.yul\":11183:11629   */\n      iszero\n      tag_205\n      jumpi\n        /* \"#utility.yul\":11228:11266   */\n      tag_206\n        /* \"#utility.yul\":11260:11265   */\n      dup2\n        /* \"#utility.yul\":11228:11266   */\n      tag_75\n      jump\t// in\n    tag_206:\n        /* \"#utility.yul\":11312:11341   */\n      tag_207\n        /* \"#utility.yul\":11330:11340   */\n      dup5\n        /* \"#utility.yul\":11312:11341   */\n      tag_76\n      jump\t// in\n    tag_207:\n        /* \"#utility.yul\":11302:11310   */\n      dup2\n        /* \"#utility.yul\":11298:11342   */\n      add\n        /* \"#utility.yul\":11495:11497   */\n      0x20\n        /* \"#utility.yul\":11483:11493   */\n      dup6\n        /* \"#utility.yul\":11480:11498   */\n      lt\n        /* \"#utility.yul\":11477:11526   */\n      iszero\n      tag_208\n      jumpi\n        /* \"#utility.yul\":11516:11524   */\n      dup2\n        /* \"#utility.yul\":11501:11524   */\n      swap1\n      pop\n        /* \"#utility.yul\":11477:11526   */\n    tag_208:\n        /* \"#utility.yul\":11539:11619   */\n      tag_209\n        /* \"#utility.yul\":11595:11617   */\n      tag_210\n        /* \"#utility.yul\":11613:11616   */\n      dup6\n        /* \"#utility.yul\":11595:11617   */\n      tag_76\n      jump\t// in\n    tag_210:\n        /* \"#utility.yul\":11585:11593   */\n      dup4\n        /* \"#utility.yul\":11581:11618   */\n      add\n        /* \"#utility.yul\":11568:11579   */\n      dup3\n        /* \"#utility.yul\":11539:11619   */\n      tag_85\n      jump\t// in\n    tag_209:\n        /* \"#utility.yul\":11198:11629   */\n      pop\n      pop\n        /* \"#utility.yul\":11183:11629   */\n    tag_205:\n        /* \"#utility.yul\":11093:11636   */\n      pop\n      pop\n      pop\n      jump\t// out\n        /* \"#utility.yul\":11642:11759   */\n    tag_87:\n        /* \"#utility.yul\":11696:11704   */\n      0x00\n        /* \"#utility.yul\":11746:11751   */\n      dup3\n        /* \"#utility.yul\":11740:11744   */\n      dup3\n        /* \"#utility.yul\":11736:11752   */\n      shr\n        /* \"#utility.yul\":11715:11752   */\n      swap1\n      pop\n        /* \"#utility.yul\":11642:11759   */\n      swap3\n      swap2\n      pop\n      pop\n      jump\t// out\n        /* \"#utility.yul\":11765:11934   */\n    tag_88:\n        /* \"#utility.yul\":11809:11815   */\n      0x00\n        /* \"#utility.yul\":11842:11893   */\n      tag_213\n        /* \"#utility.yul\":11890:11891   */\n      0x00\n        /* \"#utility.yul\":11886:11892   */\n      not\n        /* \"#utility.yul\":11878:11883   */\n      dup5\n        /* \"#utility.yul\":11875:11876   */\n      0x08\n        /* \"#utility.yul\":11871:11884   */\n      mul\n        /* \"#utility.yul\":11842:11893   */\n      tag_87\n      jump\t// in\n    tag_213:\n        /* \"#utility.yul\":11838:11894   */\n      not\n        /* \"#utility.yul\":11923:11927   */\n      dup1\n        /* \"#utility.yul\":11917:11921   */\n      dup4\n        /* \"#utility.yul\":11913:11928   */\n      and\n        /* \"#utility.yul\":11903:11928   */\n      swap2\n      pop\n        /* \"#utility.yul\":11816:11934   */\n      pop\n        /* \"#utility.yul\":11765:11934   */\n      swap3\n      swap2\n      pop\n      pop\n      jump\t// out\n        /* \"#utility.yul\":11939:12234   */\n    tag_89:\n        /* \"#utility.yul\":12015:12019   */\n      0x00\n        /* \"#utility.yul\":12161:12190   */\n      tag_215\n        /* \"#utility.yul\":12186:12189   */\n      dup4\n        /* \"#utility.yul\":12180:12184   */\n      dup4\n        /* \"#utility.yul\":12161:12190   */\n      tag_88\n      jump\t// in\n    tag_215:\n        /* \"#utility.yul\":12153:12190   */\n      swap2\n      pop\n        /* \"#utility.yul\":12223:12226   */\n      dup3\n        /* \"#utility.yul\":12220:12221   */\n      0x02\n        /* \"#utility.yul\":12216:12227   */\n      mul\n        /* \"#utility.yul\":12210:12214   */\n      dup3\n        /* \"#utility.yul\":12207:12228   */\n      or\n        /* \"#utility.yul\":12199:12228   */\n      swap1\n      pop\n        /* \"#utility.yul\":11939:12234   */\n      swap3\n      swap2\n      pop\n      pop\n      jump\t// out\n        /* \"#utility.yul\":12239:13634   */\n    tag_45:\n        /* \"#utility.yul\":12356:12393   */\n      tag_217\n        /* \"#utility.yul\":12389:12392   */\n      dup3\n        /* \"#utility.yul\":12356:12393   */\n      tag_56\n      jump\t// in\n    tag_217:\n        /* \"#utility.yul\":12458:12476   */\n      0xffffffffffffffff\n        /* \"#utility.yul\":12450:12456   */\n      dup2\n        /* \"#utility.yul\":12447:12477   */\n      gt\n        /* \"#utility.yul\":12444:12500   */\n      iszero\n      tag_218\n      jumpi\n        /* \"#utility.yul\":12480:12498   */\n      tag_219\n      tag_63\n      jump\t// in\n    tag_219:\n        /* \"#utility.yul\":12444:12500   */\n    tag_218:\n        /* \"#utility.yul\":12524:12562   */\n      tag_220\n        /* \"#utility.yul\":12556:12560   */\n      dup3\n        /* \"#utility.yul\":12550:12561   */\n      sload\n        /* \"#utility.yul\":12524:12562   */\n      tag_16\n      jump\t// in\n    tag_220:\n        /* \"#utility.yul\":12609:12676   */\n      tag_221\n        /* \"#utility.yul\":12669:12675   */\n      dup3\n        /* \"#utility.yul\":12661:12667   */\n      dup3\n        /* \"#utility.yul\":12655:12659   */\n      dup6\n        /* \"#utility.yul\":12609:12676   */\n      tag_86\n      jump\t// in\n    tag_221:\n        /* \"#utility.yul\":12703:12704   */\n      0x00\n        /* \"#utility.yul\":12727:12731   */\n      0x20\n        /* \"#utility.yul\":12714:12731   */\n      swap1\n      pop\n        /* \"#utility.yul\":12759:12761   */\n      0x1f\n        /* \"#utility.yul\":12751:12757   */\n      dup4\n        /* \"#utility.yul\":12748:12762   */\n      gt\n        /* \"#utility.yul\":12776:12777   */\n      0x01\n        /* \"#utility.yul\":12771:13389   */\n      dup2\n      eq\n      tag_223\n      jumpi\n        /* \"#utility.yul\":13433:13434   */\n      0x00\n        /* \"#utility.yul\":13450:13456   */\n      dup5\n        /* \"#utility.yul\":13447:13524   */\n      iszero\n      tag_224\n      jumpi\n        /* \"#utility.yul\":13499:13508   */\n      dup3\n        /* \"#utility.yul\":13494:13497   */\n      dup8\n        /* \"#utility.yul\":13490:13509   */\n      add\n        /* \"#utility.yul\":13484:13510   */\n      mload\n        /* \"#utility.yul\":13475:13510   */\n      swap1\n      pop\n        /* \"#utility.yul\":13447:13524   */\n    tag_224:\n        /* \"#utility.yul\":13550:13617   */\n      tag_225\n        /* \"#utility.yul\":13610:13616   */\n      dup6\n        /* \"#utility.yul\":13603:13608   */\n      dup3\n        /* \"#utility.yul\":13550:13617   */\n      tag_89\n      jump\t// in\n    tag_225:\n        /* \"#utility.yul\":13544:13548   */\n      dup7\n        /* \"#utility.yul\":13537:13618   */\n      sstore\n        /* \"#utility.yul\":13406:13628   */\n      pop\n        /* \"#utility.yul\":12741:13628   */\n      jump(tag_222)\n        /* \"#utility.yul\":12771:13389   */\n    tag_223:\n        /* \"#utility.yul\":12823:12827   */\n      0x1f\n        /* \"#utility.yul\":12819:12828   */\n      not\n        /* \"#utility.yul\":12811:12817   */\n      dup5\n        /* \"#utility.yul\":12807:12829   */\n      and\n        /* \"#utility.yul\":12857:12894   */\n      tag_226\n        /* \"#utility.yul\":12889:12893   */\n      dup7\n        /* \"#utility.yul\":12857:12894   */\n      tag_75\n      jump\t// in\n    tag_226:\n        /* \"#utility.yul\":12916:12917   */\n      0x00\n        /* \"#utility.yul\":12930:13138   */\n    tag_227:\n        /* \"#utility.yul\":12944:12951   */\n      dup3\n        /* \"#utility.yul\":12941:12942   */\n      dup2\n        /* \"#utility.yul\":12938:12952   */\n      lt\n        /* \"#utility.yul\":12930:13138   */\n      iszero\n      tag_229\n      jumpi\n        /* \"#utility.yul\":13023:13032   */\n      dup5\n        /* \"#utility.yul\":13018:13021   */\n      dup10\n        /* \"#utility.yul\":13014:13033   */\n      add\n        /* \"#utility.yul\":13008:13034   */\n      mload\n        /* \"#utility.yul\":13000:13006   */\n      dup3\n        /* \"#utility.yul\":12993:13035   */\n      sstore\n        /* \"#utility.yul\":13074:13075   */\n      0x01\n        /* \"#utility.yul\":13066:13072   */\n      dup3\n        /* \"#utility.yul\":13062:13076   */\n      add\n        /* \"#utility.yul\":13052:13076   */\n      swap2\n      pop\n        /* \"#utility.yul\":13121:13123   */\n      0x20\n        /* \"#utility.yul\":13110:13119   */\n      dup6\n        /* \"#utility.yul\":13106:13124   */\n      add\n        /* \"#utility.yul\":13093:13124   */\n      swap5\n      pop\n        /* \"#utility.yul\":12967:12971   */\n      0x20\n        /* \"#utility.yul\":12964:12965   */\n      dup2\n        /* \"#utility.yul\":12960:12972   */\n      add\n        /* \"#utility.yul\":12955:12972   */\n      swap1\n      pop\n        /* \"#utility.yul\":12930:13138   */\n      jump(tag_227)\n    tag_229:\n        /* \"#utility.yul\":13166:13172   */\n      dup7\n        /* \"#utility.yul\":13157:13164   */\n      dup4\n        /* \"#utility.yul\":13154:13173   */\n      lt\n        /* \"#utility.yul\":13151:13330   */\n      iszero\n      tag_230\n      jumpi\n        /* \"#utility.yul\":13224:13233   */\n      dup5\n        /* \"#utility.yul\":13219:13222   */\n      dup10\n        /* \"#utility.yul\":13215:13234   */\n      add\n        /* \"#utility.yul\":13209:13235   */\n      mload\n        /* \"#utility.yul\":13267:13315   */\n      tag_231\n        /* \"#utility.yul\":13309:13313   */\n      0x1f\n        /* \"#utility.yul\":13301:13307   */\n      dup10\n        /* \"#utility.yul\":13297:13314   */\n      and\n        /* \"#utility.yul\":13286:13295   */\n      dup3\n        /* \"#utility.yul\":13267:13315   */\n      tag_88\n      jump\t// in\n    tag_231:\n        /* \"#utility.yul\":13259:13265   */\n      dup4\n        /* \"#utility.yul\":13252:13316   */\n      sstore\n        /* \"#utility.yul\":13174:13330   */\n      pop\n        /* \"#utility.yul\":13151:13330   */\n    tag_230:\n        /* \"#utility.yul\":13376:13377   */\n      0x01\n        /* \"#utility.yul\":13372:13373   */\n      0x02\n        /* \"#utility.yul\":13364:13370   */\n      dup9\n        /* \"#utility.yul\":13360:13374   */\n      mul\n        /* \"#utility.yul\":13356:13378   */\n      add\n        /* \"#utility.yul\":13350:13354   */\n      dup9\n        /* \"#utility.yul\":13343:13379   */\n      sstore\n        /* \"#utility.yul\":12778:13389   */\n      pop\n      pop\n      pop\n        /* \"#utility.yul\":12741:13628   */\n    tag_222:\n      pop\n        /* \"#utility.yul\":12331:13634   */\n      pop\n      pop\n      pop\n        /* \"#utility.yul\":12239:13634   */\n      pop\n      pop\n      jump\t// out\n\n    auxdata: 0xa264697066735822122034a518f42a4a85716bedde351fb70cdf45828f113f28c2822cc4ba0605a5acc864736f6c634300081c0033\n}\n",
				"bytecode": {
					"linkReferences": {},
					"object": "6080604052348015600e575f5ffd5b50335f5f6101000a81548173ffffffffffffffffffffffffffffffffffffffff021916908373ffffffffffffffffffffffffffffffffffffffff160217905550610b978061005b5f395ff3fe608060405234801561000f575f5ffd5b5060043610610034575f3560e01c806316115cf814610038578063d8e6219e1461006c575b5f5ffd5b610052600480360381019061004d919061049b565b610088565b604051610063959493929190610545565b60405180910390f35b610086600480360381019061008191906106de565b6102d2565b005b6001602052805f5260405f205f91509050805f0154908060010180546100ad906107f2565b80601f01602080910402602001604051908101604052809291908181526020018280546100d9906107f2565b80156101245780601f106100fb57610100808354040283529160200191610124565b820191905f5260205f20905b81548152906001019060200180831161010757829003601f168201915b505050505090806002018054610139906107f2565b80601f0160208091040260200160405190810160405280929190818152602001828054610165906107f2565b80156101b05780601f10610187576101008083540402835291602001916101b0565b820191905f5260205f20905b81548152906001019060200180831161019357829003601f168201915b5050505050908060030180546101c5906107f2565b80601f01602080910402602001604051908101604052809291908181526020018280546101f1906107f2565b801561023c5780601f106102135761010080835404028352916020019161023c565b820191905f5260205f20905b81548152906001019060200180831161021f57829003601f168201915b505050505090806004018054610251906107f2565b80601f016020809104026020016040519081016040528092919081815260200182805461027d906107f2565b80156102c85780601f1061029f576101008083540402835291602001916102c8565b820191905f5260205f20905b8154815290600101906020018083116102ab57829003601f168201915b5050505050905085565b5f5f9054906101000a900473ffffffffffffffffffffffffffffffffffffffff1673ffffffffffffffffffffffffffffffffffffffff163373ffffffffffffffffffffffffffffffffffffffff1614610360576040517f08c379a00000000000000000000000000000000000000000000000000000000081526004016103579061086c565b60405180910390fd5b8460015f8781526020019081526020015f205f0154146103b5576040517f08c379a00000000000000000000000000000000000000000000000000000000081526004016103ac906108d4565b60405180910390fd5b6040518060a001604052808681526020018581526020018481526020018381526020018281525060015f8781526020019081526020015f205f820151815f0155602082015181600101908161040a9190610a92565b5060408201518160020190816104209190610a92565b5060608201518160030190816104369190610a92565b50608082015181600401908161044c9190610a92565b509050505050505050565b5f604051905090565b5f5ffd5b5f5ffd5b5f819050919050565b61047a81610468565b8114610484575f5ffd5b50565b5f8135905061049581610471565b92915050565b5f602082840312156104b0576104af610460565b5b5f6104bd84828501610487565b91505092915050565b6104cf81610468565b82525050565b5f81519050919050565b5f82825260208201905092915050565b8281835e5f83830152505050565b5f601f19601f8301169050919050565b5f610517826104d5565b61052181856104df565b93506105318185602086016104ef565b61053a816104fd565b840191505092915050565b5f60a0820190506105585f8301886104c6565b818103602083015261056a818761050d565b9050818103604083015261057e818661050d565b90508181036060830152610592818561050d565b905081810360808301526105a6818461050d565b90509695505050505050565b5f5ffd5b5f5ffd5b7f4e487b71000000000000000000000000000000000000000000000000000000005f52604160045260245ffd5b6105f0826104fd565b810181811067ffffffffffffffff8211171561060f5761060e6105ba565b5b80604052505050565b5f610621610457565b905061062d82826105e7565b919050565b5f67ffffffffffffffff82111561064c5761064b6105ba565b5b610655826104fd565b9050602081019050919050565b828183375f83830152505050565b5f61068261067d84610632565b610618565b90508281526020810184848401111561069e5761069d6105b6565b5b6106a9848285610662565b509392505050565b5f82601f8301126106c5576106c46105b2565b5b81356106d5848260208601610670565b91505092915050565b5f5f5f5f5f60a086880312156106f7576106f6610460565b5b5f61070488828901610487565b955050602086013567ffffffffffffffff81111561072557610724610464565b5b610731888289016106b1565b945050604086013567ffffffffffffffff81111561075257610751610464565b5b61075e888289016106b1565b935050606086013567ffffffffffffffff81111561077f5761077e610464565b5b61078b888289016106b1565b925050608086013567ffffffffffffffff8111156107ac576107ab610464565b5b6107b8888289016106b1565b9150509295509295909350565b7f4e487b71000000000000000000000000000000000000000000000000000000005f52602260045260245ffd5b5f600282049050600182168061080957607f821691505b60208210810361081c5761081b6107c5565b5b50919050565b7f756e617574686572697a656420616363657373000000000000000000000000005f82015250565b5f6108566013836104df565b915061086182610822565b602082019050919050565b5f6020820190508181035f8301526108838161084a565b9050919050565b7f616c7265616479206973737565000000000000000000000000000000000000005f82015250565b5f6108be600d836104df565b91506108c98261088a565b602082019050919050565b5f6020820190508181035f8301526108eb816108b2565b9050919050565b5f819050815f5260205f209050919050565b5f6020601f8301049050919050565b5f82821b905092915050565b5f6008830261094e7fffffffffffffffffffffffffffffffffffffffffffffffffffffffffffffffff82610913565b6109588683610913565b95508019841693508086168417925050509392505050565b5f819050919050565b5f61099361098e61098984610468565b610970565b610468565b9050919050565b5f819050919050565b6109ac83610979565b6109c06109b88261099a565b84845461091f565b825550505050565b5f5f905090565b6109d76109c8565b6109e28184846109a3565b505050565b5b81811015610a05576109fa5f826109cf565b6001810190506109e8565b5050565b601f821115610a4a57610a1b816108f2565b610a2484610904565b81016020851015610a33578190505b610a47610a3f85610904565b8301826109e7565b50505b505050565b5f82821c905092915050565b5f610a6a5f1984600802610a4f565b1980831691505092915050565b5f610a828383610a5b565b9150826002028217905092915050565b610a9b826104d5565b67ffffffffffffffff811115610ab457610ab36105ba565b5b610abe82546107f2565b610ac9828285610a09565b5f60209050601f831160018114610afa575f8415610ae8578287015190505b610af28582610a77565b865550610b59565b601f198416610b08866108f2565b5f5b82811015610b2f57848901518255600182019150602085019450602081019050610b0a565b86831015610b4c5784890151610b48601f891682610a5b565b8355505b6001600288020188555050505b50505050505056fea264697066735822122034a518f42a4a85716bedde351fb70cdf45828f113f28c2822cc4ba0605a5acc864736f6c634300081c0033",
					"opcodes": "PUSH1 0x80 PUSH1 0x40 MSTORE CALLVALUE DUP1 ISZERO PUSH1 0xE JUMPI PUSH0 PUSH0 REVERT JUMPDEST POP CALLER PUSH0 PUSH0 PUSH2 0x100 EXP DUP2 SLOAD DUP2 PUSH20 0xFFFFFFFFFFFFFFFFFFFFFFFFFFFFFFFFFFFFFFFF MUL NOT AND SWAP1 DUP4 PUSH20 0xFFFFFFFFFFFFFFFFFFFFFFFFFFFFFFFFFFFFFFFF AND MUL OR SWAP1 SSTORE POP PUSH2 0xB97 DUP1 PUSH2 0x5B PUSH0 CODECOPY PUSH0 RETURN INVALID PUSH1 0x80 PUSH1 0x40 MSTORE CALLVALUE DUP1 ISZERO PUSH2 0xF JUMPI PUSH0 PUSH0 REVERT JUMPDEST POP PUSH1 0x4 CALLDATASIZE LT PUSH2 0x34 JUMPI PUSH0 CALLDATALOAD PUSH1 0xE0 SHR DUP1 PUSH4 0x16115CF8 EQ PUSH2 0x38 JUMPI DUP1 PUSH4 0xD8E6219E EQ PUSH2 0x6C JUMPI JUMPDEST PUSH0 PUSH0 REVERT JUMPDEST PUSH2 0x52 PUSH1 0x4 DUP1 CALLDATASIZE SUB DUP2 ADD SWAP1 PUSH2 0x4D SWAP2 SWAP1 PUSH2 0x49B JUMP JUMPDEST PUSH2 0x88 JUMP JUMPDEST PUSH1 0x40 MLOAD PUSH2 0x63 SWAP6 SWAP5 SWAP4 SWAP3 SWAP2 SWAP1 PUSH2 0x545 JUMP JUMPDEST PUSH1 0x40 MLOAD DUP1 SWAP2 SUB SWAP1 RETURN JUMPDEST PUSH2 0x86 PUSH1 0x4 DUP1 CALLDATASIZE SUB DUP2 ADD SWAP1 PUSH2 0x81 SWAP2 SWAP1 PUSH2 0x6DE JUMP JUMPDEST PUSH2 0x2D2 JUMP JUMPDEST STOP JUMPDEST PUSH1 0x1 PUSH1 0x20 MSTORE DUP1 PUSH0 MSTORE PUSH1 0x40 PUSH0 KECCAK256 PUSH0 SWAP2 POP SWAP1 POP DUP1 PUSH0 ADD SLOAD SWAP1 DUP1 PUSH1 0x1 ADD DUP1 SLOAD PUSH2 0xAD SWAP1 PUSH2 0x7F2 JUMP JUMPDEST DUP1 PUSH1 0x1F ADD PUSH1 0x20 DUP1 SWAP2 DIV MUL PUSH1 0x20 ADD PUSH1 0x40 MLOAD SWAP1 DUP2 ADD PUSH1 0x40 MSTORE DUP1 SWAP3 SWAP2 SWAP1 DUP2 DUP2 MSTORE PUSH1 0x20 ADD DUP3 DUP1 SLOAD PUSH2 0xD9 SWAP1 PUSH2 0x7F2 JUMP JUMPDEST DUP1 ISZERO PUSH2 0x124 JUMPI DUP1 PUSH1 0x1F LT PUSH2 0xFB JUMPI PUSH2 0x100 DUP1 DUP4 SLOAD DIV MUL DUP4 MSTORE SWAP2 PUSH1 0x20 ADD SWAP2 PUSH2 0x124 JUMP JUMPDEST DUP3 ADD SWAP2 SWAP1 PUSH0 MSTORE PUSH1 0x20 PUSH0 KECCAK256 SWAP1 JUMPDEST DUP2 SLOAD DUP2 MSTORE SWAP1 PUSH1 0x1 ADD SWAP1 PUSH1 0x20 ADD DUP1 DUP4 GT PUSH2 0x107 JUMPI DUP3 SWAP1 SUB PUSH1 0x1F AND DUP3 ADD SWAP2 JUMPDEST POP POP POP POP POP SWAP1 DUP1 PUSH1 0x2 ADD DUP1 SLOAD PUSH2 0x139 SWAP1 PUSH2 0x7F2 JUMP JUMPDEST DUP1 PUSH1 0x1F ADD PUSH1 0x20 DUP1 SWAP2 DIV MUL PUSH1 0x20 ADD PUSH1 0x40 MLOAD SWAP1 DUP2 ADD PUSH1 0x40 MSTORE DUP1 SWAP3 SWAP2 SWAP1 DUP2 DUP2 MSTORE PUSH1 0x20 ADD DUP3 DUP1 SLOAD PUSH2 0x165 SWAP1 PUSH2 0x7F2 JUMP JUMPDEST DUP1 ISZERO PUSH2 0x1B0 JUMPI DUP1 PUSH1 0x1F LT PUSH2 0x187 JUMPI PUSH2 0x100 DUP1 DUP4 SLOAD DIV MUL DUP4 MSTORE SWAP2 PUSH1 0x20 ADD SWAP2 PUSH2 0x1B0 JUMP JUMPDEST DUP3 ADD SWAP2 SWAP1 PUSH0 MSTORE PUSH1 0x20 PUSH0 KECCAK256 SWAP1 JUMPDEST DUP2 SLOAD DUP2 MSTORE SWAP1 PUSH1 0x1 ADD SWAP1 PUSH1 0x20 ADD DUP1 DUP4 GT PUSH2 0x193 JUMPI DUP3 SWAP1 SUB PUSH1 0x1F AND DUP3 ADD SWAP2 JUMPDEST POP POP POP POP POP SWAP1 DUP1 PUSH1 0x3 ADD DUP1 SLOAD PUSH2 0x1C5 SWAP1 PUSH2 0x7F2 JUMP JUMPDEST DUP1 PUSH1 0x1F ADD PUSH1 0x20 DUP1 SWAP2 DIV MUL PUSH1 0x20 ADD PUSH1 0x40 MLOAD SWAP1 DUP2 ADD PUSH1 0x40 MSTORE DUP1 SWAP3 SWAP2 SWAP1 DUP2 DUP2 MSTORE PUSH1 0x20 ADD DUP3 DUP1 SLOAD PUSH2 0x1F1 SWAP1 PUSH2 0x7F2 JUMP JUMPDEST DUP1 ISZERO PUSH2 0x23C JUMPI DUP1 PUSH1 0x1F LT PUSH2 0x213 JUMPI PUSH2 0x100 DUP1 DUP4 SLOAD DIV MUL DUP4 MSTORE SWAP2 PUSH1 0x20 ADD SWAP2 PUSH2 0x23C JUMP JUMPDEST DUP3 ADD SWAP2 SWAP1 PUSH0 MSTORE PUSH1 0x20 PUSH0 KECCAK256 SWAP1 JUMPDEST DUP2 SLOAD DUP2 MSTORE SWAP1 PUSH1 0x1 ADD SWAP1 PUSH1 0x20 ADD DUP1 DUP4 GT PUSH2 0x21F JUMPI DUP3 SWAP1 SUB PUSH1 0x1F AND DUP3 ADD SWAP2 JUMPDEST POP POP POP POP POP SWAP1 DUP1 PUSH1 0x4 ADD DUP1 SLOAD PUSH2 0x251 SWAP1 PUSH2 0x7F2 JUMP JUMPDEST DUP1 PUSH1 0x1F ADD PUSH1 0x20 DUP1 SWAP2 DIV MUL PUSH1 0x20 ADD PUSH1 0x40 MLOAD SWAP1 DUP2 ADD PUSH1 0x40 MSTORE DUP1 SWAP3 SWAP2 SWAP1 DUP2 DUP2 MSTORE PUSH1 0x20 ADD DUP3 DUP1 SLOAD PUSH2 0x27D SWAP1 PUSH2 0x7F2 JUMP JUMPDEST DUP1 ISZERO PUSH2 0x2C8 JUMPI DUP1 PUSH1 0x1F LT PUSH2 0x29F JUMPI PUSH2 0x100 DUP1 DUP4 SLOAD DIV MUL DUP4 MSTORE SWAP2 PUSH1 0x20 ADD SWAP2 PUSH2 0x2C8 JUMP JUMPDEST DUP3 ADD SWAP2 SWAP1 PUSH0 MSTORE PUSH1 0x20 PUSH0 KECCAK256 SWAP1 JUMPDEST DUP2 SLOAD DUP2 MSTORE SWAP1 PUSH1 0x1 ADD SWAP1 PUSH1 0x20 ADD DUP1 DUP4 GT PUSH2 0x2AB JUMPI DUP3 SWAP1 SUB PUSH1 0x1F AND DUP3 ADD SWAP2 JUMPDEST POP POP POP POP POP SWAP1 POP DUP6 JUMP JUMPDEST PUSH0 PUSH0 SWAP1 SLOAD SWAP1 PUSH2 0x100 EXP SWAP1 DIV PUSH20 0xFFFFFFFFFFFFFFFFFFFFFFFFFFFFFFFFFFFFFFFF AND PUSH20 0xFFFFFFFFFFFFFFFFFFFFFFFFFFFFFFFFFFFFFFFF AND CALLER PUSH20 0xFFFFFFFFFFFFFFFFFFFFFFFFFFFFFFFFFFFFFFFF AND EQ PUSH2 0x360 JUMPI PUSH1 0x40 MLOAD PUSH32 0x8C379A000000000000000000000000000000000000000000000000000000000 DUP2 MSTORE PUSH1 0x4 ADD PUSH2 0x357 SWAP1 PUSH2 0x86C JUMP JUMPDEST PUSH1 0x40 MLOAD DUP1 SWAP2 SUB SWAP1 REVERT JUMPDEST DUP5 PUSH1 0x1 PUSH0 DUP8 DUP2 MSTORE PUSH1 0x20 ADD SWAP1 DUP2 MSTORE PUSH1 0x20 ADD PUSH0 KECCAK256 PUSH0 ADD SLOAD EQ PUSH2 0x3B5 JUMPI PUSH1 0x40 MLOAD PUSH32 0x8C379A000000000000000000000000000000000000000000000000000000000 DUP2 MSTORE PUSH1 0x4 ADD PUSH2 0x3AC SWAP1 PUSH2 0x8D4 JUMP JUMPDEST PUSH1 0x40 MLOAD DUP1 SWAP2 SUB SWAP1 REVERT JUMPDEST PUSH1 0x40 MLOAD DUP1 PUSH1 0xA0 ADD PUSH1 0x40 MSTORE DUP1 DUP7 DUP2 MSTORE PUSH1 0x20 ADD DUP6 DUP2 MSTORE PUSH1 0x20 ADD DUP5 DUP2 MSTORE PUSH1 0x20 ADD DUP4 DUP2 MSTORE PUSH1 0x20 ADD DUP3 DUP2 MSTORE POP PUSH1 0x1 PUSH0 DUP8 DUP2 MSTORE PUSH1 0x20 ADD SWAP1 DUP2 MSTORE PUSH1 0x20 ADD PUSH0 KECCAK256 PUSH0 DUP3 ADD MLOAD DUP2 PUSH0 ADD SSTORE PUSH1 0x20 DUP3 ADD MLOAD DUP2 PUSH1 0x1 ADD SWAP1 DUP2 PUSH2 0x40A SWAP2 SWAP1 PUSH2 0xA92 JUMP JUMPDEST POP PUSH1 0x40 DUP3 ADD MLOAD DUP2 PUSH1 0x2 ADD SWAP1 DUP2 PUSH2 0x420 SWAP2 SWAP1 PUSH2 0xA92 JUMP JUMPDEST POP PUSH1 0x60 DUP3 ADD MLOAD DUP2 PUSH1 0x3 ADD SWAP1 DUP2 PUSH2 0x436 SWAP2 SWAP1 PUSH2 0xA92 JUMP JUMPDEST POP PUSH1 0x80 DUP3 ADD MLOAD DUP2 PUSH1 0x4 ADD SWAP1 DUP2 PUSH2 0x44C SWAP2 SWAP1 PUSH2 0xA92 JUMP JUMPDEST POP SWAP1 POP POP POP POP POP POP POP JUMP JUMPDEST PUSH0 PUSH1 0x40 MLOAD SWAP1 POP SWAP1 JUMP JUMPDEST PUSH0 PUSH0 REVERT JUMPDEST PUSH0 PUSH0 REVERT JUMPDEST PUSH0 DUP2 SWAP1 POP SWAP2 SWAP1 POP JUMP JUMPDEST PUSH2 0x47A DUP2 PUSH2 0x468 JUMP JUMPDEST DUP2 EQ PUSH2 0x484 JUMPI PUSH0 PUSH0 REVERT JUMPDEST POP JUMP JUMPDEST PUSH0 DUP2 CALLDATALOAD SWAP1 POP PUSH2 0x495 DUP2 PUSH2 0x471 JUMP JUMPDEST SWAP3 SWAP2 POP POP JUMP JUMPDEST PUSH0 PUSH1 0x20 DUP3 DUP5 SUB SLT ISZERO PUSH2 0x4B0 JUMPI PUSH2 0x4AF PUSH2 0x460 JUMP JUMPDEST JUMPDEST PUSH0 PUSH2 0x4BD DUP5 DUP3 DUP6 ADD PUSH2 0x487 JUMP JUMPDEST SWAP2 POP POP SWAP3 SWAP2 POP POP JUMP JUMPDEST PUSH2 0x4CF DUP2 PUSH2 0x468 JUMP JUMPDEST DUP3 MSTORE POP POP JUMP JUMPDEST PUSH0 DUP2 MLOAD SWAP1 POP SWAP2 SWAP1 POP JUMP JUMPDEST PUSH0 DUP3 DUP3 MSTORE PUSH1 0x20 DUP3 ADD SWAP1 POP SWAP3 SWAP2 POP POP JUMP JUMPDEST DUP3 DUP2 DUP4 MCOPY PUSH0 DUP4 DUP4 ADD MSTORE POP POP POP JUMP JUMPDEST PUSH0 PUSH1 0x1F NOT PUSH1 0x1F DUP4 ADD AND SWAP1 POP SWAP2 SWAP1 POP JUMP JUMPDEST PUSH0 PUSH2 0x517 DUP3 PUSH2 0x4D5 JUMP JUMPDEST PUSH2 0x521 DUP2 DUP6 PUSH2 0x4DF JUMP JUMPDEST SWAP4 POP PUSH2 0x531 DUP2 DUP6 PUSH1 0x20 DUP7 ADD PUSH2 0x4EF JUMP JUMPDEST PUSH2 0x53A DUP2 PUSH2 0x4FD JUMP JUMPDEST DUP5 ADD SWAP2 POP POP SWAP3 SWAP2 POP POP JUMP JUMPDEST PUSH0 PUSH1 0xA0 DUP3 ADD SWAP1 POP PUSH2 0x558 PUSH0 DUP4 ADD DUP9 PUSH2 0x4C6 JUMP JUMPDEST DUP2 DUP2 SUB PUSH1 0x20 DUP4 ADD MSTORE PUSH2 0x56A DUP2 DUP8 PUSH2 0x50D JUMP JUMPDEST SWAP1 POP DUP2 DUP2 SUB PUSH1 0x40 DUP4 ADD MSTORE PUSH2 0x57E DUP2 DUP7 PUSH2 0x50D JUMP JUMPDEST SWAP1 POP DUP2 DUP2 SUB PUSH1 0x60 DUP4 ADD MSTORE PUSH2 0x592 DUP2 DUP6 PUSH2 0x50D JUMP JUMPDEST SWAP1 POP DUP2 DUP2 SUB PUSH1 0x80 DUP4 ADD MSTORE PUSH2 0x5A6 DUP2 DUP5 PUSH2 0x50D JUMP JUMPDEST SWAP1 POP SWAP7 SWAP6 POP POP POP POP POP POP JUMP JUMPDEST PUSH0 PUSH0 REVERT JUMPDEST PUSH0 PUSH0 REVERT JUMPDEST PUSH32 0x4E487B7100000000000000000000000000000000000000000000000000000000 PUSH0 MSTORE PUSH1 0x41 PUSH1 0x4 MSTORE PUSH1 0x24 PUSH0 REVERT JUMPDEST PUSH2 0x5F0 DUP3 PUSH2 0x4FD JUMP JUMPDEST DUP2 ADD DUP2 DUP2 LT PUSH8 0xFFFFFFFFFFFFFFFF DUP3 GT OR ISZERO PUSH2 0x60F JUMPI PUSH2 0x60E PUSH2 0x5BA JUMP JUMPDEST JUMPDEST DUP1 PUSH1 0x40 MSTORE POP POP POP JUMP JUMPDEST PUSH0 PUSH2 0x621 PUSH2 0x457 JUMP JUMPDEST SWAP1 POP PUSH2 0x62D DUP3 DUP3 PUSH2 0x5E7 JUMP JUMPDEST SWAP2 SWAP1 POP JUMP JUMPDEST PUSH0 PUSH8 0xFFFFFFFFFFFFFFFF DUP3 GT ISZERO PUSH2 0x64C JUMPI PUSH2 0x64B PUSH2 0x5BA JUMP JUMPDEST JUMPDEST PUSH2 0x655 DUP3 PUSH2 0x4FD JUMP JUMPDEST SWAP1 POP PUSH1 0x20 DUP2 ADD SWAP1 POP SWAP2 SWAP1 POP JUMP JUMPDEST DUP3 DUP2 DUP4 CALLDATACOPY PUSH0 DUP4 DUP4 ADD MSTORE POP POP POP JUMP JUMPDEST PUSH0 PUSH2 0x682 PUSH2 0x67D DUP5 PUSH2 0x632 JUMP JUMPDEST PUSH2 0x618 JUMP JUMPDEST SWAP1 POP DUP3 DUP2 MSTORE PUSH1 0x20 DUP2 ADD DUP5 DUP5 DUP5 ADD GT ISZERO PUSH2 0x69E JUMPI PUSH2 0x69D PUSH2 0x5B6 JUMP JUMPDEST JUMPDEST PUSH2 0x6A9 DUP5 DUP3 DUP6 PUSH2 0x662 JUMP JUMPDEST POP SWAP4 SWAP3 POP POP POP JUMP JUMPDEST PUSH0 DUP3 PUSH1 0x1F DUP4 ADD SLT PUSH2 0x6C5 JUMPI PUSH2 0x6C4 PUSH2 0x5B2 JUMP JUMPDEST JUMPDEST DUP2 CALLDATALOAD PUSH2 0x6D5 DUP5 DUP3 PUSH1 0x20 DUP7 ADD PUSH2 0x670 JUMP JUMPDEST SWAP2 POP POP SWAP3 SWAP2 POP POP JUMP JUMPDEST PUSH0 PUSH0 PUSH0 PUSH0 PUSH0 PUSH1 0xA0 DUP7 DUP9 SUB SLT ISZERO PUSH2 0x6F7 JUMPI PUSH2 0x6F6 PUSH2 0x460 JUMP JUMPDEST JUMPDEST PUSH0 PUSH2 0x704 DUP9 DUP3 DUP10 ADD PUSH2 0x487 JUMP JUMPDEST SWAP6 POP POP PUSH1 0x20 DUP7 ADD CALLDATALOAD PUSH8 0xFFFFFFFFFFFFFFFF DUP2 GT ISZERO PUSH2 0x725 JUMPI PUSH2 0x724 PUSH2 0x464 JUMP JUMPDEST JUMPDEST PUSH2 0x731 DUP9 DUP3 DUP10 ADD PUSH2 0x6B1 JUMP JUMPDEST SWAP5 POP POP PUSH1 0x40 DUP7 ADD CALLDATALOAD PUSH8 0xFFFFFFFFFFFFFFFF DUP2 GT ISZERO PUSH2 0x752 JUMPI PUSH2 0x751 PUSH2 0x464 JUMP JUMPDEST JUMPDEST PUSH2 0x75E DUP9 DUP3 DUP10 ADD PUSH2 0x6B1 JUMP JUMPDEST SWAP4 POP POP PUSH1 0x60 DUP7 ADD CALLDATALOAD PUSH8 0xFFFFFFFFFFFFFFFF DUP2 GT ISZERO PUSH2 0x77F JUMPI PUSH2 0x77E PUSH2 0x464 JUMP JUMPDEST JUMPDEST PUSH2 0x78B DUP9 DUP3 DUP10 ADD PUSH2 0x6B1 JUMP JUMPDEST SWAP3 POP POP PUSH1 0x80 DUP7 ADD CALLDATALOAD PUSH8 0xFFFFFFFFFFFFFFFF DUP2 GT ISZERO PUSH2 0x7AC JUMPI PUSH2 0x7AB PUSH2 0x464 JUMP JUMPDEST JUMPDEST PUSH2 0x7B8 DUP9 DUP3 DUP10 ADD PUSH2 0x6B1 JUMP JUMPDEST SWAP2 POP POP SWAP3 SWAP6 POP SWAP3 SWAP6 SWAP1 SWAP4 POP JUMP JUMPDEST PUSH32 0x4E487B7100000000000000000000000000000000000000000000000000000000 PUSH0 MSTORE PUSH1 0x22 PUSH1 0x4 MSTORE PUSH1 0x24 PUSH0 REVERT JUMPDEST PUSH0 PUSH1 0x2 DUP3 DIV SWAP1 POP PUSH1 0x1 DUP3 AND DUP1 PUSH2 0x809 JUMPI PUSH1 0x7F DUP3 AND SWAP2 POP JUMPDEST PUSH1 0x20 DUP3 LT DUP2 SUB PUSH2 0x81C JUMPI PUSH2 0x81B PUSH2 0x7C5 JUMP JUMPDEST JUMPDEST POP SWAP2 SWAP1 POP JUMP JUMPDEST PUSH32 0x756E617574686572697A65642061636365737300000000000000000000000000 PUSH0 DUP3 ADD MSTORE POP JUMP JUMPDEST PUSH0 PUSH2 0x856 PUSH1 0x13 DUP4 PUSH2 0x4DF JUMP JUMPDEST SWAP2 POP PUSH2 0x861 DUP3 PUSH2 0x822 JUMP JUMPDEST PUSH1 0x20 DUP3 ADD SWAP1 POP SWAP2 SWAP1 POP JUMP JUMPDEST PUSH0 PUSH1 0x20 DUP3 ADD SWAP1 POP DUP2 DUP2 SUB PUSH0 DUP4 ADD MSTORE PUSH2 0x883 DUP2 PUSH2 0x84A JUMP JUMPDEST SWAP1 POP SWAP2 SWAP1 POP JUMP JUMPDEST PUSH32 0x616C726561647920697373756500000000000000000000000000000000000000 PUSH0 DUP3 ADD MSTORE POP JUMP JUMPDEST PUSH0 PUSH2 0x8BE PUSH1 0xD DUP4 PUSH2 0x4DF JUMP JUMPDEST SWAP2 POP PUSH2 0x8C9 DUP3 PUSH2 0x88A JUMP JUMPDEST PUSH1 0x20 DUP3 ADD SWAP1 POP SWAP2 SWAP1 POP JUMP JUMPDEST PUSH0 PUSH1 0x20 DUP3 ADD SWAP1 POP DUP2 DUP2 SUB PUSH0 DUP4 ADD MSTORE PUSH2 0x8EB DUP2 PUSH2 0x8B2 JUMP JUMPDEST SWAP1 POP SWAP2 SWAP1 POP JUMP JUMPDEST PUSH0 DUP2 SWAP1 POP DUP2 PUSH0 MSTORE PUSH1 0x20 PUSH0 KECCAK256 SWAP1 POP SWAP2 SWAP1 POP JUMP JUMPDEST PUSH0 PUSH1 0x20 PUSH1 0x1F DUP4 ADD DIV SWAP1 POP SWAP2 SWAP1 POP JUMP JUMPDEST PUSH0 DUP3 DUP3 SHL SWAP1 POP SWAP3 SWAP2 POP POP JUMP JUMPDEST PUSH0 PUSH1 0x8 DUP4 MUL PUSH2 0x94E PUSH32 0xFFFFFFFFFFFFFFFFFFFFFFFFFFFFFFFFFFFFFFFFFFFFFFFFFFFFFFFFFFFFFFFF DUP3 PUSH2 0x913 JUMP JUMPDEST PUSH2 0x958 DUP7 DUP4 PUSH2 0x913 JUMP JUMPDEST SWAP6 POP DUP1 NOT DUP5 AND SWAP4 POP DUP1 DUP7 AND DUP5 OR SWAP3 POP POP POP SWAP4 SWAP3 POP POP POP JUMP JUMPDEST PUSH0 DUP2 SWAP1 POP SWAP2 SWAP1 POP JUMP JUMPDEST PUSH0 PUSH2 0x993 PUSH2 0x98E PUSH2 0x989 DUP5 PUSH2 0x468 JUMP JUMPDEST PUSH2 0x970 JUMP JUMPDEST PUSH2 0x468 JUMP JUMPDEST SWAP1 POP SWAP2 SWAP1 POP JUMP JUMPDEST PUSH0 DUP2 SWAP1 POP SWAP2 SWAP1 POP JUMP JUMPDEST PUSH2 0x9AC DUP4 PUSH2 0x979 JUMP JUMPDEST PUSH2 0x9C0 PUSH2 0x9B8 DUP3 PUSH2 0x99A JUMP JUMPDEST DUP5 DUP5 SLOAD PUSH2 0x91F JUMP JUMPDEST DUP3 SSTORE POP POP POP POP JUMP JUMPDEST PUSH0 PUSH0 SWAP1 POP SWAP1 JUMP JUMPDEST PUSH2 0x9D7 PUSH2 0x9C8 JUMP JUMPDEST PUSH2 0x9E2 DUP2 DUP5 DUP5 PUSH2 0x9A3 JUMP JUMPDEST POP POP POP JUMP JUMPDEST JUMPDEST DUP2 DUP2 LT ISZERO PUSH2 0xA05 JUMPI PUSH2 0x9FA PUSH0 DUP3 PUSH2 0x9CF JUMP JUMPDEST PUSH1 0x1 DUP2 ADD SWAP1 POP PUSH2 0x9E8 JUMP JUMPDEST POP POP JUMP JUMPDEST PUSH1 0x1F DUP3 GT ISZERO PUSH2 0xA4A JUMPI PUSH2 0xA1B DUP2 PUSH2 0x8F2 JUMP JUMPDEST PUSH2 0xA24 DUP5 PUSH2 0x904 JUMP JUMPDEST DUP2 ADD PUSH1 0x20 DUP6 LT ISZERO PUSH2 0xA33 JUMPI DUP2 SWAP1 POP JUMPDEST PUSH2 0xA47 PUSH2 0xA3F DUP6 PUSH2 0x904 JUMP JUMPDEST DUP4 ADD DUP3 PUSH2 0x9E7 JUMP JUMPDEST POP POP JUMPDEST POP POP POP JUMP JUMPDEST PUSH0 DUP3 DUP3 SHR SWAP1 POP SWAP3 SWAP2 POP POP JUMP JUMPDEST PUSH0 PUSH2 0xA6A PUSH0 NOT DUP5 PUSH1 0x8 MUL PUSH2 0xA4F JUMP JUMPDEST NOT DUP1 DUP4 AND SWAP2 POP POP SWAP3 SWAP2 POP POP JUMP JUMPDEST PUSH0 PUSH2 0xA82 DUP4 DUP4 PUSH2 0xA5B JUMP JUMPDEST SWAP2 POP DUP3 PUSH1 0x2 MUL DUP3 OR SWAP1 POP SWAP3 SWAP2 POP POP JUMP JUMPDEST PUSH2 0xA9B DUP3 PUSH2 0x4D5 JUMP JUMPDEST PUSH8 0xFFFFFFFFFFFFFFFF DUP2 GT ISZERO PUSH2 0xAB4 JUMPI PUSH2 0xAB3 PUSH2 0x5BA JUMP JUMPDEST JUMPDEST PUSH2 0xABE DUP3 SLOAD PUSH2 0x7F2 JUMP JUMPDEST PUSH2 0xAC9 DUP3 DUP3 DUP6 PUSH2 0xA09 JUMP JUMPDEST PUSH0 PUSH1 0x20 SWAP1 POP PUSH1 0x1F DUP4 GT PUSH1 0x1 DUP2 EQ PUSH2 0xAFA JUMPI PUSH0 DUP5 ISZERO PUSH2 0xAE8 JUMPI DUP3 DUP8 ADD MLOAD SWAP1 POP JUMPDEST PUSH2 0xAF2 DUP6 DUP3 PUSH2 0xA77 JUMP JUMPDEST DUP7 SSTORE POP PUSH2 0xB59 JUMP JUMPDEST PUSH1 0x1F NOT DUP5 AND PUSH2 0xB08 DUP7 PUSH2 0x8F2 JUMP JUMPDEST PUSH0 JUMPDEST DUP3 DUP2 LT ISZERO PUSH2 0xB2F JUMPI DUP5 DUP10 ADD MLOAD DUP3 SSTORE PUSH1 0x1 DUP3 ADD SWAP2 POP PUSH1 0x20 DUP6 ADD SWAP5 POP PUSH1 0x20 DUP2 ADD SWAP1 POP PUSH2 0xB0A JUMP JUMPDEST DUP7 DUP4 LT ISZERO PUSH2 0xB4C JUMPI DUP5 DUP10 ADD MLOAD PUSH2 0xB48 PUSH1 0x1F DUP10 AND DUP3 PUSH2 0xA5B JUMP JUMPDEST DUP4 SSTORE POP JUMPDEST PUSH1 0x1 PUSH1 0x2 DUP9 MUL ADD DUP9 SSTORE POP POP POP JUMPDEST POP POP POP POP POP POP JUMP INVALID LOG2 PUSH5 0x6970667358 0x22 SLT KECCAK256 CALLVALUE 0xA5 XOR DELEGATECALL 0x2A BLOBBASEFEE DUP6 PUSH18 0x6BEDDE351FB70CDF45828F113F28C2822CC4 0xBA MOD SDIV 0xA5 0xAC 0xC8 PUSH5 0x736F6C6343 STOP ADDMOD SHR STOP CALLER "
				},
				"gasEstimates": {
					"creation": {
						"codeDepositCost": "593400",
						"executionCost": "24887",
						"totalCost": "618287"
					},
					"external": {
						"certificate(uint256)": "infinite",
						"issueCertificate(uint256,string,string,string,string)": "infinite"
					}
				},
				"methodIdentifiers": {
					"certificate(uint256)": "16115cf8",
					"issueCertificate(uint256,string,string,string,string)": "d8e6219e"
				}
			},
			"storageLayout": {
				"storage": [
					{
						"astId": 14,
						"contract": "Certi.sol:CertiApp",
						"label": "admin",
						"offset": 0,
						"slot": "0",
						"type": "t_address"
					},
					{
						"astId": 19,
						"contract": "Certi.sol:CertiApp",
						"label": "certificate",
						"offset": 0,
						"slot": "1",
						"type": "t_mapping(t_uint256,t_struct(Certificate)12_storage)"
					}
				],
				"types": {
					"t_address": {
						"encoding": "inplace",
						"label": "address",
						"numberOfBytes": "20"
					},
					"t_mapping(t_uint256,t_struct(Certificate)12_storage)": {
						"encoding": "mapping",
						"key": "t_uint256",
						"label": "mapping(uint256 => struct CertiApp.Certificate)",
						"numberOfBytes": "32",
						"value": "t_struct(Certificate)12_storage"
					},
					"t_string_storage": {
						"encoding": "bytes",
						"label": "string",
						"numberOfBytes": "32"
					},
					"t_struct(Certificate)12_storage": {
						"encoding": "inplace",
						"label": "struct CertiApp.Certificate",
						"members": [
							{
								"astId": 3,
								"contract": "Certi.sol:CertiApp",
								"label": "id",
								"offset": 0,
								"slot": "0",
								"type": "t_uint256"
							},
							{
								"astId": 5,
								"contract": "Certi.sol:CertiApp",
								"label": "name",
								"offset": 0,
								"slot": "1",
								"type": "t_string_storage"
							},
							{
								"astId": 7,
								"contract": "Certi.sol:CertiApp",
								"label": "course",
								"offset": 0,
								"slot": "2",
								"type": "t_string_storage"
							},
							{
								"astId": 9,
								"contract": "Certi.sol:CertiApp",
								"label": "grade",
								"offset": 0,
								"slot": "3",
								"type": "t_string_storage"
							},
							{
								"astId": 11,
								"contract": "Certi.sol:CertiApp",
								"label": "date",
								"offset": 0,
								"slot": "4",
								"type": "t_string_storage"
							}
						],
						"numberOfBytes": "160"
					},
					"t_uint256": {
						"encoding": "inplace",
						"label": "uint256",
						"numberOfBytes": "32"
					}
				}
			},
			"userdoc": {
				"kind": "user",
				"methods": {},
				"version": 1
			}
		}
	}
}