{
	"Activities/Employee.sol": {
		"Employee": {
			"abi": [
				{
					"inputs": [],
					"name": "employe",
					"outputs": [
						{
							"internalType": "string",
							"name": "name",
							"type": "string"
						},
						{
							"internalType": "string",
							"name": "department",
							"type": "string"
						},
						{
							"internalType": "string",
							"name": "designation",
							"type": "string"
						},
						{
							"internalType": "uint16",
							"name": "salary",
							"type": "uint16"
						},
						{
							"internalType": "address",
							"name": "cashier",
							"type": "address"
						}
					],
					"stateMutability": "view",
					"type": "function"
				},
				{
					"inputs": [
						{
							"internalType": "uint256",
							"name": "eval",
							"type": "uint256"
						}
					],
					"name": "ethTowei",
					"outputs": [
						{
							"internalType": "uint256",
							"name": "",
							"type": "uint256"
						}
					],
					"stateMutability": "pure",
					"type": "function"
				},
				{
					"inputs": [],
					"name": "getEmplyeeDetails",
					"outputs": [
						{
							"internalType": "string",
							"name": "",
							"type": "string"
						},
						{
							"internalType": "string",
							"name": "",
							"type": "string"
						},
						{
							"internalType": "string",
							"name": "",
							"type": "string"
						},
						{
							"internalType": "uint16",
							"name": "",
							"type": "uint16"
						}
					],
					"stateMutability": "view",
					"type": "function"
				},
				{
					"inputs": [],
					"name": "payEmployee",
					"outputs": [],
					"stateMutability": "payable",
					"type": "function"
				},
				{
					"inputs": [
						{
							"internalType": "string",
							"name": "_name",
							"type": "string"
						},
						{
							"internalType": "string",
							"name": "_depatment",
							"type": "string"
						},
						{
							"internalType": "string",
							"name": "_designation",
							"type": "string"
						},
						{
							"internalType": "uint16",
							"name": "_salary",
							"type": "uint16"
						}
					],
					"name": "setEmployeeDetails",
					"outputs": [],
					"stateMutability": "nonpayable",
					"type": "function"
				}
			],
			"devdoc": {
				"kind": "dev",
				"methods": {},
				"version": 1
			},
			"evm": {
				"assembly": "    /* \"Activities/Employee.sol\":56:1280  contract Employee{... */\n  mstore(0x40, 0x80)\n  callvalue\n  dup1\n  iszero\n  tag_1\n  jumpi\n  revert(0x00, 0x00)\ntag_1:\n  pop\n  dataSize(sub_0)\n  dup1\n  dataOffset(sub_0)\n  0x00\n  codecopy\n  0x00\n  return\nstop\n\nsub_0: assembly {\n        /* \"Activities/Employee.sol\":56:1280  contract Employee{... */\n      mstore(0x40, 0x80)\n      jumpi(tag_1, lt(calldatasize, 0x04))\n      shr(0xe0, calldataload(0x00))\n      dup1\n      0xc36cd943\n      eq\n      tag_2\n      jumpi\n      dup1\n      0xc97bdf8e\n      eq\n      tag_3\n      jumpi\n      dup1\n      0xd1f3bf1d\n      eq\n      tag_4\n      jumpi\n      dup1\n      0xd8ebe4e5\n      eq\n      tag_5\n      jumpi\n      dup1\n      0xdca36b9a\n      eq\n      tag_6\n      jumpi\n    tag_1:\n      revert(0x00, 0x00)\n        /* \"Activities/Employee.sol\":263:583  function setEmployeeDetails(string memory _name, string memory _depatment, string memory _designation, uint16 _salary) public {... */\n    tag_2:\n      callvalue\n      dup1\n      iszero\n      tag_7\n      jumpi\n      revert(0x00, 0x00)\n    tag_7:\n      pop\n      tag_8\n      0x04\n      dup1\n      calldatasize\n      sub\n      dup2\n      add\n      swap1\n      tag_9\n      swap2\n      swap1\n      tag_10\n      jump\t// in\n    tag_9:\n      tag_11\n      jump\t// in\n    tag_8:\n      stop\n        /* \"Activities/Employee.sol\":234:256  Employe public employe */\n    tag_3:\n      callvalue\n      dup1\n      iszero\n      tag_12\n      jumpi\n      revert(0x00, 0x00)\n    tag_12:\n      pop\n      tag_13\n      tag_14\n      jump\t// in\n    tag_13:\n      mload(0x40)\n      tag_15\n      swap6\n      swap5\n      swap4\n      swap3\n      swap2\n      swap1\n      tag_16\n      jump\t// in\n    tag_15:\n      mload(0x40)\n      dup1\n      swap2\n      sub\n      swap1\n      return\n        /* \"Activities/Employee.sol\":788:893  function ethTowei(uint eval) public pure returns (uint){... */\n    tag_4:\n      callvalue\n      dup1\n      iszero\n      tag_17\n      jumpi\n      revert(0x00, 0x00)\n    tag_17:\n      pop\n      tag_18\n      0x04\n      dup1\n      calldatasize\n      sub\n      dup2\n      add\n      swap1\n      tag_19\n      swap2\n      swap1\n      tag_20\n      jump\t// in\n    tag_19:\n      tag_21\n      jump\t// in\n    tag_18:\n      mload(0x40)\n      tag_22\n      swap2\n      swap1\n      tag_23\n      jump\t// in\n    tag_22:\n      mload(0x40)\n      dup1\n      swap2\n      sub\n      swap1\n      return\n        /* \"Activities/Employee.sol\":589:782  function getEmplyeeDetails() public view returns (string memory, string memory,string memory, uint16){... */\n    tag_5:\n      callvalue\n      dup1\n      iszero\n      tag_24\n      jumpi\n      revert(0x00, 0x00)\n    tag_24:\n      pop\n      tag_25\n      tag_26\n      jump\t// in\n    tag_25:\n      mload(0x40)\n      tag_27\n      swap5\n      swap4\n      swap3\n      swap2\n      swap1\n      tag_28\n      jump\t// in\n    tag_27:\n      mload(0x40)\n      dup1\n      swap2\n      sub\n      swap1\n      return\n        /* \"Activities/Employee.sol\":899:1278  function payEmployee() public  payable {... */\n    tag_6:\n      tag_29\n      tag_30\n      jump\t// in\n    tag_29:\n      stop\n        /* \"Activities/Employee.sol\":263:583  function setEmployeeDetails(string memory _name, string memory _depatment, string memory _designation, uint16 _salary) public {... */\n    tag_11:\n        /* \"Activities/Employee.sol\":414:419  _name */\n      dup4\n        /* \"Activities/Employee.sol\":399:406  employe */\n      0x00\n        /* \"Activities/Employee.sol\":399:411  employe.name */\n      0x00\n      add\n        /* \"Activities/Employee.sol\":399:419  employe.name = _name */\n      swap1\n      dup2\n      tag_32\n      swap2\n      swap1\n      tag_33\n      jump\t// in\n    tag_32:\n      pop\n        /* \"Activities/Employee.sol\":450:460  _depatment */\n      dup3\n        /* \"Activities/Employee.sol\":429:436  employe */\n      0x00\n        /* \"Activities/Employee.sol\":429:447  employe.department */\n      0x01\n      add\n        /* \"Activities/Employee.sol\":429:460  employe.department = _depatment */\n      swap1\n      dup2\n      tag_34\n      swap2\n      swap1\n      tag_33\n      jump\t// in\n    tag_34:\n      pop\n        /* \"Activities/Employee.sol\":492:504  _designation */\n      dup2\n        /* \"Activities/Employee.sol\":470:477  employe */\n      0x00\n        /* \"Activities/Employee.sol\":470:489  employe.designation */\n      0x02\n      add\n        /* \"Activities/Employee.sol\":470:504  employe.designation = _designation */\n      swap1\n      dup2\n      tag_35\n      swap2\n      swap1\n      tag_33\n      jump\t// in\n    tag_35:\n      pop\n        /* \"Activities/Employee.sol\":531:538  _salary */\n      dup1\n        /* \"Activities/Employee.sol\":514:521  employe */\n      0x00\n        /* \"Activities/Employee.sol\":514:528  employe.salary */\n      0x03\n      add\n      0x00\n        /* \"Activities/Employee.sol\":514:538  employe.salary = _salary */\n      0x0100\n      exp\n      dup2\n      sload\n      dup2\n      0xffff\n      mul\n      not\n      and\n      swap1\n      dup4\n      0xffff\n      and\n      mul\n      or\n      swap1\n      sstore\n      pop\n        /* \"Activities/Employee.sol\":566:576  msg.sender */\n      caller\n        /* \"Activities/Employee.sol\":548:555  employe */\n      0x00\n        /* \"Activities/Employee.sol\":548:563  employe.cashier */\n      0x03\n      add\n      0x02\n        /* \"Activities/Employee.sol\":548:576  employe.cashier = msg.sender */\n      0x0100\n      exp\n      dup2\n      sload\n      dup2\n      0xffffffffffffffffffffffffffffffffffffffff\n      mul\n      not\n      and\n      swap1\n      dup4\n      0xffffffffffffffffffffffffffffffffffffffff\n      and\n      mul\n      or\n      swap1\n      sstore\n      pop\n        /* \"Activities/Employee.sol\":263:583  function setEmployeeDetails(string memory _name, string memory _depatment, string memory _designation, uint16 _salary) public {... */\n      pop\n      pop\n      pop\n      pop\n      jump\t// out\n        /* \"Activities/Employee.sol\":234:256  Employe public employe */\n    tag_14:\n      0x00\n      dup1\n      0x00\n      add\n      dup1\n      sload\n      tag_36\n      swap1\n      tag_37\n      jump\t// in\n    tag_36:\n      dup1\n      0x1f\n      add\n      0x20\n      dup1\n      swap2\n      div\n      mul\n      0x20\n      add\n      mload(0x40)\n      swap1\n      dup2\n      add\n      0x40\n      mstore\n      dup1\n      swap3\n      swap2\n      swap1\n      dup2\n      dup2\n      mstore\n      0x20\n      add\n      dup3\n      dup1\n      sload\n      tag_38\n      swap1\n      tag_37\n      jump\t// in\n    tag_38:\n      dup1\n      iszero\n      tag_39\n      jumpi\n      dup1\n      0x1f\n      lt\n      tag_40\n      jumpi\n      0x0100\n      dup1\n      dup4\n      sload\n      div\n      mul\n      dup4\n      mstore\n      swap2\n      0x20\n      add\n      swap2\n      jump(tag_39)\n    tag_40:\n      dup3\n      add\n      swap2\n      swap1\n      0x00\n      mstore\n      keccak256(0x00, 0x20)\n      swap1\n    tag_41:\n      dup2\n      sload\n      dup2\n      mstore\n      swap1\n      0x01\n      add\n      swap1\n      0x20\n      add\n      dup1\n      dup4\n      gt\n      tag_41\n      jumpi\n      dup3\n      swap1\n      sub\n      0x1f\n      and\n      dup3\n      add\n      swap2\n    tag_39:\n      pop\n      pop\n      pop\n      pop\n      pop\n      swap1\n      dup1\n      0x01\n      add\n      dup1\n      sload\n      tag_42\n      swap1\n      tag_37\n      jump\t// in\n    tag_42:\n      dup1\n      0x1f\n      add\n      0x20\n      dup1\n      swap2\n      div\n      mul\n      0x20\n      add\n      mload(0x40)\n      swap1\n      dup2\n      add\n      0x40\n      mstore\n      dup1\n      swap3\n      swap2\n      swap1\n      dup2\n      dup2\n      mstore\n      0x20\n      add\n      dup3\n      dup1\n      sload\n      tag_43\n      swap1\n      tag_37\n      jump\t// in\n    tag_43:\n      dup1\n      iszero\n      tag_44\n      jumpi\n      dup1\n      0x1f\n      lt\n      tag_45\n      jumpi\n      0x0100\n      dup1\n      dup4\n      sload\n      div\n      mul\n      dup4\n      mstore\n      swap2\n      0x20\n      add\n      swap2\n      jump(tag_44)\n    tag_45:\n      dup3\n      add\n      swap2\n      swap1\n      0x00\n      mstore\n      keccak256(0x00, 0x20)\n      swap1\n    tag_46:\n      dup2\n      sload\n      dup2\n      mstore\n      swap1\n      0x01\n      add\n      swap1\n      0x20\n      add\n      dup1\n      dup4\n      gt\n      tag_46\n      jumpi\n      dup3\n      swap1\n      sub\n      0x1f\n      and\n      dup3\n      add\n      swap2\n    tag_44:\n      pop\n      pop\n      pop\n      pop\n      pop\n      swap1\n      dup1\n      0x02\n      add\n      dup1\n      sload\n      tag_47\n      swap1\n      tag_37\n      jump\t// in\n    tag_47:\n      dup1\n      0x1f\n      add\n      0x20\n      dup1\n      swap2\n      div\n      mul\n      0x20\n      add\n      mload(0x40)\n      swap1\n      dup2\n      add\n      0x40\n      mstore\n      dup1\n      swap3\n      swap2\n      swap1\n      dup2\n      dup2\n      mstore\n      0x20\n      add\n      dup3\n      dup1\n      sload\n      tag_48\n      swap1\n      tag_37\n      jump\t// in\n    tag_48:\n      dup1\n      iszero\n      tag_49\n      jumpi\n      dup1\n      0x1f\n      lt\n      tag_50\n      jumpi\n      0x0100\n      dup1\n      dup4\n      sload\n      div\n      mul\n      dup4\n      mstore\n      swap2\n      0x20\n      add\n      swap2\n      jump(tag_49)\n    tag_50:\n      dup3\n      add\n      swap2\n      swap1\n      0x00\n      mstore\n      keccak256(0x00, 0x20)\n      swap1\n    tag_51:\n      dup2\n      sload\n      dup2\n      mstore\n      swap1\n      0x01\n      add\n      swap1\n      0x20\n      add\n      dup1\n      dup4\n      gt\n      tag_51\n      jumpi\n      dup3\n      swap1\n      sub\n      0x1f\n      and\n      dup3\n      add\n      swap2\n    tag_49:\n      pop\n      pop\n      pop\n      pop\n      pop\n      swap1\n      dup1\n      0x03\n      add\n      0x00\n      swap1\n      sload\n      swap1\n      0x0100\n      exp\n      swap1\n      div\n      0xffff\n      and\n      swap1\n      dup1\n      0x03\n      add\n      0x02\n      swap1\n      sload\n      swap1\n      0x0100\n      exp\n      swap1\n      div\n      0xffffffffffffffffffffffffffffffffffffffff\n      and\n      swap1\n      pop\n      dup6\n      jump\t// out\n        /* \"Activities/Employee.sol\":788:893  function ethTowei(uint eval) public pure returns (uint){... */\n    tag_21:\n        /* \"Activities/Employee.sol\":838:842  uint */\n      0x00\n        /* \"Activities/Employee.sol\":866:885  1000000000000000000 */\n      0x0de0b6b3a7640000\n        /* \"Activities/Employee.sol\":861:865  eval */\n      dup3\n        /* \"Activities/Employee.sol\":861:885  eval*1000000000000000000 */\n      tag_53\n      swap2\n      swap1\n      tag_54\n      jump\t// in\n    tag_53:\n        /* \"Activities/Employee.sol\":853:886  return (eval*1000000000000000000) */\n      swap1\n      pop\n        /* \"Activities/Employee.sol\":788:893  function ethTowei(uint eval) public pure returns (uint){... */\n      swap2\n      swap1\n      pop\n      jump\t// out\n        /* \"Activities/Employee.sol\":589:782  function getEmplyeeDetails() public view returns (string memory, string memory,string memory, uint16){... */\n    tag_26:\n        /* \"Activities/Employee.sol\":639:652  string memory */\n      0x60\n        /* \"Activities/Employee.sol\":654:667  string memory */\n      dup1\n        /* \"Activities/Employee.sol\":668:681  string memory */\n      0x60\n        /* \"Activities/Employee.sol\":683:689  uint16 */\n      0x00\n        /* \"Activities/Employee.sol\":708:715  employe */\n      0x00\n        /* \"Activities/Employee.sol\":708:720  employe.name */\n      0x00\n      add\n        /* \"Activities/Employee.sol\":721:728  employe */\n      0x00\n        /* \"Activities/Employee.sol\":721:739  employe.department */\n      0x01\n      add\n        /* \"Activities/Employee.sol\":740:747  employe */\n      0x00\n        /* \"Activities/Employee.sol\":740:759  employe.designation */\n      0x02\n      add\n        /* \"Activities/Employee.sol\":760:767  employe */\n      0x00\n        /* \"Activities/Employee.sol\":760:774  employe.salary */\n      0x03\n      add\n      0x00\n      swap1\n      sload\n      swap1\n      0x0100\n      exp\n      swap1\n      div\n      0xffff\n      and\n        /* \"Activities/Employee.sol\":700:775  return (employe.name,employe.department,employe.designation,employe.salary) */\n      dup4\n      dup1\n      sload\n      tag_56\n      swap1\n      tag_37\n      jump\t// in\n    tag_56:\n      dup1\n      0x1f\n      add\n      0x20\n      dup1\n      swap2\n      div\n      mul\n      0x20\n      add\n      mload(0x40)\n      swap1\n      dup2\n      add\n      0x40\n      mstore\n      dup1\n      swap3\n      swap2\n      swap1\n      dup2\n      dup2\n      mstore\n      0x20\n      add\n      dup3\n      dup1\n      sload\n      tag_57\n      swap1\n      tag_37\n      jump\t// in\n    tag_57:\n      dup1\n      iszero\n      tag_58\n      jumpi\n      dup1\n      0x1f\n      lt\n      tag_59\n      jumpi\n      0x0100\n      dup1\n      dup4\n      sload\n      div\n      mul\n      dup4\n      mstore\n      swap2\n      0x20\n      add\n      swap2\n      jump(tag_58)\n    tag_59:\n      dup3\n      add\n      swap2\n      swap1\n      0x00\n      mstore\n      keccak256(0x00, 0x20)\n      swap1\n    tag_60:\n      dup2\n      sload\n      dup2\n      mstore\n      swap1\n      0x01\n      add\n      swap1\n      0x20\n      add\n      dup1\n      dup4\n      gt\n      tag_60\n      jumpi\n      dup3\n      swap1\n      sub\n      0x1f\n      and\n      dup3\n      add\n      swap2\n    tag_58:\n      pop\n      pop\n      pop\n      pop\n      pop\n      swap4\n      pop\n      dup3\n      dup1\n      sload\n      tag_61\n      swap1\n      tag_37\n      jump\t// in\n    tag_61:\n      dup1\n      0x1f\n      add\n      0x20\n      dup1\n      swap2\n      div\n      mul\n      0x20\n      add\n      mload(0x40)\n      swap1\n      dup2\n      add\n      0x40\n      mstore\n      dup1\n      swap3\n      swap2\n      swap1\n      dup2\n      dup2\n      mstore\n      0x20\n      add\n      dup3\n      dup1\n      sload\n      tag_62\n      swap1\n      tag_37\n      jump\t// in\n    tag_62:\n      dup1\n      iszero\n      tag_63\n      jumpi\n      dup1\n      0x1f\n      lt\n      tag_64\n      jumpi\n      0x0100\n      dup1\n      dup4\n      sload\n      div\n      mul\n      dup4\n      mstore\n      swap2\n      0x20\n      add\n      swap2\n      jump(tag_63)\n    tag_64:\n      dup3\n      add\n      swap2\n      swap1\n      0x00\n      mstore\n      keccak256(0x00, 0x20)\n      swap1\n    tag_65:\n      dup2\n      sload\n      dup2\n      mstore\n      swap1\n      0x01\n      add\n      swap1\n      0x20\n      add\n      dup1\n      dup4\n      gt\n      tag_65\n      jumpi\n      dup3\n      swap1\n      sub\n      0x1f\n      and\n      dup3\n      add\n      swap2\n    tag_63:\n      pop\n      pop\n      pop\n      pop\n      pop\n      swap3\n      pop\n      dup2\n      dup1\n      sload\n      tag_66\n      swap1\n      tag_37\n      jump\t// in\n    tag_66:\n      dup1\n      0x1f\n      add\n      0x20\n      dup1\n      swap2\n      div\n      mul\n      0x20\n      add\n      mload(0x40)\n      swap1\n      dup2\n      add\n      0x40\n      mstore\n      dup1\n      swap3\n      swap2\n      swap1\n      dup2\n      dup2\n      mstore\n      0x20\n      add\n      dup3\n      dup1\n      sload\n      tag_67\n      swap1\n      tag_37\n      jump\t// in\n    tag_67:\n      dup1\n      iszero\n      tag_68\n      jumpi\n      dup1\n      0x1f\n      lt\n      tag_69\n      jumpi\n      0x0100\n      dup1\n      dup4\n      sload\n      div\n      mul\n      dup4\n      mstore\n      swap2\n      0x20\n      add\n      swap2\n      jump(tag_68)\n    tag_69:\n      dup3\n      add\n      swap2\n      swap1\n      0x00\n      mstore\n      keccak256(0x00, 0x20)\n      swap1\n    tag_70:\n      dup2\n      sload\n      dup2\n      mstore\n      swap1\n      0x01\n      add\n      swap1\n      0x20\n      add\n      dup1\n      dup4\n      gt\n      tag_70\n      jumpi\n      dup3\n      swap1\n      sub\n      0x1f\n      and\n      dup3\n      add\n      swap2\n    tag_68:\n      pop\n      pop\n      pop\n      pop\n      pop\n      swap2\n      pop\n      swap4\n      pop\n      swap4\n      pop\n      swap4\n      pop\n      swap4\n      pop\n        /* \"Activities/Employee.sol\":589:782  function getEmplyeeDetails() public view returns (string memory, string memory,string memory, uint16){... */\n      swap1\n      swap2\n      swap3\n      swap4\n      jump\t// out\n        /* \"Activities/Employee.sol\":899:1278  function payEmployee() public  payable {... */\n    tag_30:\n        /* \"Activities/Employee.sol\":964:988  ethTowei(employe.salary) */\n      tag_72\n        /* \"Activities/Employee.sol\":973:980  employe */\n      0x00\n        /* \"Activities/Employee.sol\":973:987  employe.salary */\n      0x03\n      add\n      0x00\n      swap1\n      sload\n      swap1\n      0x0100\n      exp\n      swap1\n      div\n      0xffff\n      and\n        /* \"Activities/Employee.sol\":964:988  ethTowei(employe.salary) */\n      0xffff\n      and\n        /* \"Activities/Employee.sol\":964:972  ethTowei */\n      tag_21\n        /* \"Activities/Employee.sol\":964:988  ethTowei(employe.salary) */\n      jump\t// in\n    tag_72:\n        /* \"Activities/Employee.sol\":951:960  msg.value */\n      callvalue\n        /* \"Activities/Employee.sol\":951:988  msg.value >= ethTowei(employe.salary) */\n      lt\n        /* \"Activities/Employee.sol\":948:1272  if(msg.value >= ethTowei(employe.salary)){... */\n      tag_73\n      jumpi\n        /* \"Activities/Employee.sol\":1003:1011  uint bal */\n      0x00\n        /* \"Activities/Employee.sol\":1025:1049  ethTowei(employe.salary) */\n      tag_74\n        /* \"Activities/Employee.sol\":1034:1041  employe */\n      0x00\n        /* \"Activities/Employee.sol\":1034:1048  employe.salary */\n      0x03\n      add\n      0x00\n      swap1\n      sload\n      swap1\n      0x0100\n      exp\n      swap1\n      div\n      0xffff\n      and\n        /* \"Activities/Employee.sol\":1025:1049  ethTowei(employe.salary) */\n      0xffff\n      and\n        /* \"Activities/Employee.sol\":1025:1033  ethTowei */\n      tag_21\n        /* \"Activities/Employee.sol\":1025:1049  ethTowei(employe.salary) */\n      jump\t// in\n    tag_74:\n        /* \"Activities/Employee.sol\":1014:1023  msg.value */\n      callvalue\n        /* \"Activities/Employee.sol\":1014:1049  msg.value -ethTowei(employe.salary) */\n      tag_75\n      swap2\n      swap1\n      tag_76\n      jump\t// in\n    tag_75:\n        /* \"Activities/Employee.sol\":1003:1049  uint bal = msg.value -ethTowei(employe.salary) */\n      swap1\n      pop\n        /* \"Activities/Employee.sol\":1072:1079  employe */\n      0x00\n        /* \"Activities/Employee.sol\":1072:1087  employe.cashier */\n      0x03\n      add\n      0x02\n      swap1\n      sload\n      swap1\n      0x0100\n      exp\n      swap1\n      div\n      0xffffffffffffffffffffffffffffffffffffffff\n      and\n        /* \"Activities/Employee.sol\":1063:1097  payable (employe.cashier).transfer */\n      0xffffffffffffffffffffffffffffffffffffffff\n      and\n        /* \"Activities/Employee.sol\":1063:1108  payable (employe.cashier).transfer(msg.value) */\n      0x08fc\n        /* \"Activities/Employee.sol\":1098:1107  msg.value */\n      callvalue\n        /* \"Activities/Employee.sol\":1063:1108  payable (employe.cashier).transfer(msg.value) */\n      swap1\n      dup2\n      iszero\n      mul\n      swap1\n      mload(0x40)\n      0x00\n      mload(0x40)\n      dup1\n      dup4\n      sub\n      dup2\n      dup6\n      dup9\n      dup9\n      call\n      swap4\n      pop\n      pop\n      pop\n      pop\n      iszero\n      dup1\n      iszero\n      tag_78\n      jumpi\n      returndatacopy(0x00, 0x00, returndatasize)\n      revert(0x00, returndatasize)\n    tag_78:\n      pop\n        /* \"Activities/Employee.sol\":1129:1130  0 */\n      0x00\n        /* \"Activities/Employee.sol\":1125:1128  bal */\n      dup2\n        /* \"Activities/Employee.sol\":1125:1130  bal>0 */\n      gt\n        /* \"Activities/Employee.sol\":1122:1182  if(bal>0)... */\n      iszero\n      tag_79\n      jumpi\n        /* \"Activities/Employee.sol\":1157:1167  msg.sender */\n      caller\n        /* \"Activities/Employee.sol\":1148:1177  payable (msg.sender).transfer */\n      0xffffffffffffffffffffffffffffffffffffffff\n      and\n        /* \"Activities/Employee.sol\":1148:1182  payable (msg.sender).transfer(bal) */\n      0x08fc\n        /* \"Activities/Employee.sol\":1178:1181  bal */\n      dup3\n        /* \"Activities/Employee.sol\":1148:1182  payable (msg.sender).transfer(bal) */\n      swap1\n      dup2\n      iszero\n      mul\n      swap1\n      mload(0x40)\n      0x00\n      mload(0x40)\n      dup1\n      dup4\n      sub\n      dup2\n      dup6\n      dup9\n      dup9\n      call\n      swap4\n      pop\n      pop\n      pop\n      pop\n      iszero\n      dup1\n      iszero\n      tag_81\n      jumpi\n      returndatacopy(0x00, 0x00, returndatasize)\n      revert(0x00, returndatasize)\n    tag_81:\n      pop\n        /* \"Activities/Employee.sol\":1122:1182  if(bal>0)... */\n    tag_79:\n        /* \"Activities/Employee.sol\":989:1193  {... */\n      pop\n        /* \"Activities/Employee.sol\":948:1272  if(msg.value >= ethTowei(employe.salary)){... */\n      jump(tag_82)\n    tag_73:\n        /* \"Activities/Employee.sol\":1230:1240  msg.sender */\n      caller\n        /* \"Activities/Employee.sol\":1221:1250  payable (msg.sender).transfer */\n      0xffffffffffffffffffffffffffffffffffffffff\n      and\n        /* \"Activities/Employee.sol\":1221:1261  payable (msg.sender).transfer(msg.value) */\n      0x08fc\n        /* \"Activities/Employee.sol\":1251:1260  msg.value */\n      callvalue\n        /* \"Activities/Employee.sol\":1221:1261  payable (msg.sender).transfer(msg.value) */\n      swap1\n      dup2\n      iszero\n      mul\n      swap1\n      mload(0x40)\n      0x00\n      mload(0x40)\n      dup1\n      dup4\n      sub\n      dup2\n      dup6\n      dup9\n      dup9\n      call\n      swap4\n      pop\n      pop\n      pop\n      pop\n      iszero\n      dup1\n      iszero\n      tag_84\n      jumpi\n      returndatacopy(0x00, 0x00, returndatasize)\n      revert(0x00, returndatasize)\n    tag_84:\n      pop\n        /* \"Activities/Employee.sol\":948:1272  if(msg.value >= ethTowei(employe.salary)){... */\n    tag_82:\n        /* \"Activities/Employee.sol\":899:1278  function payEmployee() public  payable {... */\n      jump\t// out\n        /* \"#utility.yul\":7:82   */\n    tag_85:\n        /* \"#utility.yul\":40:46   */\n      0x00\n        /* \"#utility.yul\":73:75   */\n      0x40\n        /* \"#utility.yul\":67:76   */\n      mload\n        /* \"#utility.yul\":57:76   */\n      swap1\n      pop\n        /* \"#utility.yul\":7:82   */\n      swap1\n      jump\t// out\n        /* \"#utility.yul\":88:205   */\n    tag_86:\n        /* \"#utility.yul\":197:198   */\n      0x00\n        /* \"#utility.yul\":194:195   */\n      0x00\n        /* \"#utility.yul\":187:199   */\n      revert\n        /* \"#utility.yul\":211:328   */\n    tag_87:\n        /* \"#utility.yul\":320:321   */\n      0x00\n        /* \"#utility.yul\":317:318   */\n      0x00\n        /* \"#utility.yul\":310:322   */\n      revert\n        /* \"#utility.yul\":334:451   */\n    tag_88:\n        /* \"#utility.yul\":443:444   */\n      0x00\n        /* \"#utility.yul\":440:441   */\n      0x00\n        /* \"#utility.yul\":433:445   */\n      revert\n        /* \"#utility.yul\":457:574   */\n    tag_89:\n        /* \"#utility.yul\":566:567   */\n      0x00\n        /* \"#utility.yul\":563:564   */\n      0x00\n        /* \"#utility.yul\":556:568   */\n      revert\n        /* \"#utility.yul\":580:682   */\n    tag_90:\n        /* \"#utility.yul\":621:627   */\n      0x00\n        /* \"#utility.yul\":672:674   */\n      0x1f\n        /* \"#utility.yul\":668:675   */\n      not\n        /* \"#utility.yul\":663:665   */\n      0x1f\n        /* \"#utility.yul\":656:661   */\n      dup4\n        /* \"#utility.yul\":652:666   */\n      add\n        /* \"#utility.yul\":648:676   */\n      and\n        /* \"#utility.yul\":638:676   */\n      swap1\n      pop\n        /* \"#utility.yul\":580:682   */\n      swap2\n      swap1\n      pop\n      jump\t// out\n        /* \"#utility.yul\":688:868   */\n    tag_91:\n        /* \"#utility.yul\":736:813   */\n      0x4e487b7100000000000000000000000000000000000000000000000000000000\n        /* \"#utility.yul\":733:734   */\n      0x00\n        /* \"#utility.yul\":726:814   */\n      mstore\n        /* \"#utility.yul\":833:837   */\n      0x41\n        /* \"#utility.yul\":830:831   */\n      0x04\n        /* \"#utility.yul\":823:838   */\n      mstore\n        /* \"#utility.yul\":857:861   */\n      0x24\n        /* \"#utility.yul\":854:855   */\n      0x00\n        /* \"#utility.yul\":847:862   */\n      revert\n        /* \"#utility.yul\":874:1155   */\n    tag_92:\n        /* \"#utility.yul\":957:984   */\n      tag_139\n        /* \"#utility.yul\":979:983   */\n      dup3\n        /* \"#utility.yul\":957:984   */\n      tag_90\n      jump\t// in\n    tag_139:\n        /* \"#utility.yul\":949:955   */\n      dup2\n        /* \"#utility.yul\":945:985   */\n      add\n        /* \"#utility.yul\":1087:1093   */\n      dup2\n        /* \"#utility.yul\":1075:1085   */\n      dup2\n        /* \"#utility.yul\":1072:1094   */\n      lt\n        /* \"#utility.yul\":1051:1069   */\n      0xffffffffffffffff\n        /* \"#utility.yul\":1039:1049   */\n      dup3\n        /* \"#utility.yul\":1036:1070   */\n      gt\n        /* \"#utility.yul\":1033:1095   */\n      or\n        /* \"#utility.yul\":1030:1118   */\n      iszero\n      tag_140\n      jumpi\n        /* \"#utility.yul\":1098:1116   */\n      tag_141\n      tag_91\n      jump\t// in\n    tag_141:\n        /* \"#utility.yul\":1030:1118   */\n    tag_140:\n        /* \"#utility.yul\":1138:1148   */\n      dup1\n        /* \"#utility.yul\":1134:1136   */\n      0x40\n        /* \"#utility.yul\":1127:1149   */\n      mstore\n        /* \"#utility.yul\":917:1155   */\n      pop\n        /* \"#utility.yul\":874:1155   */\n      pop\n      pop\n      jump\t// out\n        /* \"#utility.yul\":1161:1290   */\n    tag_93:\n        /* \"#utility.yul\":1195:1201   */\n      0x00\n        /* \"#utility.yul\":1222:1242   */\n      tag_143\n      tag_85\n      jump\t// in\n    tag_143:\n        /* \"#utility.yul\":1212:1242   */\n      swap1\n      pop\n        /* \"#utility.yul\":1251:1284   */\n      tag_144\n        /* \"#utility.yul\":1279:1283   */\n      dup3\n        /* \"#utility.yul\":1271:1277   */\n      dup3\n        /* \"#utility.yul\":1251:1284   */\n      tag_92\n      jump\t// in\n    tag_144:\n        /* \"#utility.yul\":1161:1290   */\n      swap2\n      swap1\n      pop\n      jump\t// out\n        /* \"#utility.yul\":1296:1604   */\n    tag_94:\n        /* \"#utility.yul\":1358:1362   */\n      0x00\n        /* \"#utility.yul\":1448:1466   */\n      0xffffffffffffffff\n        /* \"#utility.yul\":1440:1446   */\n      dup3\n        /* \"#utility.yul\":1437:1467   */\n      gt\n        /* \"#utility.yul\":1434:1490   */\n      iszero\n      tag_146\n      jumpi\n        /* \"#utility.yul\":1470:1488   */\n      tag_147\n      tag_91\n      jump\t// in\n    tag_147:\n        /* \"#utility.yul\":1434:1490   */\n    tag_146:\n        /* \"#utility.yul\":1508:1537   */\n      tag_148\n        /* \"#utility.yul\":1530:1536   */\n      dup3\n        /* \"#utility.yul\":1508:1537   */\n      tag_90\n      jump\t// in\n    tag_148:\n        /* \"#utility.yul\":1500:1537   */\n      swap1\n      pop\n        /* \"#utility.yul\":1592:1596   */\n      0x20\n        /* \"#utility.yul\":1586:1590   */\n      dup2\n        /* \"#utility.yul\":1582:1597   */\n      add\n        /* \"#utility.yul\":1574:1597   */\n      swap1\n      pop\n        /* \"#utility.yul\":1296:1604   */\n      swap2\n      swap1\n      pop\n      jump\t// out\n        /* \"#utility.yul\":1610:1758   */\n    tag_95:\n        /* \"#utility.yul\":1708:1714   */\n      dup3\n        /* \"#utility.yul\":1703:1706   */\n      dup2\n        /* \"#utility.yul\":1698:1701   */\n      dup4\n        /* \"#utility.yul\":1685:1715   */\n      calldatacopy\n        /* \"#utility.yul\":1749:1750   */\n      0x00\n        /* \"#utility.yul\":1740:1746   */\n      dup4\n        /* \"#utility.yul\":1735:1738   */\n      dup4\n        /* \"#utility.yul\":1731:1747   */\n      add\n        /* \"#utility.yul\":1724:1751   */\n      mstore\n        /* \"#utility.yul\":1610:1758   */\n      pop\n      pop\n      pop\n      jump\t// out\n        /* \"#utility.yul\":1764:2189   */\n    tag_96:\n        /* \"#utility.yul\":1842:1847   */\n      0x00\n        /* \"#utility.yul\":1867:1933   */\n      tag_151\n        /* \"#utility.yul\":1883:1932   */\n      tag_152\n        /* \"#utility.yul\":1925:1931   */\n      dup5\n        /* \"#utility.yul\":1883:1932   */\n      tag_94\n      jump\t// in\n    tag_152:\n        /* \"#utility.yul\":1867:1933   */\n      tag_93\n      jump\t// in\n    tag_151:\n        /* \"#utility.yul\":1858:1933   */\n      swap1\n      pop\n        /* \"#utility.yul\":1956:1962   */\n      dup3\n        /* \"#utility.yul\":1949:1954   */\n      dup2\n        /* \"#utility.yul\":1942:1963   */\n      mstore\n        /* \"#utility.yul\":1994:1998   */\n      0x20\n        /* \"#utility.yul\":1987:1992   */\n      dup2\n        /* \"#utility.yul\":1983:1999   */\n      add\n        /* \"#utility.yul\":2032:2035   */\n      dup5\n        /* \"#utility.yul\":2023:2029   */\n      dup5\n        /* \"#utility.yul\":2018:2021   */\n      dup5\n        /* \"#utility.yul\":2014:2030   */\n      add\n        /* \"#utility.yul\":2011:2036   */\n      gt\n        /* \"#utility.yul\":2008:2120   */\n      iszero\n      tag_153\n      jumpi\n        /* \"#utility.yul\":2039:2118   */\n      tag_154\n      tag_89\n      jump\t// in\n    tag_154:\n        /* \"#utility.yul\":2008:2120   */\n    tag_153:\n        /* \"#utility.yul\":2129:2183   */\n      tag_155\n        /* \"#utility.yul\":2176:2182   */\n      dup5\n        /* \"#utility.yul\":2171:2174   */\n      dup3\n        /* \"#utility.yul\":2166:2169   */\n      dup6\n        /* \"#utility.yul\":2129:2183   */\n      tag_95\n      jump\t// in\n    tag_155:\n        /* \"#utility.yul\":1848:2189   */\n      pop\n        /* \"#utility.yul\":1764:2189   */\n      swap4\n      swap3\n      pop\n      pop\n      pop\n      jump\t// out\n        /* \"#utility.yul\":2209:2549   */\n    tag_97:\n        /* \"#utility.yul\":2265:2270   */\n      0x00\n        /* \"#utility.yul\":2314:2317   */\n      dup3\n        /* \"#utility.yul\":2307:2311   */\n      0x1f\n        /* \"#utility.yul\":2299:2305   */\n      dup4\n        /* \"#utility.yul\":2295:2312   */\n      add\n        /* \"#utility.yul\":2291:2318   */\n      slt\n        /* \"#utility.yul\":2281:2403   */\n      tag_157\n      jumpi\n        /* \"#utility.yul\":2322:2401   */\n      tag_158\n      tag_88\n      jump\t// in\n    tag_158:\n        /* \"#utility.yul\":2281:2403   */\n    tag_157:\n        /* \"#utility.yul\":2439:2445   */\n      dup2\n        /* \"#utility.yul\":2426:2446   */\n      calldataload\n        /* \"#utility.yul\":2464:2543   */\n      tag_159\n        /* \"#utility.yul\":2539:2542   */\n      dup5\n        /* \"#utility.yul\":2531:2537   */\n      dup3\n        /* \"#utility.yul\":2524:2528   */\n      0x20\n        /* \"#utility.yul\":2516:2522   */\n      dup7\n        /* \"#utility.yul\":2512:2529   */\n      add\n        /* \"#utility.yul\":2464:2543   */\n      tag_96\n      jump\t// in\n    tag_159:\n        /* \"#utility.yul\":2455:2543   */\n      swap2\n      pop\n        /* \"#utility.yul\":2271:2549   */\n      pop\n        /* \"#utility.yul\":2209:2549   */\n      swap3\n      swap2\n      pop\n      pop\n      jump\t// out\n        /* \"#utility.yul\":2555:2644   */\n    tag_98:\n        /* \"#utility.yul\":2591:2598   */\n      0x00\n        /* \"#utility.yul\":2631:2637   */\n      0xffff\n        /* \"#utility.yul\":2624:2629   */\n      dup3\n        /* \"#utility.yul\":2620:2638   */\n      and\n        /* \"#utility.yul\":2609:2638   */\n      swap1\n      pop\n        /* \"#utility.yul\":2555:2644   */\n      swap2\n      swap1\n      pop\n      jump\t// out\n        /* \"#utility.yul\":2650:2770   */\n    tag_99:\n        /* \"#utility.yul\":2722:2745   */\n      tag_162\n        /* \"#utility.yul\":2739:2744   */\n      dup2\n        /* \"#utility.yul\":2722:2745   */\n      tag_98\n      jump\t// in\n    tag_162:\n        /* \"#utility.yul\":2715:2720   */\n      dup2\n        /* \"#utility.yul\":2712:2746   */\n      eq\n        /* \"#utility.yul\":2702:2764   */\n      tag_163\n      jumpi\n        /* \"#utility.yul\":2760:2761   */\n      0x00\n        /* \"#utility.yul\":2757:2758   */\n      0x00\n        /* \"#utility.yul\":2750:2762   */\n      revert\n        /* \"#utility.yul\":2702:2764   */\n    tag_163:\n        /* \"#utility.yul\":2650:2770   */\n      pop\n      jump\t// out\n        /* \"#utility.yul\":2776:2913   */\n    tag_100:\n        /* \"#utility.yul\":2821:2826   */\n      0x00\n        /* \"#utility.yul\":2859:2865   */\n      dup2\n        /* \"#utility.yul\":2846:2866   */\n      calldataload\n        /* \"#utility.yul\":2837:2866   */\n      swap1\n      pop\n        /* \"#utility.yul\":2875:2907   */\n      tag_165\n        /* \"#utility.yul\":2901:2906   */\n      dup2\n        /* \"#utility.yul\":2875:2907   */\n      tag_99\n      jump\t// in\n    tag_165:\n        /* \"#utility.yul\":2776:2913   */\n      swap3\n      swap2\n      pop\n      pop\n      jump\t// out\n        /* \"#utility.yul\":2919:4222   */\n    tag_10:\n        /* \"#utility.yul\":3034:3040   */\n      0x00\n        /* \"#utility.yul\":3042:3048   */\n      0x00\n        /* \"#utility.yul\":3050:3056   */\n      0x00\n        /* \"#utility.yul\":3058:3064   */\n      0x00\n        /* \"#utility.yul\":3107:3110   */\n      0x80\n        /* \"#utility.yul\":3095:3104   */\n      dup6\n        /* \"#utility.yul\":3086:3093   */\n      dup8\n        /* \"#utility.yul\":3082:3105   */\n      sub\n        /* \"#utility.yul\":3078:3111   */\n      slt\n        /* \"#utility.yul\":3075:3195   */\n      iszero\n      tag_167\n      jumpi\n        /* \"#utility.yul\":3114:3193   */\n      tag_168\n      tag_86\n      jump\t// in\n    tag_168:\n        /* \"#utility.yul\":3075:3195   */\n    tag_167:\n        /* \"#utility.yul\":3262:3263   */\n      0x00\n        /* \"#utility.yul\":3251:3260   */\n      dup6\n        /* \"#utility.yul\":3247:3264   */\n      add\n        /* \"#utility.yul\":3234:3265   */\n      calldataload\n        /* \"#utility.yul\":3292:3310   */\n      0xffffffffffffffff\n        /* \"#utility.yul\":3284:3290   */\n      dup2\n        /* \"#utility.yul\":3281:3311   */\n      gt\n        /* \"#utility.yul\":3278:3395   */\n      iszero\n      tag_169\n      jumpi\n        /* \"#utility.yul\":3314:3393   */\n      tag_170\n      tag_87\n      jump\t// in\n    tag_170:\n        /* \"#utility.yul\":3278:3395   */\n    tag_169:\n        /* \"#utility.yul\":3419:3482   */\n      tag_171\n        /* \"#utility.yul\":3474:3481   */\n      dup8\n        /* \"#utility.yul\":3465:3471   */\n      dup3\n        /* \"#utility.yul\":3454:3463   */\n      dup9\n        /* \"#utility.yul\":3450:3472   */\n      add\n        /* \"#utility.yul\":3419:3482   */\n      tag_97\n      jump\t// in\n    tag_171:\n        /* \"#utility.yul\":3409:3482   */\n      swap5\n      pop\n        /* \"#utility.yul\":3205:3492   */\n      pop\n        /* \"#utility.yul\":3559:3561   */\n      0x20\n        /* \"#utility.yul\":3548:3557   */\n      dup6\n        /* \"#utility.yul\":3544:3562   */\n      add\n        /* \"#utility.yul\":3531:3563   */\n      calldataload\n        /* \"#utility.yul\":3590:3608   */\n      0xffffffffffffffff\n        /* \"#utility.yul\":3582:3588   */\n      dup2\n        /* \"#utility.yul\":3579:3609   */\n      gt\n        /* \"#utility.yul\":3576:3693   */\n      iszero\n      tag_172\n      jumpi\n        /* \"#utility.yul\":3612:3691   */\n      tag_173\n      tag_87\n      jump\t// in\n    tag_173:\n        /* \"#utility.yul\":3576:3693   */\n    tag_172:\n        /* \"#utility.yul\":3717:3780   */\n      tag_174\n        /* \"#utility.yul\":3772:3779   */\n      dup8\n        /* \"#utility.yul\":3763:3769   */\n      dup3\n        /* \"#utility.yul\":3752:3761   */\n      dup9\n        /* \"#utility.yul\":3748:3770   */\n      add\n        /* \"#utility.yul\":3717:3780   */\n      tag_97\n      jump\t// in\n    tag_174:\n        /* \"#utility.yul\":3707:3780   */\n      swap4\n      pop\n        /* \"#utility.yul\":3502:3790   */\n      pop\n        /* \"#utility.yul\":3857:3859   */\n      0x40\n        /* \"#utility.yul\":3846:3855   */\n      dup6\n        /* \"#utility.yul\":3842:3860   */\n      add\n        /* \"#utility.yul\":3829:3861   */\n      calldataload\n        /* \"#utility.yul\":3888:3906   */\n      0xffffffffffffffff\n        /* \"#utility.yul\":3880:3886   */\n      dup2\n        /* \"#utility.yul\":3877:3907   */\n      gt\n        /* \"#utility.yul\":3874:3991   */\n      iszero\n      tag_175\n      jumpi\n        /* \"#utility.yul\":3910:3989   */\n      tag_176\n      tag_87\n      jump\t// in\n    tag_176:\n        /* \"#utility.yul\":3874:3991   */\n    tag_175:\n        /* \"#utility.yul\":4015:4078   */\n      tag_177\n        /* \"#utility.yul\":4070:4077   */\n      dup8\n        /* \"#utility.yul\":4061:4067   */\n      dup3\n        /* \"#utility.yul\":4050:4059   */\n      dup9\n        /* \"#utility.yul\":4046:4068   */\n      add\n        /* \"#utility.yul\":4015:4078   */\n      tag_97\n      jump\t// in\n    tag_177:\n        /* \"#utility.yul\":4005:4078   */\n      swap3\n      pop\n        /* \"#utility.yul\":3800:4088   */\n      pop\n        /* \"#utility.yul\":4127:4129   */\n      0x60\n        /* \"#utility.yul\":4153:4205   */\n      tag_178\n        /* \"#utility.yul\":4197:4204   */\n      dup8\n        /* \"#utility.yul\":4188:4194   */\n      dup3\n        /* \"#utility.yul\":4177:4186   */\n      dup9\n        /* \"#utility.yul\":4173:4195   */\n      add\n        /* \"#utility.yul\":4153:4205   */\n      tag_100\n      jump\t// in\n    tag_178:\n        /* \"#utility.yul\":4143:4205   */\n      swap2\n      pop\n        /* \"#utility.yul\":4098:4215   */\n      pop\n        /* \"#utility.yul\":2919:4222   */\n      swap3\n      swap6\n      swap2\n      swap5\n      pop\n      swap3\n      pop\n      jump\t// out\n        /* \"#utility.yul\":4228:4327   */\n    tag_101:\n        /* \"#utility.yul\":4280:4286   */\n      0x00\n        /* \"#utility.yul\":4314:4319   */\n      dup2\n        /* \"#utility.yul\":4308:4320   */\n      mload\n        /* \"#utility.yul\":4298:4320   */\n      swap1\n      pop\n        /* \"#utility.yul\":4228:4327   */\n      swap2\n      swap1\n      pop\n      jump\t// out\n        /* \"#utility.yul\":4333:4502   */\n    tag_102:\n        /* \"#utility.yul\":4417:4428   */\n      0x00\n        /* \"#utility.yul\":4451:4457   */\n      dup3\n        /* \"#utility.yul\":4446:4449   */\n      dup3\n        /* \"#utility.yul\":4439:4458   */\n      mstore\n        /* \"#utility.yul\":4491:4495   */\n      0x20\n        /* \"#utility.yul\":4486:4489   */\n      dup3\n        /* \"#utility.yul\":4482:4496   */\n      add\n        /* \"#utility.yul\":4467:4496   */\n      swap1\n      pop\n        /* \"#utility.yul\":4333:4502   */\n      swap3\n      swap2\n      pop\n      pop\n      jump\t// out\n        /* \"#utility.yul\":4508:4647   */\n    tag_103:\n        /* \"#utility.yul\":4597:4603   */\n      dup3\n        /* \"#utility.yul\":4592:4595   */\n      dup2\n        /* \"#utility.yul\":4587:4590   */\n      dup4\n        /* \"#utility.yul\":4581:4604   */\n      mcopy\n        /* \"#utility.yul\":4638:4639   */\n      0x00\n        /* \"#utility.yul\":4629:4635   */\n      dup4\n        /* \"#utility.yul\":4624:4627   */\n      dup4\n        /* \"#utility.yul\":4620:4636   */\n      add\n        /* \"#utility.yul\":4613:4640   */\n      mstore\n        /* \"#utility.yul\":4508:4647   */\n      pop\n      pop\n      pop\n      jump\t// out\n        /* \"#utility.yul\":4653:5030   */\n    tag_104:\n        /* \"#utility.yul\":4741:4744   */\n      0x00\n        /* \"#utility.yul\":4769:4808   */\n      tag_183\n        /* \"#utility.yul\":4802:4807   */\n      dup3\n        /* \"#utility.yul\":4769:4808   */\n      tag_101\n      jump\t// in\n    tag_183:\n        /* \"#utility.yul\":4824:4895   */\n      tag_184\n        /* \"#utility.yul\":4888:4894   */\n      dup2\n        /* \"#utility.yul\":4883:4886   */\n      dup6\n        /* \"#utility.yul\":4824:4895   */\n      tag_102\n      jump\t// in\n    tag_184:\n        /* \"#utility.yul\":4817:4895   */\n      swap4\n      pop\n        /* \"#utility.yul\":4904:4969   */\n      tag_185\n        /* \"#utility.yul\":4962:4968   */\n      dup2\n        /* \"#utility.yul\":4957:4960   */\n      dup6\n        /* \"#utility.yul\":4950:4954   */\n      0x20\n        /* \"#utility.yul\":4943:4948   */\n      dup7\n        /* \"#utility.yul\":4939:4955   */\n      add\n        /* \"#utility.yul\":4904:4969   */\n      tag_103\n      jump\t// in\n    tag_185:\n        /* \"#utility.yul\":4994:5023   */\n      tag_186\n        /* \"#utility.yul\":5016:5022   */\n      dup2\n        /* \"#utility.yul\":4994:5023   */\n      tag_90\n      jump\t// in\n    tag_186:\n        /* \"#utility.yul\":4989:4992   */\n      dup5\n        /* \"#utility.yul\":4985:5024   */\n      add\n        /* \"#utility.yul\":4978:5024   */\n      swap2\n      pop\n        /* \"#utility.yul\":4745:5030   */\n      pop\n        /* \"#utility.yul\":4653:5030   */\n      swap3\n      swap2\n      pop\n      pop\n      jump\t// out\n        /* \"#utility.yul\":5036:5151   */\n    tag_105:\n        /* \"#utility.yul\":5121:5144   */\n      tag_188\n        /* \"#utility.yul\":5138:5143   */\n      dup2\n        /* \"#utility.yul\":5121:5144   */\n      tag_98\n      jump\t// in\n    tag_188:\n        /* \"#utility.yul\":5116:5119   */\n      dup3\n        /* \"#utility.yul\":5109:5145   */\n      mstore\n        /* \"#utility.yul\":5036:5151   */\n      pop\n      pop\n      jump\t// out\n        /* \"#utility.yul\":5157:5283   */\n    tag_106:\n        /* \"#utility.yul\":5194:5201   */\n      0x00\n        /* \"#utility.yul\":5234:5276   */\n      0xffffffffffffffffffffffffffffffffffffffff\n        /* \"#utility.yul\":5227:5232   */\n      dup3\n        /* \"#utility.yul\":5223:5277   */\n      and\n        /* \"#utility.yul\":5212:5277   */\n      swap1\n      pop\n        /* \"#utility.yul\":5157:5283   */\n      swap2\n      swap1\n      pop\n      jump\t// out\n        /* \"#utility.yul\":5289:5385   */\n    tag_107:\n        /* \"#utility.yul\":5326:5333   */\n      0x00\n        /* \"#utility.yul\":5355:5379   */\n      tag_191\n        /* \"#utility.yul\":5373:5378   */\n      dup3\n        /* \"#utility.yul\":5355:5379   */\n      tag_106\n      jump\t// in\n    tag_191:\n        /* \"#utility.yul\":5344:5379   */\n      swap1\n      pop\n        /* \"#utility.yul\":5289:5385   */\n      swap2\n      swap1\n      pop\n      jump\t// out\n        /* \"#utility.yul\":5391:5509   */\n    tag_108:\n        /* \"#utility.yul\":5478:5502   */\n      tag_193\n        /* \"#utility.yul\":5496:5501   */\n      dup2\n        /* \"#utility.yul\":5478:5502   */\n      tag_107\n      jump\t// in\n    tag_193:\n        /* \"#utility.yul\":5473:5476   */\n      dup3\n        /* \"#utility.yul\":5466:5503   */\n      mstore\n        /* \"#utility.yul\":5391:5509   */\n      pop\n      pop\n      jump\t// out\n        /* \"#utility.yul\":5515:6448   */\n    tag_16:\n        /* \"#utility.yul\":5778:5782   */\n      0x00\n        /* \"#utility.yul\":5816:5819   */\n      0xa0\n        /* \"#utility.yul\":5805:5814   */\n      dup3\n        /* \"#utility.yul\":5801:5820   */\n      add\n        /* \"#utility.yul\":5793:5820   */\n      swap1\n      pop\n        /* \"#utility.yul\":5866:5875   */\n      dup2\n        /* \"#utility.yul\":5860:5864   */\n      dup2\n        /* \"#utility.yul\":5856:5876   */\n      sub\n        /* \"#utility.yul\":5852:5853   */\n      0x00\n        /* \"#utility.yul\":5841:5850   */\n      dup4\n        /* \"#utility.yul\":5837:5854   */\n      add\n        /* \"#utility.yul\":5830:5877   */\n      mstore\n        /* \"#utility.yul\":5894:5972   */\n      tag_195\n        /* \"#utility.yul\":5967:5971   */\n      dup2\n        /* \"#utility.yul\":5958:5964   */\n      dup9\n        /* \"#utility.yul\":5894:5972   */\n      tag_104\n      jump\t// in\n    tag_195:\n        /* \"#utility.yul\":5886:5972   */\n      swap1\n      pop\n        /* \"#utility.yul\":6019:6028   */\n      dup2\n        /* \"#utility.yul\":6013:6017   */\n      dup2\n        /* \"#utility.yul\":6009:6029   */\n      sub\n        /* \"#utility.yul\":6004:6006   */\n      0x20\n        /* \"#utility.yul\":5993:6002   */\n      dup4\n        /* \"#utility.yul\":5989:6007   */\n      add\n        /* \"#utility.yul\":5982:6030   */\n      mstore\n        /* \"#utility.yul\":6047:6125   */\n      tag_196\n        /* \"#utility.yul\":6120:6124   */\n      dup2\n        /* \"#utility.yul\":6111:6117   */\n      dup8\n        /* \"#utility.yul\":6047:6125   */\n      tag_104\n      jump\t// in\n    tag_196:\n        /* \"#utility.yul\":6039:6125   */\n      swap1\n      pop\n        /* \"#utility.yul\":6172:6181   */\n      dup2\n        /* \"#utility.yul\":6166:6170   */\n      dup2\n        /* \"#utility.yul\":6162:6182   */\n      sub\n        /* \"#utility.yul\":6157:6159   */\n      0x40\n        /* \"#utility.yul\":6146:6155   */\n      dup4\n        /* \"#utility.yul\":6142:6160   */\n      add\n        /* \"#utility.yul\":6135:6183   */\n      mstore\n        /* \"#utility.yul\":6200:6278   */\n      tag_197\n        /* \"#utility.yul\":6273:6277   */\n      dup2\n        /* \"#utility.yul\":6264:6270   */\n      dup7\n        /* \"#utility.yul\":6200:6278   */\n      tag_104\n      jump\t// in\n    tag_197:\n        /* \"#utility.yul\":6192:6278   */\n      swap1\n      pop\n        /* \"#utility.yul\":6288:6358   */\n      tag_198\n        /* \"#utility.yul\":6354:6356   */\n      0x60\n        /* \"#utility.yul\":6343:6352   */\n      dup4\n        /* \"#utility.yul\":6339:6357   */\n      add\n        /* \"#utility.yul\":6330:6336   */\n      dup6\n        /* \"#utility.yul\":6288:6358   */\n      tag_105\n      jump\t// in\n    tag_198:\n        /* \"#utility.yul\":6368:6441   */\n      tag_199\n        /* \"#utility.yul\":6436:6439   */\n      0x80\n        /* \"#utility.yul\":6425:6434   */\n      dup4\n        /* \"#utility.yul\":6421:6440   */\n      add\n        /* \"#utility.yul\":6412:6418   */\n      dup5\n        /* \"#utility.yul\":6368:6441   */\n      tag_108\n      jump\t// in\n    tag_199:\n        /* \"#utility.yul\":5515:6448   */\n      swap7\n      swap6\n      pop\n      pop\n      pop\n      pop\n      pop\n      pop\n      jump\t// out\n        /* \"#utility.yul\":6454:6531   */\n    tag_109:\n        /* \"#utility.yul\":6491:6498   */\n      0x00\n        /* \"#utility.yul\":6520:6525   */\n      dup2\n        /* \"#utility.yul\":6509:6525   */\n      swap1\n      pop\n        /* \"#utility.yul\":6454:6531   */\n      swap2\n      swap1\n      pop\n      jump\t// out\n        /* \"#utility.yul\":6537:6659   */\n    tag_110:\n        /* \"#utility.yul\":6610:6634   */\n      tag_202\n        /* \"#utility.yul\":6628:6633   */\n      dup2\n        /* \"#utility.yul\":6610:6634   */\n      tag_109\n      jump\t// in\n    tag_202:\n        /* \"#utility.yul\":6603:6608   */\n      dup2\n        /* \"#utility.yul\":6600:6635   */\n      eq\n        /* \"#utility.yul\":6590:6653   */\n      tag_203\n      jumpi\n        /* \"#utility.yul\":6649:6650   */\n      0x00\n        /* \"#utility.yul\":6646:6647   */\n      0x00\n        /* \"#utility.yul\":6639:6651   */\n      revert\n        /* \"#utility.yul\":6590:6653   */\n    tag_203:\n        /* \"#utility.yul\":6537:6659   */\n      pop\n      jump\t// out\n        /* \"#utility.yul\":6665:6804   */\n    tag_111:\n        /* \"#utility.yul\":6711:6716   */\n      0x00\n        /* \"#utility.yul\":6749:6755   */\n      dup2\n        /* \"#utility.yul\":6736:6756   */\n      calldataload\n        /* \"#utility.yul\":6727:6756   */\n      swap1\n      pop\n        /* \"#utility.yul\":6765:6798   */\n      tag_205\n        /* \"#utility.yul\":6792:6797   */\n      dup2\n        /* \"#utility.yul\":6765:6798   */\n      tag_110\n      jump\t// in\n    tag_205:\n        /* \"#utility.yul\":6665:6804   */\n      swap3\n      swap2\n      pop\n      pop\n      jump\t// out\n        /* \"#utility.yul\":6810:7139   */\n    tag_20:\n        /* \"#utility.yul\":6869:6875   */\n      0x00\n        /* \"#utility.yul\":6918:6920   */\n      0x20\n        /* \"#utility.yul\":6906:6915   */\n      dup3\n        /* \"#utility.yul\":6897:6904   */\n      dup5\n        /* \"#utility.yul\":6893:6916   */\n      sub\n        /* \"#utility.yul\":6889:6921   */\n      slt\n        /* \"#utility.yul\":6886:7005   */\n      iszero\n      tag_207\n      jumpi\n        /* \"#utility.yul\":6924:7003   */\n      tag_208\n      tag_86\n      jump\t// in\n    tag_208:\n        /* \"#utility.yul\":6886:7005   */\n    tag_207:\n        /* \"#utility.yul\":7044:7045   */\n      0x00\n        /* \"#utility.yul\":7069:7122   */\n      tag_209\n        /* \"#utility.yul\":7114:7121   */\n      dup5\n        /* \"#utility.yul\":7105:7111   */\n      dup3\n        /* \"#utility.yul\":7094:7103   */\n      dup6\n        /* \"#utility.yul\":7090:7112   */\n      add\n        /* \"#utility.yul\":7069:7122   */\n      tag_111\n      jump\t// in\n    tag_209:\n        /* \"#utility.yul\":7059:7122   */\n      swap2\n      pop\n        /* \"#utility.yul\":7015:7132   */\n      pop\n        /* \"#utility.yul\":6810:7139   */\n      swap3\n      swap2\n      pop\n      pop\n      jump\t// out\n        /* \"#utility.yul\":7145:7263   */\n    tag_112:\n        /* \"#utility.yul\":7232:7256   */\n      tag_211\n        /* \"#utility.yul\":7250:7255   */\n      dup2\n        /* \"#utility.yul\":7232:7256   */\n      tag_109\n      jump\t// in\n    tag_211:\n        /* \"#utility.yul\":7227:7230   */\n      dup3\n        /* \"#utility.yul\":7220:7257   */\n      mstore\n        /* \"#utility.yul\":7145:7263   */\n      pop\n      pop\n      jump\t// out\n        /* \"#utility.yul\":7269:7491   */\n    tag_23:\n        /* \"#utility.yul\":7362:7366   */\n      0x00\n        /* \"#utility.yul\":7400:7402   */\n      0x20\n        /* \"#utility.yul\":7389:7398   */\n      dup3\n        /* \"#utility.yul\":7385:7403   */\n      add\n        /* \"#utility.yul\":7377:7403   */\n      swap1\n      pop\n        /* \"#utility.yul\":7413:7484   */\n      tag_213\n        /* \"#utility.yul\":7481:7482   */\n      0x00\n        /* \"#utility.yul\":7470:7479   */\n      dup4\n        /* \"#utility.yul\":7466:7483   */\n      add\n        /* \"#utility.yul\":7457:7463   */\n      dup5\n        /* \"#utility.yul\":7413:7484   */\n      tag_112\n      jump\t// in\n    tag_213:\n        /* \"#utility.yul\":7269:7491   */\n      swap3\n      swap2\n      pop\n      pop\n      jump\t// out\n        /* \"#utility.yul\":7497:8319   */\n    tag_28:\n        /* \"#utility.yul\":7732:7736   */\n      0x00\n        /* \"#utility.yul\":7770:7773   */\n      0x80\n        /* \"#utility.yul\":7759:7768   */\n      dup3\n        /* \"#utility.yul\":7755:7774   */\n      add\n        /* \"#utility.yul\":7747:7774   */\n      swap1\n      pop\n        /* \"#utility.yul\":7820:7829   */\n      dup2\n        /* \"#utility.yul\":7814:7818   */\n      dup2\n        /* \"#utility.yul\":7810:7830   */\n      sub\n        /* \"#utility.yul\":7806:7807   */\n      0x00\n        /* \"#utility.yul\":7795:7804   */\n      dup4\n        /* \"#utility.yul\":7791:7808   */\n      add\n        /* \"#utility.yul\":7784:7831   */\n      mstore\n        /* \"#utility.yul\":7848:7926   */\n      tag_215\n        /* \"#utility.yul\":7921:7925   */\n      dup2\n        /* \"#utility.yul\":7912:7918   */\n      dup8\n        /* \"#utility.yul\":7848:7926   */\n      tag_104\n      jump\t// in\n    tag_215:\n        /* \"#utility.yul\":7840:7926   */\n      swap1\n      pop\n        /* \"#utility.yul\":7973:7982   */\n      dup2\n        /* \"#utility.yul\":7967:7971   */\n      dup2\n        /* \"#utility.yul\":7963:7983   */\n      sub\n        /* \"#utility.yul\":7958:7960   */\n      0x20\n        /* \"#utility.yul\":7947:7956   */\n      dup4\n        /* \"#utility.yul\":7943:7961   */\n      add\n        /* \"#utility.yul\":7936:7984   */\n      mstore\n        /* \"#utility.yul\":8001:8079   */\n      tag_216\n        /* \"#utility.yul\":8074:8078   */\n      dup2\n        /* \"#utility.yul\":8065:8071   */\n      dup7\n        /* \"#utility.yul\":8001:8079   */\n      tag_104\n      jump\t// in\n    tag_216:\n        /* \"#utility.yul\":7993:8079   */\n      swap1\n      pop\n        /* \"#utility.yul\":8126:8135   */\n      dup2\n        /* \"#utility.yul\":8120:8124   */\n      dup2\n        /* \"#utility.yul\":8116:8136   */\n      sub\n        /* \"#utility.yul\":8111:8113   */\n      0x40\n        /* \"#utility.yul\":8100:8109   */\n      dup4\n        /* \"#utility.yul\":8096:8114   */\n      add\n        /* \"#utility.yul\":8089:8137   */\n      mstore\n        /* \"#utility.yul\":8154:8232   */\n      tag_217\n        /* \"#utility.yul\":8227:8231   */\n      dup2\n        /* \"#utility.yul\":8218:8224   */\n      dup6\n        /* \"#utility.yul\":8154:8232   */\n      tag_104\n      jump\t// in\n    tag_217:\n        /* \"#utility.yul\":8146:8232   */\n      swap1\n      pop\n        /* \"#utility.yul\":8242:8312   */\n      tag_218\n        /* \"#utility.yul\":8308:8310   */\n      0x60\n        /* \"#utility.yul\":8297:8306   */\n      dup4\n        /* \"#utility.yul\":8293:8311   */\n      add\n        /* \"#utility.yul\":8284:8290   */\n      dup5\n        /* \"#utility.yul\":8242:8312   */\n      tag_105\n      jump\t// in\n    tag_218:\n        /* \"#utility.yul\":7497:8319   */\n      swap6\n      swap5\n      pop\n      pop\n      pop\n      pop\n      pop\n      jump\t// out\n        /* \"#utility.yul\":8325:8505   */\n    tag_113:\n        /* \"#utility.yul\":8373:8450   */\n      0x4e487b7100000000000000000000000000000000000000000000000000000000\n        /* \"#utility.yul\":8370:8371   */\n      0x00\n        /* \"#utility.yul\":8363:8451   */\n      mstore\n        /* \"#utility.yul\":8470:8474   */\n      0x22\n        /* \"#utility.yul\":8467:8468   */\n      0x04\n        /* \"#utility.yul\":8460:8475   */\n      mstore\n        /* \"#utility.yul\":8494:8498   */\n      0x24\n        /* \"#utility.yul\":8491:8492   */\n      0x00\n        /* \"#utility.yul\":8484:8499   */\n      revert\n        /* \"#utility.yul\":8511:8831   */\n    tag_37:\n        /* \"#utility.yul\":8555:8561   */\n      0x00\n        /* \"#utility.yul\":8592:8593   */\n      0x02\n        /* \"#utility.yul\":8586:8590   */\n      dup3\n        /* \"#utility.yul\":8582:8594   */\n      div\n        /* \"#utility.yul\":8572:8594   */\n      swap1\n      pop\n        /* \"#utility.yul\":8639:8640   */\n      0x01\n        /* \"#utility.yul\":8633:8637   */\n      dup3\n        /* \"#utility.yul\":8629:8641   */\n      and\n        /* \"#utility.yul\":8660:8678   */\n      dup1\n        /* \"#utility.yul\":8650:8731   */\n      tag_221\n      jumpi\n        /* \"#utility.yul\":8716:8720   */\n      0x7f\n        /* \"#utility.yul\":8708:8714   */\n      dup3\n        /* \"#utility.yul\":8704:8721   */\n      and\n        /* \"#utility.yul\":8694:8721   */\n      swap2\n      pop\n        /* \"#utility.yul\":8650:8731   */\n    tag_221:\n        /* \"#utility.yul\":8778:8780   */\n      0x20\n        /* \"#utility.yul\":8770:8776   */\n      dup3\n        /* \"#utility.yul\":8767:8781   */\n      lt\n        /* \"#utility.yul\":8747:8765   */\n      dup2\n        /* \"#utility.yul\":8744:8782   */\n      sub\n        /* \"#utility.yul\":8741:8825   */\n      tag_222\n      jumpi\n        /* \"#utility.yul\":8797:8815   */\n      tag_223\n      tag_113\n      jump\t// in\n    tag_223:\n        /* \"#utility.yul\":8741:8825   */\n    tag_222:\n        /* \"#utility.yul\":8562:8831   */\n      pop\n        /* \"#utility.yul\":8511:8831   */\n      swap2\n      swap1\n      pop\n      jump\t// out\n        /* \"#utility.yul\":8837:8978   */\n    tag_114:\n        /* \"#utility.yul\":8886:8890   */\n      0x00\n        /* \"#utility.yul\":8909:8912   */\n      dup2\n        /* \"#utility.yul\":8901:8912   */\n      swap1\n      pop\n        /* \"#utility.yul\":8932:8935   */\n      dup2\n        /* \"#utility.yul\":8929:8930   */\n      0x00\n        /* \"#utility.yul\":8922:8936   */\n      mstore\n        /* \"#utility.yul\":8966:8970   */\n      0x20\n        /* \"#utility.yul\":8963:8964   */\n      0x00\n        /* \"#utility.yul\":8953:8971   */\n      keccak256\n        /* \"#utility.yul\":8945:8971   */\n      swap1\n      pop\n        /* \"#utility.yul\":8837:8978   */\n      swap2\n      swap1\n      pop\n      jump\t// out\n        /* \"#utility.yul\":8984:9077   */\n    tag_115:\n        /* \"#utility.yul\":9021:9027   */\n      0x00\n        /* \"#utility.yul\":9068:9070   */\n      0x20\n        /* \"#utility.yul\":9063:9065   */\n      0x1f\n        /* \"#utility.yul\":9056:9061   */\n      dup4\n        /* \"#utility.yul\":9052:9066   */\n      add\n        /* \"#utility.yul\":9048:9071   */\n      div\n        /* \"#utility.yul\":9038:9071   */\n      swap1\n      pop\n        /* \"#utility.yul\":8984:9077   */\n      swap2\n      swap1\n      pop\n      jump\t// out\n        /* \"#utility.yul\":9083:9190   */\n    tag_116:\n        /* \"#utility.yul\":9127:9135   */\n      0x00\n        /* \"#utility.yul\":9177:9182   */\n      dup3\n        /* \"#utility.yul\":9171:9175   */\n      dup3\n        /* \"#utility.yul\":9167:9183   */\n      shl\n        /* \"#utility.yul\":9146:9183   */\n      swap1\n      pop\n        /* \"#utility.yul\":9083:9190   */\n      swap3\n      swap2\n      pop\n      pop\n      jump\t// out\n        /* \"#utility.yul\":9196:9589   */\n    tag_117:\n        /* \"#utility.yul\":9265:9271   */\n      0x00\n        /* \"#utility.yul\":9315:9316   */\n      0x08\n        /* \"#utility.yul\":9303:9313   */\n      dup4\n        /* \"#utility.yul\":9299:9317   */\n      mul\n        /* \"#utility.yul\":9338:9435   */\n      tag_228\n        /* \"#utility.yul\":9368:9434   */\n      0xffffffffffffffffffffffffffffffffffffffffffffffffffffffffffffffff\n        /* \"#utility.yul\":9357:9366   */\n      dup3\n        /* \"#utility.yul\":9338:9435   */\n      tag_116\n      jump\t// in\n    tag_228:\n        /* \"#utility.yul\":9456:9495   */\n      tag_229\n        /* \"#utility.yul\":9486:9494   */\n      dup7\n        /* \"#utility.yul\":9475:9484   */\n      dup4\n        /* \"#utility.yul\":9456:9495   */\n      tag_116\n      jump\t// in\n    tag_229:\n        /* \"#utility.yul\":9444:9495   */\n      swap6\n      pop\n        /* \"#utility.yul\":9528:9532   */\n      dup1\n        /* \"#utility.yul\":9524:9533   */\n      not\n        /* \"#utility.yul\":9517:9522   */\n      dup5\n        /* \"#utility.yul\":9513:9534   */\n      and\n        /* \"#utility.yul\":9504:9534   */\n      swap4\n      pop\n        /* \"#utility.yul\":9577:9581   */\n      dup1\n        /* \"#utility.yul\":9567:9575   */\n      dup7\n        /* \"#utility.yul\":9563:9582   */\n      and\n        /* \"#utility.yul\":9556:9561   */\n      dup5\n        /* \"#utility.yul\":9553:9583   */\n      or\n        /* \"#utility.yul\":9543:9583   */\n      swap3\n      pop\n        /* \"#utility.yul\":9272:9589   */\n      pop\n      pop\n        /* \"#utility.yul\":9196:9589   */\n      swap4\n      swap3\n      pop\n      pop\n      pop\n      jump\t// out\n        /* \"#utility.yul\":9595:9655   */\n    tag_118:\n        /* \"#utility.yul\":9623:9626   */\n      0x00\n        /* \"#utility.yul\":9644:9649   */\n      dup2\n        /* \"#utility.yul\":9637:9649   */\n      swap1\n      pop\n        /* \"#utility.yul\":9595:9655   */\n      swap2\n      swap1\n      pop\n      jump\t// out\n        /* \"#utility.yul\":9661:9803   */\n    tag_119:\n        /* \"#utility.yul\":9711:9720   */\n      0x00\n        /* \"#utility.yul\":9744:9797   */\n      tag_232\n        /* \"#utility.yul\":9762:9796   */\n      tag_233\n        /* \"#utility.yul\":9771:9795   */\n      tag_234\n        /* \"#utility.yul\":9789:9794   */\n      dup5\n        /* \"#utility.yul\":9771:9795   */\n      tag_109\n      jump\t// in\n    tag_234:\n        /* \"#utility.yul\":9762:9796   */\n      tag_118\n      jump\t// in\n    tag_233:\n        /* \"#utility.yul\":9744:9797   */\n      tag_109\n      jump\t// in\n    tag_232:\n        /* \"#utility.yul\":9731:9797   */\n      swap1\n      pop\n        /* \"#utility.yul\":9661:9803   */\n      swap2\n      swap1\n      pop\n      jump\t// out\n        /* \"#utility.yul\":9809:9884   */\n    tag_120:\n        /* \"#utility.yul\":9852:9855   */\n      0x00\n        /* \"#utility.yul\":9873:9878   */\n      dup2\n        /* \"#utility.yul\":9866:9878   */\n      swap1\n      pop\n        /* \"#utility.yul\":9809:9884   */\n      swap2\n      swap1\n      pop\n      jump\t// out\n        /* \"#utility.yul\":9890:10159   */\n    tag_121:\n        /* \"#utility.yul\":10000:10039   */\n      tag_237\n        /* \"#utility.yul\":10031:10038   */\n      dup4\n        /* \"#utility.yul\":10000:10039   */\n      tag_119\n      jump\t// in\n    tag_237:\n        /* \"#utility.yul\":10061:10152   */\n      tag_238\n        /* \"#utility.yul\":10110:10151   */\n      tag_239\n        /* \"#utility.yul\":10134:10150   */\n      dup3\n        /* \"#utility.yul\":10110:10151   */\n      tag_120\n      jump\t// in\n    tag_239:\n        /* \"#utility.yul\":10102:10108   */\n      dup5\n        /* \"#utility.yul\":10095:10099   */\n      dup5\n        /* \"#utility.yul\":10089:10100   */\n      sload\n        /* \"#utility.yul\":10061:10152   */\n      tag_117\n      jump\t// in\n    tag_238:\n        /* \"#utility.yul\":10055:10059   */\n      dup3\n        /* \"#utility.yul\":10048:10153   */\n      sstore\n        /* \"#utility.yul\":9966:10159   */\n      pop\n        /* \"#utility.yul\":9890:10159   */\n      pop\n      pop\n      pop\n      jump\t// out\n        /* \"#utility.yul\":10165:10238   */\n    tag_122:\n        /* \"#utility.yul\":10210:10213   */\n      0x00\n        /* \"#utility.yul\":10231:10232   */\n      0x00\n        /* \"#utility.yul\":10224:10232   */\n      swap1\n      pop\n        /* \"#utility.yul\":10165:10238   */\n      swap1\n      jump\t// out\n        /* \"#utility.yul\":10244:10433   */\n    tag_123:\n        /* \"#utility.yul\":10321:10353   */\n      tag_242\n      tag_122\n      jump\t// in\n    tag_242:\n        /* \"#utility.yul\":10362:10427   */\n      tag_243\n        /* \"#utility.yul\":10420:10426   */\n      dup2\n        /* \"#utility.yul\":10412:10418   */\n      dup5\n        /* \"#utility.yul\":10406:10410   */\n      dup5\n        /* \"#utility.yul\":10362:10427   */\n      tag_121\n      jump\t// in\n    tag_243:\n        /* \"#utility.yul\":10297:10433   */\n      pop\n        /* \"#utility.yul\":10244:10433   */\n      pop\n      pop\n      jump\t// out\n        /* \"#utility.yul\":10439:10625   */\n    tag_124:\n        /* \"#utility.yul\":10499:10619   */\n    tag_245:\n        /* \"#utility.yul\":10516:10519   */\n      dup2\n        /* \"#utility.yul\":10509:10514   */\n      dup2\n        /* \"#utility.yul\":10506:10520   */\n      lt\n        /* \"#utility.yul\":10499:10619   */\n      iszero\n      tag_247\n      jumpi\n        /* \"#utility.yul\":10570:10609   */\n      tag_248\n        /* \"#utility.yul\":10607:10608   */\n      0x00\n        /* \"#utility.yul\":10600:10605   */\n      dup3\n        /* \"#utility.yul\":10570:10609   */\n      tag_123\n      jump\t// in\n    tag_248:\n        /* \"#utility.yul\":10543:10544   */\n      0x01\n        /* \"#utility.yul\":10536:10541   */\n      dup2\n        /* \"#utility.yul\":10532:10545   */\n      add\n        /* \"#utility.yul\":10523:10545   */\n      swap1\n      pop\n        /* \"#utility.yul\":10499:10619   */\n      jump(tag_245)\n    tag_247:\n        /* \"#utility.yul\":10439:10625   */\n      pop\n      pop\n      jump\t// out\n        /* \"#utility.yul\":10631:11174   */\n    tag_125:\n        /* \"#utility.yul\":10732:10734   */\n      0x1f\n        /* \"#utility.yul\":10727:10730   */\n      dup3\n        /* \"#utility.yul\":10724:10735   */\n      gt\n        /* \"#utility.yul\":10721:11167   */\n      iszero\n      tag_250\n      jumpi\n        /* \"#utility.yul\":10766:10804   */\n      tag_251\n        /* \"#utility.yul\":10798:10803   */\n      dup2\n        /* \"#utility.yul\":10766:10804   */\n      tag_114\n      jump\t// in\n    tag_251:\n        /* \"#utility.yul\":10850:10879   */\n      tag_252\n        /* \"#utility.yul\":10868:10878   */\n      dup5\n        /* \"#utility.yul\":10850:10879   */\n      tag_115\n      jump\t// in\n    tag_252:\n        /* \"#utility.yul\":10840:10848   */\n      dup2\n        /* \"#utility.yul\":10836:10880   */\n      add\n        /* \"#utility.yul\":11033:11035   */\n      0x20\n        /* \"#utility.yul\":11021:11031   */\n      dup6\n        /* \"#utility.yul\":11018:11036   */\n      lt\n        /* \"#utility.yul\":11015:11064   */\n      iszero\n      tag_253\n      jumpi\n        /* \"#utility.yul\":11054:11062   */\n      dup2\n        /* \"#utility.yul\":11039:11062   */\n      swap1\n      pop\n        /* \"#utility.yul\":11015:11064   */\n    tag_253:\n        /* \"#utility.yul\":11077:11157   */\n      tag_254\n        /* \"#utility.yul\":11133:11155   */\n      tag_255\n        /* \"#utility.yul\":11151:11154   */\n      dup6\n        /* \"#utility.yul\":11133:11155   */\n      tag_115\n      jump\t// in\n    tag_255:\n        /* \"#utility.yul\":11123:11131   */\n      dup4\n        /* \"#utility.yul\":11119:11156   */\n      add\n        /* \"#utility.yul\":11106:11117   */\n      dup3\n        /* \"#utility.yul\":11077:11157   */\n      tag_124\n      jump\t// in\n    tag_254:\n        /* \"#utility.yul\":10736:11167   */\n      pop\n      pop\n        /* \"#utility.yul\":10721:11167   */\n    tag_250:\n        /* \"#utility.yul\":10631:11174   */\n      pop\n      pop\n      pop\n      jump\t// out\n        /* \"#utility.yul\":11180:11297   */\n    tag_126:\n        /* \"#utility.yul\":11234:11242   */\n      0x00\n        /* \"#utility.yul\":11284:11289   */\n      dup3\n        /* \"#utility.yul\":11278:11282   */\n      dup3\n        /* \"#utility.yul\":11274:11290   */\n      shr\n        /* \"#utility.yul\":11253:11290   */\n      swap1\n      pop\n        /* \"#utility.yul\":11180:11297   */\n      swap3\n      swap2\n      pop\n      pop\n      jump\t// out\n        /* \"#utility.yul\":11303:11472   */\n    tag_127:\n        /* \"#utility.yul\":11347:11353   */\n      0x00\n        /* \"#utility.yul\":11380:11431   */\n      tag_258\n        /* \"#utility.yul\":11428:11429   */\n      0x00\n        /* \"#utility.yul\":11424:11430   */\n      not\n        /* \"#utility.yul\":11416:11421   */\n      dup5\n        /* \"#utility.yul\":11413:11414   */\n      0x08\n        /* \"#utility.yul\":11409:11422   */\n      mul\n        /* \"#utility.yul\":11380:11431   */\n      tag_126\n      jump\t// in\n    tag_258:\n        /* \"#utility.yul\":11376:11432   */\n      not\n        /* \"#utility.yul\":11461:11465   */\n      dup1\n        /* \"#utility.yul\":11455:11459   */\n      dup4\n        /* \"#utility.yul\":11451:11466   */\n      and\n        /* \"#utility.yul\":11441:11466   */\n      swap2\n      pop\n        /* \"#utility.yul\":11354:11472   */\n      pop\n        /* \"#utility.yul\":11303:11472   */\n      swap3\n      swap2\n      pop\n      pop\n      jump\t// out\n        /* \"#utility.yul\":11477:11772   */\n    tag_128:\n        /* \"#utility.yul\":11553:11557   */\n      0x00\n        /* \"#utility.yul\":11699:11728   */\n      tag_260\n        /* \"#utility.yul\":11724:11727   */\n      dup4\n        /* \"#utility.yul\":11718:11722   */\n      dup4\n        /* \"#utility.yul\":11699:11728   */\n      tag_127\n      jump\t// in\n    tag_260:\n        /* \"#utility.yul\":11691:11728   */\n      swap2\n      pop\n        /* \"#utility.yul\":11761:11764   */\n      dup3\n        /* \"#utility.yul\":11758:11759   */\n      0x02\n        /* \"#utility.yul\":11754:11765   */\n      mul\n        /* \"#utility.yul\":11748:11752   */\n      dup3\n        /* \"#utility.yul\":11745:11766   */\n      or\n        /* \"#utility.yul\":11737:11766   */\n      swap1\n      pop\n        /* \"#utility.yul\":11477:11772   */\n      swap3\n      swap2\n      pop\n      pop\n      jump\t// out\n        /* \"#utility.yul\":11777:13172   */\n    tag_33:\n        /* \"#utility.yul\":11894:11931   */\n      tag_262\n        /* \"#utility.yul\":11927:11930   */\n      dup3\n        /* \"#utility.yul\":11894:11931   */\n      tag_101\n      jump\t// in\n    tag_262:\n        /* \"#utility.yul\":11996:12014   */\n      0xffffffffffffffff\n        /* \"#utility.yul\":11988:11994   */\n      dup2\n        /* \"#utility.yul\":11985:12015   */\n      gt\n        /* \"#utility.yul\":11982:12038   */\n      iszero\n      tag_263\n      jumpi\n        /* \"#utility.yul\":12018:12036   */\n      tag_264\n      tag_91\n      jump\t// in\n    tag_264:\n        /* \"#utility.yul\":11982:12038   */\n    tag_263:\n        /* \"#utility.yul\":12062:12100   */\n      tag_265\n        /* \"#utility.yul\":12094:12098   */\n      dup3\n        /* \"#utility.yul\":12088:12099   */\n      sload\n        /* \"#utility.yul\":12062:12100   */\n      tag_37\n      jump\t// in\n    tag_265:\n        /* \"#utility.yul\":12147:12214   */\n      tag_266\n        /* \"#utility.yul\":12207:12213   */\n      dup3\n        /* \"#utility.yul\":12199:12205   */\n      dup3\n        /* \"#utility.yul\":12193:12197   */\n      dup6\n        /* \"#utility.yul\":12147:12214   */\n      tag_125\n      jump\t// in\n    tag_266:\n        /* \"#utility.yul\":12241:12242   */\n      0x00\n        /* \"#utility.yul\":12265:12269   */\n      0x20\n        /* \"#utility.yul\":12252:12269   */\n      swap1\n      pop\n        /* \"#utility.yul\":12297:12299   */\n      0x1f\n        /* \"#utility.yul\":12289:12295   */\n      dup4\n        /* \"#utility.yul\":12286:12300   */\n      gt\n        /* \"#utility.yul\":12314:12315   */\n      0x01\n        /* \"#utility.yul\":12309:12927   */\n      dup2\n      eq\n      tag_268\n      jumpi\n        /* \"#utility.yul\":12971:12972   */\n      0x00\n        /* \"#utility.yul\":12988:12994   */\n      dup5\n        /* \"#utility.yul\":12985:13062   */\n      iszero\n      tag_269\n      jumpi\n        /* \"#utility.yul\":13037:13046   */\n      dup3\n        /* \"#utility.yul\":13032:13035   */\n      dup8\n        /* \"#utility.yul\":13028:13047   */\n      add\n        /* \"#utility.yul\":13022:13048   */\n      mload\n        /* \"#utility.yul\":13013:13048   */\n      swap1\n      pop\n        /* \"#utility.yul\":12985:13062   */\n    tag_269:\n        /* \"#utility.yul\":13088:13155   */\n      tag_270\n        /* \"#utility.yul\":13148:13154   */\n      dup6\n        /* \"#utility.yul\":13141:13146   */\n      dup3\n        /* \"#utility.yul\":13088:13155   */\n      tag_128\n      jump\t// in\n    tag_270:\n        /* \"#utility.yul\":13082:13086   */\n      dup7\n        /* \"#utility.yul\":13075:13156   */\n      sstore\n        /* \"#utility.yul\":12944:13166   */\n      pop\n        /* \"#utility.yul\":12279:13166   */\n      jump(tag_267)\n        /* \"#utility.yul\":12309:12927   */\n    tag_268:\n        /* \"#utility.yul\":12361:12365   */\n      0x1f\n        /* \"#utility.yul\":12357:12366   */\n      not\n        /* \"#utility.yul\":12349:12355   */\n      dup5\n        /* \"#utility.yul\":12345:12367   */\n      and\n        /* \"#utility.yul\":12395:12432   */\n      tag_271\n        /* \"#utility.yul\":12427:12431   */\n      dup7\n        /* \"#utility.yul\":12395:12432   */\n      tag_114\n      jump\t// in\n    tag_271:\n        /* \"#utility.yul\":12454:12455   */\n      0x00\n        /* \"#utility.yul\":12468:12676   */\n    tag_272:\n        /* \"#utility.yul\":12482:12489   */\n      dup3\n        /* \"#utility.yul\":12479:12480   */\n      dup2\n        /* \"#utility.yul\":12476:12490   */\n      lt\n        /* \"#utility.yul\":12468:12676   */\n      iszero\n      tag_274\n      jumpi\n        /* \"#utility.yul\":12561:12570   */\n      dup5\n        /* \"#utility.yul\":12556:12559   */\n      dup10\n        /* \"#utility.yul\":12552:12571   */\n      add\n        /* \"#utility.yul\":12546:12572   */\n      mload\n        /* \"#utility.yul\":12538:12544   */\n      dup3\n        /* \"#utility.yul\":12531:12573   */\n      sstore\n        /* \"#utility.yul\":12612:12613   */\n      0x01\n        /* \"#utility.yul\":12604:12610   */\n      dup3\n        /* \"#utility.yul\":12600:12614   */\n      add\n        /* \"#utility.yul\":12590:12614   */\n      swap2\n      pop\n        /* \"#utility.yul\":12659:12661   */\n      0x20\n        /* \"#utility.yul\":12648:12657   */\n      dup6\n        /* \"#utility.yul\":12644:12662   */\n      add\n        /* \"#utility.yul\":12631:12662   */\n      swap5\n      pop\n        /* \"#utility.yul\":12505:12509   */\n      0x20\n        /* \"#utility.yul\":12502:12503   */\n      dup2\n        /* \"#utility.yul\":12498:12510   */\n      add\n        /* \"#utility.yul\":12493:12510   */\n      swap1\n      pop\n        /* \"#utility.yul\":12468:12676   */\n      jump(tag_272)\n    tag_274:\n        /* \"#utility.yul\":12704:12710   */\n      dup7\n        /* \"#utility.yul\":12695:12702   */\n      dup4\n        /* \"#utility.yul\":12692:12711   */\n      lt\n        /* \"#utility.yul\":12689:12868   */\n      iszero\n      tag_275\n      jumpi\n        /* \"#utility.yul\":12762:12771   */\n      dup5\n        /* \"#utility.yul\":12757:12760   */\n      dup10\n        /* \"#utility.yul\":12753:12772   */\n      add\n        /* \"#utility.yul\":12747:12773   */\n      mload\n        /* \"#utility.yul\":12805:12853   */\n      tag_276\n        /* \"#utility.yul\":12847:12851   */\n      0x1f\n        /* \"#utility.yul\":12839:12845   */\n      dup10\n        /* \"#utility.yul\":12835:12852   */\n      and\n        /* \"#utility.yul\":12824:12833   */\n      dup3\n        /* \"#utility.yul\":12805:12853   */\n      tag_127\n      jump\t// in\n    tag_276:\n        /* \"#utility.yul\":12797:12803   */\n      dup4\n        /* \"#utility.yul\":12790:12854   */\n      sstore\n        /* \"#utility.yul\":12712:12868   */\n      pop\n        /* \"#utility.yul\":12689:12868   */\n    tag_275:\n        /* \"#utility.yul\":12914:12915   */\n      0x01\n        /* \"#utility.yul\":12910:12911   */\n      0x02\n        /* \"#utility.yul\":12902:12908   */\n      dup9\n        /* \"#utility.yul\":12898:12912   */\n      mul\n        /* \"#utility.yul\":12894:12916   */\n      add\n        /* \"#utility.yul\":12888:12892   */\n      dup9\n        /* \"#utility.yul\":12881:12917   */\n      sstore\n        /* \"#utility.yul\":12316:12927   */\n      pop\n      pop\n      pop\n        /* \"#utility.yul\":12279:13166   */\n    tag_267:\n      pop\n        /* \"#utility.yul\":11869:13172   */\n      pop\n      pop\n      pop\n        /* \"#utility.yul\":11777:13172   */\n      pop\n      pop\n      jump\t// out\n        /* \"#utility.yul\":13178:13358   */\n    tag_129:\n        /* \"#utility.yul\":13226:13303   */\n      0x4e487b7100000000000000000000000000000000000000000000000000000000\n        /* \"#utility.yul\":13223:13224   */\n      0x00\n        /* \"#utility.yul\":13216:13304   */\n      mstore\n        /* \"#utility.yul\":13323:13327   */\n      0x11\n        /* \"#utility.yul\":13320:13321   */\n      0x04\n        /* \"#utility.yul\":13313:13328   */\n      mstore\n        /* \"#utility.yul\":13347:13351   */\n      0x24\n        /* \"#utility.yul\":13344:13345   */\n      0x00\n        /* \"#utility.yul\":13337:13352   */\n      revert\n        /* \"#utility.yul\":13364:13774   */\n    tag_54:\n        /* \"#utility.yul\":13404:13411   */\n      0x00\n        /* \"#utility.yul\":13427:13447   */\n      tag_279\n        /* \"#utility.yul\":13445:13446   */\n      dup3\n        /* \"#utility.yul\":13427:13447   */\n      tag_109\n      jump\t// in\n    tag_279:\n        /* \"#utility.yul\":13422:13447   */\n      swap2\n      pop\n        /* \"#utility.yul\":13461:13481   */\n      tag_280\n        /* \"#utility.yul\":13479:13480   */\n      dup4\n        /* \"#utility.yul\":13461:13481   */\n      tag_109\n      jump\t// in\n    tag_280:\n        /* \"#utility.yul\":13456:13481   */\n      swap3\n      pop\n        /* \"#utility.yul\":13516:13517   */\n      dup3\n        /* \"#utility.yul\":13513:13514   */\n      dup3\n        /* \"#utility.yul\":13509:13518   */\n      mul\n        /* \"#utility.yul\":13538:13568   */\n      tag_281\n        /* \"#utility.yul\":13556:13567   */\n      dup2\n        /* \"#utility.yul\":13538:13568   */\n      tag_109\n      jump\t// in\n    tag_281:\n        /* \"#utility.yul\":13527:13568   */\n      swap2\n      pop\n        /* \"#utility.yul\":13717:13718   */\n      dup3\n        /* \"#utility.yul\":13708:13715   */\n      dup3\n        /* \"#utility.yul\":13704:13719   */\n      div\n        /* \"#utility.yul\":13701:13702   */\n      dup5\n        /* \"#utility.yul\":13698:13720   */\n      eq\n        /* \"#utility.yul\":13678:13679   */\n      dup4\n        /* \"#utility.yul\":13671:13680   */\n      iszero\n        /* \"#utility.yul\":13651:13734   */\n      or\n        /* \"#utility.yul\":13628:13767   */\n      tag_282\n      jumpi\n        /* \"#utility.yul\":13747:13765   */\n      tag_283\n      tag_129\n      jump\t// in\n    tag_283:\n        /* \"#utility.yul\":13628:13767   */\n    tag_282:\n        /* \"#utility.yul\":13412:13774   */\n      pop\n        /* \"#utility.yul\":13364:13774   */\n      swap3\n      swap2\n      pop\n      pop\n      jump\t// out\n        /* \"#utility.yul\":13780:13974   */\n    tag_76:\n        /* \"#utility.yul\":13820:13824   */\n      0x00\n        /* \"#utility.yul\":13840:13860   */\n      tag_285\n        /* \"#utility.yul\":13858:13859   */\n      dup3\n        /* \"#utility.yul\":13840:13860   */\n      tag_109\n      jump\t// in\n    tag_285:\n        /* \"#utility.yul\":13835:13860   */\n      swap2\n      pop\n        /* \"#utility.yul\":13874:13894   */\n      tag_286\n        /* \"#utility.yul\":13892:13893   */\n      dup4\n        /* \"#utility.yul\":13874:13894   */\n      tag_109\n      jump\t// in\n    tag_286:\n        /* \"#utility.yul\":13869:13894   */\n      swap3\n      pop\n        /* \"#utility.yul\":13918:13919   */\n      dup3\n        /* \"#utility.yul\":13915:13916   */\n      dup3\n        /* \"#utility.yul\":13911:13920   */\n      sub\n        /* \"#utility.yul\":13903:13920   */\n      swap1\n      pop\n        /* \"#utility.yul\":13942:13943   */\n      dup2\n        /* \"#utility.yul\":13936:13940   */\n      dup2\n        /* \"#utility.yul\":13933:13944   */\n      gt\n        /* \"#utility.yul\":13930:13967   */\n      iszero\n      tag_287\n      jumpi\n        /* \"#utility.yul\":13947:13965   */\n      tag_288\n      tag_129\n      jump\t// in\n    tag_288:\n        /* \"#utility.yul\":13930:13967   */\n    tag_287:\n        /* \"#utility.yul\":13780:13974   */\n      swap3\n      swap2\n      pop\n      pop\n      jump\t// out\n\n    auxdata: 0xa2646970667358221220c5ecfdf41009aacec2780f04d69eb9a8042af2e706486317239561297c95bda164736f6c634300081c0033\n}\n",
				"bytecode": {
					"linkReferences": {},
					"object": "6080604052348015600e575f5ffd5b50610ea18061001c5f395ff3fe608060405260043610610049575f3560e01c8063c36cd9431461004d578063c97bdf8e14610075578063d1f3bf1d146100a3578063d8ebe4e5146100df578063dca36b9a1461010c575b5f5ffd5b348015610058575f5ffd5b50610073600480360381019061006e9190610854565b610116565b005b348015610080575f5ffd5b506100896101b2565b60405161009a9594939291906109ba565b60405180910390f35b3480156100ae575f5ffd5b506100c960048036038101906100c49190610a53565b610393565b6040516100d69190610a8d565b60405180910390f35b3480156100ea575f5ffd5b506100f36103af565b6040516101039493929190610aa6565b60405180910390f35b61011461057e565b005b835f5f0190816101269190610cfb565b50825f60010190816101389190610cfb565b50815f600201908161014a9190610cfb565b50805f6003015f6101000a81548161ffff021916908361ffff160217905550335f60030160026101000a81548173ffffffffffffffffffffffffffffffffffffffff021916908373ffffffffffffffffffffffffffffffffffffffff16021790555050505050565b5f805f0180546101c190610b2b565b80601f01602080910402602001604051908101604052809291908181526020018280546101ed90610b2b565b80156102385780601f1061020f57610100808354040283529160200191610238565b820191905f5260205f20905b81548152906001019060200180831161021b57829003601f168201915b50505050509080600101805461024d90610b2b565b80601f016020809104026020016040519081016040528092919081815260200182805461027990610b2b565b80156102c45780601f1061029b576101008083540402835291602001916102c4565b820191905f5260205f20905b8154815290600101906020018083116102a757829003601f168201915b5050505050908060020180546102d990610b2b565b80601f016020809104026020016040519081016040528092919081815260200182805461030590610b2b565b80156103505780601f1061032757610100808354040283529160200191610350565b820191905f5260205f20905b81548152906001019060200180831161033357829003601f168201915b505050505090806003015f9054906101000a900461ffff16908060030160029054906101000a900473ffffffffffffffffffffffffffffffffffffffff16905085565b5f670de0b6b3a7640000826103a89190610df7565b9050919050565b60608060605f5f5f015f6001015f6002015f6003015f9054906101000a900461ffff168380546103de90610b2b565b80601f016020809104026020016040519081016040528092919081815260200182805461040a90610b2b565b80156104555780601f1061042c57610100808354040283529160200191610455565b820191905f5260205f20905b81548152906001019060200180831161043857829003601f168201915b5050505050935082805461046890610b2b565b80601f016020809104026020016040519081016040528092919081815260200182805461049490610b2b565b80156104df5780601f106104b6576101008083540402835291602001916104df565b820191905f5260205f20905b8154815290600101906020018083116104c257829003601f168201915b505050505092508180546104f290610b2b565b80601f016020809104026020016040519081016040528092919081815260200182805461051e90610b2b565b80156105695780601f1061054057610100808354040283529160200191610569565b820191905f5260205f20905b81548152906001019060200180831161054c57829003601f168201915b50505050509150935093509350935090919293565b61059c5f6003015f9054906101000a900461ffff1661ffff16610393565b3410610689575f6105c15f6003015f9054906101000a900461ffff1661ffff16610393565b346105cc9190610e38565b90505f60030160029054906101000a900473ffffffffffffffffffffffffffffffffffffffff1673ffffffffffffffffffffffffffffffffffffffff166108fc3490811502906040515f60405180830381858888f19350505050158015610635573d5f5f3e3d5ffd5b505f811115610683573373ffffffffffffffffffffffffffffffffffffffff166108fc8290811502906040515f60405180830381858888f19350505050158015610681573d5f5f3e3d5ffd5b505b506106ce565b3373ffffffffffffffffffffffffffffffffffffffff166108fc3490811502906040515f60405180830381858888f193505050501580156106cc573d5f5f3e3d5ffd5b505b565b5f604051905090565b5f5ffd5b5f5ffd5b5f5ffd5b5f5ffd5b5f601f19601f8301169050919050565b7f4e487b71000000000000000000000000000000000000000000000000000000005f52604160045260245ffd5b61072f826106e9565b810181811067ffffffffffffffff8211171561074e5761074d6106f9565b5b80604052505050565b5f6107606106d0565b905061076c8282610726565b919050565b5f67ffffffffffffffff82111561078b5761078a6106f9565b5b610794826106e9565b9050602081019050919050565b828183375f83830152505050565b5f6107c16107bc84610771565b610757565b9050828152602081018484840111156107dd576107dc6106e5565b5b6107e88482856107a1565b509392505050565b5f82601f830112610804576108036106e1565b5b81356108148482602086016107af565b91505092915050565b5f61ffff82169050919050565b6108338161081d565b811461083d575f5ffd5b50565b5f8135905061084e8161082a565b92915050565b5f5f5f5f6080858703121561086c5761086b6106d9565b5b5f85013567ffffffffffffffff811115610889576108886106dd565b5b610895878288016107f0565b945050602085013567ffffffffffffffff8111156108b6576108b56106dd565b5b6108c2878288016107f0565b935050604085013567ffffffffffffffff8111156108e3576108e26106dd565b5b6108ef878288016107f0565b925050606061090087828801610840565b91505092959194509250565b5f81519050919050565b5f82825260208201905092915050565b8281835e5f83830152505050565b5f61093e8261090c565b6109488185610916565b9350610958818560208601610926565b610961816106e9565b840191505092915050565b6109758161081d565b82525050565b5f73ffffffffffffffffffffffffffffffffffffffff82169050919050565b5f6109a48261097b565b9050919050565b6109b48161099a565b82525050565b5f60a0820190508181035f8301526109d28188610934565b905081810360208301526109e68187610934565b905081810360408301526109fa8186610934565b9050610a09606083018561096c565b610a1660808301846109ab565b9695505050505050565b5f819050919050565b610a3281610a20565b8114610a3c575f5ffd5b50565b5f81359050610a4d81610a29565b92915050565b5f60208284031215610a6857610a676106d9565b5b5f610a7584828501610a3f565b91505092915050565b610a8781610a20565b82525050565b5f602082019050610aa05f830184610a7e565b92915050565b5f6080820190508181035f830152610abe8187610934565b90508181036020830152610ad28186610934565b90508181036040830152610ae68185610934565b9050610af5606083018461096c565b95945050505050565b7f4e487b71000000000000000000000000000000000000000000000000000000005f52602260045260245ffd5b5f6002820490506001821680610b4257607f821691505b602082108103610b5557610b54610afe565b5b50919050565b5f819050815f5260205f209050919050565b5f6020601f8301049050919050565b5f82821b905092915050565b5f60088302610bb77fffffffffffffffffffffffffffffffffffffffffffffffffffffffffffffffff82610b7c565b610bc18683610b7c565b95508019841693508086168417925050509392505050565b5f819050919050565b5f610bfc610bf7610bf284610a20565b610bd9565b610a20565b9050919050565b5f819050919050565b610c1583610be2565b610c29610c2182610c03565b848454610b88565b825550505050565b5f5f905090565b610c40610c31565b610c4b818484610c0c565b505050565b5b81811015610c6e57610c635f82610c38565b600181019050610c51565b5050565b601f821115610cb357610c8481610b5b565b610c8d84610b6d565b81016020851015610c9c578190505b610cb0610ca885610b6d565b830182610c50565b50505b505050565b5f82821c905092915050565b5f610cd35f1984600802610cb8565b1980831691505092915050565b5f610ceb8383610cc4565b9150826002028217905092915050565b610d048261090c565b67ffffffffffffffff811115610d1d57610d1c6106f9565b5b610d278254610b2b565b610d32828285610c72565b5f60209050601f831160018114610d63575f8415610d51578287015190505b610d5b8582610ce0565b865550610dc2565b601f198416610d7186610b5b565b5f5b82811015610d9857848901518255600182019150602085019450602081019050610d73565b86831015610db55784890151610db1601f891682610cc4565b8355505b6001600288020188555050505b505050505050565b7f4e487b71000000000000000000000000000000000000000000000000000000005f52601160045260245ffd5b5f610e0182610a20565b9150610e0c83610a20565b9250828202610e1a81610a20565b91508282048414831517610e3157610e30610dca565b5b5092915050565b5f610e4282610a20565b9150610e4d83610a20565b9250828203905081811115610e6557610e64610dca565b5b9291505056fea2646970667358221220c5ecfdf41009aacec2780f04d69eb9a8042af2e706486317239561297c95bda164736f6c634300081c0033",
					"opcodes": "PUSH1 0x80 PUSH1 0x40 MSTORE CALLVALUE DUP1 ISZERO PUSH1 0xE JUMPI PUSH0 PUSH0 REVERT JUMPDEST POP PUSH2 0xEA1 DUP1 PUSH2 0x1C PUSH0 CODECOPY PUSH0 RETURN INVALID PUSH1 0x80 PUSH1 0x40 MSTORE PUSH1 0x4 CALLDATASIZE LT PUSH2 0x49 JUMPI PUSH0 CALLDATALOAD PUSH1 0xE0 SHR DUP1 PUSH4 0xC36CD943 EQ PUSH2 0x4D JUMPI DUP1 PUSH4 0xC97BDF8E EQ PUSH2 0x75 JUMPI DUP1 PUSH4 0xD1F3BF1D EQ PUSH2 0xA3 JUMPI DUP1 PUSH4 0xD8EBE4E5 EQ PUSH2 0xDF JUMPI DUP1 PUSH4 0xDCA36B9A EQ PUSH2 0x10C JUMPI JUMPDEST PUSH0 PUSH0 REVERT JUMPDEST CALLVALUE DUP1 ISZERO PUSH2 0x58 JUMPI PUSH0 PUSH0 REVERT JUMPDEST POP PUSH2 0x73 PUSH1 0x4 DUP1 CALLDATASIZE SUB DUP2 ADD SWAP1 PUSH2 0x6E SWAP2 SWAP1 PUSH2 0x854 JUMP JUMPDEST PUSH2 0x116 JUMP JUMPDEST STOP JUMPDEST CALLVALUE DUP1 ISZERO PUSH2 0x80 JUMPI PUSH0 PUSH0 REVERT JUMPDEST POP PUSH2 0x89 PUSH2 0x1B2 JUMP JUMPDEST PUSH1 0x40 MLOAD PUSH2 0x9A SWAP6 SWAP5 SWAP4 SWAP3 SWAP2 SWAP1 PUSH2 0x9BA JUMP JUMPDEST PUSH1 0x40 MLOAD DUP1 SWAP2 SUB SWAP1 RETURN JUMPDEST CALLVALUE DUP1 ISZERO PUSH2 0xAE JUMPI PUSH0 PUSH0 REVERT JUMPDEST POP PUSH2 0xC9 PUSH1 0x4 DUP1 CALLDATASIZE SUB DUP2 ADD SWAP1 PUSH2 0xC4 SWAP2 SWAP1 PUSH2 0xA53 JUMP JUMPDEST PUSH2 0x393 JUMP JUMPDEST PUSH1 0x40 MLOAD PUSH2 0xD6 SWAP2 SWAP1 PUSH2 0xA8D JUMP JUMPDEST PUSH1 0x40 MLOAD DUP1 SWAP2 SUB SWAP1 RETURN JUMPDEST CALLVALUE DUP1 ISZERO PUSH2 0xEA JUMPI PUSH0 PUSH0 REVERT JUMPDEST POP PUSH2 0xF3 PUSH2 0x3AF JUMP JUMPDEST PUSH1 0x40 MLOAD PUSH2 0x103 SWAP5 SWAP4 SWAP3 SWAP2 SWAP1 PUSH2 0xAA6 JUMP JUMPDEST PUSH1 0x40 MLOAD DUP1 SWAP2 SUB SWAP1 RETURN JUMPDEST PUSH2 0x114 PUSH2 0x57E JUMP JUMPDEST STOP JUMPDEST DUP4 PUSH0 PUSH0 ADD SWAP1 DUP2 PUSH2 0x126 SWAP2 SWAP1 PUSH2 0xCFB JUMP JUMPDEST POP DUP3 PUSH0 PUSH1 0x1 ADD SWAP1 DUP2 PUSH2 0x138 SWAP2 SWAP1 PUSH2 0xCFB JUMP JUMPDEST POP DUP2 PUSH0 PUSH1 0x2 ADD SWAP1 DUP2 PUSH2 0x14A SWAP2 SWAP1 PUSH2 0xCFB JUMP JUMPDEST POP DUP1 PUSH0 PUSH1 0x3 ADD PUSH0 PUSH2 0x100 EXP DUP2 SLOAD DUP2 PUSH2 0xFFFF MUL NOT AND SWAP1 DUP4 PUSH2 0xFFFF AND MUL OR SWAP1 SSTORE POP CALLER PUSH0 PUSH1 0x3 ADD PUSH1 0x2 PUSH2 0x100 EXP DUP2 SLOAD DUP2 PUSH20 0xFFFFFFFFFFFFFFFFFFFFFFFFFFFFFFFFFFFFFFFF MUL NOT AND SWAP1 DUP4 PUSH20 0xFFFFFFFFFFFFFFFFFFFFFFFFFFFFFFFFFFFFFFFF AND MUL OR SWAP1 SSTORE POP POP POP POP POP JUMP JUMPDEST PUSH0 DUP1 PUSH0 ADD DUP1 SLOAD PUSH2 0x1C1 SWAP1 PUSH2 0xB2B JUMP JUMPDEST DUP1 PUSH1 0x1F ADD PUSH1 0x20 DUP1 SWAP2 DIV MUL PUSH1 0x20 ADD PUSH1 0x40 MLOAD SWAP1 DUP2 ADD PUSH1 0x40 MSTORE DUP1 SWAP3 SWAP2 SWAP1 DUP2 DUP2 MSTORE PUSH1 0x20 ADD DUP3 DUP1 SLOAD PUSH2 0x1ED SWAP1 PUSH2 0xB2B JUMP JUMPDEST DUP1 ISZERO PUSH2 0x238 JUMPI DUP1 PUSH1 0x1F LT PUSH2 0x20F JUMPI PUSH2 0x100 DUP1 DUP4 SLOAD DIV MUL DUP4 MSTORE SWAP2 PUSH1 0x20 ADD SWAP2 PUSH2 0x238 JUMP JUMPDEST DUP3 ADD SWAP2 SWAP1 PUSH0 MSTORE PUSH1 0x20 PUSH0 KECCAK256 SWAP1 JUMPDEST DUP2 SLOAD DUP2 MSTORE SWAP1 PUSH1 0x1 ADD SWAP1 PUSH1 0x20 ADD DUP1 DUP4 GT PUSH2 0x21B JUMPI DUP3 SWAP1 SUB PUSH1 0x1F AND DUP3 ADD SWAP2 JUMPDEST POP POP POP POP POP SWAP1 DUP1 PUSH1 0x1 ADD DUP1 SLOAD PUSH2 0x24D SWAP1 PUSH2 0xB2B JUMP JUMPDEST DUP1 PUSH1 0x1F ADD PUSH1 0x20 DUP1 SWAP2 DIV MUL PUSH1 0x20 ADD PUSH1 0x40 MLOAD SWAP1 DUP2 ADD PUSH1 0x40 MSTORE DUP1 SWAP3 SWAP2 SWAP1 DUP2 DUP2 MSTORE PUSH1 0x20 ADD DUP3 DUP1 SLOAD PUSH2 0x279 SWAP1 PUSH2 0xB2B JUMP JUMPDEST DUP1 ISZERO PUSH2 0x2C4 JUMPI DUP1 PUSH1 0x1F LT PUSH2 0x29B JUMPI PUSH2 0x100 DUP1 DUP4 SLOAD DIV MUL DUP4 MSTORE SWAP2 PUSH1 0x20 ADD SWAP2 PUSH2 0x2C4 JUMP JUMPDEST DUP3 ADD SWAP2 SWAP1 PUSH0 MSTORE PUSH1 0x20 PUSH0 KECCAK256 SWAP1 JUMPDEST DUP2 SLOAD DUP2 MSTORE SWAP1 PUSH1 0x1 ADD SWAP1 PUSH1 0x20 ADD DUP1 DUP4 GT PUSH2 0x2A7 JUMPI DUP3 SWAP1 SUB PUSH1 0x1F AND DUP3 ADD SWAP2 JUMPDEST POP POP POP POP POP SWAP1 DUP1 PUSH1 0x2 ADD DUP1 SLOAD PUSH2 0x2D9 SWAP1 PUSH2 0xB2B JUMP JUMPDEST DUP1 PUSH1 0x1F ADD PUSH1 0x20 DUP1 SWAP2 DIV MUL PUSH1 0x20 ADD PUSH1 0x40 MLOAD SWAP1 DUP2 ADD PUSH1 0x40 MSTORE DUP1 SWAP3 SWAP2 SWAP1 DUP2 DUP2 MSTORE PUSH1 0x20 ADD DUP3 DUP1 SLOAD PUSH2 0x305 SWAP1 PUSH2 0xB2B JUMP JUMPDEST DUP1 ISZERO PUSH2 0x350 JUMPI DUP1 PUSH1 0x1F LT PUSH2 0x327 JUMPI PUSH2 0x100 DUP1 DUP4 SLOAD DIV MUL DUP4 MSTORE SWAP2 PUSH1 0x20 ADD SWAP2 PUSH2 0x350 JUMP JUMPDEST DUP3 ADD SWAP2 SWAP1 PUSH0 MSTORE PUSH1 0x20 PUSH0 KECCAK256 SWAP1 JUMPDEST DUP2 SLOAD DUP2 MSTORE SWAP1 PUSH1 0x1 ADD SWAP1 PUSH1 0x20 ADD DUP1 DUP4 GT PUSH2 0x333 JUMPI DUP3 SWAP1 SUB PUSH1 0x1F AND DUP3 ADD SWAP2 JUMPDEST POP POP POP POP POP SWAP1 DUP1 PUSH1 0x3 ADD PUSH0 SWAP1 SLOAD SWAP1 PUSH2 0x100 EXP SWAP1 DIV PUSH2 0xFFFF AND SWAP1 DUP1 PUSH1 0x3 ADD PUSH1 0x2 SWAP1 SLOAD SWAP1 PUSH2 0x100 EXP SWAP1 DIV PUSH20 0xFFFFFFFFFFFFFFFFFFFFFFFFFFFFFFFFFFFFFFFF AND SWAP1 POP DUP6 JUMP JUMPDEST PUSH0 PUSH8 0xDE0B6B3A7640000 DUP3 PUSH2 0x3A8 SWAP2 SWAP1 PUSH2 0xDF7 JUMP JUMPDEST SWAP1 POP SWAP2 SWAP1 POP JUMP JUMPDEST PUSH1 0x60 DUP1 PUSH1 0x60 PUSH0 PUSH0 PUSH0 ADD PUSH0 PUSH1 0x1 ADD PUSH0 PUSH1 0x2 ADD PUSH0 PUSH1 0x3 ADD PUSH0 SWAP1 SLOAD SWAP1 PUSH2 0x100 EXP SWAP1 DIV PUSH2 0xFFFF AND DUP4 DUP1 SLOAD PUSH2 0x3DE SWAP1 PUSH2 0xB2B JUMP JUMPDEST DUP1 PUSH1 0x1F ADD PUSH1 0x20 DUP1 SWAP2 DIV MUL PUSH1 0x20 ADD PUSH1 0x40 MLOAD SWAP1 DUP2 ADD PUSH1 0x40 MSTORE DUP1 SWAP3 SWAP2 SWAP1 DUP2 DUP2 MSTORE PUSH1 0x20 ADD DUP3 DUP1 SLOAD PUSH2 0x40A SWAP1 PUSH2 0xB2B JUMP JUMPDEST DUP1 ISZERO PUSH2 0x455 JUMPI DUP1 PUSH1 0x1F LT PUSH2 0x42C JUMPI PUSH2 0x100 DUP1 DUP4 SLOAD DIV MUL DUP4 MSTORE SWAP2 PUSH1 0x20 ADD SWAP2 PUSH2 0x455 JUMP JUMPDEST DUP3 ADD SWAP2 SWAP1 PUSH0 MSTORE PUSH1 0x20 PUSH0 KECCAK256 SWAP1 JUMPDEST DUP2 SLOAD DUP2 MSTORE SWAP1 PUSH1 0x1 ADD SWAP1 PUSH1 0x20 ADD DUP1 DUP4 GT PUSH2 0x438 JUMPI DUP3 SWAP1 SUB PUSH1 0x1F AND DUP3 ADD SWAP2 JUMPDEST POP POP POP POP POP SWAP4 POP DUP3 DUP1 SLOAD PUSH2 0x468 SWAP1 PUSH2 0xB2B JUMP JUMPDEST DUP1 PUSH1 0x1F ADD PUSH1 0x20 DUP1 SWAP2 DIV MUL PUSH1 0x20 ADD PUSH1 0x40 MLOAD SWAP1 DUP2 ADD PUSH1 0x40 MSTORE DUP1 SWAP3 SWAP2 SWAP1 DUP2 DUP2 MSTORE PUSH1 0x20 ADD DUP3 DUP1 SLOAD PUSH2 0x494 SWAP1 PUSH2 0xB2B JUMP JUMPDEST DUP1 ISZERO PUSH2 0x4DF JUMPI DUP1 PUSH1 0x1F LT PUSH2 0x4B6 JUMPI PUSH2 0x100 DUP1 DUP4 SLOAD DIV MUL DUP4 MSTORE SWAP2 PUSH1 0x20 ADD SWAP2 PUSH2 0x4DF JUMP JUMPDEST DUP3 ADD SWAP2 SWAP1 PUSH0 MSTORE PUSH1 0x20 PUSH0 KECCAK256 SWAP1 JUMPDEST DUP2 SLOAD DUP2 MSTORE SWAP1 PUSH1 0x1 ADD SWAP1 PUSH1 0x20 ADD DUP1 DUP4 GT PUSH2 0x4C2 JUMPI DUP3 SWAP1 SUB PUSH1 0x1F AND DUP3 ADD SWAP2 JUMPDEST POP POP POP POP POP SWAP3 POP DUP2 DUP1 SLOAD PUSH2 0x4F2 SWAP1 PUSH2 0xB2B JUMP JUMPDEST DUP1 PUSH1 0x1F ADD PUSH1 0x20 DUP1 SWAP2 DIV MUL PUSH1 0x20 ADD PUSH1 0x40 MLOAD SWAP1 DUP2 ADD PUSH1 0x40 MSTORE DUP1 SWAP3 SWAP2 SWAP1 DUP2 DUP2 MSTORE PUSH1 0x20 ADD DUP3 DUP1 SLOAD PUSH2 0x51E SWAP1 PUSH2 0xB2B JUMP JUMPDEST DUP1 ISZERO PUSH2 0x569 JUMPI DUP1 PUSH1 0x1F LT PUSH2 0x540 JUMPI PUSH2 0x100 DUP1 DUP4 SLOAD DIV MUL DUP4 MSTORE SWAP2 PUSH1 0x20 ADD SWAP2 PUSH2 0x569 JUMP JUMPDEST DUP3 ADD SWAP2 SWAP1 PUSH0 MSTORE PUSH1 0x20 PUSH0 KECCAK256 SWAP1 JUMPDEST DUP2 SLOAD DUP2 MSTORE SWAP1 PUSH1 0x1 ADD SWAP1 PUSH1 0x20 ADD DUP1 DUP4 GT PUSH2 0x54C JUMPI DUP3 SWAP1 SUB PUSH1 0x1F AND DUP3 ADD SWAP2 JUMPDEST POP POP POP POP POP SWAP2 POP SWAP4 POP SWAP4 POP SWAP4 POP SWAP4 POP SWAP1 SWAP2 SWAP3 SWAP4 JUMP JUMPDEST PUSH2 0x59C PUSH0 PUSH1 0x3 ADD PUSH0 SWAP1 SLOAD SWAP1 PUSH2 0x100 EXP SWAP1 DIV PUSH2 0xFFFF AND PUSH2 0xFFFF AND PUSH2 0x393 JUMP JUMPDEST CALLVALUE LT PUSH2 0x689 JUMPI PUSH0 PUSH2 0x5C1 PUSH0 PUSH1 0x3 ADD PUSH0 SWAP1 SLOAD SWAP1 PUSH2 0x100 EXP SWAP1 DIV PUSH2 0xFFFF AND PUSH2 0xFFFF AND PUSH2 0x393 JUMP JUMPDEST CALLVALUE PUSH2 0x5CC SWAP2 SWAP1 PUSH2 0xE38 JUMP JUMPDEST SWAP1 POP PUSH0 PUSH1 0x3 ADD PUSH1 0x2 SWAP1 SLOAD SWAP1 PUSH2 0x100 EXP SWAP1 DIV PUSH20 0xFFFFFFFFFFFFFFFFFFFFFFFFFFFFFFFFFFFFFFFF AND PUSH20 0xFFFFFFFFFFFFFFFFFFFFFFFFFFFFFFFFFFFFFFFF AND PUSH2 0x8FC CALLVALUE SWAP1 DUP2 ISZERO MUL SWAP1 PUSH1 0x40 MLOAD PUSH0 PUSH1 0x40 MLOAD DUP1 DUP4 SUB DUP2 DUP6 DUP9 DUP9 CALL SWAP4 POP POP POP POP ISZERO DUP1 ISZERO PUSH2 0x635 JUMPI RETURNDATASIZE PUSH0 PUSH0 RETURNDATACOPY RETURNDATASIZE PUSH0 REVERT JUMPDEST POP PUSH0 DUP2 GT ISZERO PUSH2 0x683 JUMPI CALLER PUSH20 0xFFFFFFFFFFFFFFFFFFFFFFFFFFFFFFFFFFFFFFFF AND PUSH2 0x8FC DUP3 SWAP1 DUP2 ISZERO MUL SWAP1 PUSH1 0x40 MLOAD PUSH0 PUSH1 0x40 MLOAD DUP1 DUP4 SUB DUP2 DUP6 DUP9 DUP9 CALL SWAP4 POP POP POP POP ISZERO DUP1 ISZERO PUSH2 0x681 JUMPI RETURNDATASIZE PUSH0 PUSH0 RETURNDATACOPY RETURNDATASIZE PUSH0 REVERT JUMPDEST POP JUMPDEST POP PUSH2 0x6CE JUMP JUMPDEST CALLER PUSH20 0xFFFFFFFFFFFFFFFFFFFFFFFFFFFFFFFFFFFFFFFF AND PUSH2 0x8FC CALLVALUE SWAP1 DUP2 ISZERO MUL SWAP1 PUSH1 0x40 MLOAD PUSH0 PUSH1 0x40 MLOAD DUP1 DUP4 SUB DUP2 DUP6 DUP9 DUP9 CALL SWAP4 POP POP POP POP ISZERO DUP1 ISZERO PUSH2 0x6CC JUMPI RETURNDATASIZE PUSH0 PUSH0 RETURNDATACOPY RETURNDATASIZE PUSH0 REVERT JUMPDEST POP JUMPDEST JUMP JUMPDEST PUSH0 PUSH1 0x40 MLOAD SWAP1 POP SWAP1 JUMP JUMPDEST PUSH0 PUSH0 REVERT JUMPDEST PUSH0 PUSH0 REVERT JUMPDEST PUSH0 PUSH0 REVERT JUMPDEST PUSH0 PUSH0 REVERT JUMPDEST PUSH0 PUSH1 0x1F NOT PUSH1 0x1F DUP4 ADD AND SWAP1 POP SWAP2 SWAP1 POP JUMP JUMPDEST PUSH32 0x4E487B7100000000000000000000000000000000000000000000000000000000 PUSH0 MSTORE PUSH1 0x41 PUSH1 0x4 MSTORE PUSH1 0x24 PUSH0 REVERT JUMPDEST PUSH2 0x72F DUP3 PUSH2 0x6E9 JUMP JUMPDEST DUP2 ADD DUP2 DUP2 LT PUSH8 0xFFFFFFFFFFFFFFFF DUP3 GT OR ISZERO PUSH2 0x74E JUMPI PUSH2 0x74D PUSH2 0x6F9 JUMP JUMPDEST JUMPDEST DUP1 PUSH1 0x40 MSTORE POP POP POP JUMP JUMPDEST PUSH0 PUSH2 0x760 PUSH2 0x6D0 JUMP JUMPDEST SWAP1 POP PUSH2 0x76C DUP3 DUP3 PUSH2 0x726 JUMP JUMPDEST SWAP2 SWAP1 POP JUMP JUMPDEST PUSH0 PUSH8 0xFFFFFFFFFFFFFFFF DUP3 GT ISZERO PUSH2 0x78B JUMPI PUSH2 0x78A PUSH2 0x6F9 JUMP JUMPDEST JUMPDEST PUSH2 0x794 DUP3 PUSH2 0x6E9 JUMP JUMPDEST SWAP1 POP PUSH1 0x20 DUP2 ADD SWAP1 POP SWAP2 SWAP1 POP JUMP JUMPDEST DUP3 DUP2 DUP4 CALLDATACOPY PUSH0 DUP4 DUP4 ADD MSTORE POP POP POP JUMP JUMPDEST PUSH0 PUSH2 0x7C1 PUSH2 0x7BC DUP5 PUSH2 0x771 JUMP JUMPDEST PUSH2 0x757 JUMP JUMPDEST SWAP1 POP DUP3 DUP2 MSTORE PUSH1 0x20 DUP2 ADD DUP5 DUP5 DUP5 ADD GT ISZERO PUSH2 0x7DD JUMPI PUSH2 0x7DC PUSH2 0x6E5 JUMP JUMPDEST JUMPDEST PUSH2 0x7E8 DUP5 DUP3 DUP6 PUSH2 0x7A1 JUMP JUMPDEST POP SWAP4 SWAP3 POP POP POP JUMP JUMPDEST PUSH0 DUP3 PUSH1 0x1F DUP4 ADD SLT PUSH2 0x804 JUMPI PUSH2 0x803 PUSH2 0x6E1 JUMP JUMPDEST JUMPDEST DUP2 CALLDATALOAD PUSH2 0x814 DUP5 DUP3 PUSH1 0x20 DUP7 ADD PUSH2 0x7AF JUMP JUMPDEST SWAP2 POP POP SWAP3 SWAP2 POP POP JUMP JUMPDEST PUSH0 PUSH2 0xFFFF DUP3 AND SWAP1 POP SWAP2 SWAP1 POP JUMP JUMPDEST PUSH2 0x833 DUP2 PUSH2 0x81D JUMP JUMPDEST DUP2 EQ PUSH2 0x83D JUMPI PUSH0 PUSH0 REVERT JUMPDEST POP JUMP JUMPDEST PUSH0 DUP2 CALLDATALOAD SWAP1 POP PUSH2 0x84E DUP2 PUSH2 0x82A JUMP JUMPDEST SWAP3 SWAP2 POP POP JUMP JUMPDEST PUSH0 PUSH0 PUSH0 PUSH0 PUSH1 0x80 DUP6 DUP8 SUB SLT ISZERO PUSH2 0x86C JUMPI PUSH2 0x86B PUSH2 0x6D9 JUMP JUMPDEST JUMPDEST PUSH0 DUP6 ADD CALLDATALOAD PUSH8 0xFFFFFFFFFFFFFFFF DUP2 GT ISZERO PUSH2 0x889 JUMPI PUSH2 0x888 PUSH2 0x6DD JUMP JUMPDEST JUMPDEST PUSH2 0x895 DUP8 DUP3 DUP9 ADD PUSH2 0x7F0 JUMP JUMPDEST SWAP5 POP POP PUSH1 0x20 DUP6 ADD CALLDATALOAD PUSH8 0xFFFFFFFFFFFFFFFF DUP2 GT ISZERO PUSH2 0x8B6 JUMPI PUSH2 0x8B5 PUSH2 0x6DD JUMP JUMPDEST JUMPDEST PUSH2 0x8C2 DUP8 DUP3 DUP9 ADD PUSH2 0x7F0 JUMP JUMPDEST SWAP4 POP POP PUSH1 0x40 DUP6 ADD CALLDATALOAD PUSH8 0xFFFFFFFFFFFFFFFF DUP2 GT ISZERO PUSH2 0x8E3 JUMPI PUSH2 0x8E2 PUSH2 0x6DD JUMP JUMPDEST JUMPDEST PUSH2 0x8EF DUP8 DUP3 DUP9 ADD PUSH2 0x7F0 JUMP JUMPDEST SWAP3 POP POP PUSH1 0x60 PUSH2 0x900 DUP8 DUP3 DUP9 ADD PUSH2 0x840 JUMP JUMPDEST SWAP2 POP POP SWAP3 SWAP6 SWAP2 SWAP5 POP SWAP3 POP JUMP JUMPDEST PUSH0 DUP2 MLOAD SWAP1 POP SWAP2 SWAP1 POP JUMP JUMPDEST PUSH0 DUP3 DUP3 MSTORE PUSH1 0x20 DUP3 ADD SWAP1 POP SWAP3 SWAP2 POP POP JUMP JUMPDEST DUP3 DUP2 DUP4 MCOPY PUSH0 DUP4 DUP4 ADD MSTORE POP POP POP JUMP JUMPDEST PUSH0 PUSH2 0x93E DUP3 PUSH2 0x90C JUMP JUMPDEST PUSH2 0x948 DUP2 DUP6 PUSH2 0x916 JUMP JUMPDEST SWAP4 POP PUSH2 0x958 DUP2 DUP6 PUSH1 0x20 DUP7 ADD PUSH2 0x926 JUMP JUMPDEST PUSH2 0x961 DUP2 PUSH2 0x6E9 JUMP JUMPDEST DUP5 ADD SWAP2 POP POP SWAP3 SWAP2 POP POP JUMP JUMPDEST PUSH2 0x975 DUP2 PUSH2 0x81D JUMP JUMPDEST DUP3 MSTORE POP POP JUMP JUMPDEST PUSH0 PUSH20 0xFFFFFFFFFFFFFFFFFFFFFFFFFFFFFFFFFFFFFFFF DUP3 AND SWAP1 POP SWAP2 SWAP1 POP JUMP JUMPDEST PUSH0 PUSH2 0x9A4 DUP3 PUSH2 0x97B JUMP JUMPDEST SWAP1 POP SWAP2 SWAP1 POP JUMP JUMPDEST PUSH2 0x9B4 DUP2 PUSH2 0x99A JUMP JUMPDEST DUP3 MSTORE POP POP JUMP JUMPDEST PUSH0 PUSH1 0xA0 DUP3 ADD SWAP1 POP DUP2 DUP2 SUB PUSH0 DUP4 ADD MSTORE PUSH2 0x9D2 DUP2 DUP9 PUSH2 0x934 JUMP JUMPDEST SWAP1 POP DUP2 DUP2 SUB PUSH1 0x20 DUP4 ADD MSTORE PUSH2 0x9E6 DUP2 DUP8 PUSH2 0x934 JUMP JUMPDEST SWAP1 POP DUP2 DUP2 SUB PUSH1 0x40 DUP4 ADD MSTORE PUSH2 0x9FA DUP2 DUP7 PUSH2 0x934 JUMP JUMPDEST SWAP1 POP PUSH2 0xA09 PUSH1 0x60 DUP4 ADD DUP6 PUSH2 0x96C JUMP JUMPDEST PUSH2 0xA16 PUSH1 0x80 DUP4 ADD DUP5 PUSH2 0x9AB JUMP JUMPDEST SWAP7 SWAP6 POP POP POP POP POP POP JUMP JUMPDEST PUSH0 DUP2 SWAP1 POP SWAP2 SWAP1 POP JUMP JUMPDEST PUSH2 0xA32 DUP2 PUSH2 0xA20 JUMP JUMPDEST DUP2 EQ PUSH2 0xA3C JUMPI PUSH0 PUSH0 REVERT JUMPDEST POP JUMP JUMPDEST PUSH0 DUP2 CALLDATALOAD SWAP1 POP PUSH2 0xA4D DUP2 PUSH2 0xA29 JUMP JUMPDEST SWAP3 SWAP2 POP POP JUMP JUMPDEST PUSH0 PUSH1 0x20 DUP3 DUP5 SUB SLT ISZERO PUSH2 0xA68 JUMPI PUSH2 0xA67 PUSH2 0x6D9 JUMP JUMPDEST JUMPDEST PUSH0 PUSH2 0xA75 DUP5 DUP3 DUP6 ADD PUSH2 0xA3F JUMP JUMPDEST SWAP2 POP POP SWAP3 SWAP2 POP POP JUMP JUMPDEST PUSH2 0xA87 DUP2 PUSH2 0xA20 JUMP JUMPDEST DUP3 MSTORE POP POP JUMP JUMPDEST PUSH0 PUSH1 0x20 DUP3 ADD SWAP1 POP PUSH2 0xAA0 PUSH0 DUP4 ADD DUP5 PUSH2 0xA7E JUMP JUMPDEST SWAP3 SWAP2 POP POP JUMP JUMPDEST PUSH0 PUSH1 0x80 DUP3 ADD SWAP1 POP DUP2 DUP2 SUB PUSH0 DUP4 ADD MSTORE PUSH2 0xABE DUP2 DUP8 PUSH2 0x934 JUMP JUMPDEST SWAP1 POP DUP2 DUP2 SUB PUSH1 0x20 DUP4 ADD MSTORE PUSH2 0xAD2 DUP2 DUP7 PUSH2 0x934 JUMP JUMPDEST SWAP1 POP DUP2 DUP2 SUB PUSH1 0x40 DUP4 ADD MSTORE PUSH2 0xAE6 DUP2 DUP6 PUSH2 0x934 JUMP JUMPDEST SWAP1 POP PUSH2 0xAF5 PUSH1 0x60 DUP4 ADD DUP5 PUSH2 0x96C JUMP JUMPDEST SWAP6 SWAP5 POP POP POP POP POP JUMP JUMPDEST PUSH32 0x4E487B7100000000000000000000000000000000000000000000000000000000 PUSH0 MSTORE PUSH1 0x22 PUSH1 0x4 MSTORE PUSH1 0x24 PUSH0 REVERT JUMPDEST PUSH0 PUSH1 0x2 DUP3 DIV SWAP1 POP PUSH1 0x1 DUP3 AND DUP1 PUSH2 0xB42 JUMPI PUSH1 0x7F DUP3 AND SWAP2 POP JUMPDEST PUSH1 0x20 DUP3 LT DUP2 SUB PUSH2 0xB55 JUMPI PUSH2 0xB54 PUSH2 0xAFE JUMP JUMPDEST JUMPDEST POP SWAP2 SWAP1 POP JUMP JUMPDEST PUSH0 DUP2 SWAP1 POP DUP2 PUSH0 MSTORE PUSH1 0x20 PUSH0 KECCAK256 SWAP1 POP SWAP2 SWAP1 POP JUMP JUMPDEST PUSH0 PUSH1 0x20 PUSH1 0x1F DUP4 ADD DIV SWAP1 POP SWAP2 SWAP1 POP JUMP JUMPDEST PUSH0 DUP3 DUP3 SHL SWAP1 POP SWAP3 SWAP2 POP POP JUMP JUMPDEST PUSH0 PUSH1 0x8 DUP4 MUL PUSH2 0xBB7 PUSH32 0xFFFFFFFFFFFFFFFFFFFFFFFFFFFFFFFFFFFFFFFFFFFFFFFFFFFFFFFFFFFFFFFF DUP3 PUSH2 0xB7C JUMP JUMPDEST PUSH2 0xBC1 DUP7 DUP4 PUSH2 0xB7C JUMP JUMPDEST SWAP6 POP DUP1 NOT DUP5 AND SWAP4 POP DUP1 DUP7 AND DUP5 OR SWAP3 POP POP POP SWAP4 SWAP3 POP POP POP JUMP JUMPDEST PUSH0 DUP2 SWAP1 POP SWAP2 SWAP1 POP JUMP JUMPDEST PUSH0 PUSH2 0xBFC PUSH2 0xBF7 PUSH2 0xBF2 DUP5 PUSH2 0xA20 JUMP JUMPDEST PUSH2 0xBD9 JUMP JUMPDEST PUSH2 0xA20 JUMP JUMPDEST SWAP1 POP SWAP2 SWAP1 POP JUMP JUMPDEST PUSH0 DUP2 SWAP1 POP SWAP2 SWAP1 POP JUMP JUMPDEST PUSH2 0xC15 DUP4 PUSH2 0xBE2 JUMP JUMPDEST PUSH2 0xC29 PUSH2 0xC21 DUP3 PUSH2 0xC03 JUMP JUMPDEST DUP5 DUP5 SLOAD PUSH2 0xB88 JUMP JUMPDEST DUP3 SSTORE POP POP POP POP JUMP JUMPDEST PUSH0 PUSH0 SWAP1 POP SWAP1 JUMP JUMPDEST PUSH2 0xC40 PUSH2 0xC31 JUMP JUMPDEST PUSH2 0xC4B DUP2 DUP5 DUP5 PUSH2 0xC0C JUMP JUMPDEST POP POP POP JUMP JUMPDEST JUMPDEST DUP2 DUP2 LT ISZERO PUSH2 0xC6E JUMPI PUSH2 0xC63 PUSH0 DUP3 PUSH2 0xC38 JUMP JUMPDEST PUSH1 0x1 DUP2 ADD SWAP1 POP PUSH2 0xC51 JUMP JUMPDEST POP POP JUMP JUMPDEST PUSH1 0x1F DUP3 GT ISZERO PUSH2 0xCB3 JUMPI PUSH2 0xC84 DUP2 PUSH2 0xB5B JUMP JUMPDEST PUSH2 0xC8D DUP5 PUSH2 0xB6D JUMP JUMPDEST DUP2 ADD PUSH1 0x20 DUP6 LT ISZERO PUSH2 0xC9C JUMPI DUP2 SWAP1 POP JUMPDEST PUSH2 0xCB0 PUSH2 0xCA8 DUP6 PUSH2 0xB6D JUMP JUMPDEST DUP4 ADD DUP3 PUSH2 0xC50 JUMP JUMPDEST POP POP JUMPDEST POP POP POP JUMP JUMPDEST PUSH0 DUP3 DUP3 SHR SWAP1 POP SWAP3 SWAP2 POP POP JUMP JUMPDEST PUSH0 PUSH2 0xCD3 PUSH0 NOT DUP5 PUSH1 0x8 MUL PUSH2 0xCB8 JUMP JUMPDEST NOT DUP1 DUP4 AND SWAP2 POP POP SWAP3 SWAP2 POP POP JUMP JUMPDEST PUSH0 PUSH2 0xCEB DUP4 DUP4 PUSH2 0xCC4 JUMP JUMPDEST SWAP2 POP DUP3 PUSH1 0x2 MUL DUP3 OR SWAP1 POP SWAP3 SWAP2 POP POP JUMP JUMPDEST PUSH2 0xD04 DUP3 PUSH2 0x90C JUMP JUMPDEST PUSH8 0xFFFFFFFFFFFFFFFF DUP2 GT ISZERO PUSH2 0xD1D JUMPI PUSH2 0xD1C PUSH2 0x6F9 JUMP JUMPDEST JUMPDEST PUSH2 0xD27 DUP3 SLOAD PUSH2 0xB2B JUMP JUMPDEST PUSH2 0xD32 DUP3 DUP3 DUP6 PUSH2 0xC72 JUMP JUMPDEST PUSH0 PUSH1 0x20 SWAP1 POP PUSH1 0x1F DUP4 GT PUSH1 0x1 DUP2 EQ PUSH2 0xD63 JUMPI PUSH0 DUP5 ISZERO PUSH2 0xD51 JUMPI DUP3 DUP8 ADD MLOAD SWAP1 POP JUMPDEST PUSH2 0xD5B DUP6 DUP3 PUSH2 0xCE0 JUMP JUMPDEST DUP7 SSTORE POP PUSH2 0xDC2 JUMP JUMPDEST PUSH1 0x1F NOT DUP5 AND PUSH2 0xD71 DUP7 PUSH2 0xB5B JUMP JUMPDEST PUSH0 JUMPDEST DUP3 DUP2 LT ISZERO PUSH2 0xD98 JUMPI DUP5 DUP10 ADD MLOAD DUP3 SSTORE PUSH1 0x1 DUP3 ADD SWAP2 POP PUSH1 0x20 DUP6 ADD SWAP5 POP PUSH1 0x20 DUP2 ADD SWAP1 POP PUSH2 0xD73 JUMP JUMPDEST DUP7 DUP4 LT ISZERO PUSH2 0xDB5 JUMPI DUP5 DUP10 ADD MLOAD PUSH2 0xDB1 PUSH1 0x1F DUP10 AND DUP3 PUSH2 0xCC4 JUMP JUMPDEST DUP4 SSTORE POP JUMPDEST PUSH1 0x1 PUSH1 0x2 DUP9 MUL ADD DUP9 SSTORE POP POP POP JUMPDEST POP POP POP POP POP POP JUMP JUMPDEST PUSH32 0x4E487B7100000000000000000000000000000000000000000000000000000000 PUSH0 MSTORE PUSH1 0x11 PUSH1 0x4 MSTORE PUSH1 0x24 PUSH0 REVERT JUMPDEST PUSH0 PUSH2 0xE01 DUP3 PUSH2 0xA20 JUMP JUMPDEST SWAP2 POP PUSH2 0xE0C DUP4 PUSH2 0xA20 JUMP JUMPDEST SWAP3 POP DUP3 DUP3 MUL PUSH2 0xE1A DUP2 PUSH2 0xA20 JUMP JUMPDEST SWAP2 POP DUP3 DUP3 DIV DUP5 EQ DUP4 ISZERO OR PUSH2 0xE31 JUMPI PUSH2 0xE30 PUSH2 0xDCA JUMP JUMPDEST JUMPDEST POP SWAP3 SWAP2 POP POP JUMP JUMPDEST PUSH0 PUSH2 0xE42 DUP3 PUSH2 0xA20 JUMP JUMPDEST SWAP2 POP PUSH2 0xE4D DUP4 PUSH2 0xA20 JUMP JUMPDEST SWAP3 POP DUP3 DUP3 SUB SWAP1 POP DUP2 DUP2 GT ISZERO PUSH2 0xE65 JUMPI PUSH2 0xE64 PUSH2 0xDCA JUMP JUMPDEST JUMPDEST SWAP3 SWAP2 POP POP JUMP INVALID LOG2 PUSH5 0x6970667358 0x22 SLT KECCAK256 0xC5 0xEC REVERT DELEGATECALL LT MULMOD 0xAA 0xCE 0xC2 PUSH25 0xF04D69EB9A8042AF2E706486317239561297C95BDA164736F PUSH13 0x634300081C0033000000000000 "
				},
				"gasEstimates": {
					"creation": {
						"codeDepositCost": "749000",
						"executionCost": "784",
						"totalCost": "749784"
					},
					"external": {
						"employe()": "infinite",
						"ethTowei(uint256)": "infinite",
						"getEmplyeeDetails()": "infinite",
						"payEmployee()": "infinite",
						"setEmployeeDetails(string,string,string,uint16)": "infinite"
					}
				},
				"methodIdentifiers": {
					"employe()": "c97bdf8e",
					"ethTowei(uint256)": "d1f3bf1d",
					"getEmplyeeDetails()": "d8ebe4e5",
					"payEmployee()": "dca36b9a",
					"setEmployeeDetails(string,string,string,uint16)": "c36cd943"
				}
			},
			"storageLayout": {
				"storage": [
					{
						"astId": 15,
						"contract": "Activities/Employee.sol:Employee",
						"label": "employe",
						"offset": 0,
						"slot": "0",
						"type": "t_struct(Employe)12_storage"
					}
				],
				"types": {
					"t_address": {
						"encoding": "inplace",
						"label": "address",
						"numberOfBytes": "20"
					},
					"t_string_storage": {
						"encoding": "bytes",
						"label": "string",
						"numberOfBytes": "32"
					},
					"t_struct(Employe)12_storage": {
						"encoding": "inplace",
						"label": "struct Employee.Employe",
						"members": [
							{
								"astId": 3,
								"contract": "Activities/Employee.sol:Employee",
								"label": "name",
								"offset": 0,
								"slot": "0",
								"type": "t_string_storage"
							},
							{
								"astId": 5,
								"contract": "Activities/Employee.sol:Employee",
								"label": "department",
								"offset": 0,
								"slot": "1",
								"type": "t_string_storage"
							},
							{
								"astId": 7,
								"contract": "Activities/Employee.sol:Employee",
								"label": "designation",
								"offset": 0,
								"slot": "2",
								"type": "t_string_storage"
							},
							{
								"astId": 9,
								"contract": "Activities/Employee.sol:Employee",
								"label": "salary",
								"offset": 0,
								"slot": "3",
								"type": "t_uint16"
							},
							{
								"astId": 11,
								"contract": "Activities/Employee.sol:Employee",
								"label": "cashier",
								"offset": 2,
								"slot": "3",
								"type": "t_address"
							}
						],
						"numberOfBytes": "128"
					},
					"t_uint16": {
						"encoding": "inplace",
						"label": "uint16",
						"numberOfBytes": "2"
					}
				}
			},
			"userdoc": {
				"kind": "user",
				"methods": {},
				"version": 1
			}
		}
	}
}