{
	"Activities/MathFunction.sol": {
		"MathFunction": {
			"abi": [
				{
					"inputs": [],
					"name": "getDigit",
					"outputs": [
						{
							"internalType": "string",
							"name": "",
							"type": "string"
						}
					],
					"stateMutability": "view",
					"type": "function"
				},
				{
					"inputs": [],
					"name": "getFindLargest",
					"outputs": [
						{
							"internalType": "uint8",
							"name": "",
							"type": "uint8"
						}
					],
					"stateMutability": "view",
					"type": "function"
				},
				{
					"inputs": [],
					"name": "getSign",
					"outputs": [
						{
							"internalType": "string",
							"name": "",
							"type": "string"
						}
					],
					"stateMutability": "view",
					"type": "function"
				},
				{
					"inputs": [
						{
							"internalType": "int256",
							"name": "_num",
							"type": "int256"
						}
					],
					"name": "setNum",
					"outputs": [],
					"stateMutability": "nonpayable",
					"type": "function"
				},
				{
					"inputs": [
						{
							"internalType": "uint8",
							"name": "_num1",
							"type": "uint8"
						},
						{
							"internalType": "uint8",
							"name": "_num2",
							"type": "uint8"
						},
						{
							"internalType": "uint8",
							"name": "_num3",
							"type": "uint8"
						}
					],
					"name": "setNumbers",
					"outputs": [],
					"stateMutability": "nonpayable",
					"type": "function"
				}
			],
			"devdoc": {
				"kind": "dev",
				"methods": {},
				"version": 1
			},
			"evm": {
				"assembly": "    /* \"Activities/MathFunction.sol\":56:1375  contract MathFunction{... */\n  mstore(0x40, 0x80)\n  callvalue\n  dup1\n  iszero\n  tag_1\n  jumpi\n  revert(0x00, 0x00)\ntag_1:\n  pop\n  dataSize(sub_0)\n  dup1\n  dataOffset(sub_0)\n  0x00\n  codecopy\n  0x00\n  return\nstop\n\nsub_0: assembly {\n        /* \"Activities/MathFunction.sol\":56:1375  contract MathFunction{... */\n      mstore(0x40, 0x80)\n      callvalue\n      dup1\n      iszero\n      tag_1\n      jumpi\n      revert(0x00, 0x00)\n    tag_1:\n      pop\n      jumpi(tag_2, lt(calldatasize, 0x04))\n      shr(0xe0, calldataload(0x00))\n      dup1\n      0x4e987dbf\n      eq\n      tag_3\n      jumpi\n      dup1\n      0x6a5aa5ec\n      eq\n      tag_4\n      jumpi\n      dup1\n      0x6b590248\n      eq\n      tag_5\n      jumpi\n      dup1\n      0xa75a35a9\n      eq\n      tag_6\n      jumpi\n      dup1\n      0xcf504e0a\n      eq\n      tag_7\n      jumpi\n    tag_2:\n      revert(0x00, 0x00)\n        /* \"Activities/MathFunction.sol\":463:601  function setNumbers(uint8 _num1, uint8 _num2, uint8 _num3) public {... */\n    tag_3:\n      tag_8\n      0x04\n      dup1\n      calldatasize\n      sub\n      dup2\n      add\n      swap1\n      tag_9\n      swap2\n      swap1\n      tag_10\n      jump\t// in\n    tag_9:\n      tag_11\n      jump\t// in\n    tag_8:\n      stop\n        /* \"Activities/MathFunction.sol\":607:665  function setNum(int _num)public {... */\n    tag_4:\n      tag_12\n      0x04\n      dup1\n      calldatasize\n      sub\n      dup2\n      add\n      swap1\n      tag_13\n      swap2\n      swap1\n      tag_14\n      jump\t// in\n    tag_13:\n      tag_15\n      jump\t// in\n    tag_12:\n      stop\n        /* \"Activities/MathFunction.sol\":921:1372  function getDigit() public view returns (string memory){... */\n    tag_5:\n      tag_16\n      tag_17\n      jump\t// in\n    tag_16:\n      mload(0x40)\n      tag_18\n      swap2\n      swap1\n      tag_19\n      jump\t// in\n    tag_18:\n      mload(0x40)\n      dup1\n      swap2\n      sub\n      swap1\n      return\n        /* \"Activities/MathFunction.sol\":206:456  function getFindLargest() public view returns (uint8){... */\n    tag_6:\n      tag_20\n      tag_21\n      jump\t// in\n    tag_20:\n      mload(0x40)\n      tag_22\n      swap2\n      swap1\n      tag_23\n      jump\t// in\n    tag_22:\n      mload(0x40)\n      dup1\n      swap2\n      sub\n      swap1\n      return\n        /* \"Activities/MathFunction.sol\":671:915  function getSign() public view returns (string memory){... */\n    tag_7:\n      tag_24\n      tag_25\n      jump\t// in\n    tag_24:\n      mload(0x40)\n      tag_26\n      swap2\n      swap1\n      tag_19\n      jump\t// in\n    tag_26:\n      mload(0x40)\n      dup1\n      swap2\n      sub\n      swap1\n      return\n        /* \"Activities/MathFunction.sol\":463:601  function setNumbers(uint8 _num1, uint8 _num2, uint8 _num3) public {... */\n    tag_11:\n        /* \"Activities/MathFunction.sol\":546:551  _num1 */\n      dup3\n        /* \"Activities/MathFunction.sol\":539:543  num1 */\n      0x00\n      0x00\n        /* \"Activities/MathFunction.sol\":539:551  num1 = _num1 */\n      0x0100\n      exp\n      dup2\n      sload\n      dup2\n      0xff\n      mul\n      not\n      and\n      swap1\n      dup4\n      0xff\n      and\n      mul\n      or\n      swap1\n      sstore\n      pop\n        /* \"Activities/MathFunction.sol\":567:572  _num2 */\n      dup2\n        /* \"Activities/MathFunction.sol\":561:565  num2 */\n      0x00\n      0x01\n        /* \"Activities/MathFunction.sol\":561:572  num2 =_num2 */\n      0x0100\n      exp\n      dup2\n      sload\n      dup2\n      0xff\n      mul\n      not\n      and\n      swap1\n      dup4\n      0xff\n      and\n      mul\n      or\n      swap1\n      sstore\n      pop\n        /* \"Activities/MathFunction.sol\":589:594  _num3 */\n      dup1\n        /* \"Activities/MathFunction.sol\":582:586  num3 */\n      0x00\n      0x02\n        /* \"Activities/MathFunction.sol\":582:594  num3 = _num3 */\n      0x0100\n      exp\n      dup2\n      sload\n      dup2\n      0xff\n      mul\n      not\n      and\n      swap1\n      dup4\n      0xff\n      and\n      mul\n      or\n      swap1\n      sstore\n      pop\n        /* \"Activities/MathFunction.sol\":463:601  function setNumbers(uint8 _num1, uint8 _num2, uint8 _num3) public {... */\n      pop\n      pop\n      pop\n      jump\t// out\n        /* \"Activities/MathFunction.sol\":607:665  function setNum(int _num)public {... */\n    tag_15:\n        /* \"Activities/MathFunction.sol\":654:658  _num */\n      dup1\n        /* \"Activities/MathFunction.sol\":648:651  num */\n      0x01\n        /* \"Activities/MathFunction.sol\":648:658  num = _num */\n      dup2\n      swap1\n      sstore\n      pop\n        /* \"Activities/MathFunction.sol\":607:665  function setNum(int _num)public {... */\n      pop\n      jump\t// out\n        /* \"Activities/MathFunction.sol\":921:1372  function getDigit() public view returns (string memory){... */\n    tag_17:\n        /* \"Activities/MathFunction.sol\":962:975  string memory */\n      0x60\n        /* \"Activities/MathFunction.sol\":1005:1006  0 */\n      0x00\n        /* \"Activities/MathFunction.sol\":998:1001  num */\n      sload(0x01)\n        /* \"Activities/MathFunction.sol\":998:1006  num == 0 */\n      sub\n        /* \"Activities/MathFunction.sol\":995:1366  if(num == 0){... */\n      tag_30\n      jumpi\n        /* \"Activities/MathFunction.sol\":1021:1034  return \"zero\" */\n      mload(0x40)\n      dup1\n      0x40\n      add\n      0x40\n      mstore\n      dup1\n      0x04\n      dup2\n      mstore\n      0x20\n      add\n      0x7a65726f00000000000000000000000000000000000000000000000000000000\n      dup2\n      mstore\n      pop\n      swap1\n      pop\n      jump(tag_29)\n        /* \"Activities/MathFunction.sol\":995:1366  if(num == 0){... */\n    tag_30:\n        /* \"Activities/MathFunction.sol\":1069:1070  1 */\n      0x01\n        /* \"Activities/MathFunction.sol\":1062:1065  num */\n      dup1\n      sload\n        /* \"Activities/MathFunction.sol\":1062:1070  num == 1 */\n      sub\n        /* \"Activities/MathFunction.sol\":1059:1366  if(num == 1){... */\n      tag_32\n      jumpi\n        /* \"Activities/MathFunction.sol\":1085:1097  return \"one\" */\n      mload(0x40)\n      dup1\n      0x40\n      add\n      0x40\n      mstore\n      dup1\n      0x03\n      dup2\n      mstore\n      0x20\n      add\n      0x6f6e650000000000000000000000000000000000000000000000000000000000\n      dup2\n      mstore\n      pop\n      swap1\n      pop\n      jump(tag_29)\n        /* \"Activities/MathFunction.sol\":1059:1366  if(num == 1){... */\n    tag_32:\n        /* \"Activities/MathFunction.sol\":1133:1134  2 */\n      0x02\n        /* \"Activities/MathFunction.sol\":1126:1129  num */\n      sload(0x01)\n        /* \"Activities/MathFunction.sol\":1126:1134  num == 2 */\n      sub\n        /* \"Activities/MathFunction.sol\":1123:1366  if(num == 2){... */\n      tag_34\n      jumpi\n        /* \"Activities/MathFunction.sol\":1149:1161  return \"two\" */\n      mload(0x40)\n      dup1\n      0x40\n      add\n      0x40\n      mstore\n      dup1\n      0x03\n      dup2\n      mstore\n      0x20\n      add\n      0x74776f0000000000000000000000000000000000000000000000000000000000\n      dup2\n      mstore\n      pop\n      swap1\n      pop\n      jump(tag_29)\n        /* \"Activities/MathFunction.sol\":1123:1366  if(num == 2){... */\n    tag_34:\n        /* \"Activities/MathFunction.sol\":1198:1199  3 */\n      0x03\n        /* \"Activities/MathFunction.sol\":1191:1194  num */\n      sload(0x01)\n        /* \"Activities/MathFunction.sol\":1191:1199  num == 3 */\n      sub\n        /* \"Activities/MathFunction.sol\":1188:1366  if(num == 3){... */\n      tag_36\n      jumpi\n        /* \"Activities/MathFunction.sol\":1214:1228  return \"three\" */\n      mload(0x40)\n      dup1\n      0x40\n      add\n      0x40\n      mstore\n      dup1\n      0x05\n      dup2\n      mstore\n      0x20\n      add\n      0x7468726565000000000000000000000000000000000000000000000000000000\n      dup2\n      mstore\n      pop\n      swap1\n      pop\n      jump(tag_29)\n        /* \"Activities/MathFunction.sol\":1188:1366  if(num == 3){... */\n    tag_36:\n        /* \"Activities/MathFunction.sol\":1265:1266  4 */\n      0x04\n        /* \"Activities/MathFunction.sol\":1258:1261  num */\n      sload(0x01)\n        /* \"Activities/MathFunction.sol\":1258:1266  num == 4 */\n      sub\n        /* \"Activities/MathFunction.sol\":1255:1366  if(num == 4){... */\n      tag_38\n      jumpi\n        /* \"Activities/MathFunction.sol\":1281:1294  return \"four\" */\n      mload(0x40)\n      dup1\n      0x40\n      add\n      0x40\n      mstore\n      dup1\n      0x04\n      dup2\n      mstore\n      0x20\n      add\n      0x666f757200000000000000000000000000000000000000000000000000000000\n      dup2\n      mstore\n      pop\n      swap1\n      pop\n      jump(tag_29)\n        /* \"Activities/MathFunction.sol\":1255:1366  if(num == 4){... */\n    tag_38:\n        /* \"Activities/MathFunction.sol\":1333:1355  return \"Invalid input\" */\n      mload(0x40)\n      dup1\n      0x40\n      add\n      0x40\n      mstore\n      dup1\n      0x0d\n      dup2\n      mstore\n      0x20\n      add\n      0x496e76616c696420696e70757400000000000000000000000000000000000000\n      dup2\n      mstore\n      pop\n      swap1\n      pop\n        /* \"Activities/MathFunction.sol\":921:1372  function getDigit() public view returns (string memory){... */\n    tag_29:\n      swap1\n      jump\t// out\n        /* \"Activities/MathFunction.sol\":206:456  function getFindLargest() public view returns (uint8){... */\n    tag_21:\n        /* \"Activities/MathFunction.sol\":253:258  uint8 */\n      0x00\n        /* \"Activities/MathFunction.sol\":277:281  num2 */\n      0x00\n      0x01\n      swap1\n      sload\n      swap1\n      0x0100\n      exp\n      swap1\n      div\n      0xff\n      and\n        /* \"Activities/MathFunction.sol\":272:281  num1>num2 */\n      0xff\n      and\n        /* \"Activities/MathFunction.sol\":272:276  num1 */\n      0x00\n      0x00\n      swap1\n      sload\n      swap1\n      0x0100\n      exp\n      swap1\n      div\n      0xff\n      and\n        /* \"Activities/MathFunction.sol\":272:281  num1>num2 */\n      0xff\n      and\n      gt\n        /* \"Activities/MathFunction.sol\":272:294  num1>num2 && num1>num2 */\n      dup1\n      iszero\n      tag_41\n      jumpi\n      pop\n        /* \"Activities/MathFunction.sol\":290:294  num2 */\n      0x00\n      0x01\n      swap1\n      sload\n      swap1\n      0x0100\n      exp\n      swap1\n      div\n      0xff\n      and\n        /* \"Activities/MathFunction.sol\":285:294  num1>num2 */\n      0xff\n      and\n        /* \"Activities/MathFunction.sol\":285:289  num1 */\n      0x00\n      0x00\n      swap1\n      sload\n      swap1\n      0x0100\n      exp\n      swap1\n      div\n      0xff\n      and\n        /* \"Activities/MathFunction.sol\":285:294  num1>num2 */\n      0xff\n      and\n      gt\n        /* \"Activities/MathFunction.sol\":272:294  num1>num2 && num1>num2 */\n    tag_41:\n        /* \"Activities/MathFunction.sol\":269:450  if(num1>num2 && num1>num2){... */\n      iszero\n      tag_42\n      jumpi\n        /* \"Activities/MathFunction.sol\":316:320  num1 */\n      0x00\n      0x00\n      swap1\n      sload\n      swap1\n      0x0100\n      exp\n      swap1\n      div\n      0xff\n      and\n        /* \"Activities/MathFunction.sol\":309:320  return num1 */\n      swap1\n      pop\n      jump(tag_40)\n        /* \"Activities/MathFunction.sol\":269:450  if(num1>num2 && num1>num2){... */\n    tag_42:\n        /* \"Activities/MathFunction.sol\":354:358  num3 */\n      0x00\n      0x02\n      swap1\n      sload\n      swap1\n      0x0100\n      exp\n      swap1\n      div\n      0xff\n      and\n        /* \"Activities/MathFunction.sol\":349:358  num1>num3 */\n      0xff\n      and\n        /* \"Activities/MathFunction.sol\":349:353  num1 */\n      0x00\n      0x00\n      swap1\n      sload\n      swap1\n      0x0100\n      exp\n      swap1\n      div\n      0xff\n      and\n        /* \"Activities/MathFunction.sol\":349:358  num1>num3 */\n      0xff\n      and\n      gt\n        /* \"Activities/MathFunction.sol\":349:371  num1>num3 && num2>num3 */\n      dup1\n      iszero\n      tag_44\n      jumpi\n      pop\n        /* \"Activities/MathFunction.sol\":367:371  num3 */\n      0x00\n      0x02\n      swap1\n      sload\n      swap1\n      0x0100\n      exp\n      swap1\n      div\n      0xff\n      and\n        /* \"Activities/MathFunction.sol\":362:371  num2>num3 */\n      0xff\n      and\n        /* \"Activities/MathFunction.sol\":362:366  num2 */\n      0x00\n      0x01\n      swap1\n      sload\n      swap1\n      0x0100\n      exp\n      swap1\n      div\n      0xff\n      and\n        /* \"Activities/MathFunction.sol\":362:371  num2>num3 */\n      0xff\n      and\n      gt\n        /* \"Activities/MathFunction.sol\":349:371  num1>num3 && num2>num3 */\n    tag_44:\n        /* \"Activities/MathFunction.sol\":345:450  if (num1>num3 && num2>num3 ){... */\n      iszero\n      tag_45\n      jumpi\n        /* \"Activities/MathFunction.sol\":394:398  num2 */\n      0x00\n      0x01\n      swap1\n      sload\n      swap1\n      0x0100\n      exp\n      swap1\n      div\n      0xff\n      and\n        /* \"Activities/MathFunction.sol\":387:398  return num2 */\n      swap1\n      pop\n      jump(tag_40)\n        /* \"Activities/MathFunction.sol\":345:450  if (num1>num3 && num2>num3 ){... */\n    tag_45:\n        /* \"Activities/MathFunction.sol\":435:439  num3 */\n      0x00\n      0x02\n      swap1\n      sload\n      swap1\n      0x0100\n      exp\n      swap1\n      div\n      0xff\n      and\n        /* \"Activities/MathFunction.sol\":428:439  return num3 */\n      swap1\n      pop\n        /* \"Activities/MathFunction.sol\":206:456  function getFindLargest() public view returns (uint8){... */\n    tag_40:\n      swap1\n      jump\t// out\n        /* \"Activities/MathFunction.sol\":671:915  function getSign() public view returns (string memory){... */\n    tag_25:\n        /* \"Activities/MathFunction.sol\":711:724  string memory */\n      0x60\n        /* \"Activities/MathFunction.sol\":745:746  0 */\n      0x00\n        /* \"Activities/MathFunction.sol\":738:741  num */\n      sload(0x01)\n        /* \"Activities/MathFunction.sol\":738:746  num == 0 */\n      sub\n        /* \"Activities/MathFunction.sol\":735:909  if(num == 0){... */\n      tag_48\n      jumpi\n        /* \"Activities/MathFunction.sol\":761:774  return \"zero\" */\n      mload(0x40)\n      dup1\n      0x40\n      add\n      0x40\n      mstore\n      dup1\n      0x04\n      dup2\n      mstore\n      0x20\n      add\n      0x7a65726f00000000000000000000000000000000000000000000000000000000\n      dup2\n      mstore\n      pop\n      swap1\n      pop\n      jump(tag_47)\n        /* \"Activities/MathFunction.sol\":735:909  if(num == 0){... */\n    tag_48:\n        /* \"Activities/MathFunction.sol\":809:810  0 */\n      0x00\n        /* \"Activities/MathFunction.sol\":802:805  num */\n      sload(0x01)\n        /* \"Activities/MathFunction.sol\":802:810  num >= 0 */\n      slt\n        /* \"Activities/MathFunction.sol\":799:909  if(num >= 0){... */\n      tag_50\n      jumpi\n        /* \"Activities/MathFunction.sol\":825:842  return \"positive\" */\n      mload(0x40)\n      dup1\n      0x40\n      add\n      0x40\n      mstore\n      dup1\n      0x08\n      dup2\n      mstore\n      0x20\n      add\n      0x706f736974697665000000000000000000000000000000000000000000000000\n      dup2\n      mstore\n      pop\n      swap1\n      pop\n      jump(tag_47)\n        /* \"Activities/MathFunction.sol\":799:909  if(num >= 0){... */\n    tag_50:\n        /* \"Activities/MathFunction.sol\":881:898  return \"negative\" */\n      mload(0x40)\n      dup1\n      0x40\n      add\n      0x40\n      mstore\n      dup1\n      0x08\n      dup2\n      mstore\n      0x20\n      add\n      0x6e65676174697665000000000000000000000000000000000000000000000000\n      dup2\n      mstore\n      pop\n      swap1\n      pop\n        /* \"Activities/MathFunction.sol\":671:915  function getSign() public view returns (string memory){... */\n    tag_47:\n      swap1\n      jump\t// out\n        /* \"#utility.yul\":88:205   */\n    tag_53:\n        /* \"#utility.yul\":197:198   */\n      0x00\n        /* \"#utility.yul\":194:195   */\n      0x00\n        /* \"#utility.yul\":187:199   */\n      revert\n        /* \"#utility.yul\":334:420   */\n    tag_55:\n        /* \"#utility.yul\":369:376   */\n      0x00\n        /* \"#utility.yul\":409:413   */\n      0xff\n        /* \"#utility.yul\":402:407   */\n      dup3\n        /* \"#utility.yul\":398:414   */\n      and\n        /* \"#utility.yul\":387:414   */\n      swap1\n      pop\n        /* \"#utility.yul\":334:420   */\n      swap2\n      swap1\n      pop\n      jump\t// out\n        /* \"#utility.yul\":426:544   */\n    tag_56:\n        /* \"#utility.yul\":497:519   */\n      tag_73\n        /* \"#utility.yul\":513:518   */\n      dup2\n        /* \"#utility.yul\":497:519   */\n      tag_55\n      jump\t// in\n    tag_73:\n        /* \"#utility.yul\":490:495   */\n      dup2\n        /* \"#utility.yul\":487:520   */\n      eq\n        /* \"#utility.yul\":477:538   */\n      tag_74\n      jumpi\n        /* \"#utility.yul\":534:535   */\n      0x00\n        /* \"#utility.yul\":531:532   */\n      0x00\n        /* \"#utility.yul\":524:536   */\n      revert\n        /* \"#utility.yul\":477:538   */\n    tag_74:\n        /* \"#utility.yul\":426:544   */\n      pop\n      jump\t// out\n        /* \"#utility.yul\":550:685   */\n    tag_57:\n        /* \"#utility.yul\":594:599   */\n      0x00\n        /* \"#utility.yul\":632:638   */\n      dup2\n        /* \"#utility.yul\":619:639   */\n      calldataload\n        /* \"#utility.yul\":610:639   */\n      swap1\n      pop\n        /* \"#utility.yul\":648:679   */\n      tag_76\n        /* \"#utility.yul\":673:678   */\n      dup2\n        /* \"#utility.yul\":648:679   */\n      tag_56\n      jump\t// in\n    tag_76:\n        /* \"#utility.yul\":550:685   */\n      swap3\n      swap2\n      pop\n      pop\n      jump\t// out\n        /* \"#utility.yul\":691:1298   */\n    tag_10:\n        /* \"#utility.yul\":762:768   */\n      0x00\n        /* \"#utility.yul\":770:776   */\n      0x00\n        /* \"#utility.yul\":778:784   */\n      0x00\n        /* \"#utility.yul\":827:829   */\n      0x60\n        /* \"#utility.yul\":815:824   */\n      dup5\n        /* \"#utility.yul\":806:813   */\n      dup7\n        /* \"#utility.yul\":802:825   */\n      sub\n        /* \"#utility.yul\":798:830   */\n      slt\n        /* \"#utility.yul\":795:914   */\n      iszero\n      tag_78\n      jumpi\n        /* \"#utility.yul\":833:912   */\n      tag_79\n      tag_53\n      jump\t// in\n    tag_79:\n        /* \"#utility.yul\":795:914   */\n    tag_78:\n        /* \"#utility.yul\":953:954   */\n      0x00\n        /* \"#utility.yul\":978:1029   */\n      tag_80\n        /* \"#utility.yul\":1021:1028   */\n      dup7\n        /* \"#utility.yul\":1012:1018   */\n      dup3\n        /* \"#utility.yul\":1001:1010   */\n      dup8\n        /* \"#utility.yul\":997:1019   */\n      add\n        /* \"#utility.yul\":978:1029   */\n      tag_57\n      jump\t// in\n    tag_80:\n        /* \"#utility.yul\":968:1029   */\n      swap4\n      pop\n        /* \"#utility.yul\":924:1039   */\n      pop\n        /* \"#utility.yul\":1078:1080   */\n      0x20\n        /* \"#utility.yul\":1104:1155   */\n      tag_81\n        /* \"#utility.yul\":1147:1154   */\n      dup7\n        /* \"#utility.yul\":1138:1144   */\n      dup3\n        /* \"#utility.yul\":1127:1136   */\n      dup8\n        /* \"#utility.yul\":1123:1145   */\n      add\n        /* \"#utility.yul\":1104:1155   */\n      tag_57\n      jump\t// in\n    tag_81:\n        /* \"#utility.yul\":1094:1155   */\n      swap3\n      pop\n        /* \"#utility.yul\":1049:1165   */\n      pop\n        /* \"#utility.yul\":1204:1206   */\n      0x40\n        /* \"#utility.yul\":1230:1281   */\n      tag_82\n        /* \"#utility.yul\":1273:1280   */\n      dup7\n        /* \"#utility.yul\":1264:1270   */\n      dup3\n        /* \"#utility.yul\":1253:1262   */\n      dup8\n        /* \"#utility.yul\":1249:1271   */\n      add\n        /* \"#utility.yul\":1230:1281   */\n      tag_57\n      jump\t// in\n    tag_82:\n        /* \"#utility.yul\":1220:1281   */\n      swap2\n      pop\n        /* \"#utility.yul\":1175:1291   */\n      pop\n        /* \"#utility.yul\":691:1298   */\n      swap3\n      pop\n      swap3\n      pop\n      swap3\n      jump\t// out\n        /* \"#utility.yul\":1304:1380   */\n    tag_58:\n        /* \"#utility.yul\":1340:1347   */\n      0x00\n        /* \"#utility.yul\":1369:1374   */\n      dup2\n        /* \"#utility.yul\":1358:1374   */\n      swap1\n      pop\n        /* \"#utility.yul\":1304:1380   */\n      swap2\n      swap1\n      pop\n      jump\t// out\n        /* \"#utility.yul\":1386:1506   */\n    tag_59:\n        /* \"#utility.yul\":1458:1481   */\n      tag_85\n        /* \"#utility.yul\":1475:1480   */\n      dup2\n        /* \"#utility.yul\":1458:1481   */\n      tag_58\n      jump\t// in\n    tag_85:\n        /* \"#utility.yul\":1451:1456   */\n      dup2\n        /* \"#utility.yul\":1448:1482   */\n      eq\n        /* \"#utility.yul\":1438:1500   */\n      tag_86\n      jumpi\n        /* \"#utility.yul\":1496:1497   */\n      0x00\n        /* \"#utility.yul\":1493:1494   */\n      0x00\n        /* \"#utility.yul\":1486:1498   */\n      revert\n        /* \"#utility.yul\":1438:1500   */\n    tag_86:\n        /* \"#utility.yul\":1386:1506   */\n      pop\n      jump\t// out\n        /* \"#utility.yul\":1512:1649   */\n    tag_60:\n        /* \"#utility.yul\":1557:1562   */\n      0x00\n        /* \"#utility.yul\":1595:1601   */\n      dup2\n        /* \"#utility.yul\":1582:1602   */\n      calldataload\n        /* \"#utility.yul\":1573:1602   */\n      swap1\n      pop\n        /* \"#utility.yul\":1611:1643   */\n      tag_88\n        /* \"#utility.yul\":1637:1642   */\n      dup2\n        /* \"#utility.yul\":1611:1643   */\n      tag_59\n      jump\t// in\n    tag_88:\n        /* \"#utility.yul\":1512:1649   */\n      swap3\n      swap2\n      pop\n      pop\n      jump\t// out\n        /* \"#utility.yul\":1655:1982   */\n    tag_14:\n        /* \"#utility.yul\":1713:1719   */\n      0x00\n        /* \"#utility.yul\":1762:1764   */\n      0x20\n        /* \"#utility.yul\":1750:1759   */\n      dup3\n        /* \"#utility.yul\":1741:1748   */\n      dup5\n        /* \"#utility.yul\":1737:1760   */\n      sub\n        /* \"#utility.yul\":1733:1765   */\n      slt\n        /* \"#utility.yul\":1730:1849   */\n      iszero\n      tag_90\n      jumpi\n        /* \"#utility.yul\":1768:1847   */\n      tag_91\n      tag_53\n      jump\t// in\n    tag_91:\n        /* \"#utility.yul\":1730:1849   */\n    tag_90:\n        /* \"#utility.yul\":1888:1889   */\n      0x00\n        /* \"#utility.yul\":1913:1965   */\n      tag_92\n        /* \"#utility.yul\":1957:1964   */\n      dup5\n        /* \"#utility.yul\":1948:1954   */\n      dup3\n        /* \"#utility.yul\":1937:1946   */\n      dup6\n        /* \"#utility.yul\":1933:1955   */\n      add\n        /* \"#utility.yul\":1913:1965   */\n      tag_60\n      jump\t// in\n    tag_92:\n        /* \"#utility.yul\":1903:1965   */\n      swap2\n      pop\n        /* \"#utility.yul\":1859:1975   */\n      pop\n        /* \"#utility.yul\":1655:1982   */\n      swap3\n      swap2\n      pop\n      pop\n      jump\t// out\n        /* \"#utility.yul\":1988:2087   */\n    tag_61:\n        /* \"#utility.yul\":2040:2046   */\n      0x00\n        /* \"#utility.yul\":2074:2079   */\n      dup2\n        /* \"#utility.yul\":2068:2080   */\n      mload\n        /* \"#utility.yul\":2058:2080   */\n      swap1\n      pop\n        /* \"#utility.yul\":1988:2087   */\n      swap2\n      swap1\n      pop\n      jump\t// out\n        /* \"#utility.yul\":2093:2262   */\n    tag_62:\n        /* \"#utility.yul\":2177:2188   */\n      0x00\n        /* \"#utility.yul\":2211:2217   */\n      dup3\n        /* \"#utility.yul\":2206:2209   */\n      dup3\n        /* \"#utility.yul\":2199:2218   */\n      mstore\n        /* \"#utility.yul\":2251:2255   */\n      0x20\n        /* \"#utility.yul\":2246:2249   */\n      dup3\n        /* \"#utility.yul\":2242:2256   */\n      add\n        /* \"#utility.yul\":2227:2256   */\n      swap1\n      pop\n        /* \"#utility.yul\":2093:2262   */\n      swap3\n      swap2\n      pop\n      pop\n      jump\t// out\n        /* \"#utility.yul\":2268:2407   */\n    tag_63:\n        /* \"#utility.yul\":2357:2363   */\n      dup3\n        /* \"#utility.yul\":2352:2355   */\n      dup2\n        /* \"#utility.yul\":2347:2350   */\n      dup4\n        /* \"#utility.yul\":2341:2364   */\n      mcopy\n        /* \"#utility.yul\":2398:2399   */\n      0x00\n        /* \"#utility.yul\":2389:2395   */\n      dup4\n        /* \"#utility.yul\":2384:2387   */\n      dup4\n        /* \"#utility.yul\":2380:2396   */\n      add\n        /* \"#utility.yul\":2373:2400   */\n      mstore\n        /* \"#utility.yul\":2268:2407   */\n      pop\n      pop\n      pop\n      jump\t// out\n        /* \"#utility.yul\":2413:2515   */\n    tag_64:\n        /* \"#utility.yul\":2454:2460   */\n      0x00\n        /* \"#utility.yul\":2505:2507   */\n      0x1f\n        /* \"#utility.yul\":2501:2508   */\n      not\n        /* \"#utility.yul\":2496:2498   */\n      0x1f\n        /* \"#utility.yul\":2489:2494   */\n      dup4\n        /* \"#utility.yul\":2485:2499   */\n      add\n        /* \"#utility.yul\":2481:2509   */\n      and\n        /* \"#utility.yul\":2471:2509   */\n      swap1\n      pop\n        /* \"#utility.yul\":2413:2515   */\n      swap2\n      swap1\n      pop\n      jump\t// out\n        /* \"#utility.yul\":2521:2898   */\n    tag_65:\n        /* \"#utility.yul\":2609:2612   */\n      0x00\n        /* \"#utility.yul\":2637:2676   */\n      tag_98\n        /* \"#utility.yul\":2670:2675   */\n      dup3\n        /* \"#utility.yul\":2637:2676   */\n      tag_61\n      jump\t// in\n    tag_98:\n        /* \"#utility.yul\":2692:2763   */\n      tag_99\n        /* \"#utility.yul\":2756:2762   */\n      dup2\n        /* \"#utility.yul\":2751:2754   */\n      dup6\n        /* \"#utility.yul\":2692:2763   */\n      tag_62\n      jump\t// in\n    tag_99:\n        /* \"#utility.yul\":2685:2763   */\n      swap4\n      pop\n        /* \"#utility.yul\":2772:2837   */\n      tag_100\n        /* \"#utility.yul\":2830:2836   */\n      dup2\n        /* \"#utility.yul\":2825:2828   */\n      dup6\n        /* \"#utility.yul\":2818:2822   */\n      0x20\n        /* \"#utility.yul\":2811:2816   */\n      dup7\n        /* \"#utility.yul\":2807:2823   */\n      add\n        /* \"#utility.yul\":2772:2837   */\n      tag_63\n      jump\t// in\n    tag_100:\n        /* \"#utility.yul\":2862:2891   */\n      tag_101\n        /* \"#utility.yul\":2884:2890   */\n      dup2\n        /* \"#utility.yul\":2862:2891   */\n      tag_64\n      jump\t// in\n    tag_101:\n        /* \"#utility.yul\":2857:2860   */\n      dup5\n        /* \"#utility.yul\":2853:2892   */\n      add\n        /* \"#utility.yul\":2846:2892   */\n      swap2\n      pop\n        /* \"#utility.yul\":2613:2898   */\n      pop\n        /* \"#utility.yul\":2521:2898   */\n      swap3\n      swap2\n      pop\n      pop\n      jump\t// out\n        /* \"#utility.yul\":2904:3217   */\n    tag_19:\n        /* \"#utility.yul\":3017:3021   */\n      0x00\n        /* \"#utility.yul\":3055:3057   */\n      0x20\n        /* \"#utility.yul\":3044:3053   */\n      dup3\n        /* \"#utility.yul\":3040:3058   */\n      add\n        /* \"#utility.yul\":3032:3058   */\n      swap1\n      pop\n        /* \"#utility.yul\":3104:3113   */\n      dup2\n        /* \"#utility.yul\":3098:3102   */\n      dup2\n        /* \"#utility.yul\":3094:3114   */\n      sub\n        /* \"#utility.yul\":3090:3091   */\n      0x00\n        /* \"#utility.yul\":3079:3088   */\n      dup4\n        /* \"#utility.yul\":3075:3092   */\n      add\n        /* \"#utility.yul\":3068:3115   */\n      mstore\n        /* \"#utility.yul\":3132:3210   */\n      tag_103\n        /* \"#utility.yul\":3205:3209   */\n      dup2\n        /* \"#utility.yul\":3196:3202   */\n      dup5\n        /* \"#utility.yul\":3132:3210   */\n      tag_65\n      jump\t// in\n    tag_103:\n        /* \"#utility.yul\":3124:3210   */\n      swap1\n      pop\n        /* \"#utility.yul\":2904:3217   */\n      swap3\n      swap2\n      pop\n      pop\n      jump\t// out\n        /* \"#utility.yul\":3223:3335   */\n    tag_66:\n        /* \"#utility.yul\":3306:3328   */\n      tag_105\n        /* \"#utility.yul\":3322:3327   */\n      dup2\n        /* \"#utility.yul\":3306:3328   */\n      tag_55\n      jump\t// in\n    tag_105:\n        /* \"#utility.yul\":3301:3304   */\n      dup3\n        /* \"#utility.yul\":3294:3329   */\n      mstore\n        /* \"#utility.yul\":3223:3335   */\n      pop\n      pop\n      jump\t// out\n        /* \"#utility.yul\":3341:3555   */\n    tag_23:\n        /* \"#utility.yul\":3430:3434   */\n      0x00\n        /* \"#utility.yul\":3468:3470   */\n      0x20\n        /* \"#utility.yul\":3457:3466   */\n      dup3\n        /* \"#utility.yul\":3453:3471   */\n      add\n        /* \"#utility.yul\":3445:3471   */\n      swap1\n      pop\n        /* \"#utility.yul\":3481:3548   */\n      tag_107\n        /* \"#utility.yul\":3545:3546   */\n      0x00\n        /* \"#utility.yul\":3534:3543   */\n      dup4\n        /* \"#utility.yul\":3530:3547   */\n      add\n        /* \"#utility.yul\":3521:3527   */\n      dup5\n        /* \"#utility.yul\":3481:3548   */\n      tag_66\n      jump\t// in\n    tag_107:\n        /* \"#utility.yul\":3341:3555   */\n      swap3\n      swap2\n      pop\n      pop\n      jump\t// out\n\n    auxdata: 0xa2646970667358221220454a9a1e15f2fffde46905fc96f0dc83339b980a366f5b69de1fe2dec9fc144064736f6c634300081c0033\n}\n",
				"bytecode": {
					"linkReferences": {},
					"object": "6080604052348015600e575f5ffd5b506106728061001c5f395ff3fe608060405234801561000f575f5ffd5b5060043610610055575f3560e01c80634e987dbf146100595780636a5aa5ec146100755780636b59024814610091578063a75a35a9146100af578063cf504e0a146100cd575b5f5ffd5b610073600480360381019061006e91906104d6565b6100eb565b005b61008f600480360381019061008a9190610559565b61013d565b005b610099610147565b6040516100a691906105f4565b60405180910390f35b6100b76102e6565b6040516100c49190610623565b60405180910390f35b6100d56103d2565b6040516100e291906105f4565b60405180910390f35b825f5f6101000a81548160ff021916908360ff160217905550815f60016101000a81548160ff021916908360ff160217905550805f60026101000a81548160ff021916908360ff160217905550505050565b8060018190555050565b60605f6001540361018f576040518060400160405280600481526020017f7a65726f0000000000000000000000000000000000000000000000000000000081525090506102e3565b60018054036101d5576040518060400160405280600381526020017f6f6e65000000000000000000000000000000000000000000000000000000000081525090506102e3565b60026001540361021c576040518060400160405280600381526020017f74776f000000000000000000000000000000000000000000000000000000000081525090506102e3565b600360015403610263576040518060400160405280600581526020017f746872656500000000000000000000000000000000000000000000000000000081525090506102e3565b6004600154036102aa576040518060400160405280600481526020017f666f75720000000000000000000000000000000000000000000000000000000081525090506102e3565b6040518060400160405280600d81526020017f496e76616c696420696e7075740000000000000000000000000000000000000081525090505b90565b5f5f60019054906101000a900460ff1660ff165f5f9054906101000a900460ff1660ff1611801561033757505f60019054906101000a900460ff1660ff165f5f9054906101000a900460ff1660ff16115b15610351575f5f9054906101000a900460ff1690506103cf565b5f60029054906101000a900460ff1660ff165f5f9054906101000a900460ff1660ff161180156103a257505f60029054906101000a900460ff1660ff165f60019054906101000a900460ff1660ff16115b156103bd575f60019054906101000a900460ff1690506103cf565b5f60029054906101000a900460ff1690505b90565b60605f6001540361041a576040518060400160405280600481526020017f7a65726f000000000000000000000000000000000000000000000000000000008152509050610499565b5f60015412610460576040518060400160405280600881526020017f706f7369746976650000000000000000000000000000000000000000000000008152509050610499565b6040518060400160405280600881526020017f6e6567617469766500000000000000000000000000000000000000000000000081525090505b90565b5f5ffd5b5f60ff82169050919050565b6104b5816104a0565b81146104bf575f5ffd5b50565b5f813590506104d0816104ac565b92915050565b5f5f5f606084860312156104ed576104ec61049c565b5b5f6104fa868287016104c2565b935050602061050b868287016104c2565b925050604061051c868287016104c2565b9150509250925092565b5f819050919050565b61053881610526565b8114610542575f5ffd5b50565b5f813590506105538161052f565b92915050565b5f6020828403121561056e5761056d61049c565b5b5f61057b84828501610545565b91505092915050565b5f81519050919050565b5f82825260208201905092915050565b8281835e5f83830152505050565b5f601f19601f8301169050919050565b5f6105c682610584565b6105d0818561058e565b93506105e081856020860161059e565b6105e9816105ac565b840191505092915050565b5f6020820190508181035f83015261060c81846105bc565b905092915050565b61061d816104a0565b82525050565b5f6020820190506106365f830184610614565b9291505056fea2646970667358221220454a9a1e15f2fffde46905fc96f0dc83339b980a366f5b69de1fe2dec9fc144064736f6c634300081c0033",
					"opcodes": "PUSH1 0x80 PUSH1 0x40 MSTORE CALLVALUE DUP1 ISZERO PUSH1 0xE JUMPI PUSH0 PUSH0 REVERT JUMPDEST POP PUSH2 0x672 DUP1 PUSH2 0x1C PUSH0 CODECOPY PUSH0 RETURN INVALID PUSH1 0x80 PUSH1 0x40 MSTORE CALLVALUE DUP1 ISZERO PUSH2 0xF JUMPI PUSH0 PUSH0 REVERT JUMPDEST POP PUSH1 0x4 CALLDATASIZE LT PUSH2 0x55 JUMPI PUSH0 CALLDATALOAD PUSH1 0xE0 SHR DUP1 PUSH4 0x4E987DBF EQ PUSH2 0x59 JUMPI DUP1 PUSH4 0x6A5AA5EC EQ PUSH2 0x75 JUMPI DUP1 PUSH4 0x6B590248 EQ PUSH2 0x91 JUMPI DUP1 PUSH4 0xA75A35A9 EQ PUSH2 0xAF JUMPI DUP1 PUSH4 0xCF504E0A EQ PUSH2 0xCD JUMPI JUMPDEST PUSH0 PUSH0 REVERT JUMPDEST PUSH2 0x73 PUSH1 0x4 DUP1 CALLDATASIZE SUB DUP2 ADD SWAP1 PUSH2 0x6E SWAP2 SWAP1 PUSH2 0x4D6 JUMP JUMPDEST PUSH2 0xEB JUMP JUMPDEST STOP JUMPDEST PUSH2 0x8F PUSH1 0x4 DUP1 CALLDATASIZE SUB DUP2 ADD SWAP1 PUSH2 0x8A SWAP2 SWAP1 PUSH2 0x559 JUMP JUMPDEST PUSH2 0x13D JUMP JUMPDEST STOP JUMPDEST PUSH2 0x99 PUSH2 0x147 JUMP JUMPDEST PUSH1 0x40 MLOAD PUSH2 0xA6 SWAP2 SWAP1 PUSH2 0x5F4 JUMP JUMPDEST PUSH1 0x40 MLOAD DUP1 SWAP2 SUB SWAP1 RETURN JUMPDEST PUSH2 0xB7 PUSH2 0x2E6 JUMP JUMPDEST PUSH1 0x40 MLOAD PUSH2 0xC4 SWAP2 SWAP1 PUSH2 0x623 JUMP JUMPDEST PUSH1 0x40 MLOAD DUP1 SWAP2 SUB SWAP1 RETURN JUMPDEST PUSH2 0xD5 PUSH2 0x3D2 JUMP JUMPDEST PUSH1 0x40 MLOAD PUSH2 0xE2 SWAP2 SWAP1 PUSH2 0x5F4 JUMP JUMPDEST PUSH1 0x40 MLOAD DUP1 SWAP2 SUB SWAP1 RETURN JUMPDEST DUP3 PUSH0 PUSH0 PUSH2 0x100 EXP DUP2 SLOAD DUP2 PUSH1 0xFF MUL NOT AND SWAP1 DUP4 PUSH1 0xFF AND MUL OR SWAP1 SSTORE POP DUP2 PUSH0 PUSH1 0x1 PUSH2 0x100 EXP DUP2 SLOAD DUP2 PUSH1 0xFF MUL NOT AND SWAP1 DUP4 PUSH1 0xFF AND MUL OR SWAP1 SSTORE POP DUP1 PUSH0 PUSH1 0x2 PUSH2 0x100 EXP DUP2 SLOAD DUP2 PUSH1 0xFF MUL NOT AND SWAP1 DUP4 PUSH1 0xFF AND MUL OR SWAP1 SSTORE POP POP POP POP JUMP JUMPDEST DUP1 PUSH1 0x1 DUP2 SWAP1 SSTORE POP POP JUMP JUMPDEST PUSH1 0x60 PUSH0 PUSH1 0x1 SLOAD SUB PUSH2 0x18F JUMPI PUSH1 0x40 MLOAD DUP1 PUSH1 0x40 ADD PUSH1 0x40 MSTORE DUP1 PUSH1 0x4 DUP2 MSTORE PUSH1 0x20 ADD PUSH32 0x7A65726F00000000000000000000000000000000000000000000000000000000 DUP2 MSTORE POP SWAP1 POP PUSH2 0x2E3 JUMP JUMPDEST PUSH1 0x1 DUP1 SLOAD SUB PUSH2 0x1D5 JUMPI PUSH1 0x40 MLOAD DUP1 PUSH1 0x40 ADD PUSH1 0x40 MSTORE DUP1 PUSH1 0x3 DUP2 MSTORE PUSH1 0x20 ADD PUSH32 0x6F6E650000000000000000000000000000000000000000000000000000000000 DUP2 MSTORE POP SWAP1 POP PUSH2 0x2E3 JUMP JUMPDEST PUSH1 0x2 PUSH1 0x1 SLOAD SUB PUSH2 0x21C JUMPI PUSH1 0x40 MLOAD DUP1 PUSH1 0x40 ADD PUSH1 0x40 MSTORE DUP1 PUSH1 0x3 DUP2 MSTORE PUSH1 0x20 ADD PUSH32 0x74776F0000000000000000000000000000000000000000000000000000000000 DUP2 MSTORE POP SWAP1 POP PUSH2 0x2E3 JUMP JUMPDEST PUSH1 0x3 PUSH1 0x1 SLOAD SUB PUSH2 0x263 JUMPI PUSH1 0x40 MLOAD DUP1 PUSH1 0x40 ADD PUSH1 0x40 MSTORE DUP1 PUSH1 0x5 DUP2 MSTORE PUSH1 0x20 ADD PUSH32 0x7468726565000000000000000000000000000000000000000000000000000000 DUP2 MSTORE POP SWAP1 POP PUSH2 0x2E3 JUMP JUMPDEST PUSH1 0x4 PUSH1 0x1 SLOAD SUB PUSH2 0x2AA JUMPI PUSH1 0x40 MLOAD DUP1 PUSH1 0x40 ADD PUSH1 0x40 MSTORE DUP1 PUSH1 0x4 DUP2 MSTORE PUSH1 0x20 ADD PUSH32 0x666F757200000000000000000000000000000000000000000000000000000000 DUP2 MSTORE POP SWAP1 POP PUSH2 0x2E3 JUMP JUMPDEST PUSH1 0x40 MLOAD DUP1 PUSH1 0x40 ADD PUSH1 0x40 MSTORE DUP1 PUSH1 0xD DUP2 MSTORE PUSH1 0x20 ADD PUSH32 0x496E76616C696420696E70757400000000000000000000000000000000000000 DUP2 MSTORE POP SWAP1 POP JUMPDEST SWAP1 JUMP JUMPDEST PUSH0 PUSH0 PUSH1 0x1 SWAP1 SLOAD SWAP1 PUSH2 0x100 EXP SWAP1 DIV PUSH1 0xFF AND PUSH1 0xFF AND PUSH0 PUSH0 SWAP1 SLOAD SWAP1 PUSH2 0x100 EXP SWAP1 DIV PUSH1 0xFF AND PUSH1 0xFF AND GT DUP1 ISZERO PUSH2 0x337 JUMPI POP PUSH0 PUSH1 0x1 SWAP1 SLOAD SWAP1 PUSH2 0x100 EXP SWAP1 DIV PUSH1 0xFF AND PUSH1 0xFF AND PUSH0 PUSH0 SWAP1 SLOAD SWAP1 PUSH2 0x100 EXP SWAP1 DIV PUSH1 0xFF AND PUSH1 0xFF AND GT JUMPDEST ISZERO PUSH2 0x351 JUMPI PUSH0 PUSH0 SWAP1 SLOAD SWAP1 PUSH2 0x100 EXP SWAP1 DIV PUSH1 0xFF AND SWAP1 POP PUSH2 0x3CF JUMP JUMPDEST PUSH0 PUSH1 0x2 SWAP1 SLOAD SWAP1 PUSH2 0x100 EXP SWAP1 DIV PUSH1 0xFF AND PUSH1 0xFF AND PUSH0 PUSH0 SWAP1 SLOAD SWAP1 PUSH2 0x100 EXP SWAP1 DIV PUSH1 0xFF AND PUSH1 0xFF AND GT DUP1 ISZERO PUSH2 0x3A2 JUMPI POP PUSH0 PUSH1 0x2 SWAP1 SLOAD SWAP1 PUSH2 0x100 EXP SWAP1 DIV PUSH1 0xFF AND PUSH1 0xFF AND PUSH0 PUSH1 0x1 SWAP1 SLOAD SWAP1 PUSH2 0x100 EXP SWAP1 DIV PUSH1 0xFF AND PUSH1 0xFF AND GT JUMPDEST ISZERO PUSH2 0x3BD JUMPI PUSH0 PUSH1 0x1 SWAP1 SLOAD SWAP1 PUSH2 0x100 EXP SWAP1 DIV PUSH1 0xFF AND SWAP1 POP PUSH2 0x3CF JUMP JUMPDEST PUSH0 PUSH1 0x2 SWAP1 SLOAD SWAP1 PUSH2 0x100 EXP SWAP1 DIV PUSH1 0xFF AND SWAP1 POP JUMPDEST SWAP1 JUMP JUMPDEST PUSH1 0x60 PUSH0 PUSH1 0x1 SLOAD SUB PUSH2 0x41A JUMPI PUSH1 0x40 MLOAD DUP1 PUSH1 0x40 ADD PUSH1 0x40 MSTORE DUP1 PUSH1 0x4 DUP2 MSTORE PUSH1 0x20 ADD PUSH32 0x7A65726F00000000000000000000000000000000000000000000000000000000 DUP2 MSTORE POP SWAP1 POP PUSH2 0x499 JUMP JUMPDEST PUSH0 PUSH1 0x1 SLOAD SLT PUSH2 0x460 JUMPI PUSH1 0x40 MLOAD DUP1 PUSH1 0x40 ADD PUSH1 0x40 MSTORE DUP1 PUSH1 0x8 DUP2 MSTORE PUSH1 0x20 ADD PUSH32 0x706F736974697665000000000000000000000000000000000000000000000000 DUP2 MSTORE POP SWAP1 POP PUSH2 0x499 JUMP JUMPDEST PUSH1 0x40 MLOAD DUP1 PUSH1 0x40 ADD PUSH1 0x40 MSTORE DUP1 PUSH1 0x8 DUP2 MSTORE PUSH1 0x20 ADD PUSH32 0x6E65676174697665000000000000000000000000000000000000000000000000 DUP2 MSTORE POP SWAP1 POP JUMPDEST SWAP1 JUMP JUMPDEST PUSH0 PUSH0 REVERT JUMPDEST PUSH0 PUSH1 0xFF DUP3 AND SWAP1 POP SWAP2 SWAP1 POP JUMP JUMPDEST PUSH2 0x4B5 DUP2 PUSH2 0x4A0 JUMP JUMPDEST DUP2 EQ PUSH2 0x4BF JUMPI PUSH0 PUSH0 REVERT JUMPDEST POP JUMP JUMPDEST PUSH0 DUP2 CALLDATALOAD SWAP1 POP PUSH2 0x4D0 DUP2 PUSH2 0x4AC JUMP JUMPDEST SWAP3 SWAP2 POP POP JUMP JUMPDEST PUSH0 PUSH0 PUSH0 PUSH1 0x60 DUP5 DUP7 SUB SLT ISZERO PUSH2 0x4ED JUMPI PUSH2 0x4EC PUSH2 0x49C JUMP JUMPDEST JUMPDEST PUSH0 PUSH2 0x4FA DUP7 DUP3 DUP8 ADD PUSH2 0x4C2 JUMP JUMPDEST SWAP4 POP POP PUSH1 0x20 PUSH2 0x50B DUP7 DUP3 DUP8 ADD PUSH2 0x4C2 JUMP JUMPDEST SWAP3 POP POP PUSH1 0x40 PUSH2 0x51C DUP7 DUP3 DUP8 ADD PUSH2 0x4C2 JUMP JUMPDEST SWAP2 POP POP SWAP3 POP SWAP3 POP SWAP3 JUMP JUMPDEST PUSH0 DUP2 SWAP1 POP SWAP2 SWAP1 POP JUMP JUMPDEST PUSH2 0x538 DUP2 PUSH2 0x526 JUMP JUMPDEST DUP2 EQ PUSH2 0x542 JUMPI PUSH0 PUSH0 REVERT JUMPDEST POP JUMP JUMPDEST PUSH0 DUP2 CALLDATALOAD SWAP1 POP PUSH2 0x553 DUP2 PUSH2 0x52F JUMP JUMPDEST SWAP3 SWAP2 POP POP JUMP JUMPDEST PUSH0 PUSH1 0x20 DUP3 DUP5 SUB SLT ISZERO PUSH2 0x56E JUMPI PUSH2 0x56D PUSH2 0x49C JUMP JUMPDEST JUMPDEST PUSH0 PUSH2 0x57B DUP5 DUP3 DUP6 ADD PUSH2 0x545 JUMP JUMPDEST SWAP2 POP POP SWAP3 SWAP2 POP POP JUMP JUMPDEST PUSH0 DUP2 MLOAD SWAP1 POP SWAP2 SWAP1 POP JUMP JUMPDEST PUSH0 DUP3 DUP3 MSTORE PUSH1 0x20 DUP3 ADD SWAP1 POP SWAP3 SWAP2 POP POP JUMP JUMPDEST DUP3 DUP2 DUP4 MCOPY PUSH0 DUP4 DUP4 ADD MSTORE POP POP POP JUMP JUMPDEST PUSH0 PUSH1 0x1F NOT PUSH1 0x1F DUP4 ADD AND SWAP1 POP SWAP2 SWAP1 POP JUMP JUMPDEST PUSH0 PUSH2 0x5C6 DUP3 PUSH2 0x584 JUMP JUMPDEST PUSH2 0x5D0 DUP2 DUP6 PUSH2 0x58E JUMP JUMPDEST SWAP4 POP PUSH2 0x5E0 DUP2 DUP6 PUSH1 0x20 DUP7 ADD PUSH2 0x59E JUMP JUMPDEST PUSH2 0x5E9 DUP2 PUSH2 0x5AC JUMP JUMPDEST DUP5 ADD SWAP2 POP POP SWAP3 SWAP2 POP POP JUMP JUMPDEST PUSH0 PUSH1 0x20 DUP3 ADD SWAP1 POP DUP2 DUP2 SUB PUSH0 DUP4 ADD MSTORE PUSH2 0x60C DUP2 DUP5 PUSH2 0x5BC JUMP JUMPDEST SWAP1 POP SWAP3 SWAP2 POP POP JUMP JUMPDEST PUSH2 0x61D DUP2 PUSH2 0x4A0 JUMP JUMPDEST DUP3 MSTORE POP POP JUMP JUMPDEST PUSH0 PUSH1 0x20 DUP3 ADD SWAP1 POP PUSH2 0x636 PUSH0 DUP4 ADD DUP5 PUSH2 0x614 JUMP JUMPDEST SWAP3 SWAP2 POP POP JUMP INVALID LOG2 PUSH5 0x6970667358 0x22 SLT KECCAK256 GASLIMIT BLOBBASEFEE SWAP11 0x1E ISZERO CALLCODE SELFDESTRUCT REVERT 0xE4 PUSH10 0x5FC96F0DC83339B980A CALLDATASIZE PUSH16 0x5B69DE1FE2DEC9FC144064736F6C6343 STOP ADDMOD SHR STOP CALLER "
				},
				"gasEstimates": {
					"creation": {
						"codeDepositCost": "330000",
						"executionCost": "366",
						"totalCost": "330366"
					},
					"external": {
						"getDigit()": "infinite",
						"getFindLargest()": "20067",
						"getSign()": "infinite",
						"setNum(int256)": "22515",
						"setNumbers(uint8,uint8,uint8)": "infinite"
					}
				},
				"methodIdentifiers": {
					"getDigit()": "6b590248",
					"getFindLargest()": "a75a35a9",
					"getSign()": "cf504e0a",
					"setNum(int256)": "6a5aa5ec",
					"setNumbers(uint8,uint8,uint8)": "4e987dbf"
				}
			},
			"storageLayout": {
				"storage": [
					{
						"astId": 3,
						"contract": "Activities/MathFunction.sol:MathFunction",
						"label": "num1",
						"offset": 0,
						"slot": "0",
						"type": "t_uint8"
					},
					{
						"astId": 5,
						"contract": "Activities/MathFunction.sol:MathFunction",
						"label": "num2",
						"offset": 1,
						"slot": "0",
						"type": "t_uint8"
					},
					{
						"astId": 7,
						"contract": "Activities/MathFunction.sol:MathFunction",
						"label": "num3",
						"offset": 2,
						"slot": "0",
						"type": "t_uint8"
					},
					{
						"astId": 9,
						"contract": "Activities/MathFunction.sol:MathFunction",
						"label": "num",
						"offset": 0,
						"slot": "1",
						"type": "t_int256"
					}
				],
				"types": {
					"t_int256": {
						"encoding": "inplace",
						"label": "int256",
						"numberOfBytes": "32"
					},
					"t_uint8": {
						"encoding": "inplace",
						"label": "uint8",
						"numberOfBytes": "1"
					}
				}
			},
			"userdoc": {
				"kind": "user",
				"methods": {},
				"version": 1
			}
		}
	}
}