{
	"data": {
		"bytecode": {
			"linkReferences": {},
			"object": "6080604052348015600e575f5ffd5b506104268061001c5f395ff3fe608060405234801561000f575f5ffd5b5060043610610029575f3560e01c806313a6bd131461002d575b5f5ffd5b610047600480360381019061004291906101cc565b61005d565b6040516100549190610267565b60405180910390f35b60605f5f90505f8390505b5f811461009157600a8161007c91906102e1565b9050818061008990610311565b925050610068565b600482146100d4576040517f08c379a00000000000000000000000000000000000000000000000000000000081526004016100cb906103a2565b60405180910390fd5b5f6004856100e291906103c0565b1480156100fa57505f6064856100f891906103c0565b145b8061011157505f6101908561010f91906103c0565b145b15610155576040518060400160405280600981526020017f4c6561702059656172000000000000000000000000000000000000000000000081525092505050610190565b6040518060400160405280600f81526020017f4e6f742061204c65617020596561720000000000000000000000000000000000815250925050505b919050565b5f5ffd5b5f819050919050565b6101ab81610199565b81146101b5575f5ffd5b50565b5f813590506101c6816101a2565b92915050565b5f602082840312156101e1576101e0610195565b5b5f6101ee848285016101b8565b91505092915050565b5f81519050919050565b5f82825260208201905092915050565b8281835e5f83830152505050565b5f601f19601f8301169050919050565b5f610239826101f7565b6102438185610201565b9350610253818560208601610211565b61025c8161021f565b840191505092915050565b5f6020820190508181035f83015261027f818461022f565b905092915050565b7f4e487b71000000000000000000000000000000000000000000000000000000005f52601260045260245ffd5b7f4e487b71000000000000000000000000000000000000000000000000000000005f52601160045260245ffd5b5f6102eb82610199565b91506102f683610199565b92508261030657610305610287565b5b828204905092915050565b5f61031b82610199565b91507fffffffffffffffffffffffffffffffffffffffffffffffffffffffffffffffff820361034d5761034c6102b4565b5b600182019050919050565b7f636865636b20696e7075747300000000000000000000000000000000000000005f82015250565b5f61038c600c83610201565b915061039782610358565b602082019050919050565b5f6020820190508181035f8301526103b981610380565b9050919050565b5f6103ca82610199565b91506103d583610199565b9250826103e5576103e4610287565b5b82820690509291505056fea2646970667358221220e8b9379d68825c384eaffecfe7c9b8079920de8a5c485724213a5eeab702f90c64736f6c634300081c0033",
			"opcodes": "PUSH1 0x80 PUSH1 0x40 MSTORE CALLVALUE DUP1 ISZERO PUSH1 0xE JUMPI PUSH0 PUSH0 REVERT JUMPDEST POP PUSH2 0x426 DUP1 PUSH2 0x1C PUSH0 CODECOPY PUSH0 RETURN INVALID PUSH1 0x80 PUSH1 0x40 MSTORE CALLVALUE DUP1 ISZERO PUSH2 0xF JUMPI PUSH0 PUSH0 REVERT JUMPDEST POP PUSH1 0x4 CALLDATASIZE LT PUSH2 0x29 JUMPI PUSH0 CALLDATALOAD PUSH1 0xE0 SHR DUP1 PUSH4 0x13A6BD13 EQ PUSH2 0x2D JUMPI JUMPDEST PUSH0 PUSH0 REVERT JUMPDEST PUSH2 0x47 PUSH1 0x4 DUP1 CALLDATASIZE SUB DUP2 ADD SWAP1 PUSH2 0x42 SWAP2 SWAP1 PUSH2 0x1CC JUMP JUMPDEST PUSH2 0x5D JUMP JUMPDEST PUSH1 0x40 MLOAD PUSH2 0x54 SWAP2 SWAP1 PUSH2 0x267 JUMP JUMPDEST PUSH1 0x40 MLOAD DUP1 SWAP2 SUB SWAP1 RETURN JUMPDEST PUSH1 0x60 PUSH0 PUSH0 SWAP1 POP PUSH0 DUP4 SWAP1 POP JUMPDEST PUSH0 DUP2 EQ PUSH2 0x91 JUMPI PUSH1 0xA DUP2 PUSH2 0x7C SWAP2 SWAP1 PUSH2 0x2E1 JUMP JUMPDEST SWAP1 POP DUP2 DUP1 PUSH2 0x89 SWAP1 PUSH2 0x311 JUMP JUMPDEST SWAP3 POP POP PUSH2 0x68 JUMP JUMPDEST PUSH1 0x4 DUP3 EQ PUSH2 0xD4 JUMPI PUSH1 0x40 MLOAD PUSH32 0x8C379A000000000000000000000000000000000000000000000000000000000 DUP2 MSTORE PUSH1 0x4 ADD PUSH2 0xCB SWAP1 PUSH2 0x3A2 JUMP JUMPDEST PUSH1 0x40 MLOAD DUP1 SWAP2 SUB SWAP1 REVERT JUMPDEST PUSH0 PUSH1 0x4 DUP6 PUSH2 0xE2 SWAP2 SWAP1 PUSH2 0x3C0 JUMP JUMPDEST EQ DUP1 ISZERO PUSH2 0xFA JUMPI POP PUSH0 PUSH1 0x64 DUP6 PUSH2 0xF8 SWAP2 SWAP1 PUSH2 0x3C0 JUMP JUMPDEST EQ JUMPDEST DUP1 PUSH2 0x111 JUMPI POP PUSH0 PUSH2 0x190 DUP6 PUSH2 0x10F SWAP2 SWAP1 PUSH2 0x3C0 JUMP JUMPDEST EQ JUMPDEST ISZERO PUSH2 0x155 JUMPI PUSH1 0x40 MLOAD DUP1 PUSH1 0x40 ADD PUSH1 0x40 MSTORE DUP1 PUSH1 0x9 DUP2 MSTORE PUSH1 0x20 ADD PUSH32 0x4C65617020596561720000000000000000000000000000000000000000000000 DUP2 MSTORE POP SWAP3 POP POP POP PUSH2 0x190 JUMP JUMPDEST PUSH1 0x40 MLOAD DUP1 PUSH1 0x40 ADD PUSH1 0x40 MSTORE DUP1 PUSH1 0xF DUP2 MSTORE PUSH1 0x20 ADD PUSH32 0x4E6F742061204C65617020596561720000000000000000000000000000000000 DUP2 MSTORE POP SWAP3 POP POP POP JUMPDEST SWAP2 SWAP1 POP JUMP JUMPDEST PUSH0 PUSH0 REVERT JUMPDEST PUSH0 DUP2 SWAP1 POP SWAP2 SWAP1 POP JUMP JUMPDEST PUSH2 0x1AB DUP2 PUSH2 0x199 JUMP JUMPDEST DUP2 EQ PUSH2 0x1B5 JUMPI PUSH0 PUSH0 REVERT JUMPDEST POP JUMP JUMPDEST PUSH0 DUP2 CALLDATALOAD SWAP1 POP PUSH2 0x1C6 DUP2 PUSH2 0x1A2 JUMP JUMPDEST SWAP3 SWAP2 POP POP JUMP JUMPDEST PUSH0 PUSH1 0x20 DUP3 DUP5 SUB SLT ISZERO PUSH2 0x1E1 JUMPI PUSH2 0x1E0 PUSH2 0x195 JUMP JUMPDEST JUMPDEST PUSH0 PUSH2 0x1EE DUP5 DUP3 DUP6 ADD PUSH2 0x1B8 JUMP JUMPDEST SWAP2 POP POP SWAP3 SWAP2 POP POP JUMP JUMPDEST PUSH0 DUP2 MLOAD SWAP1 POP SWAP2 SWAP1 POP JUMP JUMPDEST PUSH0 DUP3 DUP3 MSTORE PUSH1 0x20 DUP3 ADD SWAP1 POP SWAP3 SWAP2 POP POP JUMP JUMPDEST DUP3 DUP2 DUP4 MCOPY PUSH0 DUP4 DUP4 ADD MSTORE POP POP POP JUMP JUMPDEST PUSH0 PUSH1 0x1F NOT PUSH1 0x1F DUP4 ADD AND SWAP1 POP SWAP2 SWAP1 POP JUMP JUMPDEST PUSH0 PUSH2 0x239 DUP3 PUSH2 0x1F7 JUMP JUMPDEST PUSH2 0x243 DUP2 DUP6 PUSH2 0x201 JUMP JUMPDEST SWAP4 POP PUSH2 0x253 DUP2 DUP6 PUSH1 0x20 DUP7 ADD PUSH2 0x211 JUMP JUMPDEST PUSH2 0x25C DUP2 PUSH2 0x21F JUMP JUMPDEST DUP5 ADD SWAP2 POP POP SWAP3 SWAP2 POP POP JUMP JUMPDEST PUSH0 PUSH1 0x20 DUP3 ADD SWAP1 POP DUP2 DUP2 SUB PUSH0 DUP4 ADD MSTORE PUSH2 0x27F DUP2 DUP5 PUSH2 0x22F JUMP JUMPDEST SWAP1 POP SWAP3 SWAP2 POP POP JUMP JUMPDEST PUSH32 0x4E487B7100000000000000000000000000000000000000000000000000000000 PUSH0 MSTORE PUSH1 0x12 PUSH1 0x4 MSTORE PUSH1 0x24 PUSH0 REVERT JUMPDEST PUSH32 0x4E487B7100000000000000000000000000000000000000000000000000000000 PUSH0 MSTORE PUSH1 0x11 PUSH1 0x4 MSTORE PUSH1 0x24 PUSH0 REVERT JUMPDEST PUSH0 PUSH2 0x2EB DUP3 PUSH2 0x199 JUMP JUMPDEST SWAP2 POP PUSH2 0x2F6 DUP4 PUSH2 0x199 JUMP JUMPDEST SWAP3 POP DUP3 PUSH2 0x306 JUMPI PUSH2 0x305 PUSH2 0x287 JUMP JUMPDEST JUMPDEST DUP3 DUP3 DIV SWAP1 POP SWAP3 SWAP2 POP POP JUMP JUMPDEST PUSH0 PUSH2 0x31B DUP3 PUSH2 0x199 JUMP JUMPDEST SWAP2 POP PUSH32 0xFFFFFFFFFFFFFFFFFFFFFFFFFFFFFFFFFFFFFFFFFFFFFFFFFFFFFFFFFFFFFFFF DUP3 SUB PUSH2 0x34D JUMPI PUSH2 0x34C PUSH2 0x2B4 JUMP JUMPDEST JUMPDEST PUSH1 0x1 DUP3 ADD SWAP1 POP SWAP2 SWAP1 POP JUMP JUMPDEST PUSH32 0x636865636B20696E707574730000000000000000000000000000000000000000 PUSH0 DUP3 ADD MSTORE POP JUMP JUMPDEST PUSH0 PUSH2 0x38C PUSH1 0xC DUP4 PUSH2 0x201 JUMP JUMPDEST SWAP2 POP PUSH2 0x397 DUP3 PUSH2 0x358 JUMP JUMPDEST PUSH1 0x20 DUP3 ADD SWAP1 POP SWAP2 SWAP1 POP JUMP JUMPDEST PUSH0 PUSH1 0x20 DUP3 ADD SWAP1 POP DUP2 DUP2 SUB PUSH0 DUP4 ADD MSTORE PUSH2 0x3B9 DUP2 PUSH2 0x380 JUMP JUMPDEST SWAP1 POP SWAP2 SWAP1 POP JUMP JUMPDEST PUSH0 PUSH2 0x3CA DUP3 PUSH2 0x199 JUMP JUMPDEST SWAP2 POP PUSH2 0x3D5 DUP4 PUSH2 0x199 JUMP JUMPDEST SWAP3 POP DUP3 PUSH2 0x3E5 JUMPI PUSH2 0x3E4 PUSH2 0x287 JUMP JUMPDEST JUMPDEST DUP3 DUP3 MOD SWAP1 POP SWAP3 SWAP2 POP POP JUMP INVALID LOG2 PUSH5 0x6970667358 0x22 SLT KECCAK256 0xE8 0xB9 CALLDATACOPY SWAP14 PUSH9 0x825C384EAFFECFE7C9 0xB8 SMOD SWAP10 KECCAK256 0xDE DUP11 TLOAD BASEFEE JUMPI 0x24 0x21 GASPRICE MCOPY 0xEA 0xB7 MUL 0xF9 0xC PUSH5 0x736F6C6343 STOP ADDMOD SHR STOP CALLER "
		},
		"gasEstimates": {
			"creation": {
				"codeDepositCost": "212400",
				"executionCost": "255",
				"totalCost": "212655"
			},
			"external": {
				"lapYear(uint256)": "infinite"
			}
		},
		"methodIdentifiers": {
			"lapYear(uint256)": "13a6bd13"
		}
	},
	"abi": [
		{
			"inputs": [
				{
					"internalType": "uint256",
					"name": "_year",
					"type": "uint256"
				}
			],
			"name": "lapYear",
			"outputs": [
				{
					"internalType": "string",
					"name": "",
					"type": "string"
				}
			],
			"stateMutability": "pure",
			"type": "function"
		}
	]
}