{
	"data": {
		"bytecode": {
			"linkReferences": {},
			"object": "6080604052348015600e575f5ffd5b50610c6b8061001c5f395ff3fe60806040526004361061003e575f3560e01c8063c36cd94314610042578063c97bdf8e1461006a578063d8ebe4e514610098578063dca36b9a146100c5575b5f5ffd5b34801561004d575f5ffd5b506100686004803603810190610063919061073c565b6100cf565b005b348015610075575f5ffd5b5061007e61016b565b60405161008f9594939291906108a2565b60405180910390f35b3480156100a3575f5ffd5b506100ac61034c565b6040516100bc9493929190610908565b60405180910390f35b6100cd61051b565b005b835f5f0190816100df9190610b66565b50825f60010190816100f19190610b66565b50815f60020190816101039190610b66565b50805f6003015f6101000a81548161ffff021916908361ffff160217905550335f60030160026101000a81548173ffffffffffffffffffffffffffffffffffffffff021916908373ffffffffffffffffffffffffffffffffffffffff16021790555050505050565b5f805f01805461017a9061098d565b80601f01602080910402602001604051908101604052809291908181526020018280546101a69061098d565b80156101f15780601f106101c8576101008083540402835291602001916101f1565b820191905f5260205f20905b8154815290600101906020018083116101d457829003601f168201915b5050505050908060010180546102069061098d565b80601f01602080910402602001604051908101604052809291908181526020018280546102329061098d565b801561027d5780601f106102545761010080835404028352916020019161027d565b820191905f5260205f20905b81548152906001019060200180831161026057829003601f168201915b5050505050908060020180546102929061098d565b80601f01602080910402602001604051908101604052809291908181526020018280546102be9061098d565b80156103095780601f106102e057610100808354040283529160200191610309565b820191905f5260205f20905b8154815290600101906020018083116102ec57829003601f168201915b505050505090806003015f9054906101000a900461ffff16908060030160029054906101000a900473ffffffffffffffffffffffffffffffffffffffff16905085565b60608060605f5f5f015f6001015f6002015f6003015f9054906101000a900461ffff1683805461037b9061098d565b80601f01602080910402602001604051908101604052809291908181526020018280546103a79061098d565b80156103f25780601f106103c9576101008083540402835291602001916103f2565b820191905f5260205f20905b8154815290600101906020018083116103d557829003601f168201915b505050505093508280546104059061098d565b80601f01602080910402602001604051908101604052809291908181526020018280546104319061098d565b801561047c5780601f106104535761010080835404028352916020019161047c565b820191905f5260205f20905b81548152906001019060200180831161045f57829003601f168201915b5050505050925081805461048f9061098d565b80601f01602080910402602001604051908101604052809291908181526020018280546104bb9061098d565b80156105065780601f106104dd57610100808354040283529160200191610506565b820191905f5260205f20905b8154815290600101906020018083116104e957829003601f168201915b50505050509150935093509350935090919293565b5f6003015f9054906101000a900461ffff1661ffff163411156105b6575f60030160029054906101000a900473ffffffffffffffffffffffffffffffffffffffff1673ffffffffffffffffffffffffffffffffffffffff166108fc5f6003015f9054906101000a900461ffff1661ffff1690811502906040515f60405180830381858888f193505050501580156105b4573d5f5f3e3d5ffd5b505b565b5f604051905090565b5f5ffd5b5f5ffd5b5f5ffd5b5f5ffd5b5f601f19601f8301169050919050565b7f4e487b71000000000000000000000000000000000000000000000000000000005f52604160045260245ffd5b610617826105d1565b810181811067ffffffffffffffff82111715610636576106356105e1565b5b80604052505050565b5f6106486105b8565b9050610654828261060e565b919050565b5f67ffffffffffffffff821115610673576106726105e1565b5b61067c826105d1565b9050602081019050919050565b828183375f83830152505050565b5f6106a96106a484610659565b61063f565b9050828152602081018484840111156106c5576106c46105cd565b5b6106d0848285610689565b509392505050565b5f82601f8301126106ec576106eb6105c9565b5b81356106fc848260208601610697565b91505092915050565b5f61ffff82169050919050565b61071b81610705565b8114610725575f5ffd5b50565b5f8135905061073681610712565b92915050565b5f5f5f5f60808587031215610754576107536105c1565b5b5f85013567ffffffffffffffff811115610771576107706105c5565b5b61077d878288016106d8565b945050602085013567ffffffffffffffff81111561079e5761079d6105c5565b5b6107aa878288016106d8565b935050604085013567ffffffffffffffff8111156107cb576107ca6105c5565b5b6107d7878288016106d8565b92505060606107e887828801610728565b91505092959194509250565b5f81519050919050565b5f82825260208201905092915050565b8281835e5f83830152505050565b5f610826826107f4565b61083081856107fe565b935061084081856020860161080e565b610849816105d1565b840191505092915050565b61085d81610705565b82525050565b5f73ffffffffffffffffffffffffffffffffffffffff82169050919050565b5f61088c82610863565b9050919050565b61089c81610882565b82525050565b5f60a0820190508181035f8301526108ba818861081c565b905081810360208301526108ce818761081c565b905081810360408301526108e2818661081c565b90506108f16060830185610854565b6108fe6080830184610893565b9695505050505050565b5f6080820190508181035f830152610920818761081c565b90508181036020830152610934818661081c565b90508181036040830152610948818561081c565b90506109576060830184610854565b95945050505050565b7f4e487b71000000000000000000000000000000000000000000000000000000005f52602260045260245ffd5b5f60028204905060018216806109a457607f821691505b6020821081036109b7576109b6610960565b5b50919050565b5f819050815f5260205f209050919050565b5f6020601f8301049050919050565b5f82821b905092915050565b5f60088302610a197fffffffffffffffffffffffffffffffffffffffffffffffffffffffffffffffff826109de565b610a2386836109de565b95508019841693508086168417925050509392505050565b5f819050919050565b5f819050919050565b5f610a67610a62610a5d84610a3b565b610a44565b610a3b565b9050919050565b5f819050919050565b610a8083610a4d565b610a94610a8c82610a6e565b8484546109ea565b825550505050565b5f5f905090565b610aab610a9c565b610ab6818484610a77565b505050565b5b81811015610ad957610ace5f82610aa3565b600181019050610abc565b5050565b601f821115610b1e57610aef816109bd565b610af8846109cf565b81016020851015610b07578190505b610b1b610b13856109cf565b830182610abb565b50505b505050565b5f82821c905092915050565b5f610b3e5f1984600802610b23565b1980831691505092915050565b5f610b568383610b2f565b9150826002028217905092915050565b610b6f826107f4565b67ffffffffffffffff811115610b8857610b876105e1565b5b610b92825461098d565b610b9d828285610add565b5f60209050601f831160018114610bce575f8415610bbc578287015190505b610bc68582610b4b565b865550610c2d565b601f198416610bdc866109bd565b5f5b82811015610c0357848901518255600182019150602085019450602081019050610bde565b86831015610c205784890151610c1c601f891682610b2f565b8355505b6001600288020188555050505b50505050505056fea26469706673582212201e707d2f2e244aaad6cc7222f7e4a58ebc53716561183156422fe3c6fbf6951964736f6c634300081c0033",
			"opcodes": "PUSH1 0x80 PUSH1 0x40 MSTORE CALLVALUE DUP1 ISZERO PUSH1 0xE JUMPI PUSH0 PUSH0 REVERT JUMPDEST POP PUSH2 0xC6B DUP1 PUSH2 0x1C PUSH0 CODECOPY PUSH0 RETURN INVALID PUSH1 0x80 PUSH1 0x40 MSTORE PUSH1 0x4 CALLDATASIZE LT PUSH2 0x3E JUMPI PUSH0 CALLDATALOAD PUSH1 0xE0 SHR DUP1 PUSH4 0xC36CD943 EQ PUSH2 0x42 JUMPI DUP1 PUSH4 0xC97BDF8E EQ PUSH2 0x6A JUMPI DUP1 PUSH4 0xD8EBE4E5 EQ PUSH2 0x98 JUMPI DUP1 PUSH4 0xDCA36B9A EQ PUSH2 0xC5 JUMPI JUMPDEST PUSH0 PUSH0 REVERT JUMPDEST CALLVALUE DUP1 ISZERO PUSH2 0x4D JUMPI PUSH0 PUSH0 REVERT JUMPDEST POP PUSH2 0x68 PUSH1 0x4 DUP1 CALLDATASIZE SUB DUP2 ADD SWAP1 PUSH2 0x63 SWAP2 SWAP1 PUSH2 0x73C JUMP JUMPDEST PUSH2 0xCF JUMP JUMPDEST STOP JUMPDEST CALLVALUE DUP1 ISZERO PUSH2 0x75 JUMPI PUSH0 PUSH0 REVERT JUMPDEST POP PUSH2 0x7E PUSH2 0x16B JUMP JUMPDEST PUSH1 0x40 MLOAD PUSH2 0x8F SWAP6 SWAP5 SWAP4 SWAP3 SWAP2 SWAP1 PUSH2 0x8A2 JUMP JUMPDEST PUSH1 0x40 MLOAD DUP1 SWAP2 SUB SWAP1 RETURN JUMPDEST CALLVALUE DUP1 ISZERO PUSH2 0xA3 JUMPI PUSH0 PUSH0 REVERT JUMPDEST POP PUSH2 0xAC PUSH2 0x34C JUMP JUMPDEST PUSH1 0x40 MLOAD PUSH2 0xBC SWAP5 SWAP4 SWAP3 SWAP2 SWAP1 PUSH2 0x908 JUMP JUMPDEST PUSH1 0x40 MLOAD DUP1 SWAP2 SUB SWAP1 RETURN JUMPDEST PUSH2 0xCD PUSH2 0x51B JUMP JUMPDEST STOP JUMPDEST DUP4 PUSH0 PUSH0 ADD SWAP1 DUP2 PUSH2 0xDF SWAP2 SWAP1 PUSH2 0xB66 JUMP JUMPDEST POP DUP3 PUSH0 PUSH1 0x1 ADD SWAP1 DUP2 PUSH2 0xF1 SWAP2 SWAP1 PUSH2 0xB66 JUMP JUMPDEST POP DUP2 PUSH0 PUSH1 0x2 ADD SWAP1 DUP2 PUSH2 0x103 SWAP2 SWAP1 PUSH2 0xB66 JUMP JUMPDEST POP DUP1 PUSH0 PUSH1 0x3 ADD PUSH0 PUSH2 0x100 EXP DUP2 SLOAD DUP2 PUSH2 0xFFFF MUL NOT AND SWAP1 DUP4 PUSH2 0xFFFF AND MUL OR SWAP1 SSTORE POP CALLER PUSH0 PUSH1 0x3 ADD PUSH1 0x2 PUSH2 0x100 EXP DUP2 SLOAD DUP2 PUSH20 0xFFFFFFFFFFFFFFFFFFFFFFFFFFFFFFFFFFFFFFFF MUL NOT AND SWAP1 DUP4 PUSH20 0xFFFFFFFFFFFFFFFFFFFFFFFFFFFFFFFFFFFFFFFF AND MUL OR SWAP1 SSTORE POP POP POP POP POP JUMP JUMPDEST PUSH0 DUP1 PUSH0 ADD DUP1 SLOAD PUSH2 0x17A SWAP1 PUSH2 0x98D JUMP JUMPDEST DUP1 PUSH1 0x1F ADD PUSH1 0x20 DUP1 SWAP2 DIV MUL PUSH1 0x20 ADD PUSH1 0x40 MLOAD SWAP1 DUP2 ADD PUSH1 0x40 MSTORE DUP1 SWAP3 SWAP2 SWAP1 DUP2 DUP2 MSTORE PUSH1 0x20 ADD DUP3 DUP1 SLOAD PUSH2 0x1A6 SWAP1 PUSH2 0x98D JUMP JUMPDEST DUP1 ISZERO PUSH2 0x1F1 JUMPI DUP1 PUSH1 0x1F LT PUSH2 0x1C8 JUMPI PUSH2 0x100 DUP1 DUP4 SLOAD DIV MUL DUP4 MSTORE SWAP2 PUSH1 0x20 ADD SWAP2 PUSH2 0x1F1 JUMP JUMPDEST DUP3 ADD SWAP2 SWAP1 PUSH0 MSTORE PUSH1 0x20 PUSH0 KECCAK256 SWAP1 JUMPDEST DUP2 SLOAD DUP2 MSTORE SWAP1 PUSH1 0x1 ADD SWAP1 PUSH1 0x20 ADD DUP1 DUP4 GT PUSH2 0x1D4 JUMPI DUP3 SWAP1 SUB PUSH1 0x1F AND DUP3 ADD SWAP2 JUMPDEST POP POP POP POP POP SWAP1 DUP1 PUSH1 0x1 ADD DUP1 SLOAD PUSH2 0x206 SWAP1 PUSH2 0x98D JUMP JUMPDEST DUP1 PUSH1 0x1F ADD PUSH1 0x20 DUP1 SWAP2 DIV MUL PUSH1 0x20 ADD PUSH1 0x40 MLOAD SWAP1 DUP2 ADD PUSH1 0x40 MSTORE DUP1 SWAP3 SWAP2 SWAP1 DUP2 DUP2 MSTORE PUSH1 0x20 ADD DUP3 DUP1 SLOAD PUSH2 0x232 SWAP1 PUSH2 0x98D JUMP JUMPDEST DUP1 ISZERO PUSH2 0x27D JUMPI DUP1 PUSH1 0x1F LT PUSH2 0x254 JUMPI PUSH2 0x100 DUP1 DUP4 SLOAD DIV MUL DUP4 MSTORE SWAP2 PUSH1 0x20 ADD SWAP2 PUSH2 0x27D JUMP JUMPDEST DUP3 ADD SWAP2 SWAP1 PUSH0 MSTORE PUSH1 0x20 PUSH0 KECCAK256 SWAP1 JUMPDEST DUP2 SLOAD DUP2 MSTORE SWAP1 PUSH1 0x1 ADD SWAP1 PUSH1 0x20 ADD DUP1 DUP4 GT PUSH2 0x260 JUMPI DUP3 SWAP1 SUB PUSH1 0x1F AND DUP3 ADD SWAP2 JUMPDEST POP POP POP POP POP SWAP1 DUP1 PUSH1 0x2 ADD DUP1 SLOAD PUSH2 0x292 SWAP1 PUSH2 0x98D JUMP JUMPDEST DUP1 PUSH1 0x1F ADD PUSH1 0x20 DUP1 SWAP2 DIV MUL PUSH1 0x20 ADD PUSH1 0x40 MLOAD SWAP1 DUP2 ADD PUSH1 0x40 MSTORE DUP1 SWAP3 SWAP2 SWAP1 DUP2 DUP2 MSTORE PUSH1 0x20 ADD DUP3 DUP1 SLOAD PUSH2 0x2BE SWAP1 PUSH2 0x98D JUMP JUMPDEST DUP1 ISZERO PUSH2 0x309 JUMPI DUP1 PUSH1 0x1F LT PUSH2 0x2E0 JUMPI PUSH2 0x100 DUP1 DUP4 SLOAD DIV MUL DUP4 MSTORE SWAP2 PUSH1 0x20 ADD SWAP2 PUSH2 0x309 JUMP JUMPDEST DUP3 ADD SWAP2 SWAP1 PUSH0 MSTORE PUSH1 0x20 PUSH0 KECCAK256 SWAP1 JUMPDEST DUP2 SLOAD DUP2 MSTORE SWAP1 PUSH1 0x1 ADD SWAP1 PUSH1 0x20 ADD DUP1 DUP4 GT PUSH2 0x2EC JUMPI DUP3 SWAP1 SUB PUSH1 0x1F AND DUP3 ADD SWAP2 JUMPDEST POP POP POP POP POP SWAP1 DUP1 PUSH1 0x3 ADD PUSH0 SWAP1 SLOAD SWAP1 PUSH2 0x100 EXP SWAP1 DIV PUSH2 0xFFFF AND SWAP1 DUP1 PUSH1 0x3 ADD PUSH1 0x2 SWAP1 SLOAD SWAP1 PUSH2 0x100 EXP SWAP1 DIV PUSH20 0xFFFFFFFFFFFFFFFFFFFFFFFFFFFFFFFFFFFFFFFF AND SWAP1 POP DUP6 JUMP JUMPDEST PUSH1 0x60 DUP1 PUSH1 0x60 PUSH0 PUSH0 PUSH0 ADD PUSH0 PUSH1 0x1 ADD PUSH0 PUSH1 0x2 ADD PUSH0 PUSH1 0x3 ADD PUSH0 SWAP1 SLOAD SWAP1 PUSH2 0x100 EXP SWAP1 DIV PUSH2 0xFFFF AND DUP4 DUP1 SLOAD PUSH2 0x37B SWAP1 PUSH2 0x98D JUMP JUMPDEST DUP1 PUSH1 0x1F ADD PUSH1 0x20 DUP1 SWAP2 DIV MUL PUSH1 0x20 ADD PUSH1 0x40 MLOAD SWAP1 DUP2 ADD PUSH1 0x40 MSTORE DUP1 SWAP3 SWAP2 SWAP1 DUP2 DUP2 MSTORE PUSH1 0x20 ADD DUP3 DUP1 SLOAD PUSH2 0x3A7 SWAP1 PUSH2 0x98D JUMP JUMPDEST DUP1 ISZERO PUSH2 0x3F2 JUMPI DUP1 PUSH1 0x1F LT PUSH2 0x3C9 JUMPI PUSH2 0x100 DUP1 DUP4 SLOAD DIV MUL DUP4 MSTORE SWAP2 PUSH1 0x20 ADD SWAP2 PUSH2 0x3F2 JUMP JUMPDEST DUP3 ADD SWAP2 SWAP1 PUSH0 MSTORE PUSH1 0x20 PUSH0 KECCAK256 SWAP1 JUMPDEST DUP2 SLOAD DUP2 MSTORE SWAP1 PUSH1 0x1 ADD SWAP1 PUSH1 0x20 ADD DUP1 DUP4 GT PUSH2 0x3D5 JUMPI DUP3 SWAP1 SUB PUSH1 0x1F AND DUP3 ADD SWAP2 JUMPDEST POP POP POP POP POP SWAP4 POP DUP3 DUP1 SLOAD PUSH2 0x405 SWAP1 PUSH2 0x98D JUMP JUMPDEST DUP1 PUSH1 0x1F ADD PUSH1 0x20 DUP1 SWAP2 DIV MUL PUSH1 0x20 ADD PUSH1 0x40 MLOAD SWAP1 DUP2 ADD PUSH1 0x40 MSTORE DUP1 SWAP3 SWAP2 SWAP1 DUP2 DUP2 MSTORE PUSH1 0x20 ADD DUP3 DUP1 SLOAD PUSH2 0x431 SWAP1 PUSH2 0x98D JUMP JUMPDEST DUP1 ISZERO PUSH2 0x47C JUMPI DUP1 PUSH1 0x1F LT PUSH2 0x453 JUMPI PUSH2 0x100 DUP1 DUP4 SLOAD DIV MUL DUP4 MSTORE SWAP2 PUSH1 0x20 ADD SWAP2 PUSH2 0x47C JUMP JUMPDEST DUP3 ADD SWAP2 SWAP1 PUSH0 MSTORE PUSH1 0x20 PUSH0 KECCAK256 SWAP1 JUMPDEST DUP2 SLOAD DUP2 MSTORE SWAP1 PUSH1 0x1 ADD SWAP1 PUSH1 0x20 ADD DUP1 DUP4 GT PUSH2 0x45F JUMPI DUP3 SWAP1 SUB PUSH1 0x1F AND DUP3 ADD SWAP2 JUMPDEST POP POP POP POP POP SWAP3 POP DUP2 DUP1 SLOAD PUSH2 0x48F SWAP1 PUSH2 0x98D JUMP JUMPDEST DUP1 PUSH1 0x1F ADD PUSH1 0x20 DUP1 SWAP2 DIV MUL PUSH1 0x20 ADD PUSH1 0x40 MLOAD SWAP1 DUP2 ADD PUSH1 0x40 MSTORE DUP1 SWAP3 SWAP2 SWAP1 DUP2 DUP2 MSTORE PUSH1 0x20 ADD DUP3 DUP1 SLOAD PUSH2 0x4BB SWAP1 PUSH2 0x98D JUMP JUMPDEST DUP1 ISZERO PUSH2 0x506 JUMPI DUP1 PUSH1 0x1F LT PUSH2 0x4DD JUMPI PUSH2 0x100 DUP1 DUP4 SLOAD DIV MUL DUP4 MSTORE SWAP2 PUSH1 0x20 ADD SWAP2 PUSH2 0x506 JUMP JUMPDEST DUP3 ADD SWAP2 SWAP1 PUSH0 MSTORE PUSH1 0x20 PUSH0 KECCAK256 SWAP1 JUMPDEST DUP2 SLOAD DUP2 MSTORE SWAP1 PUSH1 0x1 ADD SWAP1 PUSH1 0x20 ADD DUP1 DUP4 GT PUSH2 0x4E9 JUMPI DUP3 SWAP1 SUB PUSH1 0x1F AND DUP3 ADD SWAP2 JUMPDEST POP POP POP POP POP SWAP2 POP SWAP4 POP SWAP4 POP SWAP4 POP SWAP4 POP SWAP1 SWAP2 SWAP3 SWAP4 JUMP JUMPDEST PUSH0 PUSH1 0x3 ADD PUSH0 SWAP1 SLOAD SWAP1 PUSH2 0x100 EXP SWAP1 DIV PUSH2 0xFFFF AND PUSH2 0xFFFF AND CALLVALUE GT ISZERO PUSH2 0x5B6 JUMPI PUSH0 PUSH1 0x3 ADD PUSH1 0x2 SWAP1 SLOAD SWAP1 PUSH2 0x100 EXP SWAP1 DIV PUSH20 0xFFFFFFFFFFFFFFFFFFFFFFFFFFFFFFFFFFFFFFFF AND PUSH20 0xFFFFFFFFFFFFFFFFFFFFFFFFFFFFFFFFFFFFFFFF AND PUSH2 0x8FC PUSH0 PUSH1 0x3 ADD PUSH0 SWAP1 SLOAD SWAP1 PUSH2 0x100 EXP SWAP1 DIV PUSH2 0xFFFF AND PUSH2 0xFFFF AND SWAP1 DUP2 ISZERO MUL SWAP1 PUSH1 0x40 MLOAD PUSH0 PUSH1 0x40 MLOAD DUP1 DUP4 SUB DUP2 DUP6 DUP9 DUP9 CALL SWAP4 POP POP POP POP ISZERO DUP1 ISZERO PUSH2 0x5B4 JUMPI RETURNDATASIZE PUSH0 PUSH0 RETURNDATACOPY RETURNDATASIZE PUSH0 REVERT JUMPDEST POP JUMPDEST JUMP JUMPDEST PUSH0 PUSH1 0x40 MLOAD SWAP1 POP SWAP1 JUMP JUMPDEST PUSH0 PUSH0 REVERT JUMPDEST PUSH0 PUSH0 REVERT JUMPDEST PUSH0 PUSH0 REVERT JUMPDEST PUSH0 PUSH0 REVERT JUMPDEST PUSH0 PUSH1 0x1F NOT PUSH1 0x1F DUP4 ADD AND SWAP1 POP SWAP2 SWAP1 POP JUMP JUMPDEST PUSH32 0x4E487B7100000000000000000000000000000000000000000000000000000000 PUSH0 MSTORE PUSH1 0x41 PUSH1 0x4 MSTORE PUSH1 0x24 PUSH0 REVERT JUMPDEST PUSH2 0x617 DUP3 PUSH2 0x5D1 JUMP JUMPDEST DUP2 ADD DUP2 DUP2 LT PUSH8 0xFFFFFFFFFFFFFFFF DUP3 GT OR ISZERO PUSH2 0x636 JUMPI PUSH2 0x635 PUSH2 0x5E1 JUMP JUMPDEST JUMPDEST DUP1 PUSH1 0x40 MSTORE POP POP POP JUMP JUMPDEST PUSH0 PUSH2 0x648 PUSH2 0x5B8 JUMP JUMPDEST SWAP1 POP PUSH2 0x654 DUP3 DUP3 PUSH2 0x60E JUMP JUMPDEST SWAP2 SWAP1 POP JUMP JUMPDEST PUSH0 PUSH8 0xFFFFFFFFFFFFFFFF DUP3 GT ISZERO PUSH2 0x673 JUMPI PUSH2 0x672 PUSH2 0x5E1 JUMP JUMPDEST JUMPDEST PUSH2 0x67C DUP3 PUSH2 0x5D1 JUMP JUMPDEST SWAP1 POP PUSH1 0x20 DUP2 ADD SWAP1 POP SWAP2 SWAP1 POP JUMP JUMPDEST DUP3 DUP2 DUP4 CALLDATACOPY PUSH0 DUP4 DUP4 ADD MSTORE POP POP POP JUMP JUMPDEST PUSH0 PUSH2 0x6A9 PUSH2 0x6A4 DUP5 PUSH2 0x659 JUMP JUMPDEST PUSH2 0x63F JUMP JUMPDEST SWAP1 POP DUP3 DUP2 MSTORE PUSH1 0x20 DUP2 ADD DUP5 DUP5 DUP5 ADD GT ISZERO PUSH2 0x6C5 JUMPI PUSH2 0x6C4 PUSH2 0x5CD JUMP JUMPDEST JUMPDEST PUSH2 0x6D0 DUP5 DUP3 DUP6 PUSH2 0x689 JUMP JUMPDEST POP SWAP4 SWAP3 POP POP POP JUMP JUMPDEST PUSH0 DUP3 PUSH1 0x1F DUP4 ADD SLT PUSH2 0x6EC JUMPI PUSH2 0x6EB PUSH2 0x5C9 JUMP JUMPDEST JUMPDEST DUP2 CALLDATALOAD PUSH2 0x6FC DUP5 DUP3 PUSH1 0x20 DUP7 ADD PUSH2 0x697 JUMP JUMPDEST SWAP2 POP POP SWAP3 SWAP2 POP POP JUMP JUMPDEST PUSH0 PUSH2 0xFFFF DUP3 AND SWAP1 POP SWAP2 SWAP1 POP JUMP JUMPDEST PUSH2 0x71B DUP2 PUSH2 0x705 JUMP JUMPDEST DUP2 EQ PUSH2 0x725 JUMPI PUSH0 PUSH0 REVERT JUMPDEST POP JUMP JUMPDEST PUSH0 DUP2 CALLDATALOAD SWAP1 POP PUSH2 0x736 DUP2 PUSH2 0x712 JUMP JUMPDEST SWAP3 SWAP2 POP POP JUMP JUMPDEST PUSH0 PUSH0 PUSH0 PUSH0 PUSH1 0x80 DUP6 DUP8 SUB SLT ISZERO PUSH2 0x754 JUMPI PUSH2 0x753 PUSH2 0x5C1 JUMP JUMPDEST JUMPDEST PUSH0 DUP6 ADD CALLDATALOAD PUSH8 0xFFFFFFFFFFFFFFFF DUP2 GT ISZERO PUSH2 0x771 JUMPI PUSH2 0x770 PUSH2 0x5C5 JUMP JUMPDEST JUMPDEST PUSH2 0x77D DUP8 DUP3 DUP9 ADD PUSH2 0x6D8 JUMP JUMPDEST SWAP5 POP POP PUSH1 0x20 DUP6 ADD CALLDATALOAD PUSH8 0xFFFFFFFFFFFFFFFF DUP2 GT ISZERO PUSH2 0x79E JUMPI PUSH2 0x79D PUSH2 0x5C5 JUMP JUMPDEST JUMPDEST PUSH2 0x7AA DUP8 DUP3 DUP9 ADD PUSH2 0x6D8 JUMP JUMPDEST SWAP4 POP POP PUSH1 0x40 DUP6 ADD CALLDATALOAD PUSH8 0xFFFFFFFFFFFFFFFF DUP2 GT ISZERO PUSH2 0x7CB JUMPI PUSH2 0x7CA PUSH2 0x5C5 JUMP JUMPDEST JUMPDEST PUSH2 0x7D7 DUP8 DUP3 DUP9 ADD PUSH2 0x6D8 JUMP JUMPDEST SWAP3 POP POP PUSH1 0x60 PUSH2 0x7E8 DUP8 DUP3 DUP9 ADD PUSH2 0x728 JUMP JUMPDEST SWAP2 POP POP SWAP3 SWAP6 SWAP2 SWAP5 POP SWAP3 POP JUMP JUMPDEST PUSH0 DUP2 MLOAD SWAP1 POP SWAP2 SWAP1 POP JUMP JUMPDEST PUSH0 DUP3 DUP3 MSTORE PUSH1 0x20 DUP3 ADD SWAP1 POP SWAP3 SWAP2 POP POP JUMP JUMPDEST DUP3 DUP2 DUP4 MCOPY PUSH0 DUP4 DUP4 ADD MSTORE POP POP POP JUMP JUMPDEST PUSH0 PUSH2 0x826 DUP3 PUSH2 0x7F4 JUMP JUMPDEST PUSH2 0x830 DUP2 DUP6 PUSH2 0x7FE JUMP JUMPDEST SWAP4 POP PUSH2 0x840 DUP2 DUP6 PUSH1 0x20 DUP7 ADD PUSH2 0x80E JUMP JUMPDEST PUSH2 0x849 DUP2 PUSH2 0x5D1 JUMP JUMPDEST DUP5 ADD SWAP2 POP POP SWAP3 SWAP2 POP POP JUMP JUMPDEST PUSH2 0x85D DUP2 PUSH2 0x705 JUMP JUMPDEST DUP3 MSTORE POP POP JUMP JUMPDEST PUSH0 PUSH20 0xFFFFFFFFFFFFFFFFFFFFFFFFFFFFFFFFFFFFFFFF DUP3 AND SWAP1 POP SWAP2 SWAP1 POP JUMP JUMPDEST PUSH0 PUSH2 0x88C DUP3 PUSH2 0x863 JUMP JUMPDEST SWAP1 POP SWAP2 SWAP1 POP JUMP JUMPDEST PUSH2 0x89C DUP2 PUSH2 0x882 JUMP JUMPDEST DUP3 MSTORE POP POP JUMP JUMPDEST PUSH0 PUSH1 0xA0 DUP3 ADD SWAP1 POP DUP2 DUP2 SUB PUSH0 DUP4 ADD MSTORE PUSH2 0x8BA DUP2 DUP9 PUSH2 0x81C JUMP JUMPDEST SWAP1 POP DUP2 DUP2 SUB PUSH1 0x20 DUP4 ADD MSTORE PUSH2 0x8CE DUP2 DUP8 PUSH2 0x81C JUMP JUMPDEST SWAP1 POP DUP2 DUP2 SUB PUSH1 0x40 DUP4 ADD MSTORE PUSH2 0x8E2 DUP2 DUP7 PUSH2 0x81C JUMP JUMPDEST SWAP1 POP PUSH2 0x8F1 PUSH1 0x60 DUP4 ADD DUP6 PUSH2 0x854 JUMP JUMPDEST PUSH2 0x8FE PUSH1 0x80 DUP4 ADD DUP5 PUSH2 0x893 JUMP JUMPDEST SWAP7 SWAP6 POP POP POP POP POP POP JUMP JUMPDEST PUSH0 PUSH1 0x80 DUP3 ADD SWAP1 POP DUP2 DUP2 SUB PUSH0 DUP4 ADD MSTORE PUSH2 0x920 DUP2 DUP8 PUSH2 0x81C JUMP JUMPDEST SWAP1 POP DUP2 DUP2 SUB PUSH1 0x20 DUP4 ADD MSTORE PUSH2 0x934 DUP2 DUP7 PUSH2 0x81C JUMP JUMPDEST SWAP1 POP DUP2 DUP2 SUB PUSH1 0x40 DUP4 ADD MSTORE PUSH2 0x948 DUP2 DUP6 PUSH2 0x81C JUMP JUMPDEST SWAP1 POP PUSH2 0x957 PUSH1 0x60 DUP4 ADD DUP5 PUSH2 0x854 JUMP JUMPDEST SWAP6 SWAP5 POP POP POP POP POP JUMP JUMPDEST PUSH32 0x4E487B7100000000000000000000000000000000000000000000000000000000 PUSH0 MSTORE PUSH1 0x22 PUSH1 0x4 MSTORE PUSH1 0x24 PUSH0 REVERT JUMPDEST PUSH0 PUSH1 0x2 DUP3 DIV SWAP1 POP PUSH1 0x1 DUP3 AND DUP1 PUSH2 0x9A4 JUMPI PUSH1 0x7F DUP3 AND SWAP2 POP JUMPDEST PUSH1 0x20 DUP3 LT DUP2 SUB PUSH2 0x9B7 JUMPI PUSH2 0x9B6 PUSH2 0x960 JUMP JUMPDEST JUMPDEST POP SWAP2 SWAP1 POP JUMP JUMPDEST PUSH0 DUP2 SWAP1 POP DUP2 PUSH0 MSTORE PUSH1 0x20 PUSH0 KECCAK256 SWAP1 POP SWAP2 SWAP1 POP JUMP JUMPDEST PUSH0 PUSH1 0x20 PUSH1 0x1F DUP4 ADD DIV SWAP1 POP SWAP2 SWAP1 POP JUMP JUMPDEST PUSH0 DUP3 DUP3 SHL SWAP1 POP SWAP3 SWAP2 POP POP JUMP JUMPDEST PUSH0 PUSH1 0x8 DUP4 MUL PUSH2 0xA19 PUSH32 0xFFFFFFFFFFFFFFFFFFFFFFFFFFFFFFFFFFFFFFFFFFFFFFFFFFFFFFFFFFFFFFFF DUP3 PUSH2 0x9DE JUMP JUMPDEST PUSH2 0xA23 DUP7 DUP4 PUSH2 0x9DE JUMP JUMPDEST SWAP6 POP DUP1 NOT DUP5 AND SWAP4 POP DUP1 DUP7 AND DUP5 OR SWAP3 POP POP POP SWAP4 SWAP3 POP POP POP JUMP JUMPDEST PUSH0 DUP2 SWAP1 POP SWAP2 SWAP1 POP JUMP JUMPDEST PUSH0 DUP2 SWAP1 POP SWAP2 SWAP1 POP JUMP JUMPDEST PUSH0 PUSH2 0xA67 PUSH2 0xA62 PUSH2 0xA5D DUP5 PUSH2 0xA3B JUMP JUMPDEST PUSH2 0xA44 JUMP JUMPDEST PUSH2 0xA3B JUMP JUMPDEST SWAP1 POP SWAP2 SWAP1 POP JUMP JUMPDEST PUSH0 DUP2 SWAP1 POP SWAP2 SWAP1 POP JUMP JUMPDEST PUSH2 0xA80 DUP4 PUSH2 0xA4D JUMP JUMPDEST PUSH2 0xA94 PUSH2 0xA8C DUP3 PUSH2 0xA6E JUMP JUMPDEST DUP5 DUP5 SLOAD PUSH2 0x9EA JUMP JUMPDEST DUP3 SSTORE POP POP POP POP JUMP JUMPDEST PUSH0 PUSH0 SWAP1 POP SWAP1 JUMP JUMPDEST PUSH2 0xAAB PUSH2 0xA9C JUMP JUMPDEST PUSH2 0xAB6 DUP2 DUP5 DUP5 PUSH2 0xA77 JUMP JUMPDEST POP POP POP JUMP JUMPDEST JUMPDEST DUP2 DUP2 LT ISZERO PUSH2 0xAD9 JUMPI PUSH2 0xACE PUSH0 DUP3 PUSH2 0xAA3 JUMP JUMPDEST PUSH1 0x1 DUP2 ADD SWAP1 POP PUSH2 0xABC JUMP JUMPDEST POP POP JUMP JUMPDEST PUSH1 0x1F DUP3 GT ISZERO PUSH2 0xB1E JUMPI PUSH2 0xAEF DUP2 PUSH2 0x9BD JUMP JUMPDEST PUSH2 0xAF8 DUP5 PUSH2 0x9CF JUMP JUMPDEST DUP2 ADD PUSH1 0x20 DUP6 LT ISZERO PUSH2 0xB07 JUMPI DUP2 SWAP1 POP JUMPDEST PUSH2 0xB1B PUSH2 0xB13 DUP6 PUSH2 0x9CF JUMP JUMPDEST DUP4 ADD DUP3 PUSH2 0xABB JUMP JUMPDEST POP POP JUMPDEST POP POP POP JUMP JUMPDEST PUSH0 DUP3 DUP3 SHR SWAP1 POP SWAP3 SWAP2 POP POP JUMP JUMPDEST PUSH0 PUSH2 0xB3E PUSH0 NOT DUP5 PUSH1 0x8 MUL PUSH2 0xB23 JUMP JUMPDEST NOT DUP1 DUP4 AND SWAP2 POP POP SWAP3 SWAP2 POP POP JUMP JUMPDEST PUSH0 PUSH2 0xB56 DUP4 DUP4 PUSH2 0xB2F JUMP JUMPDEST SWAP2 POP DUP3 PUSH1 0x2 MUL DUP3 OR SWAP1 POP SWAP3 SWAP2 POP POP JUMP JUMPDEST PUSH2 0xB6F DUP3 PUSH2 0x7F4 JUMP JUMPDEST PUSH8 0xFFFFFFFFFFFFFFFF DUP2 GT ISZERO PUSH2 0xB88 JUMPI PUSH2 0xB87 PUSH2 0x5E1 JUMP JUMPDEST JUMPDEST PUSH2 0xB92 DUP3 SLOAD PUSH2 0x98D JUMP JUMPDEST PUSH2 0xB9D DUP3 DUP3 DUP6 PUSH2 0xADD JUMP JUMPDEST PUSH0 PUSH1 0x20 SWAP1 POP PUSH1 0x1F DUP4 GT PUSH1 0x1 DUP2 EQ PUSH2 0xBCE JUMPI PUSH0 DUP5 ISZERO PUSH2 0xBBC JUMPI DUP3 DUP8 ADD MLOAD SWAP1 POP JUMPDEST PUSH2 0xBC6 DUP6 DUP3 PUSH2 0xB4B JUMP JUMPDEST DUP7 SSTORE POP PUSH2 0xC2D JUMP JUMPDEST PUSH1 0x1F NOT DUP5 AND PUSH2 0xBDC DUP7 PUSH2 0x9BD JUMP JUMPDEST PUSH0 JUMPDEST DUP3 DUP2 LT ISZERO PUSH2 0xC03 JUMPI DUP5 DUP10 ADD MLOAD DUP3 SSTORE PUSH1 0x1 DUP3 ADD SWAP2 POP PUSH1 0x20 DUP6 ADD SWAP5 POP PUSH1 0x20 DUP2 ADD SWAP1 POP PUSH2 0xBDE JUMP JUMPDEST DUP7 DUP4 LT ISZERO PUSH2 0xC20 JUMPI DUP5 DUP10 ADD MLOAD PUSH2 0xC1C PUSH1 0x1F DUP10 AND DUP3 PUSH2 0xB2F JUMP JUMPDEST DUP4 SSTORE POP JUMPDEST PUSH1 0x1 PUSH1 0x2 DUP9 MUL ADD DUP9 SSTORE POP POP POP JUMPDEST POP POP POP POP POP POP JUMP INVALID LOG2 PUSH5 0x6970667358 0x22 SLT KECCAK256 0x1E PUSH17 0x7D2F2E244AAAD6CC7222F7E4A58EBC5371 PUSH6 0x61183156422F 0xE3 0xC6 0xFB 0xF6 SWAP6 NOT PUSH5 0x736F6C6343 STOP ADDMOD SHR STOP CALLER "
		},
		"gasEstimates": {
			"creation": {
				"codeDepositCost": "635800",
				"executionCost": "668",
				"totalCost": "636468"
			},
			"external": {
				"employe()": "infinite",
				"getEmplyeeDetails()": "infinite",
				"payEmployee()": "infinite",
				"setEmployeeDetails(string,string,string,uint16)": "infinite"
			}
		},
		"methodIdentifiers": {
			"employe()": "c97bdf8e",
			"getEmplyeeDetails()": "d8ebe4e5",
			"payEmployee()": "dca36b9a",
			"setEmployeeDetails(string,string,string,uint16)": "c36cd943"
		}
	},
	"abi": [
		{
			"inputs": [],
			"name": "employe",
			"outputs": [
				{
					"internalType": "string",
					"name": "name",
					"type": "string"
				},
				{
					"internalType": "string",
					"name": "department",
					"type": "string"
				},
				{
					"internalType": "string",
					"name": "designation",
					"type": "string"
				},
				{
					"internalType": "uint16",
					"name": "salary",
					"type": "uint16"
				},
				{
					"internalType": "address",
					"name": "wallet",
					"type": "address"
				}
			],
			"stateMutability": "view",
			"type": "function"
		},
		{
			"inputs": [],
			"name": "getEmplyeeDetails",
			"outputs": [
				{
					"internalType": "string",
					"name": "",
					"type": "string"
				},
				{
					"internalType": "string",
					"name": "",
					"type": "string"
				},
				{
					"internalType": "string",
					"name": "",
					"type": "string"
				},
				{
					"internalType": "uint16",
					"name": "",
					"type": "uint16"
				}
			],
			"stateMutability": "view",
			"type": "function"
		},
		{
			"inputs": [],
			"name": "payEmployee",
			"outputs": [],
			"stateMutability": "payable",
			"type": "function"
		},
		{
			"inputs": [
				{
					"internalType": "string",
					"name": "_name",
					"type": "string"
				},
				{
					"internalType": "string",
					"name": "_depatment",
					"type": "string"
				},
				{
					"internalType": "string",
					"name": "_designation",
					"type": "string"
				},
				{
					"internalType": "uint16",
					"name": "_salary",
					"type": "uint16"
				}
			],
			"name": "setEmployeeDetails",
			"outputs": [],
			"stateMutability": "nonpayable",
			"type": "function"
		}
	]
}