{
	"data": {
		"bytecode": {
			"linkReferences": {},
			"object": "60806040525f6002553480156012575f5ffd5b50335f5f6101000a81548173ffffffffffffffffffffffffffffffffffffffff021916908373ffffffffffffffffffffffffffffffffffffffff160217905550610ceb8061005f5f395ff3fe608060405234801561000f575f5ffd5b5060043610610055575f3560e01c806335f34232146100595780634efc63301461008d57806356460a5b146100a957806386a9b364146100c5578063fe6674bf146100f9575b5f5ffd5b610073600480360381019061006e9190610594565b610117565b60405161008495949392919061063e565b60405180910390f35b6100a760048036038101906100a291906107c9565b610255565b005b6100c360048036038101906100be9190610823565b610293565b005b6100df60048036038101906100da9190610594565b610398565b6040516100f09594939291906108d2565b60405180910390f35b61010161052c565b60405161010e9190610970565b60405180910390f35b6001602052805f5260405f205f91509050805f018054610136906109b6565b80601f0160208091040260200160405190810160405280929190818152602001828054610162906109b6565b80156101ad5780601f10610184576101008083540402835291602001916101ad565b820191905f5260205f20905b81548152906001019060200180831161019057829003601f168201915b5050505050908060010154908060020154908060030180546101ce906109b6565b80601f01602080910402602001604051908101604052809291908181526020018280546101fa906109b6565b80156102455780601f1061021c57610100808354040283529160200191610245565b820191905f5260205f20905b81548152906001019060200180831161022857829003601f168201915b5050505050908060040154905085565b8160015f8481526020019081526020015f20600101819055508060015f8481526020019081526020015f205f01908161028e9190610b86565b505050565b5f5f9054906101000a900473ffffffffffffffffffffffffffffffffffffffff1673ffffffffffffffffffffffffffffffffffffffff163373ffffffffffffffffffffffffffffffffffffffff16146102ea575f5ffd5b8360015f8681526020019081526020015f20600101819055508460015f8681526020019081526020015f205f0190816103239190610b86565b508160015f8681526020019081526020015f20600201819055508260015f8681526020019081526020015f20600301908161035e9190610b86565b508060015f8681526020019081526020015f2060040181905550600160025f82825461038a9190610c82565b925050819055505050505050565b5f60605f60605f60015f8781526020019081526020015f206001015460015f8881526020019081526020015f205f0160015f8981526020019081526020015f206002015460015f8a81526020019081526020015f2060030160015f8b81526020019081526020015f2060040154838054610411906109b6565b80601f016020809104026020016040519081016040528092919081815260200182805461043d906109b6565b80156104885780601f1061045f57610100808354040283529160200191610488565b820191905f5260205f20905b81548152906001019060200180831161046b57829003601f168201915b5050505050935081805461049b906109b6565b80601f01602080910402602001604051908101604052809291908181526020018280546104c7906109b6565b80156105125780601f106104e957610100808354040283529160200191610512565b820191905f5260205f20905b8154815290600101906020018083116104f557829003601f168201915b505050505091509450945094509450945091939590929450565b5f5f9054906101000a900473ffffffffffffffffffffffffffffffffffffffff1681565b5f604051905090565b5f5ffd5b5f5ffd5b5f819050919050565b61057381610561565b811461057d575f5ffd5b50565b5f8135905061058e8161056a565b92915050565b5f602082840312156105a9576105a8610559565b5b5f6105b684828501610580565b91505092915050565b5f81519050919050565b5f82825260208201905092915050565b8281835e5f83830152505050565b5f601f19601f8301169050919050565b5f610601826105bf565b61060b81856105c9565b935061061b8185602086016105d9565b610624816105e7565b840191505092915050565b61063881610561565b82525050565b5f60a0820190508181035f83015261065681886105f7565b9050610665602083018761062f565b610672604083018661062f565b818103606083015261068481856105f7565b9050610693608083018461062f565b9695505050505050565b5f5ffd5b5f5ffd5b7f4e487b71000000000000000000000000000000000000000000000000000000005f52604160045260245ffd5b6106db826105e7565b810181811067ffffffffffffffff821117156106fa576106f96106a5565b5b80604052505050565b5f61070c610550565b905061071882826106d2565b919050565b5f67ffffffffffffffff821115610737576107366106a5565b5b610740826105e7565b9050602081019050919050565b828183375f83830152505050565b5f61076d6107688461071d565b610703565b905082815260208101848484011115610789576107886106a1565b5b61079484828561074d565b509392505050565b5f82601f8301126107b0576107af61069d565b5b81356107c084826020860161075b565b91505092915050565b5f5f604083850312156107df576107de610559565b5b5f6107ec85828601610580565b925050602083013567ffffffffffffffff81111561080d5761080c61055d565b5b6108198582860161079c565b9150509250929050565b5f5f5f5f5f60a0868803121561083c5761083b610559565b5b5f86013567ffffffffffffffff8111156108595761085861055d565b5b6108658882890161079c565b955050602061087688828901610580565b945050604086013567ffffffffffffffff8111156108975761089661055d565b5b6108a38882890161079c565b93505060606108b488828901610580565b92505060806108c588828901610580565b9150509295509295909350565b5f60a0820190506108e55f83018861062f565b81810360208301526108f781876105f7565b9050610906604083018661062f565b818103606083015261091881856105f7565b9050610927608083018461062f565b9695505050505050565b5f73ffffffffffffffffffffffffffffffffffffffff82169050919050565b5f61095a82610931565b9050919050565b61096a81610950565b82525050565b5f6020820190506109835f830184610961565b92915050565b7f4e487b71000000000000000000000000000000000000000000000000000000005f52602260045260245ffd5b5f60028204905060018216806109cd57607f821691505b6020821081036109e0576109df610989565b5b50919050565b5f819050815f5260205f209050919050565b5f6020601f8301049050919050565b5f82821b905092915050565b5f60088302610a427fffffffffffffffffffffffffffffffffffffffffffffffffffffffffffffffff82610a07565b610a4c8683610a07565b95508019841693508086168417925050509392505050565b5f819050919050565b5f610a87610a82610a7d84610561565b610a64565b610561565b9050919050565b5f819050919050565b610aa083610a6d565b610ab4610aac82610a8e565b848454610a13565b825550505050565b5f5f905090565b610acb610abc565b610ad6818484610a97565b505050565b5b81811015610af957610aee5f82610ac3565b600181019050610adc565b5050565b601f821115610b3e57610b0f816109e6565b610b18846109f8565b81016020851015610b27578190505b610b3b610b33856109f8565b830182610adb565b50505b505050565b5f82821c905092915050565b5f610b5e5f1984600802610b43565b1980831691505092915050565b5f610b768383610b4f565b9150826002028217905092915050565b610b8f826105bf565b67ffffffffffffffff811115610ba857610ba76106a5565b5b610bb282546109b6565b610bbd828285610afd565b5f60209050601f831160018114610bee575f8415610bdc578287015190505b610be68582610b6b565b865550610c4d565b601f198416610bfc866109e6565b5f5b82811015610c2357848901518255600182019150602085019450602081019050610bfe565b86831015610c405784890151610c3c601f891682610b4f565b8355505b6001600288020188555050505b505050505050565b7f4e487b71000000000000000000000000000000000000000000000000000000005f52601160045260245ffd5b5f610c8c82610561565b9150610c9783610561565b9250828201905080821115610caf57610cae610c55565b5b9291505056fea264697066735822122049fe8ecc0dda404e63f9cb6572a89373303f3f67bdad43b9a035fefba04c01a764736f6c634300081c0033",
			"opcodes": "PUSH1 0x80 PUSH1 0x40 MSTORE PUSH0 PUSH1 0x2 SSTORE CALLVALUE DUP1 ISZERO PUSH1 0x12 JUMPI PUSH0 PUSH0 REVERT JUMPDEST POP CALLER PUSH0 PUSH0 PUSH2 0x100 EXP DUP2 SLOAD DUP2 PUSH20 0xFFFFFFFFFFFFFFFFFFFFFFFFFFFFFFFFFFFFFFFF MUL NOT AND SWAP1 DUP4 PUSH20 0xFFFFFFFFFFFFFFFFFFFFFFFFFFFFFFFFFFFFFFFF AND MUL OR SWAP1 SSTORE POP PUSH2 0xCEB DUP1 PUSH2 0x5F PUSH0 CODECOPY PUSH0 RETURN INVALID PUSH1 0x80 PUSH1 0x40 MSTORE CALLVALUE DUP1 ISZERO PUSH2 0xF JUMPI PUSH0 PUSH0 REVERT JUMPDEST POP PUSH1 0x4 CALLDATASIZE LT PUSH2 0x55 JUMPI PUSH0 CALLDATALOAD PUSH1 0xE0 SHR DUP1 PUSH4 0x35F34232 EQ PUSH2 0x59 JUMPI DUP1 PUSH4 0x4EFC6330 EQ PUSH2 0x8D JUMPI DUP1 PUSH4 0x56460A5B EQ PUSH2 0xA9 JUMPI DUP1 PUSH4 0x86A9B364 EQ PUSH2 0xC5 JUMPI DUP1 PUSH4 0xFE6674BF EQ PUSH2 0xF9 JUMPI JUMPDEST PUSH0 PUSH0 REVERT JUMPDEST PUSH2 0x73 PUSH1 0x4 DUP1 CALLDATASIZE SUB DUP2 ADD SWAP1 PUSH2 0x6E SWAP2 SWAP1 PUSH2 0x594 JUMP JUMPDEST PUSH2 0x117 JUMP JUMPDEST PUSH1 0x40 MLOAD PUSH2 0x84 SWAP6 SWAP5 SWAP4 SWAP3 SWAP2 SWAP1 PUSH2 0x63E JUMP JUMPDEST PUSH1 0x40 MLOAD DUP1 SWAP2 SUB SWAP1 RETURN JUMPDEST PUSH2 0xA7 PUSH1 0x4 DUP1 CALLDATASIZE SUB DUP2 ADD SWAP1 PUSH2 0xA2 SWAP2 SWAP1 PUSH2 0x7C9 JUMP JUMPDEST PUSH2 0x255 JUMP JUMPDEST STOP JUMPDEST PUSH2 0xC3 PUSH1 0x4 DUP1 CALLDATASIZE SUB DUP2 ADD SWAP1 PUSH2 0xBE SWAP2 SWAP1 PUSH2 0x823 JUMP JUMPDEST PUSH2 0x293 JUMP JUMPDEST STOP JUMPDEST PUSH2 0xDF PUSH1 0x4 DUP1 CALLDATASIZE SUB DUP2 ADD SWAP1 PUSH2 0xDA SWAP2 SWAP1 PUSH2 0x594 JUMP JUMPDEST PUSH2 0x398 JUMP JUMPDEST PUSH1 0x40 MLOAD PUSH2 0xF0 SWAP6 SWAP5 SWAP4 SWAP3 SWAP2 SWAP1 PUSH2 0x8D2 JUMP JUMPDEST PUSH1 0x40 MLOAD DUP1 SWAP2 SUB SWAP1 RETURN JUMPDEST PUSH2 0x101 PUSH2 0x52C JUMP JUMPDEST PUSH1 0x40 MLOAD PUSH2 0x10E SWAP2 SWAP1 PUSH2 0x970 JUMP JUMPDEST PUSH1 0x40 MLOAD DUP1 SWAP2 SUB SWAP1 RETURN JUMPDEST PUSH1 0x1 PUSH1 0x20 MSTORE DUP1 PUSH0 MSTORE PUSH1 0x40 PUSH0 KECCAK256 PUSH0 SWAP2 POP SWAP1 POP DUP1 PUSH0 ADD DUP1 SLOAD PUSH2 0x136 SWAP1 PUSH2 0x9B6 JUMP JUMPDEST DUP1 PUSH1 0x1F ADD PUSH1 0x20 DUP1 SWAP2 DIV MUL PUSH1 0x20 ADD PUSH1 0x40 MLOAD SWAP1 DUP2 ADD PUSH1 0x40 MSTORE DUP1 SWAP3 SWAP2 SWAP1 DUP2 DUP2 MSTORE PUSH1 0x20 ADD DUP3 DUP1 SLOAD PUSH2 0x162 SWAP1 PUSH2 0x9B6 JUMP JUMPDEST DUP1 ISZERO PUSH2 0x1AD JUMPI DUP1 PUSH1 0x1F LT PUSH2 0x184 JUMPI PUSH2 0x100 DUP1 DUP4 SLOAD DIV MUL DUP4 MSTORE SWAP2 PUSH1 0x20 ADD SWAP2 PUSH2 0x1AD JUMP JUMPDEST DUP3 ADD SWAP2 SWAP1 PUSH0 MSTORE PUSH1 0x20 PUSH0 KECCAK256 SWAP1 JUMPDEST DUP2 SLOAD DUP2 MSTORE SWAP1 PUSH1 0x1 ADD SWAP1 PUSH1 0x20 ADD DUP1 DUP4 GT PUSH2 0x190 JUMPI DUP3 SWAP1 SUB PUSH1 0x1F AND DUP3 ADD SWAP2 JUMPDEST POP POP POP POP POP SWAP1 DUP1 PUSH1 0x1 ADD SLOAD SWAP1 DUP1 PUSH1 0x2 ADD SLOAD SWAP1 DUP1 PUSH1 0x3 ADD DUP1 SLOAD PUSH2 0x1CE SWAP1 PUSH2 0x9B6 JUMP JUMPDEST DUP1 PUSH1 0x1F ADD PUSH1 0x20 DUP1 SWAP2 DIV MUL PUSH1 0x20 ADD PUSH1 0x40 MLOAD SWAP1 DUP2 ADD PUSH1 0x40 MSTORE DUP1 SWAP3 SWAP2 SWAP1 DUP2 DUP2 MSTORE PUSH1 0x20 ADD DUP3 DUP1 SLOAD PUSH2 0x1FA SWAP1 PUSH2 0x9B6 JUMP JUMPDEST DUP1 ISZERO PUSH2 0x245 JUMPI DUP1 PUSH1 0x1F LT PUSH2 0x21C JUMPI PUSH2 0x100 DUP1 DUP4 SLOAD DIV MUL DUP4 MSTORE SWAP2 PUSH1 0x20 ADD SWAP2 PUSH2 0x245 JUMP JUMPDEST DUP3 ADD SWAP2 SWAP1 PUSH0 MSTORE PUSH1 0x20 PUSH0 KECCAK256 SWAP1 JUMPDEST DUP2 SLOAD DUP2 MSTORE SWAP1 PUSH1 0x1 ADD SWAP1 PUSH1 0x20 ADD DUP1 DUP4 GT PUSH2 0x228 JUMPI DUP3 SWAP1 SUB PUSH1 0x1F AND DUP3 ADD SWAP2 JUMPDEST POP POP POP POP POP SWAP1 DUP1 PUSH1 0x4 ADD SLOAD SWAP1 POP DUP6 JUMP JUMPDEST DUP2 PUSH1 0x1 PUSH0 DUP5 DUP2 MSTORE PUSH1 0x20 ADD SWAP1 DUP2 MSTORE PUSH1 0x20 ADD PUSH0 KECCAK256 PUSH1 0x1 ADD DUP2 SWAP1 SSTORE POP DUP1 PUSH1 0x1 PUSH0 DUP5 DUP2 MSTORE PUSH1 0x20 ADD SWAP1 DUP2 MSTORE PUSH1 0x20 ADD PUSH0 KECCAK256 PUSH0 ADD SWAP1 DUP2 PUSH2 0x28E SWAP2 SWAP1 PUSH2 0xB86 JUMP JUMPDEST POP POP POP JUMP JUMPDEST PUSH0 PUSH0 SWAP1 SLOAD SWAP1 PUSH2 0x100 EXP SWAP1 DIV PUSH20 0xFFFFFFFFFFFFFFFFFFFFFFFFFFFFFFFFFFFFFFFF AND PUSH20 0xFFFFFFFFFFFFFFFFFFFFFFFFFFFFFFFFFFFFFFFF AND CALLER PUSH20 0xFFFFFFFFFFFFFFFFFFFFFFFFFFFFFFFFFFFFFFFF AND EQ PUSH2 0x2EA JUMPI PUSH0 PUSH0 REVERT JUMPDEST DUP4 PUSH1 0x1 PUSH0 DUP7 DUP2 MSTORE PUSH1 0x20 ADD SWAP1 DUP2 MSTORE PUSH1 0x20 ADD PUSH0 KECCAK256 PUSH1 0x1 ADD DUP2 SWAP1 SSTORE POP DUP5 PUSH1 0x1 PUSH0 DUP7 DUP2 MSTORE PUSH1 0x20 ADD SWAP1 DUP2 MSTORE PUSH1 0x20 ADD PUSH0 KECCAK256 PUSH0 ADD SWAP1 DUP2 PUSH2 0x323 SWAP2 SWAP1 PUSH2 0xB86 JUMP JUMPDEST POP DUP2 PUSH1 0x1 PUSH0 DUP7 DUP2 MSTORE PUSH1 0x20 ADD SWAP1 DUP2 MSTORE PUSH1 0x20 ADD PUSH0 KECCAK256 PUSH1 0x2 ADD DUP2 SWAP1 SSTORE POP DUP3 PUSH1 0x1 PUSH0 DUP7 DUP2 MSTORE PUSH1 0x20 ADD SWAP1 DUP2 MSTORE PUSH1 0x20 ADD PUSH0 KECCAK256 PUSH1 0x3 ADD SWAP1 DUP2 PUSH2 0x35E SWAP2 SWAP1 PUSH2 0xB86 JUMP JUMPDEST POP DUP1 PUSH1 0x1 PUSH0 DUP7 DUP2 MSTORE PUSH1 0x20 ADD SWAP1 DUP2 MSTORE PUSH1 0x20 ADD PUSH0 KECCAK256 PUSH1 0x4 ADD DUP2 SWAP1 SSTORE POP PUSH1 0x1 PUSH1 0x2 PUSH0 DUP3 DUP3 SLOAD PUSH2 0x38A SWAP2 SWAP1 PUSH2 0xC82 JUMP JUMPDEST SWAP3 POP POP DUP2 SWAP1 SSTORE POP POP POP POP POP POP JUMP JUMPDEST PUSH0 PUSH1 0x60 PUSH0 PUSH1 0x60 PUSH0 PUSH1 0x1 PUSH0 DUP8 DUP2 MSTORE PUSH1 0x20 ADD SWAP1 DUP2 MSTORE PUSH1 0x20 ADD PUSH0 KECCAK256 PUSH1 0x1 ADD SLOAD PUSH1 0x1 PUSH0 DUP9 DUP2 MSTORE PUSH1 0x20 ADD SWAP1 DUP2 MSTORE PUSH1 0x20 ADD PUSH0 KECCAK256 PUSH0 ADD PUSH1 0x1 PUSH0 DUP10 DUP2 MSTORE PUSH1 0x20 ADD SWAP1 DUP2 MSTORE PUSH1 0x20 ADD PUSH0 KECCAK256 PUSH1 0x2 ADD SLOAD PUSH1 0x1 PUSH0 DUP11 DUP2 MSTORE PUSH1 0x20 ADD SWAP1 DUP2 MSTORE PUSH1 0x20 ADD PUSH0 KECCAK256 PUSH1 0x3 ADD PUSH1 0x1 PUSH0 DUP12 DUP2 MSTORE PUSH1 0x20 ADD SWAP1 DUP2 MSTORE PUSH1 0x20 ADD PUSH0 KECCAK256 PUSH1 0x4 ADD SLOAD DUP4 DUP1 SLOAD PUSH2 0x411 SWAP1 PUSH2 0x9B6 JUMP JUMPDEST DUP1 PUSH1 0x1F ADD PUSH1 0x20 DUP1 SWAP2 DIV MUL PUSH1 0x20 ADD PUSH1 0x40 MLOAD SWAP1 DUP2 ADD PUSH1 0x40 MSTORE DUP1 SWAP3 SWAP2 SWAP1 DUP2 DUP2 MSTORE PUSH1 0x20 ADD DUP3 DUP1 SLOAD PUSH2 0x43D SWAP1 PUSH2 0x9B6 JUMP JUMPDEST DUP1 ISZERO PUSH2 0x488 JUMPI DUP1 PUSH1 0x1F LT PUSH2 0x45F JUMPI PUSH2 0x100 DUP1 DUP4 SLOAD DIV MUL DUP4 MSTORE SWAP2 PUSH1 0x20 ADD SWAP2 PUSH2 0x488 JUMP JUMPDEST DUP3 ADD SWAP2 SWAP1 PUSH0 MSTORE PUSH1 0x20 PUSH0 KECCAK256 SWAP1 JUMPDEST DUP2 SLOAD DUP2 MSTORE SWAP1 PUSH1 0x1 ADD SWAP1 PUSH1 0x20 ADD DUP1 DUP4 GT PUSH2 0x46B JUMPI DUP3 SWAP1 SUB PUSH1 0x1F AND DUP3 ADD SWAP2 JUMPDEST POP POP POP POP POP SWAP4 POP DUP2 DUP1 SLOAD PUSH2 0x49B SWAP1 PUSH2 0x9B6 JUMP JUMPDEST DUP1 PUSH1 0x1F ADD PUSH1 0x20 DUP1 SWAP2 DIV MUL PUSH1 0x20 ADD PUSH1 0x40 MLOAD SWAP1 DUP2 ADD PUSH1 0x40 MSTORE DUP1 SWAP3 SWAP2 SWAP1 DUP2 DUP2 MSTORE PUSH1 0x20 ADD DUP3 DUP1 SLOAD PUSH2 0x4C7 SWAP1 PUSH2 0x9B6 JUMP JUMPDEST DUP1 ISZERO PUSH2 0x512 JUMPI DUP1 PUSH1 0x1F LT PUSH2 0x4E9 JUMPI PUSH2 0x100 DUP1 DUP4 SLOAD DIV MUL DUP4 MSTORE SWAP2 PUSH1 0x20 ADD SWAP2 PUSH2 0x512 JUMP JUMPDEST DUP3 ADD SWAP2 SWAP1 PUSH0 MSTORE PUSH1 0x20 PUSH0 KECCAK256 SWAP1 JUMPDEST DUP2 SLOAD DUP2 MSTORE SWAP1 PUSH1 0x1 ADD SWAP1 PUSH1 0x20 ADD DUP1 DUP4 GT PUSH2 0x4F5 JUMPI DUP3 SWAP1 SUB PUSH1 0x1F AND DUP3 ADD SWAP2 JUMPDEST POP POP POP POP POP SWAP2 POP SWAP5 POP SWAP5 POP SWAP5 POP SWAP5 POP SWAP5 POP SWAP2 SWAP4 SWAP6 SWAP1 SWAP3 SWAP5 POP JUMP JUMPDEST PUSH0 PUSH0 SWAP1 SLOAD SWAP1 PUSH2 0x100 EXP SWAP1 DIV PUSH20 0xFFFFFFFFFFFFFFFFFFFFFFFFFFFFFFFFFFFFFFFF AND DUP2 JUMP JUMPDEST PUSH0 PUSH1 0x40 MLOAD SWAP1 POP SWAP1 JUMP JUMPDEST PUSH0 PUSH0 REVERT JUMPDEST PUSH0 PUSH0 REVERT JUMPDEST PUSH0 DUP2 SWAP1 POP SWAP2 SWAP1 POP JUMP JUMPDEST PUSH2 0x573 DUP2 PUSH2 0x561 JUMP JUMPDEST DUP2 EQ PUSH2 0x57D JUMPI PUSH0 PUSH0 REVERT JUMPDEST POP JUMP JUMPDEST PUSH0 DUP2 CALLDATALOAD SWAP1 POP PUSH2 0x58E DUP2 PUSH2 0x56A JUMP JUMPDEST SWAP3 SWAP2 POP POP JUMP JUMPDEST PUSH0 PUSH1 0x20 DUP3 DUP5 SUB SLT ISZERO PUSH2 0x5A9 JUMPI PUSH2 0x5A8 PUSH2 0x559 JUMP JUMPDEST JUMPDEST PUSH0 PUSH2 0x5B6 DUP5 DUP3 DUP6 ADD PUSH2 0x580 JUMP JUMPDEST SWAP2 POP POP SWAP3 SWAP2 POP POP JUMP JUMPDEST PUSH0 DUP2 MLOAD SWAP1 POP SWAP2 SWAP1 POP JUMP JUMPDEST PUSH0 DUP3 DUP3 MSTORE PUSH1 0x20 DUP3 ADD SWAP1 POP SWAP3 SWAP2 POP POP JUMP JUMPDEST DUP3 DUP2 DUP4 MCOPY PUSH0 DUP4 DUP4 ADD MSTORE POP POP POP JUMP JUMPDEST PUSH0 PUSH1 0x1F NOT PUSH1 0x1F DUP4 ADD AND SWAP1 POP SWAP2 SWAP1 POP JUMP JUMPDEST PUSH0 PUSH2 0x601 DUP3 PUSH2 0x5BF JUMP JUMPDEST PUSH2 0x60B DUP2 DUP6 PUSH2 0x5C9 JUMP JUMPDEST SWAP4 POP PUSH2 0x61B DUP2 DUP6 PUSH1 0x20 DUP7 ADD PUSH2 0x5D9 JUMP JUMPDEST PUSH2 0x624 DUP2 PUSH2 0x5E7 JUMP JUMPDEST DUP5 ADD SWAP2 POP POP SWAP3 SWAP2 POP POP JUMP JUMPDEST PUSH2 0x638 DUP2 PUSH2 0x561 JUMP JUMPDEST DUP3 MSTORE POP POP JUMP JUMPDEST PUSH0 PUSH1 0xA0 DUP3 ADD SWAP1 POP DUP2 DUP2 SUB PUSH0 DUP4 ADD MSTORE PUSH2 0x656 DUP2 DUP9 PUSH2 0x5F7 JUMP JUMPDEST SWAP1 POP PUSH2 0x665 PUSH1 0x20 DUP4 ADD DUP8 PUSH2 0x62F JUMP JUMPDEST PUSH2 0x672 PUSH1 0x40 DUP4 ADD DUP7 PUSH2 0x62F JUMP JUMPDEST DUP2 DUP2 SUB PUSH1 0x60 DUP4 ADD MSTORE PUSH2 0x684 DUP2 DUP6 PUSH2 0x5F7 JUMP JUMPDEST SWAP1 POP PUSH2 0x693 PUSH1 0x80 DUP4 ADD DUP5 PUSH2 0x62F JUMP JUMPDEST SWAP7 SWAP6 POP POP POP POP POP POP JUMP JUMPDEST PUSH0 PUSH0 REVERT JUMPDEST PUSH0 PUSH0 REVERT JUMPDEST PUSH32 0x4E487B7100000000000000000000000000000000000000000000000000000000 PUSH0 MSTORE PUSH1 0x41 PUSH1 0x4 MSTORE PUSH1 0x24 PUSH0 REVERT JUMPDEST PUSH2 0x6DB DUP3 PUSH2 0x5E7 JUMP JUMPDEST DUP2 ADD DUP2 DUP2 LT PUSH8 0xFFFFFFFFFFFFFFFF DUP3 GT OR ISZERO PUSH2 0x6FA JUMPI PUSH2 0x6F9 PUSH2 0x6A5 JUMP JUMPDEST JUMPDEST DUP1 PUSH1 0x40 MSTORE POP POP POP JUMP JUMPDEST PUSH0 PUSH2 0x70C PUSH2 0x550 JUMP JUMPDEST SWAP1 POP PUSH2 0x718 DUP3 DUP3 PUSH2 0x6D2 JUMP JUMPDEST SWAP2 SWAP1 POP JUMP JUMPDEST PUSH0 PUSH8 0xFFFFFFFFFFFFFFFF DUP3 GT ISZERO PUSH2 0x737 JUMPI PUSH2 0x736 PUSH2 0x6A5 JUMP JUMPDEST JUMPDEST PUSH2 0x740 DUP3 PUSH2 0x5E7 JUMP JUMPDEST SWAP1 POP PUSH1 0x20 DUP2 ADD SWAP1 POP SWAP2 SWAP1 POP JUMP JUMPDEST DUP3 DUP2 DUP4 CALLDATACOPY PUSH0 DUP4 DUP4 ADD MSTORE POP POP POP JUMP JUMPDEST PUSH0 PUSH2 0x76D PUSH2 0x768 DUP5 PUSH2 0x71D JUMP JUMPDEST PUSH2 0x703 JUMP JUMPDEST SWAP1 POP DUP3 DUP2 MSTORE PUSH1 0x20 DUP2 ADD DUP5 DUP5 DUP5 ADD GT ISZERO PUSH2 0x789 JUMPI PUSH2 0x788 PUSH2 0x6A1 JUMP JUMPDEST JUMPDEST PUSH2 0x794 DUP5 DUP3 DUP6 PUSH2 0x74D JUMP JUMPDEST POP SWAP4 SWAP3 POP POP POP JUMP JUMPDEST PUSH0 DUP3 PUSH1 0x1F DUP4 ADD SLT PUSH2 0x7B0 JUMPI PUSH2 0x7AF PUSH2 0x69D JUMP JUMPDEST JUMPDEST DUP2 CALLDATALOAD PUSH2 0x7C0 DUP5 DUP3 PUSH1 0x20 DUP7 ADD PUSH2 0x75B JUMP JUMPDEST SWAP2 POP POP SWAP3 SWAP2 POP POP JUMP JUMPDEST PUSH0 PUSH0 PUSH1 0x40 DUP4 DUP6 SUB SLT ISZERO PUSH2 0x7DF JUMPI PUSH2 0x7DE PUSH2 0x559 JUMP JUMPDEST JUMPDEST PUSH0 PUSH2 0x7EC DUP6 DUP3 DUP7 ADD PUSH2 0x580 JUMP JUMPDEST SWAP3 POP POP PUSH1 0x20 DUP4 ADD CALLDATALOAD PUSH8 0xFFFFFFFFFFFFFFFF DUP2 GT ISZERO PUSH2 0x80D JUMPI PUSH2 0x80C PUSH2 0x55D JUMP JUMPDEST JUMPDEST PUSH2 0x819 DUP6 DUP3 DUP7 ADD PUSH2 0x79C JUMP JUMPDEST SWAP2 POP POP SWAP3 POP SWAP3 SWAP1 POP JUMP JUMPDEST PUSH0 PUSH0 PUSH0 PUSH0 PUSH0 PUSH1 0xA0 DUP7 DUP9 SUB SLT ISZERO PUSH2 0x83C JUMPI PUSH2 0x83B PUSH2 0x559 JUMP JUMPDEST JUMPDEST PUSH0 DUP7 ADD CALLDATALOAD PUSH8 0xFFFFFFFFFFFFFFFF DUP2 GT ISZERO PUSH2 0x859 JUMPI PUSH2 0x858 PUSH2 0x55D JUMP JUMPDEST JUMPDEST PUSH2 0x865 DUP9 DUP3 DUP10 ADD PUSH2 0x79C JUMP JUMPDEST SWAP6 POP POP PUSH1 0x20 PUSH2 0x876 DUP9 DUP3 DUP10 ADD PUSH2 0x580 JUMP JUMPDEST SWAP5 POP POP PUSH1 0x40 DUP7 ADD CALLDATALOAD PUSH8 0xFFFFFFFFFFFFFFFF DUP2 GT ISZERO PUSH2 0x897 JUMPI PUSH2 0x896 PUSH2 0x55D JUMP JUMPDEST JUMPDEST PUSH2 0x8A3 DUP9 DUP3 DUP10 ADD PUSH2 0x79C JUMP JUMPDEST SWAP4 POP POP PUSH1 0x60 PUSH2 0x8B4 DUP9 DUP3 DUP10 ADD PUSH2 0x580 JUMP JUMPDEST SWAP3 POP POP PUSH1 0x80 PUSH2 0x8C5 DUP9 DUP3 DUP10 ADD PUSH2 0x580 JUMP JUMPDEST SWAP2 POP POP SWAP3 SWAP6 POP SWAP3 SWAP6 SWAP1 SWAP4 POP JUMP JUMPDEST PUSH0 PUSH1 0xA0 DUP3 ADD SWAP1 POP PUSH2 0x8E5 PUSH0 DUP4 ADD DUP9 PUSH2 0x62F JUMP JUMPDEST DUP2 DUP2 SUB PUSH1 0x20 DUP4 ADD MSTORE PUSH2 0x8F7 DUP2 DUP8 PUSH2 0x5F7 JUMP JUMPDEST SWAP1 POP PUSH2 0x906 PUSH1 0x40 DUP4 ADD DUP7 PUSH2 0x62F JUMP JUMPDEST DUP2 DUP2 SUB PUSH1 0x60 DUP4 ADD MSTORE PUSH2 0x918 DUP2 DUP6 PUSH2 0x5F7 JUMP JUMPDEST SWAP1 POP PUSH2 0x927 PUSH1 0x80 DUP4 ADD DUP5 PUSH2 0x62F JUMP JUMPDEST SWAP7 SWAP6 POP POP POP POP POP POP JUMP JUMPDEST PUSH0 PUSH20 0xFFFFFFFFFFFFFFFFFFFFFFFFFFFFFFFFFFFFFFFF DUP3 AND SWAP1 POP SWAP2 SWAP1 POP JUMP JUMPDEST PUSH0 PUSH2 0x95A DUP3 PUSH2 0x931 JUMP JUMPDEST SWAP1 POP SWAP2 SWAP1 POP JUMP JUMPDEST PUSH2 0x96A DUP2 PUSH2 0x950 JUMP JUMPDEST DUP3 MSTORE POP POP JUMP JUMPDEST PUSH0 PUSH1 0x20 DUP3 ADD SWAP1 POP PUSH2 0x983 PUSH0 DUP4 ADD DUP5 PUSH2 0x961 JUMP JUMPDEST SWAP3 SWAP2 POP POP JUMP JUMPDEST PUSH32 0x4E487B7100000000000000000000000000000000000000000000000000000000 PUSH0 MSTORE PUSH1 0x22 PUSH1 0x4 MSTORE PUSH1 0x24 PUSH0 REVERT JUMPDEST PUSH0 PUSH1 0x2 DUP3 DIV SWAP1 POP PUSH1 0x1 DUP3 AND DUP1 PUSH2 0x9CD JUMPI PUSH1 0x7F DUP3 AND SWAP2 POP JUMPDEST PUSH1 0x20 DUP3 LT DUP2 SUB PUSH2 0x9E0 JUMPI PUSH2 0x9DF PUSH2 0x989 JUMP JUMPDEST JUMPDEST POP SWAP2 SWAP1 POP JUMP JUMPDEST PUSH0 DUP2 SWAP1 POP DUP2 PUSH0 MSTORE PUSH1 0x20 PUSH0 KECCAK256 SWAP1 POP SWAP2 SWAP1 POP JUMP JUMPDEST PUSH0 PUSH1 0x20 PUSH1 0x1F DUP4 ADD DIV SWAP1 POP SWAP2 SWAP1 POP JUMP JUMPDEST PUSH0 DUP3 DUP3 SHL SWAP1 POP SWAP3 SWAP2 POP POP JUMP JUMPDEST PUSH0 PUSH1 0x8 DUP4 MUL PUSH2 0xA42 PUSH32 0xFFFFFFFFFFFFFFFFFFFFFFFFFFFFFFFFFFFFFFFFFFFFFFFFFFFFFFFFFFFFFFFF DUP3 PUSH2 0xA07 JUMP JUMPDEST PUSH2 0xA4C DUP7 DUP4 PUSH2 0xA07 JUMP JUMPDEST SWAP6 POP DUP1 NOT DUP5 AND SWAP4 POP DUP1 DUP7 AND DUP5 OR SWAP3 POP POP POP SWAP4 SWAP3 POP POP POP JUMP JUMPDEST PUSH0 DUP2 SWAP1 POP SWAP2 SWAP1 POP JUMP JUMPDEST PUSH0 PUSH2 0xA87 PUSH2 0xA82 PUSH2 0xA7D DUP5 PUSH2 0x561 JUMP JUMPDEST PUSH2 0xA64 JUMP JUMPDEST PUSH2 0x561 JUMP JUMPDEST SWAP1 POP SWAP2 SWAP1 POP JUMP JUMPDEST PUSH0 DUP2 SWAP1 POP SWAP2 SWAP1 POP JUMP JUMPDEST PUSH2 0xAA0 DUP4 PUSH2 0xA6D JUMP JUMPDEST PUSH2 0xAB4 PUSH2 0xAAC DUP3 PUSH2 0xA8E JUMP JUMPDEST DUP5 DUP5 SLOAD PUSH2 0xA13 JUMP JUMPDEST DUP3 SSTORE POP POP POP POP JUMP JUMPDEST PUSH0 PUSH0 SWAP1 POP SWAP1 JUMP JUMPDEST PUSH2 0xACB PUSH2 0xABC JUMP JUMPDEST PUSH2 0xAD6 DUP2 DUP5 DUP5 PUSH2 0xA97 JUMP JUMPDEST POP POP POP JUMP JUMPDEST JUMPDEST DUP2 DUP2 LT ISZERO PUSH2 0xAF9 JUMPI PUSH2 0xAEE PUSH0 DUP3 PUSH2 0xAC3 JUMP JUMPDEST PUSH1 0x1 DUP2 ADD SWAP1 POP PUSH2 0xADC JUMP JUMPDEST POP POP JUMP JUMPDEST PUSH1 0x1F DUP3 GT ISZERO PUSH2 0xB3E JUMPI PUSH2 0xB0F DUP2 PUSH2 0x9E6 JUMP JUMPDEST PUSH2 0xB18 DUP5 PUSH2 0x9F8 JUMP JUMPDEST DUP2 ADD PUSH1 0x20 DUP6 LT ISZERO PUSH2 0xB27 JUMPI DUP2 SWAP1 POP JUMPDEST PUSH2 0xB3B PUSH2 0xB33 DUP6 PUSH2 0x9F8 JUMP JUMPDEST DUP4 ADD DUP3 PUSH2 0xADB JUMP JUMPDEST POP POP JUMPDEST POP POP POP JUMP JUMPDEST PUSH0 DUP3 DUP3 SHR SWAP1 POP SWAP3 SWAP2 POP POP JUMP JUMPDEST PUSH0 PUSH2 0xB5E PUSH0 NOT DUP5 PUSH1 0x8 MUL PUSH2 0xB43 JUMP JUMPDEST NOT DUP1 DUP4 AND SWAP2 POP POP SWAP3 SWAP2 POP POP JUMP JUMPDEST PUSH0 PUSH2 0xB76 DUP4 DUP4 PUSH2 0xB4F JUMP JUMPDEST SWAP2 POP DUP3 PUSH1 0x2 MUL DUP3 OR SWAP1 POP SWAP3 SWAP2 POP POP JUMP JUMPDEST PUSH2 0xB8F DUP3 PUSH2 0x5BF JUMP JUMPDEST PUSH8 0xFFFFFFFFFFFFFFFF DUP2 GT ISZERO PUSH2 0xBA8 JUMPI PUSH2 0xBA7 PUSH2 0x6A5 JUMP JUMPDEST JUMPDEST PUSH2 0xBB2 DUP3 SLOAD PUSH2 0x9B6 JUMP JUMPDEST PUSH2 0xBBD DUP3 DUP3 DUP6 PUSH2 0xAFD JUMP JUMPDEST PUSH0 PUSH1 0x20 SWAP1 POP PUSH1 0x1F DUP4 GT PUSH1 0x1 DUP2 EQ PUSH2 0xBEE JUMPI PUSH0 DUP5 ISZERO PUSH2 0xBDC JUMPI DUP3 DUP8 ADD MLOAD SWAP1 POP JUMPDEST PUSH2 0xBE6 DUP6 DUP3 PUSH2 0xB6B JUMP JUMPDEST DUP7 SSTORE POP PUSH2 0xC4D JUMP JUMPDEST PUSH1 0x1F NOT DUP5 AND PUSH2 0xBFC DUP7 PUSH2 0x9E6 JUMP JUMPDEST PUSH0 JUMPDEST DUP3 DUP2 LT ISZERO PUSH2 0xC23 JUMPI DUP5 DUP10 ADD MLOAD DUP3 SSTORE PUSH1 0x1 DUP3 ADD SWAP2 POP PUSH1 0x20 DUP6 ADD SWAP5 POP PUSH1 0x20 DUP2 ADD SWAP1 POP PUSH2 0xBFE JUMP JUMPDEST DUP7 DUP4 LT ISZERO PUSH2 0xC40 JUMPI DUP5 DUP10 ADD MLOAD PUSH2 0xC3C PUSH1 0x1F DUP10 AND DUP3 PUSH2 0xB4F JUMP JUMPDEST DUP4 SSTORE POP JUMPDEST PUSH1 0x1 PUSH1 0x2 DUP9 MUL ADD DUP9 SSTORE POP POP POP JUMPDEST POP POP POP POP POP POP JUMP JUMPDEST PUSH32 0x4E487B7100000000000000000000000000000000000000000000000000000000 PUSH0 MSTORE PUSH1 0x11 PUSH1 0x4 MSTORE PUSH1 0x24 PUSH0 REVERT JUMPDEST PUSH0 PUSH2 0xC8C DUP3 PUSH2 0x561 JUMP JUMPDEST SWAP2 POP PUSH2 0xC97 DUP4 PUSH2 0x561 JUMP JUMPDEST SWAP3 POP DUP3 DUP3 ADD SWAP1 POP DUP1 DUP3 GT ISZERO PUSH2 0xCAF JUMPI PUSH2 0xCAE PUSH2 0xC55 JUMP JUMPDEST JUMPDEST SWAP3 SWAP2 POP POP JUMP INVALID LOG2 PUSH5 0x6970667358 0x22 SLT KECCAK256 BLOBHASH INVALID DUP15 0xCC 0xD 0xDA BLOCKHASH 0x4E PUSH4 0xF9CB6572 0xA8 SWAP4 PUSH20 0x303F3F67BDAD43B9A035FEFBA04C01A764736F6C PUSH4 0x4300081C STOP CALLER "
		},
		"gasEstimates": {
			"creation": {
				"codeDepositCost": "661400",
				"executionCost": "29963",
				"totalCost": "691363"
			},
			"external": {
				"getStudentDetails(uint256)": "infinite",
				"setNewname(uint256,string)": "infinite",
				"setStudentDetails(string,uint256,string,uint256,uint256)": "infinite",
				"staffadvisor()": "2573",
				"student(uint256)": "infinite"
			}
		},
		"methodIdentifiers": {
			"getStudentDetails(uint256)": "86a9b364",
			"setNewname(uint256,string)": "4efc6330",
			"setStudentDetails(string,uint256,string,uint256,uint256)": "56460a5b",
			"staffadvisor()": "fe6674bf",
			"student(uint256)": "35f34232"
		}
	},
	"abi": [
		{
			"inputs": [],
			"stateMutability": "nonpayable",
			"type": "constructor"
		},
		{
			"inputs": [
				{
					"internalType": "uint256",
					"name": "_rollNo",
					"type": "uint256"
				}
			],
			"name": "getStudentDetails",
			"outputs": [
				{
					"internalType": "uint256",
					"name": "",
					"type": "uint256"
				},
				{
					"internalType": "string",
					"name": "",
					"type": "string"
				},
				{
					"internalType": "uint256",
					"name": "",
					"type": "uint256"
				},
				{
					"internalType": "string",
					"name": "",
					"type": "string"
				},
				{
					"internalType": "uint256",
					"name": "",
					"type": "uint256"
				}
			],
			"stateMutability": "view",
			"type": "function"
		},
		{
			"inputs": [
				{
					"internalType": "uint256",
					"name": "_rollNo",
					"type": "uint256"
				},
				{
					"internalType": "string",
					"name": "_newName",
					"type": "string"
				}
			],
			"name": "setNewname",
			"outputs": [],
			"stateMutability": "nonpayable",
			"type": "function"
		},
		{
			"inputs": [
				{
					"internalType": "string",
					"name": "_name",
					"type": "string"
				},
				{
					"internalType": "uint256",
					"name": "_rollNo",
					"type": "uint256"
				},
				{
					"internalType": "string",
					"name": "_dept",
					"type": "string"
				},
				{
					"internalType": "uint256",
					"name": "_sem",
					"type": "uint256"
				},
				{
					"internalType": "uint256",
					"name": "_cgpa",
					"type": "uint256"
				}
			],
			"name": "setStudentDetails",
			"outputs": [],
			"stateMutability": "nonpayable",
			"type": "function"
		},
		{
			"inputs": [],
			"name": "staffadvisor",
			"outputs": [
				{
					"internalType": "address",
					"name": "",
					"type": "address"
				}
			],
			"stateMutability": "view",
			"type": "function"
		},
		{
			"inputs": [
				{
					"internalType": "uint256",
					"name": "",
					"type": "uint256"
				}
			],
			"name": "student",
			"outputs": [
				{
					"internalType": "string",
					"name": "name",
					"type": "string"
				},
				{
					"internalType": "uint256",
					"name": "rollNo",
					"type": "uint256"
				},
				{
					"internalType": "uint256",
					"name": "sem",
					"type": "uint256"
				},
				{
					"internalType": "string",
					"name": "dept",
					"type": "string"
				},
				{
					"internalType": "uint256",
					"name": "cgpa",
					"type": "uint256"
				}
			],
			"stateMutability": "view",
			"type": "function"
		}
	]
}