{
	"data": {
		"bytecode": {
			"linkReferences": {},
			"object": "6080604052348015600e575f5ffd5b50610a358061001c5f395ff3fe608060405234801561000f575f5ffd5b506004361061003f575f3560e01c806356460a5b14610043578063699450e81461005f578063bc65865914610082575b5f5ffd5b61005d60048036038101906100589190610569565b6100a5565b005b61006761012c565b604051610079969594939291906106c6565b60405180910390f35b61008a61027f565b60405161009c969594939291906106c6565b60405180910390f35b845f5f0190816100b59190610930565b50835f60010181905550825f60020190816100d09190610930565b50815f60030181905550805f60040181905550335f6005015f6101000a81548173ffffffffffffffffffffffffffffffffffffffff021916908373ffffffffffffffffffffffffffffffffffffffff1602179055505050505050565b5f805f01805461013b90610760565b80601f016020809104026020016040519081016040528092919081815260200182805461016790610760565b80156101b25780601f10610189576101008083540402835291602001916101b2565b820191905f5260205f20905b81548152906001019060200180831161019557829003601f168201915b5050505050908060010154908060020180546101cd90610760565b80601f01602080910402602001604051908101604052809291908181526020018280546101f990610760565b80156102445780601f1061021b57610100808354040283529160200191610244565b820191905f5260205f20905b81548152906001019060200180831161022757829003601f168201915b505050505090806003015490806004015490806005015f9054906101000a900473ffffffffffffffffffffffffffffffffffffffff16905086565b60605f60605f5f5f5f5f015f600101545f6002015f600301545f600401545f6005015f9054906101000a900473ffffffffffffffffffffffffffffffffffffffff168580546102cd90610760565b80601f01602080910402602001604051908101604052809291908181526020018280546102f990610760565b80156103445780601f1061031b57610100808354040283529160200191610344565b820191905f5260205f20905b81548152906001019060200180831161032757829003601f168201915b5050505050955083805461035790610760565b80601f016020809104026020016040519081016040528092919081815260200182805461038390610760565b80156103ce5780601f106103a5576101008083540402835291602001916103ce565b820191905f5260205f20905b8154815290600101906020018083116103b157829003601f168201915b50505050509350955095509550955095509550909192939495565b5f604051905090565b5f5ffd5b5f5ffd5b5f5ffd5b5f5ffd5b5f601f19601f8301169050919050565b7f4e487b71000000000000000000000000000000000000000000000000000000005f52604160045260245ffd5b61044882610402565b810181811067ffffffffffffffff8211171561046757610466610412565b5b80604052505050565b5f6104796103e9565b9050610485828261043f565b919050565b5f67ffffffffffffffff8211156104a4576104a3610412565b5b6104ad82610402565b9050602081019050919050565b828183375f83830152505050565b5f6104da6104d58461048a565b610470565b9050828152602081018484840111156104f6576104f56103fe565b5b6105018482856104ba565b509392505050565b5f82601f83011261051d5761051c6103fa565b5b813561052d8482602086016104c8565b91505092915050565b5f819050919050565b61054881610536565b8114610552575f5ffd5b50565b5f813590506105638161053f565b92915050565b5f5f5f5f5f60a08688031215610582576105816103f2565b5b5f86013567ffffffffffffffff81111561059f5761059e6103f6565b5b6105ab88828901610509565b95505060206105bc88828901610555565b945050604086013567ffffffffffffffff8111156105dd576105dc6103f6565b5b6105e988828901610509565b93505060606105fa88828901610555565b925050608061060b88828901610555565b9150509295509295909350565b5f81519050919050565b5f82825260208201905092915050565b8281835e5f83830152505050565b5f61064a82610618565b6106548185610622565b9350610664818560208601610632565b61066d81610402565b840191505092915050565b61068181610536565b82525050565b5f73ffffffffffffffffffffffffffffffffffffffff82169050919050565b5f6106b082610687565b9050919050565b6106c0816106a6565b82525050565b5f60c0820190508181035f8301526106de8189610640565b90506106ed6020830188610678565b81810360408301526106ff8187610640565b905061070e6060830186610678565b61071b6080830185610678565b61072860a08301846106b7565b979650505050505050565b7f4e487b71000000000000000000000000000000000000000000000000000000005f52602260045260245ffd5b5f600282049050600182168061077757607f821691505b60208210810361078a57610789610733565b5b50919050565b5f819050815f5260205f209050919050565b5f6020601f8301049050919050565b5f82821b905092915050565b5f600883026107ec7fffffffffffffffffffffffffffffffffffffffffffffffffffffffffffffffff826107b1565b6107f686836107b1565b95508019841693508086168417925050509392505050565b5f819050919050565b5f61083161082c61082784610536565b61080e565b610536565b9050919050565b5f819050919050565b61084a83610817565b61085e61085682610838565b8484546107bd565b825550505050565b5f5f905090565b610875610866565b610880818484610841565b505050565b5b818110156108a3576108985f8261086d565b600181019050610886565b5050565b601f8211156108e8576108b981610790565b6108c2846107a2565b810160208510156108d1578190505b6108e56108dd856107a2565b830182610885565b50505b505050565b5f82821c905092915050565b5f6109085f19846008026108ed565b1980831691505092915050565b5f61092083836108f9565b9150826002028217905092915050565b61093982610618565b67ffffffffffffffff81111561095257610951610412565b5b61095c8254610760565b6109678282856108a7565b5f60209050601f831160018114610998575f8415610986578287015190505b6109908582610915565b8655506109f7565b601f1984166109a686610790565b5f5b828110156109cd578489015182556001820191506020850194506020810190506109a8565b868310156109ea57848901516109e6601f8916826108f9565b8355505b6001600288020188555050505b50505050505056fea2646970667358221220fc6c5b86797bc2adb644632c6c7e164808218e175876ac79dd32ef8ff92fdefb64736f6c634300081c0033",
			"opcodes": "PUSH1 0x80 PUSH1 0x40 MSTORE CALLVALUE DUP1 ISZERO PUSH1 0xE JUMPI PUSH0 PUSH0 REVERT JUMPDEST POP PUSH2 0xA35 DUP1 PUSH2 0x1C PUSH0 CODECOPY PUSH0 RETURN INVALID PUSH1 0x80 PUSH1 0x40 MSTORE CALLVALUE DUP1 ISZERO PUSH2 0xF JUMPI PUSH0 PUSH0 REVERT JUMPDEST POP PUSH1 0x4 CALLDATASIZE LT PUSH2 0x3F JUMPI PUSH0 CALLDATALOAD PUSH1 0xE0 SHR DUP1 PUSH4 0x56460A5B EQ PUSH2 0x43 JUMPI DUP1 PUSH4 0x699450E8 EQ PUSH2 0x5F JUMPI DUP1 PUSH4 0xBC658659 EQ PUSH2 0x82 JUMPI JUMPDEST PUSH0 PUSH0 REVERT JUMPDEST PUSH2 0x5D PUSH1 0x4 DUP1 CALLDATASIZE SUB DUP2 ADD SWAP1 PUSH2 0x58 SWAP2 SWAP1 PUSH2 0x569 JUMP JUMPDEST PUSH2 0xA5 JUMP JUMPDEST STOP JUMPDEST PUSH2 0x67 PUSH2 0x12C JUMP JUMPDEST PUSH1 0x40 MLOAD PUSH2 0x79 SWAP7 SWAP6 SWAP5 SWAP4 SWAP3 SWAP2 SWAP1 PUSH2 0x6C6 JUMP JUMPDEST PUSH1 0x40 MLOAD DUP1 SWAP2 SUB SWAP1 RETURN JUMPDEST PUSH2 0x8A PUSH2 0x27F JUMP JUMPDEST PUSH1 0x40 MLOAD PUSH2 0x9C SWAP7 SWAP6 SWAP5 SWAP4 SWAP3 SWAP2 SWAP1 PUSH2 0x6C6 JUMP JUMPDEST PUSH1 0x40 MLOAD DUP1 SWAP2 SUB SWAP1 RETURN JUMPDEST DUP5 PUSH0 PUSH0 ADD SWAP1 DUP2 PUSH2 0xB5 SWAP2 SWAP1 PUSH2 0x930 JUMP JUMPDEST POP DUP4 PUSH0 PUSH1 0x1 ADD DUP2 SWAP1 SSTORE POP DUP3 PUSH0 PUSH1 0x2 ADD SWAP1 DUP2 PUSH2 0xD0 SWAP2 SWAP1 PUSH2 0x930 JUMP JUMPDEST POP DUP2 PUSH0 PUSH1 0x3 ADD DUP2 SWAP1 SSTORE POP DUP1 PUSH0 PUSH1 0x4 ADD DUP2 SWAP1 SSTORE POP CALLER PUSH0 PUSH1 0x5 ADD PUSH0 PUSH2 0x100 EXP DUP2 SLOAD DUP2 PUSH20 0xFFFFFFFFFFFFFFFFFFFFFFFFFFFFFFFFFFFFFFFF MUL NOT AND SWAP1 DUP4 PUSH20 0xFFFFFFFFFFFFFFFFFFFFFFFFFFFFFFFFFFFFFFFF AND MUL OR SWAP1 SSTORE POP POP POP POP POP POP JUMP JUMPDEST PUSH0 DUP1 PUSH0 ADD DUP1 SLOAD PUSH2 0x13B SWAP1 PUSH2 0x760 JUMP JUMPDEST DUP1 PUSH1 0x1F ADD PUSH1 0x20 DUP1 SWAP2 DIV MUL PUSH1 0x20 ADD PUSH1 0x40 MLOAD SWAP1 DUP2 ADD PUSH1 0x40 MSTORE DUP1 SWAP3 SWAP2 SWAP1 DUP2 DUP2 MSTORE PUSH1 0x20 ADD DUP3 DUP1 SLOAD PUSH2 0x167 SWAP1 PUSH2 0x760 JUMP JUMPDEST DUP1 ISZERO PUSH2 0x1B2 JUMPI DUP1 PUSH1 0x1F LT PUSH2 0x189 JUMPI PUSH2 0x100 DUP1 DUP4 SLOAD DIV MUL DUP4 MSTORE SWAP2 PUSH1 0x20 ADD SWAP2 PUSH2 0x1B2 JUMP JUMPDEST DUP3 ADD SWAP2 SWAP1 PUSH0 MSTORE PUSH1 0x20 PUSH0 KECCAK256 SWAP1 JUMPDEST DUP2 SLOAD DUP2 MSTORE SWAP1 PUSH1 0x1 ADD SWAP1 PUSH1 0x20 ADD DUP1 DUP4 GT PUSH2 0x195 JUMPI DUP3 SWAP1 SUB PUSH1 0x1F AND DUP3 ADD SWAP2 JUMPDEST POP POP POP POP POP SWAP1 DUP1 PUSH1 0x1 ADD SLOAD SWAP1 DUP1 PUSH1 0x2 ADD DUP1 SLOAD PUSH2 0x1CD SWAP1 PUSH2 0x760 JUMP JUMPDEST DUP1 PUSH1 0x1F ADD PUSH1 0x20 DUP1 SWAP2 DIV MUL PUSH1 0x20 ADD PUSH1 0x40 MLOAD SWAP1 DUP2 ADD PUSH1 0x40 MSTORE DUP1 SWAP3 SWAP2 SWAP1 DUP2 DUP2 MSTORE PUSH1 0x20 ADD DUP3 DUP1 SLOAD PUSH2 0x1F9 SWAP1 PUSH2 0x760 JUMP JUMPDEST DUP1 ISZERO PUSH2 0x244 JUMPI DUP1 PUSH1 0x1F LT PUSH2 0x21B JUMPI PUSH2 0x100 DUP1 DUP4 SLOAD DIV MUL DUP4 MSTORE SWAP2 PUSH1 0x20 ADD SWAP2 PUSH2 0x244 JUMP JUMPDEST DUP3 ADD SWAP2 SWAP1 PUSH0 MSTORE PUSH1 0x20 PUSH0 KECCAK256 SWAP1 JUMPDEST DUP2 SLOAD DUP2 MSTORE SWAP1 PUSH1 0x1 ADD SWAP1 PUSH1 0x20 ADD DUP1 DUP4 GT PUSH2 0x227 JUMPI DUP3 SWAP1 SUB PUSH1 0x1F AND DUP3 ADD SWAP2 JUMPDEST POP POP POP POP POP SWAP1 DUP1 PUSH1 0x3 ADD SLOAD SWAP1 DUP1 PUSH1 0x4 ADD SLOAD SWAP1 DUP1 PUSH1 0x5 ADD PUSH0 SWAP1 SLOAD SWAP1 PUSH2 0x100 EXP SWAP1 DIV PUSH20 0xFFFFFFFFFFFFFFFFFFFFFFFFFFFFFFFFFFFFFFFF AND SWAP1 POP DUP7 JUMP JUMPDEST PUSH1 0x60 PUSH0 PUSH1 0x60 PUSH0 PUSH0 PUSH0 PUSH0 PUSH0 ADD PUSH0 PUSH1 0x1 ADD SLOAD PUSH0 PUSH1 0x2 ADD PUSH0 PUSH1 0x3 ADD SLOAD PUSH0 PUSH1 0x4 ADD SLOAD PUSH0 PUSH1 0x5 ADD PUSH0 SWAP1 SLOAD SWAP1 PUSH2 0x100 EXP SWAP1 DIV PUSH20 0xFFFFFFFFFFFFFFFFFFFFFFFFFFFFFFFFFFFFFFFF AND DUP6 DUP1 SLOAD PUSH2 0x2CD SWAP1 PUSH2 0x760 JUMP JUMPDEST DUP1 PUSH1 0x1F ADD PUSH1 0x20 DUP1 SWAP2 DIV MUL PUSH1 0x20 ADD PUSH1 0x40 MLOAD SWAP1 DUP2 ADD PUSH1 0x40 MSTORE DUP1 SWAP3 SWAP2 SWAP1 DUP2 DUP2 MSTORE PUSH1 0x20 ADD DUP3 DUP1 SLOAD PUSH2 0x2F9 SWAP1 PUSH2 0x760 JUMP JUMPDEST DUP1 ISZERO PUSH2 0x344 JUMPI DUP1 PUSH1 0x1F LT PUSH2 0x31B JUMPI PUSH2 0x100 DUP1 DUP4 SLOAD DIV MUL DUP4 MSTORE SWAP2 PUSH1 0x20 ADD SWAP2 PUSH2 0x344 JUMP JUMPDEST DUP3 ADD SWAP2 SWAP1 PUSH0 MSTORE PUSH1 0x20 PUSH0 KECCAK256 SWAP1 JUMPDEST DUP2 SLOAD DUP2 MSTORE SWAP1 PUSH1 0x1 ADD SWAP1 PUSH1 0x20 ADD DUP1 DUP4 GT PUSH2 0x327 JUMPI DUP3 SWAP1 SUB PUSH1 0x1F AND DUP3 ADD SWAP2 JUMPDEST POP POP POP POP POP SWAP6 POP DUP4 DUP1 SLOAD PUSH2 0x357 SWAP1 PUSH2 0x760 JUMP JUMPDEST DUP1 PUSH1 0x1F ADD PUSH1 0x20 DUP1 SWAP2 DIV MUL PUSH1 0x20 ADD PUSH1 0x40 MLOAD SWAP1 DUP2 ADD PUSH1 0x40 MSTORE DUP1 SWAP3 SWAP2 SWAP1 DUP2 DUP2 MSTORE PUSH1 0x20 ADD DUP3 DUP1 SLOAD PUSH2 0x383 SWAP1 PUSH2 0x760 JUMP JUMPDEST DUP1 ISZERO PUSH2 0x3CE JUMPI DUP1 PUSH1 0x1F LT PUSH2 0x3A5 JUMPI PUSH2 0x100 DUP1 DUP4 SLOAD DIV MUL DUP4 MSTORE SWAP2 PUSH1 0x20 ADD SWAP2 PUSH2 0x3CE JUMP JUMPDEST DUP3 ADD SWAP2 SWAP1 PUSH0 MSTORE PUSH1 0x20 PUSH0 KECCAK256 SWAP1 JUMPDEST DUP2 SLOAD DUP2 MSTORE SWAP1 PUSH1 0x1 ADD SWAP1 PUSH1 0x20 ADD DUP1 DUP4 GT PUSH2 0x3B1 JUMPI DUP3 SWAP1 SUB PUSH1 0x1F AND DUP3 ADD SWAP2 JUMPDEST POP POP POP POP POP SWAP4 POP SWAP6 POP SWAP6 POP SWAP6 POP SWAP6 POP SWAP6 POP SWAP6 POP SWAP1 SWAP2 SWAP3 SWAP4 SWAP5 SWAP6 JUMP JUMPDEST PUSH0 PUSH1 0x40 MLOAD SWAP1 POP SWAP1 JUMP JUMPDEST PUSH0 PUSH0 REVERT JUMPDEST PUSH0 PUSH0 REVERT JUMPDEST PUSH0 PUSH0 REVERT JUMPDEST PUSH0 PUSH0 REVERT JUMPDEST PUSH0 PUSH1 0x1F NOT PUSH1 0x1F DUP4 ADD AND SWAP1 POP SWAP2 SWAP1 POP JUMP JUMPDEST PUSH32 0x4E487B7100000000000000000000000000000000000000000000000000000000 PUSH0 MSTORE PUSH1 0x41 PUSH1 0x4 MSTORE PUSH1 0x24 PUSH0 REVERT JUMPDEST PUSH2 0x448 DUP3 PUSH2 0x402 JUMP JUMPDEST DUP2 ADD DUP2 DUP2 LT PUSH8 0xFFFFFFFFFFFFFFFF DUP3 GT OR ISZERO PUSH2 0x467 JUMPI PUSH2 0x466 PUSH2 0x412 JUMP JUMPDEST JUMPDEST DUP1 PUSH1 0x40 MSTORE POP POP POP JUMP JUMPDEST PUSH0 PUSH2 0x479 PUSH2 0x3E9 JUMP JUMPDEST SWAP1 POP PUSH2 0x485 DUP3 DUP3 PUSH2 0x43F JUMP JUMPDEST SWAP2 SWAP1 POP JUMP JUMPDEST PUSH0 PUSH8 0xFFFFFFFFFFFFFFFF DUP3 GT ISZERO PUSH2 0x4A4 JUMPI PUSH2 0x4A3 PUSH2 0x412 JUMP JUMPDEST JUMPDEST PUSH2 0x4AD DUP3 PUSH2 0x402 JUMP JUMPDEST SWAP1 POP PUSH1 0x20 DUP2 ADD SWAP1 POP SWAP2 SWAP1 POP JUMP JUMPDEST DUP3 DUP2 DUP4 CALLDATACOPY PUSH0 DUP4 DUP4 ADD MSTORE POP POP POP JUMP JUMPDEST PUSH0 PUSH2 0x4DA PUSH2 0x4D5 DUP5 PUSH2 0x48A JUMP JUMPDEST PUSH2 0x470 JUMP JUMPDEST SWAP1 POP DUP3 DUP2 MSTORE PUSH1 0x20 DUP2 ADD DUP5 DUP5 DUP5 ADD GT ISZERO PUSH2 0x4F6 JUMPI PUSH2 0x4F5 PUSH2 0x3FE JUMP JUMPDEST JUMPDEST PUSH2 0x501 DUP5 DUP3 DUP6 PUSH2 0x4BA JUMP JUMPDEST POP SWAP4 SWAP3 POP POP POP JUMP JUMPDEST PUSH0 DUP3 PUSH1 0x1F DUP4 ADD SLT PUSH2 0x51D JUMPI PUSH2 0x51C PUSH2 0x3FA JUMP JUMPDEST JUMPDEST DUP2 CALLDATALOAD PUSH2 0x52D DUP5 DUP3 PUSH1 0x20 DUP7 ADD PUSH2 0x4C8 JUMP JUMPDEST SWAP2 POP POP SWAP3 SWAP2 POP POP JUMP JUMPDEST PUSH0 DUP2 SWAP1 POP SWAP2 SWAP1 POP JUMP JUMPDEST PUSH2 0x548 DUP2 PUSH2 0x536 JUMP JUMPDEST DUP2 EQ PUSH2 0x552 JUMPI PUSH0 PUSH0 REVERT JUMPDEST POP JUMP JUMPDEST PUSH0 DUP2 CALLDATALOAD SWAP1 POP PUSH2 0x563 DUP2 PUSH2 0x53F JUMP JUMPDEST SWAP3 SWAP2 POP POP JUMP JUMPDEST PUSH0 PUSH0 PUSH0 PUSH0 PUSH0 PUSH1 0xA0 DUP7 DUP9 SUB SLT ISZERO PUSH2 0x582 JUMPI PUSH2 0x581 PUSH2 0x3F2 JUMP JUMPDEST JUMPDEST PUSH0 DUP7 ADD CALLDATALOAD PUSH8 0xFFFFFFFFFFFFFFFF DUP2 GT ISZERO PUSH2 0x59F JUMPI PUSH2 0x59E PUSH2 0x3F6 JUMP JUMPDEST JUMPDEST PUSH2 0x5AB DUP9 DUP3 DUP10 ADD PUSH2 0x509 JUMP JUMPDEST SWAP6 POP POP PUSH1 0x20 PUSH2 0x5BC DUP9 DUP3 DUP10 ADD PUSH2 0x555 JUMP JUMPDEST SWAP5 POP POP PUSH1 0x40 DUP7 ADD CALLDATALOAD PUSH8 0xFFFFFFFFFFFFFFFF DUP2 GT ISZERO PUSH2 0x5DD JUMPI PUSH2 0x5DC PUSH2 0x3F6 JUMP JUMPDEST JUMPDEST PUSH2 0x5E9 DUP9 DUP3 DUP10 ADD PUSH2 0x509 JUMP JUMPDEST SWAP4 POP POP PUSH1 0x60 PUSH2 0x5FA DUP9 DUP3 DUP10 ADD PUSH2 0x555 JUMP JUMPDEST SWAP3 POP POP PUSH1 0x80 PUSH2 0x60B DUP9 DUP3 DUP10 ADD PUSH2 0x555 JUMP JUMPDEST SWAP2 POP POP SWAP3 SWAP6 POP SWAP3 SWAP6 SWAP1 SWAP4 POP JUMP JUMPDEST PUSH0 DUP2 MLOAD SWAP1 POP SWAP2 SWAP1 POP JUMP JUMPDEST PUSH0 DUP3 DUP3 MSTORE PUSH1 0x20 DUP3 ADD SWAP1 POP SWAP3 SWAP2 POP POP JUMP JUMPDEST DUP3 DUP2 DUP4 MCOPY PUSH0 DUP4 DUP4 ADD MSTORE POP POP POP JUMP JUMPDEST PUSH0 PUSH2 0x64A DUP3 PUSH2 0x618 JUMP JUMPDEST PUSH2 0x654 DUP2 DUP6 PUSH2 0x622 JUMP JUMPDEST SWAP4 POP PUSH2 0x664 DUP2 DUP6 PUSH1 0x20 DUP7 ADD PUSH2 0x632 JUMP JUMPDEST PUSH2 0x66D DUP2 PUSH2 0x402 JUMP JUMPDEST DUP5 ADD SWAP2 POP POP SWAP3 SWAP2 POP POP JUMP JUMPDEST PUSH2 0x681 DUP2 PUSH2 0x536 JUMP JUMPDEST DUP3 MSTORE POP POP JUMP JUMPDEST PUSH0 PUSH20 0xFFFFFFFFFFFFFFFFFFFFFFFFFFFFFFFFFFFFFFFF DUP3 AND SWAP1 POP SWAP2 SWAP1 POP JUMP JUMPDEST PUSH0 PUSH2 0x6B0 DUP3 PUSH2 0x687 JUMP JUMPDEST SWAP1 POP SWAP2 SWAP1 POP JUMP JUMPDEST PUSH2 0x6C0 DUP2 PUSH2 0x6A6 JUMP JUMPDEST DUP3 MSTORE POP POP JUMP JUMPDEST PUSH0 PUSH1 0xC0 DUP3 ADD SWAP1 POP DUP2 DUP2 SUB PUSH0 DUP4 ADD MSTORE PUSH2 0x6DE DUP2 DUP10 PUSH2 0x640 JUMP JUMPDEST SWAP1 POP PUSH2 0x6ED PUSH1 0x20 DUP4 ADD DUP9 PUSH2 0x678 JUMP JUMPDEST DUP2 DUP2 SUB PUSH1 0x40 DUP4 ADD MSTORE PUSH2 0x6FF DUP2 DUP8 PUSH2 0x640 JUMP JUMPDEST SWAP1 POP PUSH2 0x70E PUSH1 0x60 DUP4 ADD DUP7 PUSH2 0x678 JUMP JUMPDEST PUSH2 0x71B PUSH1 0x80 DUP4 ADD DUP6 PUSH2 0x678 JUMP JUMPDEST PUSH2 0x728 PUSH1 0xA0 DUP4 ADD DUP5 PUSH2 0x6B7 JUMP JUMPDEST SWAP8 SWAP7 POP POP POP POP POP POP POP JUMP JUMPDEST PUSH32 0x4E487B7100000000000000000000000000000000000000000000000000000000 PUSH0 MSTORE PUSH1 0x22 PUSH1 0x4 MSTORE PUSH1 0x24 PUSH0 REVERT JUMPDEST PUSH0 PUSH1 0x2 DUP3 DIV SWAP1 POP PUSH1 0x1 DUP3 AND DUP1 PUSH2 0x777 JUMPI PUSH1 0x7F DUP3 AND SWAP2 POP JUMPDEST PUSH1 0x20 DUP3 LT DUP2 SUB PUSH2 0x78A JUMPI PUSH2 0x789 PUSH2 0x733 JUMP JUMPDEST JUMPDEST POP SWAP2 SWAP1 POP JUMP JUMPDEST PUSH0 DUP2 SWAP1 POP DUP2 PUSH0 MSTORE PUSH1 0x20 PUSH0 KECCAK256 SWAP1 POP SWAP2 SWAP1 POP JUMP JUMPDEST PUSH0 PUSH1 0x20 PUSH1 0x1F DUP4 ADD DIV SWAP1 POP SWAP2 SWAP1 POP JUMP JUMPDEST PUSH0 DUP3 DUP3 SHL SWAP1 POP SWAP3 SWAP2 POP POP JUMP JUMPDEST PUSH0 PUSH1 0x8 DUP4 MUL PUSH2 0x7EC PUSH32 0xFFFFFFFFFFFFFFFFFFFFFFFFFFFFFFFFFFFFFFFFFFFFFFFFFFFFFFFFFFFFFFFF DUP3 PUSH2 0x7B1 JUMP JUMPDEST PUSH2 0x7F6 DUP7 DUP4 PUSH2 0x7B1 JUMP JUMPDEST SWAP6 POP DUP1 NOT DUP5 AND SWAP4 POP DUP1 DUP7 AND DUP5 OR SWAP3 POP POP POP SWAP4 SWAP3 POP POP POP JUMP JUMPDEST PUSH0 DUP2 SWAP1 POP SWAP2 SWAP1 POP JUMP JUMPDEST PUSH0 PUSH2 0x831 PUSH2 0x82C PUSH2 0x827 DUP5 PUSH2 0x536 JUMP JUMPDEST PUSH2 0x80E JUMP JUMPDEST PUSH2 0x536 JUMP JUMPDEST SWAP1 POP SWAP2 SWAP1 POP JUMP JUMPDEST PUSH0 DUP2 SWAP1 POP SWAP2 SWAP1 POP JUMP JUMPDEST PUSH2 0x84A DUP4 PUSH2 0x817 JUMP JUMPDEST PUSH2 0x85E PUSH2 0x856 DUP3 PUSH2 0x838 JUMP JUMPDEST DUP5 DUP5 SLOAD PUSH2 0x7BD JUMP JUMPDEST DUP3 SSTORE POP POP POP POP JUMP JUMPDEST PUSH0 PUSH0 SWAP1 POP SWAP1 JUMP JUMPDEST PUSH2 0x875 PUSH2 0x866 JUMP JUMPDEST PUSH2 0x880 DUP2 DUP5 DUP5 PUSH2 0x841 JUMP JUMPDEST POP POP POP JUMP JUMPDEST JUMPDEST DUP2 DUP2 LT ISZERO PUSH2 0x8A3 JUMPI PUSH2 0x898 PUSH0 DUP3 PUSH2 0x86D JUMP JUMPDEST PUSH1 0x1 DUP2 ADD SWAP1 POP PUSH2 0x886 JUMP JUMPDEST POP POP JUMP JUMPDEST PUSH1 0x1F DUP3 GT ISZERO PUSH2 0x8E8 JUMPI PUSH2 0x8B9 DUP2 PUSH2 0x790 JUMP JUMPDEST PUSH2 0x8C2 DUP5 PUSH2 0x7A2 JUMP JUMPDEST DUP2 ADD PUSH1 0x20 DUP6 LT ISZERO PUSH2 0x8D1 JUMPI DUP2 SWAP1 POP JUMPDEST PUSH2 0x8E5 PUSH2 0x8DD DUP6 PUSH2 0x7A2 JUMP JUMPDEST DUP4 ADD DUP3 PUSH2 0x885 JUMP JUMPDEST POP POP JUMPDEST POP POP POP JUMP JUMPDEST PUSH0 DUP3 DUP3 SHR SWAP1 POP SWAP3 SWAP2 POP POP JUMP JUMPDEST PUSH0 PUSH2 0x908 PUSH0 NOT DUP5 PUSH1 0x8 MUL PUSH2 0x8ED JUMP JUMPDEST NOT DUP1 DUP4 AND SWAP2 POP POP SWAP3 SWAP2 POP POP JUMP JUMPDEST PUSH0 PUSH2 0x920 DUP4 DUP4 PUSH2 0x8F9 JUMP JUMPDEST SWAP2 POP DUP3 PUSH1 0x2 MUL DUP3 OR SWAP1 POP SWAP3 SWAP2 POP POP JUMP JUMPDEST PUSH2 0x939 DUP3 PUSH2 0x618 JUMP JUMPDEST PUSH8 0xFFFFFFFFFFFFFFFF DUP2 GT ISZERO PUSH2 0x952 JUMPI PUSH2 0x951 PUSH2 0x412 JUMP JUMPDEST JUMPDEST PUSH2 0x95C DUP3 SLOAD PUSH2 0x760 JUMP JUMPDEST PUSH2 0x967 DUP3 DUP3 DUP6 PUSH2 0x8A7 JUMP JUMPDEST PUSH0 PUSH1 0x20 SWAP1 POP PUSH1 0x1F DUP4 GT PUSH1 0x1 DUP2 EQ PUSH2 0x998 JUMPI PUSH0 DUP5 ISZERO PUSH2 0x986 JUMPI DUP3 DUP8 ADD MLOAD SWAP1 POP JUMPDEST PUSH2 0x990 DUP6 DUP3 PUSH2 0x915 JUMP JUMPDEST DUP7 SSTORE POP PUSH2 0x9F7 JUMP JUMPDEST PUSH1 0x1F NOT DUP5 AND PUSH2 0x9A6 DUP7 PUSH2 0x790 JUMP JUMPDEST PUSH0 JUMPDEST DUP3 DUP2 LT ISZERO PUSH2 0x9CD JUMPI DUP5 DUP10 ADD MLOAD DUP3 SSTORE PUSH1 0x1 DUP3 ADD SWAP2 POP PUSH1 0x20 DUP6 ADD SWAP5 POP PUSH1 0x20 DUP2 ADD SWAP1 POP PUSH2 0x9A8 JUMP JUMPDEST DUP7 DUP4 LT ISZERO PUSH2 0x9EA JUMPI DUP5 DUP10 ADD MLOAD PUSH2 0x9E6 PUSH1 0x1F DUP10 AND DUP3 PUSH2 0x8F9 JUMP JUMPDEST DUP4 SSTORE POP JUMPDEST PUSH1 0x1 PUSH1 0x2 DUP9 MUL ADD DUP9 SSTORE POP POP POP JUMPDEST POP POP POP POP POP POP JUMP INVALID LOG2 PUSH5 0x6970667358 0x22 SLT KECCAK256 0xFC PUSH13 0x5B86797BC2ADB644632C6C7E16 BASEFEE ADDMOD 0x21 DUP15 OR PC PUSH23 0xAC79DD32EF8FF92FDEFB64736F6C634300081C00330000 "
		},
		"gasEstimates": {
			"creation": {
				"codeDepositCost": "522600",
				"executionCost": "554",
				"totalCost": "523154"
			},
			"external": {
				"getStudentDetails()": "infinite",
				"setStudentDetails(string,uint256,string,uint256,uint256)": "infinite",
				"student()": "infinite"
			}
		},
		"methodIdentifiers": {
			"getStudentDetails()": "bc658659",
			"setStudentDetails(string,uint256,string,uint256,uint256)": "56460a5b",
			"student()": "699450e8"
		}
	},
	"abi": [
		{
			"inputs": [],
			"name": "getStudentDetails",
			"outputs": [
				{
					"internalType": "string",
					"name": "",
					"type": "string"
				},
				{
					"internalType": "uint256",
					"name": "",
					"type": "uint256"
				},
				{
					"internalType": "string",
					"name": "",
					"type": "string"
				},
				{
					"internalType": "uint256",
					"name": "",
					"type": "uint256"
				},
				{
					"internalType": "uint256",
					"name": "",
					"type": "uint256"
				},
				{
					"internalType": "address",
					"name": "",
					"type": "address"
				}
			],
			"stateMutability": "view",
			"type": "function"
		},
		{
			"inputs": [
				{
					"internalType": "string",
					"name": "_name",
					"type": "string"
				},
				{
					"internalType": "uint256",
					"name": "_rollNo",
					"type": "uint256"
				},
				{
					"internalType": "string",
					"name": "_dept",
					"type": "string"
				},
				{
					"internalType": "uint256",
					"name": "_sem",
					"type": "uint256"
				},
				{
					"internalType": "uint256",
					"name": "_cgpa",
					"type": "uint256"
				}
			],
			"name": "setStudentDetails",
			"outputs": [],
			"stateMutability": "nonpayable",
			"type": "function"
		},
		{
			"inputs": [],
			"name": "student",
			"outputs": [
				{
					"internalType": "string",
					"name": "name",
					"type": "string"
				},
				{
					"internalType": "uint256",
					"name": "rollNo",
					"type": "uint256"
				},
				{
					"internalType": "string",
					"name": "dept",
					"type": "string"
				},
				{
					"internalType": "uint256",
					"name": "sem",
					"type": "uint256"
				},
				{
					"internalType": "uint256",
					"name": "cgpa",
					"type": "uint256"
				},
				{
					"internalType": "address",
					"name": "staffadvisor",
					"type": "address"
				}
			],
			"stateMutability": "view",
			"type": "function"
		}
	]
}